{
  "contractName": "GlobalStorage",
  "abi": [
    {
      "constant": true,
      "inputs": [],
      "name": "counter",
      "outputs": [
        {
          "name": "",
          "type": "uint256"
        }
      ],
      "payable": false,
      "stateMutability": "view",
      "type": "function"
    },
    {
      "constant": true,
      "inputs": [],
      "name": "lastSync",
      "outputs": [
        {
          "name": "",
          "type": "uint256"
        }
      ],
      "payable": false,
      "stateMutability": "view",
      "type": "function"
    },
    {
      "constant": false,
      "inputs": [],
      "name": "init",
      "outputs": [],
      "payable": false,
      "stateMutability": "nonpayable",
      "type": "function"
    },
    {
      "constant": false,
      "inputs": [
        {
          "name": "_accountToWhiteList",
          "type": "address"
        }
      ],
      "name": "_whiteListAddress",
      "outputs": [],
      "payable": false,
      "stateMutability": "nonpayable",
      "type": "function"
    },
    {
      "constant": false,
      "inputs": [
        {
          "name": "_accountToWhiteList",
          "type": "address"
        }
      ],
      "name": "_blackListAddress",
      "outputs": [],
      "payable": false,
      "stateMutability": "nonpayable",
      "type": "function"
    },
    {
      "constant": false,
      "inputs": [
        {
          "name": "_newMaxNumListings",
          "type": "uint256"
        }
      ],
      "name": "_setMaxNumListings",
      "outputs": [],
      "payable": false,
      "stateMutability": "nonpayable",
      "type": "function"
    },
    {
      "constant": true,
      "inputs": [],
      "name": "_getMaxNumListings",
      "outputs": [
        {
          "name": "",
          "type": "uint256"
        }
      ],
      "payable": false,
      "stateMutability": "view",
      "type": "function"
    },
    {
      "constant": true,
      "inputs": [],
      "name": "_getListingCounter",
      "outputs": [
        {
          "name": "",
          "type": "uint256"
        }
      ],
      "payable": false,
      "stateMutability": "view",
      "type": "function"
    },
    {
      "constant": false,
      "inputs": [],
      "name": "updateState",
      "outputs": [],
      "payable": false,
      "stateMutability": "nonpayable",
      "type": "function"
    },
    {
      "constant": false,
      "inputs": [],
      "name": "next",
      "outputs": [],
      "payable": false,
      "stateMutability": "nonpayable",
      "type": "function"
    },
    {
      "constant": true,
      "inputs": [],
      "name": "debug_get0",
      "outputs": [
        {
          "name": "",
          "type": "uint256"
        },
        {
          "name": "",
          "type": "address[10]"
        }
      ],
      "payable": false,
      "stateMutability": "view",
      "type": "function"
    },
    {
      "constant": true,
      "inputs": [],
      "name": "debug_get1",
      "outputs": [
        {
          "name": "",
          "type": "uint256"
        },
        {
          "name": "",
          "type": "address[10]"
        }
      ],
      "payable": false,
      "stateMutability": "view",
      "type": "function"
    },
    {
      "constant": true,
      "inputs": [],
      "name": "debug_getCurrent",
      "outputs": [
        {
          "name": "",
          "type": "uint256"
        },
        {
          "name": "",
          "type": "address[10]"
        }
      ],
      "payable": false,
      "stateMutability": "view",
      "type": "function"
    }
  ],
  "bytecode": "0x608060405234801561001057600080fd5b50611090806100206000396000f3006080604052600436106100c5576000357c0100000000000000000000000000000000000000000000000000000000900463ffffffff1680630b58343a146100ca5780631d8557d7146100f55780634c8fe5261461010c5780635635d7b51461012357806361bc221a1461017d5780636917516b146101a857806398b20e0f146101d3578063a57856d1146101fe578063c40de52e14610258578063c61c28ea14610285578063d4ad420e146102df578063e1c7392a14610322578063e4ad2b9214610339575b600080fd5b3480156100d657600080fd5b506100df61037c565b6040518082815260200191505060405180910390f35b34801561010157600080fd5b5061010a61039b565b005b34801561011857600080fd5b506101216104a8565b005b34801561012f57600080fd5b506101386104bc565b6040518083815260200182600a60200280838360005b8381101561016957808201518184015260208101905061014e565b505050509050019250505060405180910390f35b34801561018957600080fd5b50610192610572565b6040518082815260200191505060405180910390f35b3480156101b457600080fd5b506101bd610578565b6040518082815260200191505060405180910390f35b3480156101df57600080fd5b506101e861057e565b6040518082815260200191505060405180910390f35b34801561020a57600080fd5b5061021361059d565b6040518083815260200182600a60200280838360005b83811015610244578082015181840152602081019050610229565b505050509050019250505060405180910390f35b34801561026457600080fd5b5061028360048036038101908080359060200190929190505050610710565b005b34801561029157600080fd5b5061029a610739565b6040518083815260200182600a60200280838360005b838110156102cb5780820151818401526020810190506102b0565b505050509050019250505060405180910390f35b3480156102eb57600080fd5b50610320600480360381019080803573ffffffffffffffffffffffffffffffffffffffff1690602001909291905050506107ed565b005b34801561032e57600080fd5b50610337610843565b005b34801561034557600080fd5b5061037a600480360381019080803573ffffffffffffffffffffffffffffffffffffffff169060200190929190505050610945565b005b6000610386610f33565b61038e610a87565b9050806020015191505090565b6103a3610f33565b600060016002811015156103b357fe5b600c02016060604051908101604052908160008201600a806020026040519081016040528092919082600a8015610435576020028201915b8160009054906101000a900473ffffffffffffffffffffffffffffffffffffffff1673ffffffffffffffffffffffffffffffffffffffff16815260200190600101908083116103eb575b50505050508152602001600a8201548152602001600b8201548152505090508060008060028110151561046457fe5b600c020160008201518160000190600a61047f929190610f5c565b50602082015181600a0155604082015181600b015590505061049f610c0a565b60188190555050565b601960008154809291906001019190505550565b60006104c6610fd9565b600060016002811015156104d657fe5b600c0201600a0154600060016002811015156104ee57fe5b600c020160000180600a806020026040519081016040528092919082600a8015610563576020028201915b8160009054906101000a900473ffffffffffffffffffffffffffffffffffffffff1673ffffffffffffffffffffffffffffffffffffffff1681526020019060010190808311610519575b50505050509050915091509091565b60195481565b60185481565b6000610588610f33565b610590610a87565b9050806040015191505090565b60006105a7610fd9565b6018546105b2610c0a565b111561066557600060016002811015156105c857fe5b600c0201600a0154600060016002811015156105e057fe5b600c020160000180600a806020026040519081016040528092919082600a8015610655576020028201915b8160009054906101000a900473ffffffffffffffffffffffffffffffffffffffff1673ffffffffffffffffffffffffffffffffffffffff168152602001906001019080831161060b575b505050505090509150915061070c565b60008060028110151561067457fe5b600c0201600a015460008060028110151561068b57fe5b600c020160000180600a806020026040519081016040528092919082600a8015610700576020028201915b8160009054906101000a900473ffffffffffffffffffffffffffffffffffffffff1673ffffffffffffffffffffffffffffffffffffffff16815260200190600101908083116106b6575b50505050509050915091505b9091565b610718610f33565b610720610c14565b90508181604001818152505061073581610cf6565b5050565b6000610743610fd9565b60008060028110151561075257fe5b600c0201600a015460008060028110151561076957fe5b600c020160000180600a806020026040519081016040528092919082600a80156107de576020028201915b8160009054906101000a900473ffffffffffffffffffffffffffffffffffffffff1673ffffffffffffffffffffffffffffffffffffffff1681526020019060010190808311610794575b50505050509050915091509091565b6107f5610f33565b6107fd610c14565b905061080d828260000151610d57565b816000018190525061082d60018260200151610e8090919063ffffffff16565b81602001818152505061083f81610cf6565b5050565b61084b610fd9565b610853610f33565b30826000600a8110151561086357fe5b602002019073ffffffffffffffffffffffffffffffffffffffff16908173ffffffffffffffffffffffffffffffffffffffff168152505060606040519081016040528083815260200160008152602001600a8152509050806000806002811015156108ca57fe5b600c020160008201518160000190600a6108e5929190610f5c565b50602082015181600a0155604082015181600b0155905050806000600160028110151561090e57fe5b600c020160008201518160000190600a610929929190610f5c565b50602082015181600a0155604082015181600b01559050505050565b61094d610f33565b6000610957610c14565b9150610967838360000151610e99565b9050600981111515610a07576040517f08c379a00000000000000000000000000000000000000000000000000000000081526004018080602001828103825260218152602001807f4164647265737320616c72656164792077686974656c6973746564206578697381526020017f740000000000000000000000000000000000000000000000000000000000000081525060400191505060405180910390fd5b8282600001516001846020015101600a81101515610a2157fe5b602002019073ffffffffffffffffffffffffffffffffffffffff16908173ffffffffffffffffffffffffffffffffffffffff1681525050610a7060018360200151610f1790919063ffffffff16565b826020018181525050610a8282610cf6565b505050565b610a8f610f33565b601854610a9a610c0a565b1115610b565760006001600281101515610ab057fe5b600c02016060604051908101604052908160008201600a806020026040519081016040528092919082600a8015610b32576020028201915b8160009054906101000a900473ffffffffffffffffffffffffffffffffffffffff1673ffffffffffffffffffffffffffffffffffffffff1681526020019060010190808311610ae8575b50505050508152602001600a8201548152602001600b820154815250509050610c07565b600080600281101515610b6557fe5b600c02016060604051908101604052908160008201600a806020026040519081016040528092919082600a8015610be7576020028201915b8160009054906101000a900473ffffffffffffffffffffffffffffffffffffffff1673ffffffffffffffffffffffffffffffffffffffff1681526020019060010190808311610b9d575b50505050508152602001600a8201548152602001600b8201548152505090505b90565b6000601954905090565b610c1c610f33565b610c24610f33565b601854610c2f610c0a565b1115610c3e57610c3d61039b565b5b60006001600281101515610c4e57fe5b600c02016060604051908101604052908160008201600a806020026040519081016040528092919082600a8015610cd0576020028201915b8160009054906101000a900473ffffffffffffffffffffffffffffffffffffffff1673ffffffffffffffffffffffffffffffffffffffff1681526020019060010190808311610c86575b50505050508152602001600a8201548152602001600b8201548152505090508091505090565b601854610d01610c0a565b1115610d1057610d0f61039b565b5b8060006001600281101515610d2157fe5b600c020160008201518160000190600a610d3c929190610f5c565b50602082015181600a0155604082015181600b015590505050565b610d5f610fd9565b600080600a9150610d708585610e99565b9050600981101515610dea576040517f08c379a00000000000000000000000000000000000000000000000000000000081526004018080602001828103825260168152602001807f4164647265737320646f6573206e6f742065786973740000000000000000000081525060200191505060405180910390fd5b8360018303600a81101515610dfb57fe5b60200201518482600a81101515610e0e57fe5b602002019073ffffffffffffffffffffffffffffffffffffffff16908173ffffffffffffffffffffffffffffffffffffffff16815250508360018303600a81101515610e5657fe5b60200201600073ffffffffffffffffffffffffffffffffffffffff16815250839250505092915050565b6000828211151515610e8e57fe5b818303905092915050565b6000806000600a9150600090505b81811015610f0a578473ffffffffffffffffffffffffffffffffffffffff168482600a81101515610ed457fe5b602002015173ffffffffffffffffffffffffffffffffffffffff161415610efd57809250610f0f565b8080600101915050610ea7565b606592505b505092915050565b60008183019050828110151515610f2a57fe5b80905092915050565b61018060405190810160405280610f48610ffd565b815260200160008152602001600081525090565b82600a8101928215610fc8579160200282015b82811115610fc75782518260006101000a81548173ffffffffffffffffffffffffffffffffffffffff021916908373ffffffffffffffffffffffffffffffffffffffff16021790555091602001919060010190610f6f565b5b509050610fd59190611021565b5090565b61014060405190810160405280600a90602082028038833980820191505090505090565b61014060405190810160405280600a90602082028038833980820191505090505090565b61106191905b8082111561105d57600081816101000a81549073ffffffffffffffffffffffffffffffffffffffff021916905550600101611027565b5090565b905600a165627a7a72305820e8983b1e6df00f9fc4f2e1253c261198134bc80f9a7a421eab7c45a3583ca42c0029",
  "source": "\n//import \"github.com/OpenZeppelin/zeppelin-solidity/contracts/math/SafeMath.sol\";\nimport \"openzeppelin-solidity/contracts/math/SafeMath.sol\";\n\npragma solidity 0.4.24;\n\ncontract GlobalStorage {\n    using SafeMath for uint256;\n    // old/new slots    //epoch    //storage\n    //mapping(uint32 => mapping (uint256 => AddressRegistryStorage)) strg;\n\n    AddressRegistryStorage[2] strg;\n\n\n    uint256 public lastSync;\n    uint256 public counter;\n\n    struct AddressRegistryStorage {\n        address[10] whiteListed;\n        uint256 listingCounter;\n        uint256 maxNumListings; // By default, only limited by EVM max word\n    }\n\n   function init() public{\n        address[10] memory b;\n        b[0] = address(this);\n        AddressRegistryStorage memory a = AddressRegistryStorage(b,0,10);\n        strg[0] = a;\n        strg[1] = a;\n    }\n\n\n    function _deleteAddress(address _target, address[10] _list) internal pure returns (address[10]){\n        uint256 len = _list.length;\n        uint256 targetIndex = _findInArray(_target, _list);\n        require(targetIndex<9, \"Address does not exist\");\n        _list[targetIndex] = _list[len-1];\n        delete _list[len-1];\n        return _list;\n    }\n\n    function _findInArray(address _target, address[10] _list) internal pure returns (uint256){\n        uint256 len = _list.length;\n        \n        for(uint i = 0; i<len; i++){\n            if(_list[i] == _target){\n                return i;\n            }\n        }\n        return 101; // return out of bounds if not found\n    }\n\n    /****************\n    *     Setters\n    *****************/\n\n    //TODO: should be internal, making it public to facilitate unit testing\n    function _whiteListAddress(address _accountToWhiteList) public {\n        AddressRegistryStorage memory currentState = getNext();\n        uint256 targetIndex = _findInArray(_accountToWhiteList, currentState.whiteListed);\n        require(targetIndex>9, \"Address already whitelisted exist\");\n        currentState.whiteListed[currentState.listingCounter+1] = _accountToWhiteList;\n        currentState.listingCounter = currentState.listingCounter.add(1);\n        set(currentState);\n    }\n    //TODO: should be internal, making it public to facilitate unit testing\n    function _blackListAddress(address _accountToWhiteList) public {\n        AddressRegistryStorage memory currentState = getNext();\n        currentState.whiteListed = _deleteAddress(_accountToWhiteList, currentState.whiteListed);\n        currentState.listingCounter = currentState.listingCounter.sub(1);\n        set(currentState);\n    }\n\n    //TODO: should be internal, making it public to facilitate unit testing\n    function _setMaxNumListings(uint256 _newMaxNumListings) public {\n        AddressRegistryStorage memory currentState = getNext();\n        currentState.maxNumListings = _newMaxNumListings;\n        set(currentState);\n    }\n\n    /****************\n    *     Getters \n    *****************/\n\n    //TODO: should be internal, making it public to facilitate unit testing\n    function _getAccountFromWhiteListed(address _accountChecked) internal view returns (bool) {\n        AddressRegistryStorage memory currentState = getCurrent();\n        bool found = _findInArray(_accountChecked, currentState.whiteListed) < 101;\n        return found;\n    }\n    //TODO: should be internal, making it public to facilitate unit testing\n    function _getMaxNumListings() public view returns (uint256) {\n        AddressRegistryStorage memory currentState = getCurrent();\n        return currentState.maxNumListings;\n    }\n\n    \n\n    //TODO: should be internal, making it public to facilitate unit testing\n    function _getListingCounter() public view returns (uint256) {\n        AddressRegistryStorage memory currentState = getCurrent();\n        return currentState.listingCounter;\n    }\n\n    function getCurrent() internal view returns (AddressRegistryStorage) {\n        if (height() > lastSync){\n            return strg[1];\n        }\n        return strg[0];\n    }\n    \n    function updateState() public {\n        AddressRegistryStorage memory next = strg[1];\n        strg[0] = next;\n        lastSync = height();\n    }\n    \n    modifier updatable(){\n        if (height() > lastSync){\n            updateState();\n        }\n        _;\n    }\n    \n    function set(AddressRegistryStorage memory _a) internal updatable(){\n        // We will always set it in the next one \n        strg[1] = _a;\n    }\n    \n    function getNext() internal updatable() returns (AddressRegistryStorage memory) {\n        AddressRegistryStorage memory temp = strg[1];\n        return temp;\n    }\n\n\n    ///// Aux\n\n    function height() internal view returns (uint){\n        return counter;\n    }\n\n    function next() public {\n        counter ++;\n    }\n\n        // Debug\n\n    function debug_get0() public view returns (uint, address[10]){\n        return (strg[0].listingCounter, strg[0].whiteListed);\n    }\n    \n    function debug_get1() public view returns (uint, address[10]){\n        return (strg[1].listingCounter, strg[1].whiteListed);\n    }\n    \n    function debug_getCurrent() public view returns (uint, address[10]) {\n        if (height() > lastSync){\n            return (strg[1].listingCounter, strg[1].whiteListed);\n        }\n        return (strg[0].listingCounter, strg[0].whiteListed);\n    }\n\n}\n",
  "sourcePath": "/Users/boss/git/frontier/trl-project/RoleRegistries/contracts/GlobalStorage.sol",
  "compiler": {
    "name": "solc",
    "version": "0.4.24+commit.e67f0147.Emscripten.clang"
  },
  "schemaVersion": "2.0.1",
  "updatedAt": "2018-11-30T13:35:24.942Z"
}