{
  "contractName": "GlobalStorage",
  "abi": [
    {
      "constant": true,
      "inputs": [],
      "name": "lastSync",
      "outputs": [
        {
          "name": "",
          "type": "uint256"
        }
      ],
      "payable": false,
      "stateMutability": "view",
      "type": "function"
    },
    {
      "constant": true,
      "inputs": [],
      "name": "isInit",
      "outputs": [
        {
          "name": "",
          "type": "bool"
        }
      ],
      "payable": false,
      "stateMutability": "view",
      "type": "function"
    },
    {
      "constant": true,
      "inputs": [],
      "name": "hardMaxNumListingsLimit",
      "outputs": [
        {
          "name": "",
          "type": "uint256"
        }
      ],
      "payable": false,
      "stateMutability": "view",
      "type": "function"
    },
    {
      "constant": false,
      "inputs": [
        {
          "name": "_hardMaxNumListingsLimit",
          "type": "uint256"
        },
        {
          "name": "_initMaxNumListings",
          "type": "uint256"
        },
        {
          "name": "_periodAddress",
          "type": "address"
        }
      ],
      "name": "init",
      "outputs": [],
      "payable": false,
      "stateMutability": "nonpayable",
      "type": "function"
    },
    {
      "constant": false,
      "inputs": [
        {
          "name": "_accountToWhiteList",
          "type": "address"
        }
      ],
      "name": "_whiteListAddress",
      "outputs": [],
      "payable": false,
      "stateMutability": "nonpayable",
      "type": "function"
    },
    {
      "constant": false,
      "inputs": [
        {
          "name": "_accountToWhiteList",
          "type": "address"
        }
      ],
      "name": "_blackListAddress",
      "outputs": [],
      "payable": false,
      "stateMutability": "nonpayable",
      "type": "function"
    },
    {
      "constant": false,
      "inputs": [
        {
          "name": "_newMaxNumListings",
          "type": "uint256"
        }
      ],
      "name": "_setMaxNumListings",
      "outputs": [],
      "payable": false,
      "stateMutability": "nonpayable",
      "type": "function"
    },
    {
      "constant": true,
      "inputs": [],
      "name": "_getMaxNumListings",
      "outputs": [
        {
          "name": "",
          "type": "uint256"
        }
      ],
      "payable": false,
      "stateMutability": "view",
      "type": "function"
    },
    {
      "constant": true,
      "inputs": [],
      "name": "_getListingCounter",
      "outputs": [
        {
          "name": "",
          "type": "uint256"
        }
      ],
      "payable": false,
      "stateMutability": "view",
      "type": "function"
    },
    {
      "constant": true,
      "inputs": [],
      "name": "_getNextListingCounter",
      "outputs": [
        {
          "name": "",
          "type": "uint256"
        }
      ],
      "payable": false,
      "stateMutability": "view",
      "type": "function"
    },
    {
      "constant": true,
      "inputs": [
        {
          "name": "_epoch",
          "type": "uint256"
        }
      ],
      "name": "getWhitelistedFromEpoch",
      "outputs": [
        {
          "name": "elements",
          "type": "address[5]"
        }
      ],
      "payable": false,
      "stateMutability": "view",
      "type": "function"
    },
    {
      "constant": false,
      "inputs": [
        {
          "name": "_height",
          "type": "uint256"
        }
      ],
      "name": "updateState",
      "outputs": [],
      "payable": false,
      "stateMutability": "nonpayable",
      "type": "function"
    },
    {
      "constant": false,
      "inputs": [
        {
          "name": "_accountToWhiteList",
          "type": "address"
        }
      ],
      "name": "whitelistCurrentPeriod",
      "outputs": [],
      "payable": false,
      "stateMutability": "nonpayable",
      "type": "function"
    },
    {
      "constant": false,
      "inputs": [
        {
          "name": "_accountToBlacklist",
          "type": "address"
        }
      ],
      "name": "blacklistCurrentPeriod",
      "outputs": [],
      "payable": false,
      "stateMutability": "nonpayable",
      "type": "function"
    }
  ],
  "bytecode": "0x60806040526000601160006101000a81548160ff02191690831515021790555034801561002b57600080fd5b506119d08061003b6000396000f3006080604052600436106100d0576000357c0100000000000000000000000000000000000000000000000000000000900463ffffffff16806306bbce32146100d55780630b58343a146101185780633be6e937146101435780636917516b1461016e57806398b20e0f14610199578063b145a5b8146101c4578063be1de1a0146101f3578063c40de52e14610236578063cc8a55e214610263578063d4ad420e14610290578063dc60164e146102d3578063e4ad2b92146102fe578063ecddf2d014610341578063f3251e1e146103aa575b600080fd5b3480156100e157600080fd5b50610116600480360381019080803573ffffffffffffffffffffffffffffffffffffffff169060200190929190505050610401565b005b34801561012457600080fd5b5061012d610734565b6040518082815260200191505060405180910390f35b34801561014f57600080fd5b50610158610753565b6040518082815260200191505060405180910390f35b34801561017a57600080fd5b50610183610772565b6040518082815260200191505060405180910390f35b3480156101a557600080fd5b506101ae610778565b6040518082815260200191505060405180910390f35b3480156101d057600080fd5b506101d9610797565b604051808215151515815260200191505060405180910390f35b3480156101ff57600080fd5b50610234600480360381019080803573ffffffffffffffffffffffffffffffffffffffff1690602001909291905050506107aa565b005b34801561024257600080fd5b5061026160048036038101908080359060200190929190505050610b4d565b005b34801561026f57600080fd5b5061028e60048036038101908080359060200190929190505050610b76565b005b34801561029c57600080fd5b506102d1600480360381019080803573ffffffffffffffffffffffffffffffffffffffff169060200190929190505050610d43565b005b3480156102df57600080fd5b506102e8610d99565b6040518082815260200191505060405180910390f35b34801561030a57600080fd5b5061033f600480360381019080803573ffffffffffffffffffffffffffffffffffffffff169060200190929190505050610d9f565b005b34801561034d57600080fd5b5061036c60048036038101908080359060200190929190505050610ede565b6040518082600560200280838360005b8381101561039757808201518184015260208101905061037c565b5050505090500191505060405180910390f35b3480156103b657600080fd5b506103ff6004803603810190808035906020019092919080359060200190929190803573ffffffffffffffffffffffffffffffffffffffff169060200190929190505050610efa565b005b61040961182c565b61041161182c565b600080600061041e61104b565b9050600f548111156104345761043381610b76565b5b60008060028110151561044357fe5b6007020160606040519081016040529081600082016005806020026040519081016040528092919082600580156104c5576020028201915b8160009054906101000a900473ffffffffffffffffffffffffffffffffffffffff1673ffffffffffffffffffffffffffffffffffffffff168152602001906001019080831161047b575b50505050508152602001600582015481526020016006820154815250509450600060016002811015156104f457fe5b600702016060604051908101604052908160008201600580602002604051908101604052809291908260058015610576576020028201915b8160009054906101000a900473ffffffffffffffffffffffffffffffffffffffff1673ffffffffffffffffffffffffffffffffffffffff168152602001906001019080831161052c575b5050505050815260200160058201548152602001600682015481525050935060656105a5878760000151611113565b10925060656105b8878660000151611113565b109150821515610630576040517f08c379a000000000000000000000000000000000000000000000000000000000815260040180806020018281038252601a8152602001807f41646472657373206973206e6f742077686974656c697374656400000000000081525060200191505060405180910390fd5b61063e868660000151611191565b856000018190525061065e600186602001516112ba90919063ffffffff16565b8560200181815250508460008060028110151561067757fe5b60070201600082015181600001906005610692929190611854565b506020820151816005015560408201518160060155905050811561072c576106be868560000151611191565b84600001819052506106de600185602001516112ba90919063ffffffff16565b84602001818152505083600060016002811015156106f857fe5b60070201600082015181600001906005610713929190611854565b5060208201518160050155604082015181600601559050505b505050505050565b600061073e61182c565b6107466112db565b9050806020015191505090565b600061075d61182c565b61076561145e565b9050806020015191505090565b600f5481565b600061078261182c565b61078a6112db565b9050806040015191505090565b601160009054906101000a900460ff1681565b6107b261182c565b6107ba61182c565b60008060006107c761104b565b9050600f548111156107dd576107dc81610b76565b5b6000806002811015156107ec57fe5b60070201606060405190810160405290816000820160058060200260405190810160405280929190826005801561086e576020028201915b8160009054906101000a900473ffffffffffffffffffffffffffffffffffffffff1673ffffffffffffffffffffffffffffffffffffffff1681526020019060010190808311610824575b505050505081526020016005820154815260200160068201548152505094506000600160028110151561089d57fe5b60070201606060405190810160405290816000820160058060200260405190810160405280929190826005801561091f576020028201915b8160009054906101000a900473ffffffffffffffffffffffffffffffffffffffff1673ffffffffffffffffffffffffffffffffffffffff16815260200190600101908083116108d5575b50505050508152602001600582015481526020016006820154815250509350606561094e878760000151611113565b1492506065610961878660000151611113565b1491508215156109d9576040517f08c379a000000000000000000000000000000000000000000000000000000000815260040180806020018281038252601b8152602001807f4164647265737320616c72656164792077686974656c6973746564000000000081525060200191505060405180910390fd5b85856000015186602001516005811015156109f057fe5b602002019073ffffffffffffffffffffffffffffffffffffffff16908173ffffffffffffffffffffffffffffffffffffffff1681525050610a3f6001866020015161152690919063ffffffff16565b85602001818152505084600080600281101515610a5857fe5b60070201600082015181600001906005610a73929190611854565b5060208201518160050155604082015181600601559050508115610b45578584600001518560200151600581101515610aa857fe5b602002019073ffffffffffffffffffffffffffffffffffffffff16908173ffffffffffffffffffffffffffffffffffffffff1681525050610af76001856020015161152690919063ffffffff16565b8460200181815250508360006001600281101515610b1157fe5b60070201600082015181600001906005610b2c929190611854565b5060208201518160050155604082015181600601559050505b505050505050565b610b5561182c565b610b5d61145e565b905081816040018181525050610b7281611547565b5050565b610b7e61182c565b610b8661182c565b600080600281101515610b9557fe5b600702016060604051908101604052908160008201600580602002604051908101604052809291908260058015610c17576020028201915b8160009054906101000a900473ffffffffffffffffffffffffffffffffffffffff1673ffffffffffffffffffffffffffffffffffffffff1681526020019060010190808311610bcd575b50505050508152602001600582015481526020016006820154815250509150610c4360018403836115af565b60006001600281101515610c5357fe5b600702016060604051908101604052908160008201600580602002604051908101604052809291908260058015610cd5576020028201915b8160009054906101000a900473ffffffffffffffffffffffffffffffffffffffff1673ffffffffffffffffffffffffffffffffffffffff1681526020019060010190808311610c8b575b5050505050815260200160058201548152602001600682015481525050905080600080600281101515610d0457fe5b60070201600082015181600001906005610d1f929190611854565b50602082015181600501556040820151816006015590505082600f81905550505050565b610d4b61182c565b610d5361145e565b9050610d63828260000151611191565b8160000181905250610d83600182602001516112ba90919063ffffffff16565b816020018181525050610d9581611547565b5050565b60105481565b610da761182c565b6000610db161145e565b9150610dc1838360000151611113565b9050600981111515610e61576040517f08c379a00000000000000000000000000000000000000000000000000000000081526004018080602001828103825260218152602001807f4164647265737320616c72656164792077686974656c6973746564206578697381526020017f740000000000000000000000000000000000000000000000000000000000000081525060400191505060405180910390fd5b8282600001518360200151600581101515610e7857fe5b602002019073ffffffffffffffffffffffffffffffffffffffff16908173ffffffffffffffffffffffffffffffffffffffff1681525050610ec76001836020015161152690919063ffffffff16565b826020018181525050610ed982611547565b505050565b610ee66118d1565b610eef82611645565b600001519050919050565b610f026118d1565b610f0a61182c565b601160009054906101000a900460ff16151515610f2657600080fd5b601160009054906101000a900460ff16151515610f4257600080fd5b6060604051908101604052808381526020016000815260200185815250905080600080600281101515610f7157fe5b60070201600082015181600001906005610f8c929190611854565b5060208201518160050155604082015181600601559050508060006001600281101515610fb557fe5b60070201600082015181600001906005610fd0929190611854565b50602082015181600501556040820151816006015590505082601160016101000a81548173ffffffffffffffffffffffffffffffffffffffff021916908373ffffffffffffffffffffffffffffffffffffffff1602179055506001601160006101000a81548160ff0219169083151502179055505050505050565b6000601160019054906101000a900473ffffffffffffffffffffffffffffffffffffffff1673ffffffffffffffffffffffffffffffffffffffff16630ef267436040518163ffffffff167c0100000000000000000000000000000000000000000000000000000000028152600401602060405180830381600087803b1580156110d357600080fd5b505af11580156110e7573d6000803e3d6000fd5b505050506040513d60208110156110fd57600080fd5b8101908080519060200190929190505050905090565b600080600060059150600090505b81811015611184578473ffffffffffffffffffffffffffffffffffffffff16848260058110151561114e57fe5b602002015173ffffffffffffffffffffffffffffffffffffffff16141561117757809250611189565b8080600101915050611121565b606592505b505092915050565b6111996118d1565b600080600591506111aa8585611113565b9050600981101515611224576040517f08c379a00000000000000000000000000000000000000000000000000000000081526004018080602001828103825260168152602001807f4164647265737320646f6573206e6f742065786973740000000000000000000081525060200191505060405180910390fd5b836001830360058110151561123557fe5b6020020151848260058110151561124857fe5b602002019073ffffffffffffffffffffffffffffffffffffffff16908173ffffffffffffffffffffffffffffffffffffffff1681525050836001830360058110151561129057fe5b60200201600073ffffffffffffffffffffffffffffffffffffffff16815250839250505092915050565b6000808383111515156112cc57600080fd5b82840390508091505092915050565b6112e361182c565b600f546112ee61104b565b11156113aa576000600160028110151561130457fe5b600702016060604051908101604052908160008201600580602002604051908101604052809291908260058015611386576020028201915b8160009054906101000a900473ffffffffffffffffffffffffffffffffffffffff1673ffffffffffffffffffffffffffffffffffffffff168152602001906001019080831161133c575b5050505050815260200160058201548152602001600682015481525050905061145b565b6000806002811015156113b957fe5b60070201606060405190810160405290816000820160058060200260405190810160405280929190826005801561143b576020028201915b8160009054906101000a900473ffffffffffffffffffffffffffffffffffffffff1673ffffffffffffffffffffffffffffffffffffffff16815260200190600101908083116113f1575b505050505081526020016005820154815260200160068201548152505090505b90565b61146661182c565b61146e61182c565b6000600160028110151561147e57fe5b600702016060604051908101604052908160008201600580602002604051908101604052809291908260058015611500576020028201915b8160009054906101000a900473ffffffffffffffffffffffffffffffffffffffff1673ffffffffffffffffffffffffffffffffffffffff16815260200190600101908083116114b6575b505050505081526020016005820154815260200160068201548152505090508091505090565b600080828401905083811015151561153d57600080fd5b8091505092915050565b600061155161104b565b9050600f548111156115675761156681610b76565b5b816000600160028110151561157857fe5b60070201600082015181600001906005611593929190611854565b5060208201518160050155604082015181600601559050505050565b6115b76118f4565b6040805190810160405280848152602001838152509050600e819080600181540180825580915050906001820390600052602060002090600802016000909192909190915060008201518160000155602082015181600101600082015181600001906005611626929190611854565b5060208201518160050155604082015181600601555050505050505050565b61164d61182c565b600061165761182c565b61165f61104b565b841015156116fb576040517f08c379a00000000000000000000000000000000000000000000000000000000081526004018080602001828103825260268152602001807f43616e206e6f74206765742063757272656e742065706f63682066726f6d206181526020017f726368697665000000000000000000000000000000000000000000000000000081525060400191505060405180910390fd5b611704846117cd565b9150600e8281548110151561171557fe5b906000526020600020906008020160010160606040519081016040529081600082016005806020026040519081016040528092919082600580156117a4576020028201915b8160009054906101000a900473ffffffffffffffffffffffffffffffffffffffff1673ffffffffffffffffffffffffffffffffffffffff168152602001906001019080831161175a575b505050505081526020016005820154815260200160068201548152505090508092505050919050565b6000806000600e805490509150600090505b818110156118245783600e828154811015156117f757fe5b906000526020600020906008020160000154141561181757809250611825565b80806001019150506117df565b5b5050919050565b60e060405190810160405280611840611916565b815260200160008152602001600081525090565b82600581019282156118c0579160200282015b828111156118bf5782518260006101000a81548173ffffffffffffffffffffffffffffffffffffffff021916908373ffffffffffffffffffffffffffffffffffffffff16021790555091602001919060010190611867565b5b5090506118cd9190611939565b5090565b60a060405190810160405280600590602082028038833980820191505090505090565b610100604051908101604052806000815260200161191061197c565b81525090565b60a060405190810160405280600590602082028038833980820191505090505090565b61197991905b8082111561197557600081816101000a81549073ffffffffffffffffffffffffffffffffffffffff02191690555060010161193f565b5090565b90565b60e060405190810160405280611990611916565b8152602001600081526020016000815250905600a165627a7a72305820d2cbd3324891f45ae045eb88c9c56cdcfac1c30b34d7064eec055287205ccc260029",
  "source": "\n//import \"github.com/OpenZeppelin/zeppelin-solidity/contracts/math/SafeMath.sol\";\nimport \"openzeppelin-solidity/contracts/math/SafeMath.sol\";\nimport \"@frontier-token-research/cron/contracts/IPeriod.sol\";\nimport \"openzeppelin-solidity/contracts/ownership/Ownable.sol\";\n\npragma solidity 0.4.24;\n\ncontract GlobalStorage {\n    using SafeMath for uint256;\n    // old/new slots    //epoch    //storage\n    //mapping(uint32 => mapping (uint256 => AddressRegistryStorage)) strg;\n\n    AddressRegistryStorage[2] strg;\n\n    Archive[] archive;\n\n\n    uint256 public lastSync;\n    uint256 public hardMaxNumListingsLimit;\n    bool    public isInit = false;\n\n    IPeriod period;\n\n    struct AddressRegistryStorage {\n        address[5] whiteListed;\n        uint256 listingCounter;\n        uint256 maxNumListings; // By default, only limited by EVM max word\n    }\n\n    struct Archive{\n        uint256 epoch;\n        AddressRegistryStorage item;\n    }\n\n    modifier onlyOnce() {\n        require(!isInit);\n        _;\n    }\n\n   function init(uint256 _hardMaxNumListingsLimit, uint256 _initMaxNumListings, address _periodAddress) public onlyOnce() {\n        require(!isInit);\n        address[5] memory b;\n        AddressRegistryStorage memory a = AddressRegistryStorage(b,0,_initMaxNumListings);\n        strg[0] = a;\n        strg[1] = a;\n        //_addToArchive(0,a);\n        period = IPeriod(_periodAddress);\n        isInit = true;\n    }\n\n\n    function _deleteAddress(address _target, address[5] _list) internal pure returns (address[5]){\n        uint256 len = _list.length;\n        uint256 targetIndex = _findInArray(_target, _list);\n        require(targetIndex<9, \"Address does not exist\");\n        _list[targetIndex] = _list[len-1];\n        delete _list[len-1];\n        return _list;\n    }\n\n    function _findInArray(address _target, address[5] _list) internal pure returns (uint256){\n        uint256 len = _list.length;\n        \n        for(uint i = 0; i<len; i++){\n            if(_list[i] == _target){\n                return i;\n            }\n        }\n        return 101; // return out of bounds if not found\n    }\n\n    /****************\n    *     Setters\n    *****************/\n\n    //TODO: should be internal, making it public to facilitate unit testing\n    function _whiteListAddress(address _accountToWhiteList) public {\n        AddressRegistryStorage memory currentState = getNext();\n        uint256 targetIndex = _findInArray(_accountToWhiteList, currentState.whiteListed);\n        require(targetIndex>9, \"Address already whitelisted exist\");\n        currentState.whiteListed[currentState.listingCounter] = _accountToWhiteList;\n        currentState.listingCounter = currentState.listingCounter.add(1);\n        set(currentState);\n    }\n    //TODO: should be internal, making it public to facilitate unit testing\n    function _blackListAddress(address _accountToWhiteList) public {\n        AddressRegistryStorage memory currentState = getNext();\n        currentState.whiteListed = _deleteAddress(_accountToWhiteList, currentState.whiteListed);\n        currentState.listingCounter = currentState.listingCounter.sub(1);\n        set(currentState);\n    }\n\n    //TODO: should be internal, making it public to facilitate unit testing\n    function _setMaxNumListings(uint256 _newMaxNumListings) public {\n        AddressRegistryStorage memory currentState = getNext();\n        currentState.maxNumListings = _newMaxNumListings;\n        set(currentState);\n    }\n\n    \n\n    function _addToArchive(uint256 _epoch, AddressRegistryStorage _item) internal {\n        Archive memory newItem = Archive(_epoch, _item);\n        archive.push(newItem);\n    }\n\n    /****************\n    *     Getters \n    *****************/\n\n    function _findArchiveTarget(uint256 _epoch) internal view returns (uint256) {\n        uint256 archiveLength = archive.length;\n       \n       for(uint256 i = 0; i<archiveLength;i++){\n        if(archive[i].epoch == _epoch){\n            return i;\n        }\n       } \n    }\n\n    function _getEpochFromArchive(uint256 _epoch) internal view returns (AddressRegistryStorage) {\n       require(_epoch < height(),\"Can not get current epoch from archive\");\n       uint256 targetIndex = _findArchiveTarget(_epoch);\n       AddressRegistryStorage memory target = archive[targetIndex].item;\n       return target;\n    }\n\n    //TODO: should be internal, making it public to facilitate unit testing\n    function _getAccountFromWhiteListed(address _accountChecked) internal view returns (bool) {\n        AddressRegistryStorage memory currentState = getCurrent();\n        bool found = _findInArray(_accountChecked, currentState.whiteListed) < 101;\n        return found;\n    }\n    //TODO: should be internal, making it public to facilitate unit testing\n    function _getMaxNumListings() public view returns (uint256) {\n        AddressRegistryStorage memory currentState = getCurrent();\n        return currentState.maxNumListings;\n    }\n\n    \n\n    //TODO: should be internal, making it public to facilitate unit testing\n    function _getListingCounter() public view returns (uint256) {\n        AddressRegistryStorage memory currentState = getCurrent();\n        return currentState.listingCounter;\n    }\n\n    //TODO: should be internal, making it public to facilitate unit testing\n    function _getNextListingCounter() public view returns (uint256) {\n        AddressRegistryStorage memory currentState = getNext();\n        return currentState.listingCounter;\n    }\n\n    function getCurrent() internal view returns (AddressRegistryStorage) {\n        if (height() > lastSync){\n            return strg[1];\n        }\n        return strg[0];\n    }\n\n    function getWhitelistedFromEpoch(uint256 _epoch) public view returns (address[5] elements) {\n        return _getEpochFromArchive(_epoch).whiteListed;\n\n    }\n\n    // this was updatable before, I removed it because didnt see a need for it\n    // to be updatable, but I might be wrong\n    function getNext() internal view returns (AddressRegistryStorage memory) {\n        AddressRegistryStorage memory temp = strg[1];\n        return temp;\n    }\n    \n    function updateState(uint256 _height) public {\n        AddressRegistryStorage memory curr = strg[0];\n        _addToArchive(_height-1, curr);\n        AddressRegistryStorage memory next = strg[1];\n        strg[0] = next;\n        lastSync = _height;\n    }\n    \n    modifier updatable() {\n        uint256 currHeight = height();\n        if (currHeight > lastSync) {\n            updateState(currHeight);\n        }\n        _;\n    }\n    \n    function set(AddressRegistryStorage memory _a) internal updatable() {\n        // We will always set it in the next one \n        strg[1] = _a;\n    }\n    \n    ///// Aux\n    function height() internal view returns (uint){\n        return period.height();\n    }\n\n    /***********\n    Override functions\n    This set of functions exists to allow the addition/removal of users during the same period\n    ************/\n\n    function whitelistCurrentPeriod(address _accountToWhiteList) public updatable(){\n        AddressRegistryStorage memory currentState = strg[0];\n        AddressRegistryStorage memory nextState = strg[1];\n\n        bool addTo0 = _findInArray(_accountToWhiteList, currentState.whiteListed) == 101;\n        bool addTo1 = _findInArray(_accountToWhiteList, nextState.whiteListed) == 101;\n\n        require(addTo0, \"Address already whitelisted\");\n\n        currentState.whiteListed[currentState.listingCounter] = _accountToWhiteList;\n        currentState.listingCounter = currentState.listingCounter.add(1);\n        strg[0] = currentState;\n\n        if(addTo1){\n            nextState.whiteListed[nextState.listingCounter] = _accountToWhiteList;\n            nextState.listingCounter = nextState.listingCounter.add(1);\n            strg[1] = nextState;                \n        }\n    }\n\n    function blacklistCurrentPeriod(address _accountToBlacklist) public updatable(){\n        AddressRegistryStorage memory currentState = strg[0];\n        AddressRegistryStorage memory nextState = strg[1];\n\n        bool removeFrom1 = _findInArray(_accountToBlacklist, currentState.whiteListed) < 101;\n        bool removeFrom2 = _findInArray(_accountToBlacklist, nextState.whiteListed) < 101;\n\n        require(removeFrom1, \"Address is not whitelisted\");\n\n        currentState.whiteListed = _deleteAddress(_accountToBlacklist, currentState.whiteListed);\n        currentState.listingCounter = currentState.listingCounter.sub(1);\n        strg[0] = currentState;\n\n        if(removeFrom2){\n            nextState.whiteListed = _deleteAddress(_accountToBlacklist, nextState.whiteListed);\n            nextState.listingCounter = nextState.listingCounter.sub(1);\n            strg[1] = nextState;                \n        }\n        \n    }\n}\n",
  "sourcePath": "/Users/boss/git/frontier/trl-project/RoleRegistries/contracts/GlobalStorage.sol",
  "compiler": {
    "name": "solc",
    "version": "0.4.24+commit.e67f0147.Emscripten.clang"
  },
  "schemaVersion": "2.0.1",
  "updatedAt": "2018-12-06T17:17:16.141Z"
}