{
  "contractName": "GlobalStorage",
  "abi": [
    {
      "constant": true,
      "inputs": [],
      "name": "lastSync",
      "outputs": [
        {
          "name": "",
          "type": "uint256"
        }
      ],
      "payable": false,
      "stateMutability": "view",
      "type": "function"
    },
    {
      "constant": true,
      "inputs": [],
      "name": "isInit",
      "outputs": [
        {
          "name": "",
          "type": "bool"
        }
      ],
      "payable": false,
      "stateMutability": "view",
      "type": "function"
    },
    {
      "constant": true,
      "inputs": [],
      "name": "hardMaxNumListingsLimit",
      "outputs": [
        {
          "name": "",
          "type": "uint256"
        }
      ],
      "payable": false,
      "stateMutability": "view",
      "type": "function"
    },
    {
      "constant": false,
      "inputs": [
        {
          "name": "_hardMaxNumListingsLimit",
          "type": "uint256"
        },
        {
          "name": "_initMaxNumListings",
          "type": "uint256"
        },
        {
          "name": "_trlAddress",
          "type": "address"
        }
      ],
      "name": "init",
      "outputs": [],
      "payable": false,
      "stateMutability": "nonpayable",
      "type": "function"
    },
    {
      "constant": false,
      "inputs": [
        {
          "name": "_accountToWhiteList",
          "type": "address"
        }
      ],
      "name": "_whiteListAddress",
      "outputs": [],
      "payable": false,
      "stateMutability": "nonpayable",
      "type": "function"
    },
    {
      "constant": false,
      "inputs": [
        {
          "name": "_accountToWhiteList",
          "type": "address"
        }
      ],
      "name": "_blackListAddress",
      "outputs": [],
      "payable": false,
      "stateMutability": "nonpayable",
      "type": "function"
    },
    {
      "constant": false,
      "inputs": [
        {
          "name": "_newMaxNumListings",
          "type": "uint256"
        }
      ],
      "name": "_setMaxNumListings",
      "outputs": [],
      "payable": false,
      "stateMutability": "nonpayable",
      "type": "function"
    },
    {
      "constant": true,
      "inputs": [],
      "name": "_getMaxNumListings",
      "outputs": [
        {
          "name": "",
          "type": "uint256"
        }
      ],
      "payable": false,
      "stateMutability": "view",
      "type": "function"
    },
    {
      "constant": true,
      "inputs": [],
      "name": "_getListingCounter",
      "outputs": [
        {
          "name": "",
          "type": "uint256"
        }
      ],
      "payable": false,
      "stateMutability": "view",
      "type": "function"
    },
    {
      "constant": true,
      "inputs": [],
      "name": "_getNextListingCounter",
      "outputs": [
        {
          "name": "",
          "type": "uint256"
        }
      ],
      "payable": false,
      "stateMutability": "view",
      "type": "function"
    },
    {
      "constant": true,
      "inputs": [
        {
          "name": "_epoch",
          "type": "uint256"
        }
      ],
      "name": "getWhitelistedFromEpoch",
      "outputs": [
        {
          "name": "elements",
          "type": "address[5]"
        }
      ],
      "payable": false,
      "stateMutability": "view",
      "type": "function"
    },
    {
      "constant": false,
      "inputs": [
        {
          "name": "_height",
          "type": "uint256"
        }
      ],
      "name": "updateState",
      "outputs": [],
      "payable": false,
      "stateMutability": "nonpayable",
      "type": "function"
    },
    {
      "constant": false,
      "inputs": [
        {
          "name": "_accountToWhiteList",
          "type": "address"
        }
      ],
      "name": "whitelistCurrentPeriod",
      "outputs": [],
      "payable": false,
      "stateMutability": "nonpayable",
      "type": "function"
    }
  ],
  "bytecode": "0x60806040526000601160006101000a81548160ff02191690831515021790555034801561002b57600080fd5b506116e98061003b6000396000f3006080604052600436106100c5576000357c0100000000000000000000000000000000000000000000000000000000900463ffffffff1680630b58343a146100ca5780633be6e937146100f55780636917516b1461012057806398b20e0f1461014b578063b145a5b814610176578063be1de1a0146101a5578063c40de52e146101e8578063cc8a55e214610215578063d4ad420e14610242578063dc60164e14610285578063e4ad2b92146102b0578063ecddf2d0146102f3578063f3251e1e1461035c575b600080fd5b3480156100d657600080fd5b506100df6103b3565b6040518082815260200191505060405180910390f35b34801561010157600080fd5b5061010a6103d2565b6040518082815260200191505060405180910390f35b34801561012c57600080fd5b506101356103f1565b6040518082815260200191505060405180910390f35b34801561015757600080fd5b506101606103f7565b6040518082815260200191505060405180910390f35b34801561018257600080fd5b5061018b610416565b604051808215151515815260200191505060405180910390f35b3480156101b157600080fd5b506101e6600480360381019080803573ffffffffffffffffffffffffffffffffffffffff169060200190929190505050610429565b005b3480156101f457600080fd5b506102136004803603810190808035906020019092919050505061092f565b005b34801561022157600080fd5b5061024060048036038101908080359060200190929190505050610958565b005b34801561024e57600080fd5b50610283600480360381019080803573ffffffffffffffffffffffffffffffffffffffff169060200190929190505050610a69565b005b34801561029157600080fd5b5061029a610abf565b6040518082815260200191505060405180910390f35b3480156102bc57600080fd5b506102f1600480360381019080803573ffffffffffffffffffffffffffffffffffffffff169060200190929190505050610ac5565b005b3480156102ff57600080fd5b5061031e60048036038101908080359060200190929190505050610c04565b6040518082600560200280838360005b8381101561034957808201518184015260208101905061032e565b5050505090500191505060405180910390f35b34801561036857600080fd5b506103b16004803603810190808035906020019092919080359060200190929190803573ffffffffffffffffffffffffffffffffffffffff169060200190929190505050610c20565b005b60006103bd611545565b6103c5610d71565b9050806020015191505090565b60006103dc611545565b6103e4610ef4565b9050806020015191505090565b600f5481565b6000610401611545565b610409610d71565b9050806040015191505090565b601160009054906101000a900460ff1681565b6000610433611545565b61043b611545565b600080600080610449610fbc565b9050600f5481111561045f5761045e81610958565b5b600f5461046a610fbc565b1115610479576001965061047e565b600096505b600187141561048c57610925565b60008714156107fe576000806002811015156104a457fe5b600702016060604051908101604052908160008201600580602002604051908101604052809291908260058015610526576020028201915b8160009054906101000a900473ffffffffffffffffffffffffffffffffffffffff1673ffffffffffffffffffffffffffffffffffffffff16815260200190600101908083116104dc575b505050505081526020016005820154815260200160068201548152505095506000600160028110151561055557fe5b6007020160606040519081016040529081600082016005806020026040519081016040528092919082600580156105d7576020028201915b8160009054906101000a900473ffffffffffffffffffffffffffffffffffffffff1673ffffffffffffffffffffffffffffffffffffffff168152602001906001019080831161058d575b505050505081526020016005820154815260200160068201548152505094506065610606898860000151611084565b1493506065610619898760000151611084565b149250831515610691576040517f08c379a000000000000000000000000000000000000000000000000000000000815260040180806020018281038252601b8152602001807f4164647265737320616c72656164792077686974656c6973746564000000000081525060200191505060405180910390fd5b87866000015187602001516005811015156106a857fe5b602002019073ffffffffffffffffffffffffffffffffffffffff16908173ffffffffffffffffffffffffffffffffffffffff16815250506106f76001876020015161110290919063ffffffff16565b8660200181815250508560008060028110151561071057fe5b6007020160008201518160000190600561072b92919061156d565b50602082015181600501556040820151816006015590505082156107fd57878560000151866020015160058110151561076057fe5b602002019073ffffffffffffffffffffffffffffffffffffffff16908173ffffffffffffffffffffffffffffffffffffffff16815250506107af6001866020015161110290919063ffffffff16565b85602001818152505084600060016002811015156107c957fe5b600702016000820151816000019060056107e492919061156d565b5060208201518160050155604082015181600601559050505b5b61080c888760000151611084565b91506009821115156108ac576040517f08c379a00000000000000000000000000000000000000000000000000000000081526004018080602001828103825260218152602001807f4164647265737320616c72656164792077686974656c6973746564206578697381526020017f740000000000000000000000000000000000000000000000000000000000000081525060400191505060405180910390fd5b87866000015187602001516005811015156108c357fe5b602002019073ffffffffffffffffffffffffffffffffffffffff16908173ffffffffffffffffffffffffffffffffffffffff16815250506109126001876020015161110290919063ffffffff16565b8660200181815250506109248661111e565b5b5050505050505050565b610937611545565b61093f610ef4565b9050818160400181815250506109548161111e565b5050565b610960611545565b6000600160028110151561097057fe5b6007020160606040519081016040529081600082016005806020026040519081016040528092919082600580156109f2576020028201915b8160009054906101000a900473ffffffffffffffffffffffffffffffffffffffff1673ffffffffffffffffffffffffffffffffffffffff16815260200190600101908083116109a8575b5050505050815260200160058201548152602001600682015481525050905080600080600281101515610a2157fe5b60070201600082015181600001906005610a3c92919061156d565b50602082015181600501556040820151816006015590505081600f81905550610a658282611186565b5050565b610a71611545565b610a79610ef4565b9050610a8982826000015161121c565b8160000181905250610aa96001826020015161134590919063ffffffff16565b816020018181525050610abb8161111e565b5050565b60105481565b610acd611545565b6000610ad7610ef4565b9150610ae7838360000151611084565b9050600981111515610b87576040517f08c379a00000000000000000000000000000000000000000000000000000000081526004018080602001828103825260218152602001807f4164647265737320616c72656164792077686974656c6973746564206578697381526020017f740000000000000000000000000000000000000000000000000000000000000081525060400191505060405180910390fd5b8282600001518360200151600581101515610b9e57fe5b602002019073ffffffffffffffffffffffffffffffffffffffff16908173ffffffffffffffffffffffffffffffffffffffff1681525050610bed6001836020015161110290919063ffffffff16565b826020018181525050610bff8261111e565b505050565b610c0c6115ea565b610c158261135e565b600001519050919050565b610c286115ea565b610c30611545565b601160009054906101000a900460ff16151515610c4c57600080fd5b601160009054906101000a900460ff16151515610c6857600080fd5b6060604051908101604052808381526020016000815260200185815250905080600080600281101515610c9757fe5b60070201600082015181600001906005610cb292919061156d565b5060208201518160050155604082015181600601559050508060006001600281101515610cdb57fe5b60070201600082015181600001906005610cf692919061156d565b50602082015181600501556040820151816006015590505082601160016101000a81548173ffffffffffffffffffffffffffffffffffffffff021916908373ffffffffffffffffffffffffffffffffffffffff1602179055506001601160006101000a81548160ff0219169083151502179055505050505050565b610d79611545565b600f54610d84610fbc565b1115610e405760006001600281101515610d9a57fe5b600702016060604051908101604052908160008201600580602002604051908101604052809291908260058015610e1c576020028201915b8160009054906101000a900473ffffffffffffffffffffffffffffffffffffffff1673ffffffffffffffffffffffffffffffffffffffff1681526020019060010190808311610dd2575b50505050508152602001600582015481526020016006820154815250509050610ef1565b600080600281101515610e4f57fe5b600702016060604051908101604052908160008201600580602002604051908101604052809291908260058015610ed1576020028201915b8160009054906101000a900473ffffffffffffffffffffffffffffffffffffffff1673ffffffffffffffffffffffffffffffffffffffff1681526020019060010190808311610e87575b505050505081526020016005820154815260200160068201548152505090505b90565b610efc611545565b610f04611545565b60006001600281101515610f1457fe5b600702016060604051908101604052908160008201600580602002604051908101604052809291908260058015610f96576020028201915b8160009054906101000a900473ffffffffffffffffffffffffffffffffffffffff1673ffffffffffffffffffffffffffffffffffffffff1681526020019060010190808311610f4c575b505050505081526020016005820154815260200160068201548152505090508091505090565b6000601160019054906101000a900473ffffffffffffffffffffffffffffffffffffffff1673ffffffffffffffffffffffffffffffffffffffff16630ef267436040518163ffffffff167c0100000000000000000000000000000000000000000000000000000000028152600401602060405180830381600087803b15801561104457600080fd5b505af1158015611058573d6000803e3d6000fd5b505050506040513d602081101561106e57600080fd5b8101908080519060200190929190505050905090565b600080600060059150600090505b818110156110f5578473ffffffffffffffffffffffffffffffffffffffff1684826005811015156110bf57fe5b602002015173ffffffffffffffffffffffffffffffffffffffff1614156110e8578092506110fa565b8080600101915050611092565b606592505b505092915050565b6000818301905082811015151561111557fe5b80905092915050565b6000611128610fbc565b9050600f5481111561113e5761113d81610958565b5b816000600160028110151561114f57fe5b6007020160008201518160000190600561116a92919061156d565b5060208201518160050155604082015181600601559050505050565b61118e61160d565b6040805190810160405280848152602001838152509050600e8190806001815401808255809150509060018203906000526020600020906008020160009091929091909150600082015181600001556020820151816001016000820151816000019060056111fd92919061156d565b5060208201518160050155604082015181600601555050505050505050565b6112246115ea565b600080600591506112358585611084565b90506009811015156112af576040517f08c379a00000000000000000000000000000000000000000000000000000000081526004018080602001828103825260168152602001807f4164647265737320646f6573206e6f742065786973740000000000000000000081525060200191505060405180910390fd5b83600183036005811015156112c057fe5b602002015184826005811015156112d357fe5b602002019073ffffffffffffffffffffffffffffffffffffffff16908173ffffffffffffffffffffffffffffffffffffffff1681525050836001830360058110151561131b57fe5b60200201600073ffffffffffffffffffffffffffffffffffffffff16815250839250505092915050565b600082821115151561135357fe5b818303905092915050565b611366611545565b6000611370611545565b611378610fbc565b84101515611414576040517f08c379a00000000000000000000000000000000000000000000000000000000081526004018080602001828103825260268152602001807f43616e206e6f74206765742063757272656e742065706f63682066726f6d206181526020017f726368697665000000000000000000000000000000000000000000000000000081525060400191505060405180910390fd5b61141d846114e6565b9150600e8281548110151561142e57fe5b906000526020600020906008020160010160606040519081016040529081600082016005806020026040519081016040528092919082600580156114bd576020028201915b8160009054906101000a900473ffffffffffffffffffffffffffffffffffffffff1673ffffffffffffffffffffffffffffffffffffffff1681526020019060010190808311611473575b505050505081526020016005820154815260200160068201548152505090508092505050919050565b6000806000600e805490509150600090505b8181101561153d5783600e8281548110151561151057fe5b90600052602060002090600802016000015414156115305780925061153e565b80806001019150506114f8565b5b5050919050565b60e06040519081016040528061155961162f565b815260200160008152602001600081525090565b82600581019282156115d9579160200282015b828111156115d85782518260006101000a81548173ffffffffffffffffffffffffffffffffffffffff021916908373ffffffffffffffffffffffffffffffffffffffff16021790555091602001919060010190611580565b5b5090506115e69190611652565b5090565b60a060405190810160405280600590602082028038833980820191505090505090565b6101006040519081016040528060008152602001611629611695565b81525090565b60a060405190810160405280600590602082028038833980820191505090505090565b61169291905b8082111561168e57600081816101000a81549073ffffffffffffffffffffffffffffffffffffffff021916905550600101611658565b5090565b90565b60e0604051908101604052806116a961162f565b8152602001600081526020016000815250905600a165627a7a723058201290aee5e49833c67e14741b2eb8f810a4d780a86104bdb6be66f5a2dcb000eb0029",
  "source": "\n//import \"github.com/OpenZeppelin/zeppelin-solidity/contracts/math/SafeMath.sol\";\nimport \"openzeppelin-solidity/contracts/math/SafeMath.sol\";\nimport \"@frontier-token-research/trl-contracts-poc/contracts/TRLInterface.sol\";\nimport \"openzeppelin-solidity/contracts/ownership/Ownable.sol\";\n\npragma solidity 0.4.24;\n\ncontract GlobalStorage {\n    using SafeMath for uint256;\n    // old/new slots    //epoch    //storage\n    //mapping(uint32 => mapping (uint256 => AddressRegistryStorage)) strg;\n\n    AddressRegistryStorage[2] strg;\n\n    Archive[] archive;\n\n\n    uint256 public lastSync;\n    uint256 public hardMaxNumListingsLimit;\n    bool    public isInit = false;\n\n    TRLInterface TRL;\n\n    struct AddressRegistryStorage {\n        address[5] whiteListed;\n        uint256 listingCounter;\n        uint256 maxNumListings; // By default, only limited by EVM max word\n    }\n\n    struct Archive{\n        uint256 epoch;\n        AddressRegistryStorage item;\n    }\n\n    modifier onlyOnce() {\n        require(!isInit);\n        _;\n    }\n\n   function init(uint256 _hardMaxNumListingsLimit, uint256 _initMaxNumListings, address _trlAddress) public onlyOnce() {\n        require(!isInit);\n        address[5] memory b;\n        AddressRegistryStorage memory a = AddressRegistryStorage(b,0,_initMaxNumListings);\n        strg[0] = a;\n        strg[1] = a;\n        //_addToArchive(0,a);\n        TRL = TRLInterface(_trlAddress);\n        isInit = true;\n    }\n\n\n    function _deleteAddress(address _target, address[5] _list) internal pure returns (address[5]){\n        uint256 len = _list.length;\n        uint256 targetIndex = _findInArray(_target, _list);\n        require(targetIndex<9, \"Address does not exist\");\n        _list[targetIndex] = _list[len-1];\n        delete _list[len-1];\n        return _list;\n    }\n\n    function _findInArray(address _target, address[5] _list) internal pure returns (uint256){\n        uint256 len = _list.length;\n        \n        for(uint i = 0; i<len; i++){\n            if(_list[i] == _target){\n                return i;\n            }\n        }\n        return 101; // return out of bounds if not found\n    }\n\n    /****************\n    *     Setters\n    *****************/\n\n    //TODO: should be internal, making it public to facilitate unit testing\n    function _whiteListAddress(address _accountToWhiteList) public {\n        AddressRegistryStorage memory currentState = getNext();\n        uint256 targetIndex = _findInArray(_accountToWhiteList, currentState.whiteListed);\n        require(targetIndex>9, \"Address already whitelisted exist\");\n        currentState.whiteListed[currentState.listingCounter] = _accountToWhiteList;\n        currentState.listingCounter = currentState.listingCounter.add(1);\n        set(currentState);\n    }\n    //TODO: should be internal, making it public to facilitate unit testing\n    function _blackListAddress(address _accountToWhiteList) public {\n        AddressRegistryStorage memory currentState = getNext();\n        currentState.whiteListed = _deleteAddress(_accountToWhiteList, currentState.whiteListed);\n        currentState.listingCounter = currentState.listingCounter.sub(1);\n        set(currentState);\n    }\n\n    //TODO: should be internal, making it public to facilitate unit testing\n    function _setMaxNumListings(uint256 _newMaxNumListings) public {\n        AddressRegistryStorage memory currentState = getNext();\n        currentState.maxNumListings = _newMaxNumListings;\n        set(currentState);\n    }\n\n    \n\n    function _addToArchive(uint256 _epoch, AddressRegistryStorage _item) internal {\n        Archive memory newItem = Archive(_epoch, _item);\n        archive.push(newItem);\n    }\n\n    /****************\n    *     Getters \n    *****************/\n\n    function _findArchiveTarget(uint256 _epoch) internal view returns (uint256) {\n        uint256 archiveLength = archive.length;\n       \n       for(uint256 i = 0; i<archiveLength;i++){\n        if(archive[i].epoch == _epoch){\n            return i;\n        }\n       } \n    }\n\n    function _getEpochFromArchive(uint256 _epoch) internal view returns (AddressRegistryStorage) {\n       require(_epoch < height(),\"Can not get current epoch from archive\");\n       uint256 targetIndex = _findArchiveTarget(_epoch);\n       AddressRegistryStorage memory target = archive[targetIndex].item;\n       return target;\n    }\n\n    //TODO: should be internal, making it public to facilitate unit testing\n    function _getAccountFromWhiteListed(address _accountChecked) internal view returns (bool) {\n        AddressRegistryStorage memory currentState = getCurrent();\n        bool found = _findInArray(_accountChecked, currentState.whiteListed) < 101;\n        return found;\n    }\n    //TODO: should be internal, making it public to facilitate unit testing\n    function _getMaxNumListings() public view returns (uint256) {\n        AddressRegistryStorage memory currentState = getCurrent();\n        return currentState.maxNumListings;\n    }\n\n    \n\n    //TODO: should be internal, making it public to facilitate unit testing\n    function _getListingCounter() public view returns (uint256) {\n        AddressRegistryStorage memory currentState = getCurrent();\n        return currentState.listingCounter;\n    }\n\n    //TODO: should be internal, making it public to facilitate unit testing\n    function _getNextListingCounter() public view returns (uint256) {\n        AddressRegistryStorage memory currentState = getNext();\n        return currentState.listingCounter;\n    }\n\n    function getCurrent() internal view returns (AddressRegistryStorage) {\n        if (height() > lastSync){\n            return strg[1];\n        }\n        return strg[0];\n    }\n\n    function getWhitelistedFromEpoch(uint256 _epoch) public view returns (address[5] elements) {\n        // require(elements.length == hardMaxNumListingsLimit);\n        // AddressRegistryStorage memory item = _getEpochFromArchive(_epoch);\n        return _getEpochFromArchive(_epoch).whiteListed;\n\n    }\n\n    // this was updatable before, I removed it because didnt see a need for it\n    // to be updatable, but I might be wrong\n    function getNext() internal view returns (AddressRegistryStorage memory) {\n        AddressRegistryStorage memory temp = strg[1];\n        return temp;\n    }\n    \n    function updateState(uint256 _height) public {\n        AddressRegistryStorage memory next = strg[1];\n        strg[0] = next;\n        lastSync = _height;\n        _addToArchive(_height, next);\n    }\n    \n    modifier updatable() {\n        uint256 currHeight = height();\n        if (currHeight > lastSync) {\n            updateState(currHeight);\n        }\n        _;\n    }\n    \n    function set(AddressRegistryStorage memory _a) internal updatable() {\n        // We will always set it in the next one \n        strg[1] = _a;\n    }\n    \n    ///// Aux\n    function height() internal view returns (uint){\n        return TRL.height();\n        //return counter;\n    }\n\n    /***********\n    Override functions\n    This set of functions exists to allow the addition/removal of users during the same period\n    ************/\n\n    function whitelistCurrentPeriod(address _accountToWhiteList) public updatable(){\n        uint256 current;\n        if (height() > lastSync){\n            current = 1;\n        }else{\n            current = 0;\n        }\n\n        // current state is outdated, so it's ok to just add to 1 because 1 will become 0\n        if(current == 1){\n            return;\n        }\n\n        // current state is 0, so we will need to update zero and 1\n        if(current == 0){\n            AddressRegistryStorage memory currentState = strg[0];\n            AddressRegistryStorage memory nextState = strg[1];\n\n            bool addTo0 = _findInArray(_accountToWhiteList, currentState.whiteListed) == 101;\n            bool addTo1 = _findInArray(_accountToWhiteList, nextState.whiteListed) == 101;\n\n            require(addTo0, \"Address already whitelisted\");\n\n            currentState.whiteListed[currentState.listingCounter] = _accountToWhiteList;\n            currentState.listingCounter = currentState.listingCounter.add(1);\n            strg[0] = currentState;\n\n            if(addTo1){\n                nextState.whiteListed[nextState.listingCounter] = _accountToWhiteList;\n                nextState.listingCounter = nextState.listingCounter.add(1);\n                strg[1] = nextState;                \n            }\n        }\n\n        \n        uint256 targetIndex = _findInArray(_accountToWhiteList, currentState.whiteListed);\n        require(targetIndex>9, \"Address already whitelisted exist\");\n        currentState.whiteListed[currentState.listingCounter] = _accountToWhiteList;\n        currentState.listingCounter = currentState.listingCounter.add(1);\n        set(currentState);\n\n\n\n    }\n\n}\n",
  "sourcePath": "/Users/boss/git/frontier/trl-project/RoleRegistries/contracts/GlobalStorage.sol",
  "compiler": {
    "name": "solc",
    "version": "0.4.24+commit.e67f0147.Emscripten.clang"
  },
  "schemaVersion": "2.0.1",
  "updatedAt": "2018-12-04T17:37:22.918Z"
}