{
  "contractName": "GlobalStorage",
  "abi": [
    {
      "constant": true,
      "inputs": [],
      "name": "lastSync",
      "outputs": [
        {
          "name": "",
          "type": "uint256"
        }
      ],
      "payable": false,
      "stateMutability": "view",
      "type": "function"
    },
    {
      "constant": true,
      "inputs": [],
      "name": "isInit",
      "outputs": [
        {
          "name": "",
          "type": "bool"
        }
      ],
      "payable": false,
      "stateMutability": "view",
      "type": "function"
    },
    {
      "constant": true,
      "inputs": [],
      "name": "hardMaxNumListingsLimit",
      "outputs": [
        {
          "name": "",
          "type": "uint256"
        }
      ],
      "payable": false,
      "stateMutability": "view",
      "type": "function"
    },
    {
      "constant": false,
      "inputs": [
        {
          "name": "_hardMaxNumListingsLimit",
          "type": "uint256"
        },
        {
          "name": "_initMaxNumListings",
          "type": "uint256"
        },
        {
          "name": "_trlAddress",
          "type": "address"
        }
      ],
      "name": "init",
      "outputs": [],
      "payable": false,
      "stateMutability": "nonpayable",
      "type": "function"
    },
    {
      "constant": false,
      "inputs": [
        {
          "name": "_accountToWhiteList",
          "type": "address"
        }
      ],
      "name": "_whiteListAddress",
      "outputs": [],
      "payable": false,
      "stateMutability": "nonpayable",
      "type": "function"
    },
    {
      "constant": false,
      "inputs": [
        {
          "name": "_accountToWhiteList",
          "type": "address"
        }
      ],
      "name": "_blackListAddress",
      "outputs": [],
      "payable": false,
      "stateMutability": "nonpayable",
      "type": "function"
    },
    {
      "constant": false,
      "inputs": [
        {
          "name": "_newMaxNumListings",
          "type": "uint256"
        }
      ],
      "name": "_setMaxNumListings",
      "outputs": [],
      "payable": false,
      "stateMutability": "nonpayable",
      "type": "function"
    },
    {
      "constant": true,
      "inputs": [],
      "name": "_getMaxNumListings",
      "outputs": [
        {
          "name": "",
          "type": "uint256"
        }
      ],
      "payable": false,
      "stateMutability": "view",
      "type": "function"
    },
    {
      "constant": true,
      "inputs": [],
      "name": "_getListingCounter",
      "outputs": [
        {
          "name": "",
          "type": "uint256"
        }
      ],
      "payable": false,
      "stateMutability": "view",
      "type": "function"
    },
    {
      "constant": true,
      "inputs": [],
      "name": "_getNextListingCounter",
      "outputs": [
        {
          "name": "",
          "type": "uint256"
        }
      ],
      "payable": false,
      "stateMutability": "view",
      "type": "function"
    },
    {
      "constant": false,
      "inputs": [],
      "name": "updateState",
      "outputs": [],
      "payable": false,
      "stateMutability": "nonpayable",
      "type": "function"
    }
  ],
  "bytecode": "0x60806040526000602560006101000a81548160ff02191690831515021790555034801561002b57600080fd5b50610ea08061003b6000396000f3006080604052600436106100af576000357c0100000000000000000000000000000000000000000000000000000000900463ffffffff1680630b58343a146100b45780631d8557d7146100df5780633be6e937146100f65780636917516b1461012157806398b20e0f1461014c578063b145a5b814610177578063c40de52e146101a6578063d4ad420e146101d3578063dc60164e14610216578063e4ad2b9214610241578063f3251e1e14610284575b600080fd5b3480156100c057600080fd5b506100c96102db565b6040518082815260200191505060405180910390f35b3480156100eb57600080fd5b506100f46102fa565b005b34801561010257600080fd5b5061010b610407565b6040518082815260200191505060405180910390f35b34801561012d57600080fd5b50610136610426565b6040518082815260200191505060405180910390f35b34801561015857600080fd5b5061016161042c565b6040518082815260200191505060405180910390f35b34801561018357600080fd5b5061018c61044b565b604051808215151515815260200191505060405180910390f35b3480156101b257600080fd5b506101d16004803603810190808035906020019092919050505061045e565b005b3480156101df57600080fd5b50610214600480360381019080803573ffffffffffffffffffffffffffffffffffffffff169060200190929190505050610487565b005b34801561022257600080fd5b5061022b6104dd565b6040518082815260200191505060405180910390f35b34801561024d57600080fd5b50610282600480360381019080803573ffffffffffffffffffffffffffffffffffffffff1690602001909291905050506104e3565b005b34801561029057600080fd5b506102d96004803603810190808035906020019092919080359060200190929190803573ffffffffffffffffffffffffffffffffffffffff169060200190929190505050610622565b005b60006102e5610d46565b6102ed6107f6565b9050806020015191505090565b610302610d46565b6000600160058110151561031257fe5b600702016060604051908101604052908160008201600580602002604051908101604052809291908260058015610394576020028201915b8160009054906101000a900473ffffffffffffffffffffffffffffffffffffffff1673ffffffffffffffffffffffffffffffffffffffff168152602001906001019080831161034a575b50505050508152602001600582015481526020016006820154815250509050806000806005811015156103c357fe5b600702016000820151816000019060056103de929190610d6e565b5060208201518160050155604082015181600601559050506103fe610979565b60238190555050565b6000610411610d46565b610419610a41565b9050806020015191505090565b60235481565b6000610436610d46565b61043e6107f6565b9050806040015191505090565b602560009054906101000a900460ff1681565b610466610d46565b61046e610a41565b90508181604001818152505061048381610b09565b5050565b61048f610d46565b610497610a41565b90506104a7828260000151610b6a565b81600001819052506104c760018260200151610c9390919063ffffffff16565b8160200181815250506104d981610b09565b5050565b60245481565b6104eb610d46565b60006104f5610a41565b9150610505838360000151610cac565b90506009811115156105a5576040517f08c379a00000000000000000000000000000000000000000000000000000000081526004018080602001828103825260218152602001807f4164647265737320616c72656164792077686974656c6973746564206578697381526020017f740000000000000000000000000000000000000000000000000000000000000081525060400191505060405180910390fd5b82826000015183602001516005811015156105bc57fe5b602002019073ffffffffffffffffffffffffffffffffffffffff16908173ffffffffffffffffffffffffffffffffffffffff168152505061060b60018360200151610d2a90919063ffffffff16565b82602001818152505061061d82610b09565b505050565b61062a610deb565b610632610d46565b602560009054906101000a900460ff1615151561064e57600080fd5b600585111515156106ed576040517f08c379a00000000000000000000000000000000000000000000000000000000081526004018080602001828103825260298152602001807f54686520686172646c696d6974206973206f766572207468652073747267206181526020017f727261792073697a65000000000000000000000000000000000000000000000081525060400191505060405180910390fd5b606060405190810160405280838152602001600081526020018581525090508060008060058110151561071c57fe5b60070201600082015181600001906005610737929190610d6e565b506020820151816005015560408201518160060155905050806000600160058110151561076057fe5b6007020160008201518160000190600561077b929190610d6e565b50602082015181600501556040820151816006015590505082602560016101000a81548173ffffffffffffffffffffffffffffffffffffffff021916908373ffffffffffffffffffffffffffffffffffffffff1602179055506001602560006101000a81548160ff0219169083151502179055505050505050565b6107fe610d46565b602354610809610979565b11156108c5576000600160058110151561081f57fe5b6007020160606040519081016040529081600082016005806020026040519081016040528092919082600580156108a1576020028201915b8160009054906101000a900473ffffffffffffffffffffffffffffffffffffffff1673ffffffffffffffffffffffffffffffffffffffff1681526020019060010190808311610857575b50505050508152602001600582015481526020016006820154815250509050610976565b6000806005811015156108d457fe5b600702016060604051908101604052908160008201600580602002604051908101604052809291908260058015610956576020028201915b8160009054906101000a900473ffffffffffffffffffffffffffffffffffffffff1673ffffffffffffffffffffffffffffffffffffffff168152602001906001019080831161090c575b505050505081526020016005820154815260200160068201548152505090505b90565b6000602560019054906101000a900473ffffffffffffffffffffffffffffffffffffffff1673ffffffffffffffffffffffffffffffffffffffff16630ef267436040518163ffffffff167c0100000000000000000000000000000000000000000000000000000000028152600401602060405180830381600087803b158015610a0157600080fd5b505af1158015610a15573d6000803e3d6000fd5b505050506040513d6020811015610a2b57600080fd5b8101908080519060200190929190505050905090565b610a49610d46565b610a51610d46565b60006001600581101515610a6157fe5b600702016060604051908101604052908160008201600580602002604051908101604052809291908260058015610ae3576020028201915b8160009054906101000a900473ffffffffffffffffffffffffffffffffffffffff1673ffffffffffffffffffffffffffffffffffffffff1681526020019060010190808311610a99575b505050505081526020016005820154815260200160068201548152505090508091505090565b602354610b14610979565b1115610b2357610b226102fa565b5b8060006001600581101515610b3457fe5b60070201600082015181600001906005610b4f929190610d6e565b50602082015181600501556040820151816006015590505050565b610b72610deb565b60008060059150610b838585610cac565b9050600981101515610bfd576040517f08c379a00000000000000000000000000000000000000000000000000000000081526004018080602001828103825260168152602001807f4164647265737320646f6573206e6f742065786973740000000000000000000081525060200191505060405180910390fd5b8360018303600581101515610c0e57fe5b60200201518482600581101515610c2157fe5b602002019073ffffffffffffffffffffffffffffffffffffffff16908173ffffffffffffffffffffffffffffffffffffffff16815250508360018303600581101515610c6957fe5b60200201600073ffffffffffffffffffffffffffffffffffffffff16815250839250505092915050565b6000828211151515610ca157fe5b818303905092915050565b600080600060059150600090505b81811015610d1d578473ffffffffffffffffffffffffffffffffffffffff168482600581101515610ce757fe5b602002015173ffffffffffffffffffffffffffffffffffffffff161415610d1057809250610d22565b8080600101915050610cba565b606592505b505092915050565b60008183019050828110151515610d3d57fe5b80905092915050565b60e060405190810160405280610d5a610e0e565b815260200160008152602001600081525090565b8260058101928215610dda579160200282015b82811115610dd95782518260006101000a81548173ffffffffffffffffffffffffffffffffffffffff021916908373ffffffffffffffffffffffffffffffffffffffff16021790555091602001919060010190610d81565b5b509050610de79190610e31565b5090565b60a060405190810160405280600590602082028038833980820191505090505090565b60a060405190810160405280600590602082028038833980820191505090505090565b610e7191905b80821115610e6d57600081816101000a81549073ffffffffffffffffffffffffffffffffffffffff021916905550600101610e37565b5090565b905600a165627a7a723058208c327672ee7b4e99fa5b197f97b26a77d5d00af14fa25a700ec398798c379ac70029",
  "source": "\n//import \"github.com/OpenZeppelin/zeppelin-solidity/contracts/math/SafeMath.sol\";\nimport \"openzeppelin-solidity/contracts/math/SafeMath.sol\";\nimport \"@frontier-token-research/trl-contracts-poc/contracts/TRLInterface.sol\";\n\npragma solidity 0.4.24;\n\ncontract GlobalStorage {\n    using SafeMath for uint256;\n    // old/new slots    //epoch    //storage\n    //mapping(uint32 => mapping (uint256 => AddressRegistryStorage)) strg;\n\n    AddressRegistryStorage[5] strg;\n\n\n    uint256 public lastSync;\n    //uint256 public counter;\n    uint256 public hardMaxNumListingsLimit;\n    bool public isInit = false;\n\n    TRLInterface TRL;\n\n    struct AddressRegistryStorage {\n        address[5] whiteListed;\n        uint256 listingCounter;\n        uint256 maxNumListings; // By default, only limited by EVM max word\n    }\n\n    modifier onlyOnce() {\n        require(!isInit);\n        _;\n    }\n\n   function init(uint256 _hardMaxNumListingsLimit, uint256 _initMaxNumListings, address _trlAddress) public onlyOnce() {\n        require (_hardMaxNumListingsLimit <= strg.length, \"The hardlimit is over the strg array size\");\n        address[5] memory b;\n        AddressRegistryStorage memory a = AddressRegistryStorage(b,0,_initMaxNumListings);\n        strg[0] = a;\n        strg[1] = a;\n        TRL = TRLInterface(_trlAddress);\n        isInit = true;\n    }\n\n\n    function _deleteAddress(address _target, address[5] _list) internal pure returns (address[5]){\n        uint256 len = _list.length;\n        uint256 targetIndex = _findInArray(_target, _list);\n        require(targetIndex<9, \"Address does not exist\");\n        _list[targetIndex] = _list[len-1];\n        delete _list[len-1];\n        return _list;\n    }\n\n    function _findInArray(address _target, address[5] _list) internal pure returns (uint256){\n        uint256 len = _list.length;\n        \n        for(uint i = 0; i<len; i++){\n            if(_list[i] == _target){\n                return i;\n            }\n        }\n        return 101; // return out of bounds if not found\n    }\n\n    /****************\n    *     Setters\n    *****************/\n\n    //TODO: should be internal, making it public to facilitate unit testing\n    function _whiteListAddress(address _accountToWhiteList) public {\n        AddressRegistryStorage memory currentState = getNext();\n        uint256 targetIndex = _findInArray(_accountToWhiteList, currentState.whiteListed);\n        require(targetIndex>9, \"Address already whitelisted exist\");\n        currentState.whiteListed[currentState.listingCounter] = _accountToWhiteList;\n        currentState.listingCounter = currentState.listingCounter.add(1);\n        set(currentState);\n    }\n    //TODO: should be internal, making it public to facilitate unit testing\n    function _blackListAddress(address _accountToWhiteList) public {\n        AddressRegistryStorage memory currentState = getNext();\n        currentState.whiteListed = _deleteAddress(_accountToWhiteList, currentState.whiteListed);\n        currentState.listingCounter = currentState.listingCounter.sub(1);\n        set(currentState);\n    }\n\n    //TODO: should be internal, making it public to facilitate unit testing\n    function _setMaxNumListings(uint256 _newMaxNumListings) public {\n        AddressRegistryStorage memory currentState = getNext();\n        currentState.maxNumListings = _newMaxNumListings;\n        set(currentState);\n    }\n\n    /****************\n    *     Getters \n    *****************/\n\n    //TODO: should be internal, making it public to facilitate unit testing\n    function _getAccountFromWhiteListed(address _accountChecked) internal view returns (bool) {\n        AddressRegistryStorage memory currentState = getCurrent();\n        bool found = _findInArray(_accountChecked, currentState.whiteListed) < 101;\n        return found;\n    }\n    //TODO: should be internal, making it public to facilitate unit testing\n    function _getMaxNumListings() public view returns (uint256) {\n        AddressRegistryStorage memory currentState = getCurrent();\n        return currentState.maxNumListings;\n    }\n\n    \n\n    //TODO: should be internal, making it public to facilitate unit testing\n    function _getListingCounter() public view returns (uint256) {\n        AddressRegistryStorage memory currentState = getCurrent();\n        return currentState.listingCounter;\n    }\n\n    //TODO: should be internal, making it public to facilitate unit testing\n    function _getNextListingCounter() public view returns (uint256) {\n        AddressRegistryStorage memory currentState = getNext();\n        return currentState.listingCounter;\n    }\n\n    function getCurrent() internal view returns (AddressRegistryStorage) {\n        if (height() > lastSync){\n            return strg[1];\n        }\n        return strg[0];\n    }\n\n    // this was updatable before, I removed it because didnt see a need for it\n    // to be updatable, but I might be wrong\n    function getNext() internal view returns (AddressRegistryStorage memory) {\n        AddressRegistryStorage memory temp = strg[1];\n        return temp;\n    }\n    \n    function updateState() public {\n        AddressRegistryStorage memory next = strg[1];\n        strg[0] = next;\n        lastSync = height();\n    }\n    \n    modifier updatable(){\n        if (height() > lastSync){\n            updateState();\n        }\n        _;\n    }\n    \n    function set(AddressRegistryStorage memory _a) internal updatable(){\n        // We will always set it in the next one \n        strg[1] = _a;\n    }\n    \n\n\n    ///// Aux\n\n    function height() internal view returns (uint){\n        return TRL.height();\n        //return counter;\n    }\n\n}\n",
  "sourcePath": "/Users/boss/git/frontier/trl-project/RoleRegistries/contracts/GlobalStorage.sol",
  "compiler": {
    "name": "solc",
    "version": "0.4.24+commit.e67f0147.Emscripten.clang"
  },
  "schemaVersion": "2.0.1",
  "updatedAt": "2018-12-03T12:20:20.006Z"
}