{
  "contractName": "GlobalStorage",
  "abi": [
    {
      "constant": true,
      "inputs": [],
      "name": "counter",
      "outputs": [
        {
          "name": "",
          "type": "uint256"
        }
      ],
      "payable": false,
      "stateMutability": "view",
      "type": "function"
    },
    {
      "constant": true,
      "inputs": [],
      "name": "lastSync",
      "outputs": [
        {
          "name": "",
          "type": "uint256"
        }
      ],
      "payable": false,
      "stateMutability": "view",
      "type": "function"
    },
    {
      "constant": false,
      "inputs": [],
      "name": "init",
      "outputs": [],
      "payable": false,
      "stateMutability": "nonpayable",
      "type": "function"
    },
    {
      "constant": false,
      "inputs": [
        {
          "name": "_accountToWhiteList",
          "type": "address"
        }
      ],
      "name": "_whiteListAddress",
      "outputs": [],
      "payable": false,
      "stateMutability": "nonpayable",
      "type": "function"
    },
    {
      "constant": false,
      "inputs": [
        {
          "name": "_accountToWhiteList",
          "type": "address"
        }
      ],
      "name": "_blackListAddress",
      "outputs": [],
      "payable": false,
      "stateMutability": "nonpayable",
      "type": "function"
    },
    {
      "constant": false,
      "inputs": [
        {
          "name": "_newMaxNumListings",
          "type": "uint256"
        }
      ],
      "name": "_setMaxNumListings",
      "outputs": [],
      "payable": false,
      "stateMutability": "nonpayable",
      "type": "function"
    },
    {
      "constant": true,
      "inputs": [],
      "name": "_getMaxNumListings",
      "outputs": [
        {
          "name": "",
          "type": "uint256"
        }
      ],
      "payable": false,
      "stateMutability": "view",
      "type": "function"
    },
    {
      "constant": true,
      "inputs": [],
      "name": "_getListingCounter",
      "outputs": [
        {
          "name": "",
          "type": "uint256"
        }
      ],
      "payable": false,
      "stateMutability": "view",
      "type": "function"
    },
    {
      "constant": false,
      "inputs": [],
      "name": "updateState",
      "outputs": [],
      "payable": false,
      "stateMutability": "nonpayable",
      "type": "function"
    },
    {
      "constant": false,
      "inputs": [],
      "name": "next",
      "outputs": [],
      "payable": false,
      "stateMutability": "nonpayable",
      "type": "function"
    },
    {
      "constant": true,
      "inputs": [],
      "name": "debug_get0",
      "outputs": [
        {
          "name": "",
          "type": "uint256"
        },
        {
          "name": "",
          "type": "address[4]"
        }
      ],
      "payable": false,
      "stateMutability": "view",
      "type": "function"
    },
    {
      "constant": true,
      "inputs": [],
      "name": "debug_get1",
      "outputs": [
        {
          "name": "",
          "type": "uint256"
        },
        {
          "name": "",
          "type": "address[4]"
        }
      ],
      "payable": false,
      "stateMutability": "view",
      "type": "function"
    },
    {
      "constant": true,
      "inputs": [],
      "name": "debug_getCurrent",
      "outputs": [
        {
          "name": "",
          "type": "uint256"
        },
        {
          "name": "",
          "type": "address[4]"
        }
      ],
      "payable": false,
      "stateMutability": "view",
      "type": "function"
    }
  ],
  "bytecode": "0x608060405234801561001057600080fd5b50610fdc806100206000396000f3006080604052600436106100c5576000357c0100000000000000000000000000000000000000000000000000000000900463ffffffff1680630b58343a146100ca5780631d8557d7146100f55780634c8fe5261461010c5780635635d7b51461012357806361bc221a1461017d5780636917516b146101a857806398b20e0f146101d3578063a57856d1146101fe578063c40de52e14610258578063c61c28ea14610285578063d4ad420e146102df578063e1c7392a14610322578063e4ad2b9214610339575b600080fd5b3480156100d657600080fd5b506100df61037c565b6040518082815260200191505060405180910390f35b34801561010157600080fd5b5061010a61039b565b005b34801561011857600080fd5b506101216104a8565b005b34801561012f57600080fd5b506101386104bc565b6040518083815260200182600460200280838360005b8381101561016957808201518184015260208101905061014e565b505050509050019250505060405180910390f35b34801561018957600080fd5b50610192610572565b6040518082815260200191505060405180910390f35b3480156101b457600080fd5b506101bd610578565b6040518082815260200191505060405180910390f35b3480156101df57600080fd5b506101e861057e565b6040518082815260200191505060405180910390f35b34801561020a57600080fd5b5061021361059d565b6040518083815260200182600460200280838360005b83811015610244578082015181840152602081019050610229565b505050509050019250505060405180910390f35b34801561026457600080fd5b5061028360048036038101908080359060200190929190505050610710565b005b34801561029157600080fd5b5061029a610739565b6040518083815260200182600460200280838360005b838110156102cb5780820151818401526020810190506102b0565b505050509050019250505060405180910390f35b3480156102eb57600080fd5b50610320600480360381019080803573ffffffffffffffffffffffffffffffffffffffff1690602001909291905050506107ed565b005b34801561032e57600080fd5b50610337610843565b005b34801561034557600080fd5b5061037a600480360381019080803573ffffffffffffffffffffffffffffffffffffffff169060200190929190505050610945565b005b6000610386610e82565b61038e6109d6565b9050806020015191505090565b6103a3610e82565b600060016002811015156103b357fe5b600602016060604051908101604052908160008201600480602002604051908101604052809291908260048015610435576020028201915b8160009054906101000a900473ffffffffffffffffffffffffffffffffffffffff1673ffffffffffffffffffffffffffffffffffffffff16815260200190600101908083116103eb575b505050505081526020016004820154815260200160058201548152505090508060008060028110151561046457fe5b6006020160008201518160000190600461047f929190610eaa565b50602082015181600401556040820151816005015590505061049f610b59565b600c8190555050565b600d60008154809291906001019190505550565b60006104c6610f27565b600060016002811015156104d657fe5b6006020160040154600060016002811015156104ee57fe5b6006020160000180600480602002604051908101604052809291908260048015610563576020028201915b8160009054906101000a900473ffffffffffffffffffffffffffffffffffffffff1673ffffffffffffffffffffffffffffffffffffffff1681526020019060010190808311610519575b50505050509050915091509091565b600d5481565b600c5481565b6000610588610e82565b6105906109d6565b9050806040015191505090565b60006105a7610f27565b600c546105b2610b59565b111561066557600060016002811015156105c857fe5b6006020160040154600060016002811015156105e057fe5b6006020160000180600480602002604051908101604052809291908260048015610655576020028201915b8160009054906101000a900473ffffffffffffffffffffffffffffffffffffffff1673ffffffffffffffffffffffffffffffffffffffff168152602001906001019080831161060b575b505050505090509150915061070c565b60008060028110151561067457fe5b600602016004015460008060028110151561068b57fe5b6006020160000180600480602002604051908101604052809291908260048015610700576020028201915b8160009054906101000a900473ffffffffffffffffffffffffffffffffffffffff1673ffffffffffffffffffffffffffffffffffffffff16815260200190600101908083116106b6575b50505050509050915091505b9091565b610718610e82565b610720610b63565b90508181604001818152505061073581610c45565b5050565b6000610743610f27565b60008060028110151561075257fe5b600602016004015460008060028110151561076957fe5b60060201600001806004806020026040519081016040528092919082600480156107de576020028201915b8160009054906101000a900473ffffffffffffffffffffffffffffffffffffffff1673ffffffffffffffffffffffffffffffffffffffff1681526020019060010190808311610794575b50505050509050915091509091565b6107f5610e82565b6107fd610b63565b905061080d828260000151610ca6565b816000018190525061082d60018260200151610dcf90919063ffffffff16565b81602001818152505061083f81610c45565b5050565b61084b610f27565b610853610e82565b3082600060048110151561086357fe5b602002019073ffffffffffffffffffffffffffffffffffffffff16908173ffffffffffffffffffffffffffffffffffffffff168152505060606040519081016040528083815260200160008152602001601e8152509050806000806002811015156108ca57fe5b600602016000820151816000019060046108e5929190610eaa565b506020820151816004015560408201518160050155905050806000600160028110151561090e57fe5b60060201600082015181600001906004610929929190610eaa565b5060208201518160040155604082015181600501559050505050565b61094d610e82565b610955610b63565b9050818160000151600183602001510160048110151561097157fe5b602002019073ffffffffffffffffffffffffffffffffffffffff16908173ffffffffffffffffffffffffffffffffffffffff16815250506109c060018260200151610de890919063ffffffff16565b8160200181815250506109d281610c45565b5050565b6109de610e82565b600c546109e9610b59565b1115610aa557600060016002811015156109ff57fe5b600602016060604051908101604052908160008201600480602002604051908101604052809291908260048015610a81576020028201915b8160009054906101000a900473ffffffffffffffffffffffffffffffffffffffff1673ffffffffffffffffffffffffffffffffffffffff1681526020019060010190808311610a37575b50505050508152602001600482015481526020016005820154815250509050610b56565b600080600281101515610ab457fe5b600602016060604051908101604052908160008201600480602002604051908101604052809291908260048015610b36576020028201915b8160009054906101000a900473ffffffffffffffffffffffffffffffffffffffff1673ffffffffffffffffffffffffffffffffffffffff1681526020019060010190808311610aec575b505050505081526020016004820154815260200160058201548152505090505b90565b6000600d54905090565b610b6b610e82565b610b73610e82565b600c54610b7e610b59565b1115610b8d57610b8c61039b565b5b60006001600281101515610b9d57fe5b600602016060604051908101604052908160008201600480602002604051908101604052809291908260048015610c1f576020028201915b8160009054906101000a900473ffffffffffffffffffffffffffffffffffffffff1673ffffffffffffffffffffffffffffffffffffffff1681526020019060010190808311610bd5575b505050505081526020016004820154815260200160058201548152505090508091505090565b600c54610c50610b59565b1115610c5f57610c5e61039b565b5b8060006001600281101515610c7057fe5b60060201600082015181600001906004610c8b929190610eaa565b50602082015181600401556040820151816005015590505050565b610cae610f27565b60008060049150610cbf8585610e04565b9050600981101515610d39576040517f08c379a00000000000000000000000000000000000000000000000000000000081526004018080602001828103825260168152602001807f4164647265737320646f6573206e6f742065786973740000000000000000000081525060200191505060405180910390fd5b8360018303600481101515610d4a57fe5b60200201518482600481101515610d5d57fe5b602002019073ffffffffffffffffffffffffffffffffffffffff16908173ffffffffffffffffffffffffffffffffffffffff16815250508360018303600481101515610da557fe5b60200201600073ffffffffffffffffffffffffffffffffffffffff16815250839250505092915050565b6000828211151515610ddd57fe5b818303905092915050565b60008183019050828110151515610dfb57fe5b80905092915050565b600080600060049150600090505b81811015610e75578473ffffffffffffffffffffffffffffffffffffffff168482600481101515610e3f57fe5b602002015173ffffffffffffffffffffffffffffffffffffffff161415610e6857809250610e7a565b8080600101915050610e12565b606592505b505092915050565b60c060405190810160405280610e96610f4a565b815260200160008152602001600081525090565b8260048101928215610f16579160200282015b82811115610f155782518260006101000a81548173ffffffffffffffffffffffffffffffffffffffff021916908373ffffffffffffffffffffffffffffffffffffffff16021790555091602001919060010190610ebd565b5b509050610f239190610f6d565b5090565b608060405190810160405280600490602082028038833980820191505090505090565b608060405190810160405280600490602082028038833980820191505090505090565b610fad91905b80821115610fa957600081816101000a81549073ffffffffffffffffffffffffffffffffffffffff021916905550600101610f73565b5090565b905600a165627a7a7230582062e53d4cef1ac066caba203c24d8075a397ae4cdabf991cc666767480d4c14910029",
  "source": "\n//import \"github.com/OpenZeppelin/zeppelin-solidity/contracts/math/SafeMath.sol\";\nimport \"openzeppelin-solidity/contracts/math/SafeMath.sol\";\n\npragma solidity 0.4.24;\n\ncontract GlobalStorage {\n    using SafeMath for uint256;\n    // old/new slots    //epoch    //storage\n    //mapping(uint32 => mapping (uint256 => AddressRegistryStorage)) strg;\n\n    AddressRegistryStorage[2] strg;\n\n\n    uint256 public lastSync;\n    uint256 public counter;\n\n    struct AddressRegistryStorage {\n        address[4] whiteListed;\n        uint256 listingCounter;\n        uint256 maxNumListings; // By default, only limited by EVM max word\n    }\n\n   function init() public{\n        address[4] memory b;\n        b[0] = address(this);\n        AddressRegistryStorage memory a = AddressRegistryStorage(b,0,30);\n        strg[0] = a;\n        strg[1] = a;\n    }\n\n\n    function _deleteAddress(address _target, address[4] _list) internal pure returns (address[4]){\n        uint256 len = _list.length;\n        uint256 targetIndex = _findInArray(_target, _list);\n        require(targetIndex<9, \"Address does not exist\");\n        _list[targetIndex] = _list[len-1];\n        delete _list[len-1];\n        return _list;\n    }\n\n    function _findInArray(address _target, address[4] _list) internal pure returns (uint256){\n        uint256 len = _list.length;\n        \n        for(uint i = 0; i<len; i++){\n            if(_list[i] == _target){\n                return i;\n            }\n        }\n        return 101; // return out of bounds if not found\n    }\n\n    /****************\n    *     Setters\n    *****************/\n\n    //TODO: should be internal, making it public to facilitate unit testing\n    function _whiteListAddress(address _accountToWhiteList) public {\n        AddressRegistryStorage memory currentState = getNext();\n        currentState.whiteListed[currentState.listingCounter+1] = _accountToWhiteList;\n        currentState.listingCounter = currentState.listingCounter.add(1);\n        set(currentState);\n    }\n    //TODO: should be internal, making it public to facilitate unit testing\n    function _blackListAddress(address _accountToWhiteList) public {\n        AddressRegistryStorage memory currentState = getNext();\n        currentState.whiteListed = _deleteAddress(_accountToWhiteList, currentState.whiteListed);\n        currentState.listingCounter = currentState.listingCounter.sub(1);\n        set(currentState);\n    }\n\n    //TODO: should be internal, making it public to facilitate unit testing\n    function _setMaxNumListings(uint256 _newMaxNumListings) public {\n        AddressRegistryStorage memory currentState = getNext();\n        currentState.maxNumListings = _newMaxNumListings;\n        set(currentState);\n    }\n\n    /****************\n    *     Getters \n    *****************/\n\n    //TODO: should be internal, making it public to facilitate unit testing\n    function _getAccountFromWhiteListed(address _accountChecked) internal view returns (bool) {\n        AddressRegistryStorage memory currentState = getCurrent();\n        bool found = _findInArray(_accountChecked, currentState.whiteListed) < 101;\n        return found;\n    }\n    //TODO: should be internal, making it public to facilitate unit testing\n    function _getMaxNumListings() public view returns (uint256) {\n        AddressRegistryStorage memory currentState = getCurrent();\n        return currentState.maxNumListings;\n    }\n\n    \n\n    //TODO: should be internal, making it public to facilitate unit testing\n    function _getListingCounter() public view returns (uint256) {\n        AddressRegistryStorage memory currentState = getCurrent();\n        return currentState.listingCounter;\n    }\n\n\n    /*\n\n    the problem is when updating the next one.\n    - we are in stage 0\n    - we add user 1 (which will reflect in stage 1) \n    - we add user 2 (which will reflect in stage 1)\n    - We need to update several things:\n        1. Copy strg_0 to strg_1 (so the next one maintains the current values)\n        2. Add user1 to strg_1\n        3. Add user2 to strg_1\n        4. -- stage advances --\n        5. copy strg_1 into strg_0\n        6. update sync?\n\n    */\n\n\n\n    function getCurrent() internal view returns (AddressRegistryStorage) {\n        if (height() > lastSync){\n            return strg[1];\n        }\n        return strg[0];\n    }\n    \n    function updateState() public {\n        AddressRegistryStorage memory next = strg[1];\n        strg[0] = next;\n        lastSync = height();\n    }\n    \n    modifier updatable(){\n        if (height() > lastSync){\n            updateState();\n        }\n        _;\n    }\n    \n    function set(AddressRegistryStorage memory _a) internal updatable(){\n        // We will always set it in the next one \n        strg[1] = _a;\n    }\n    \n    function getNext() internal updatable() returns (AddressRegistryStorage memory) {\n        AddressRegistryStorage memory temp = strg[1];\n        return temp;\n    }\n\n\n    ///// Aux\n\n    function height() internal view returns (uint){\n        return counter;\n    }\n\n    function next() public {\n        counter ++;\n    }\n\n        // Debug\n\n    function debug_get0() public view returns (uint, address[4]){\n        return (strg[0].listingCounter, strg[0].whiteListed);\n    }\n    \n    function debug_get1() public view returns (uint, address[4]){\n        return (strg[1].listingCounter, strg[1].whiteListed);\n    }\n    \n    function debug_getCurrent() public view returns (uint, address[4]) {\n        if (height() > lastSync){\n            return (strg[1].listingCounter, strg[1].whiteListed);\n        }\n        return (strg[0].listingCounter, strg[0].whiteListed);\n    }\n\n}\n",
  "sourcePath": "/Users/boss/git/frontier/trl-project/RoleRegistries/contracts/GlobalStorage.sol",
  "compiler": {
    "name": "solc",
    "version": "0.4.24+commit.e67f0147.Emscripten.clang"
  },
  "schemaVersion": "2.0.1",
  "updatedAt": "2018-11-30T13:12:41.434Z"
}