{
  "contractName": "GlobalStorage",
  "abi": [
    {
      "constant": true,
      "inputs": [],
      "name": "counter",
      "outputs": [
        {
          "name": "",
          "type": "uint256"
        }
      ],
      "payable": false,
      "stateMutability": "view",
      "type": "function"
    },
    {
      "constant": true,
      "inputs": [],
      "name": "lastSync",
      "outputs": [
        {
          "name": "",
          "type": "uint256"
        }
      ],
      "payable": false,
      "stateMutability": "view",
      "type": "function"
    },
    {
      "constant": true,
      "inputs": [],
      "name": "_debug",
      "outputs": [
        {
          "name": "",
          "type": "address[100]"
        },
        {
          "name": "",
          "type": "uint256"
        }
      ],
      "payable": false,
      "stateMutability": "view",
      "type": "function"
    },
    {
      "constant": false,
      "inputs": [
        {
          "name": "_accountToWhiteList",
          "type": "address"
        }
      ],
      "name": "_whiteListAddress",
      "outputs": [],
      "payable": false,
      "stateMutability": "nonpayable",
      "type": "function"
    },
    {
      "constant": false,
      "inputs": [
        {
          "name": "_accountToWhiteList",
          "type": "address"
        }
      ],
      "name": "_blackListAddress",
      "outputs": [],
      "payable": false,
      "stateMutability": "nonpayable",
      "type": "function"
    },
    {
      "constant": true,
      "inputs": [],
      "name": "_getMaxNumListings",
      "outputs": [
        {
          "name": "",
          "type": "uint256"
        }
      ],
      "payable": false,
      "stateMutability": "view",
      "type": "function"
    },
    {
      "constant": true,
      "inputs": [
        {
          "name": "_newMaxNumListings",
          "type": "uint256"
        }
      ],
      "name": "_setMaxNumListings",
      "outputs": [],
      "payable": false,
      "stateMutability": "view",
      "type": "function"
    },
    {
      "constant": true,
      "inputs": [],
      "name": "_getListingCounter",
      "outputs": [
        {
          "name": "",
          "type": "uint256"
        }
      ],
      "payable": false,
      "stateMutability": "view",
      "type": "function"
    },
    {
      "constant": false,
      "inputs": [],
      "name": "init",
      "outputs": [],
      "payable": false,
      "stateMutability": "nonpayable",
      "type": "function"
    },
    {
      "constant": false,
      "inputs": [],
      "name": "next",
      "outputs": [],
      "payable": false,
      "stateMutability": "nonpayable",
      "type": "function"
    }
  ],
  "bytecode": "0x608060405234801561001057600080fd5b50610d0d806100206000396000f3006080604052600436106100a4576000357c0100000000000000000000000000000000000000000000000000000000900463ffffffff1680630b58343a146100a95780634c8fe526146100d457806361bc221a146100eb5780636917516b1461011657806398b20e0f146101415780639ef97e0c1461016c578063c40de52e146101c6578063d4ad420e146101f3578063e1c7392a14610236578063e4ad2b921461024d575b600080fd5b3480156100b557600080fd5b506100be610290565b6040518082815260200191505060405180910390f35b3480156100e057600080fd5b506100e9610362565b005b3480156100f757600080fd5b50610100610376565b6040518082815260200191505060405180910390f35b34801561012257600080fd5b5061012b61037c565b6040518082815260200191505060405180910390f35b34801561014d57600080fd5b50610156610382565b6040518082815260200191505060405180910390f35b34801561017857600080fd5b50610181610454565b6040518083606460200280838360005b838110156101ac578082015181840152602081019050610191565b505050509050018281526020019250505060405180910390f35b3480156101d257600080fd5b506101f160048036038101908080359060200190929190505050610508565b005b3480156101ff57600080fd5b50610234600480360381019080803573ffffffffffffffffffffffffffffffffffffffff1690602001909291905050506105e4565b005b34801561024257600080fd5b5061024b6106ed565b005b34801561025957600080fd5b5061028e600480360381019080803573ffffffffffffffffffffffffffffffffffffffff1690602001909291905050506107a9565b005b600061029a610bb0565b60006102a46108ea565b63ffffffff166002811015156102b657fe5b606602016060604051908101604052908160008201606480602002604051908101604052809291908260648015610338576020028201915b8160009054906101000a900473ffffffffffffffffffffffffffffffffffffffff1673ffffffffffffffffffffffffffffffffffffffff16815260200190600101908083116102ee575b50505050508152602001606482015481526020016065820154815250509050806020015191505090565b60cd60008154809291906001019190505550565b60cd5481565b60cc5481565b600061038c610bb0565b60006103966108ea565b63ffffffff166002811015156103a857fe5b60660201606060405190810160405290816000820160648060200260405190810160405280929190826064801561042a576020028201915b8160009054906101000a900473ffffffffffffffffffffffffffffffffffffffff1673ffffffffffffffffffffffffffffffffffffffff16815260200190600101908083116103e0575b50505050508152602001606482015481526020016065820154815250509050806040015191505090565b61045c610bd9565b600080600060028110151561046d57fe5b6066020160000160008060028110151561048357fe5b6066020160640154816064806020026040519081016040528092919082606480156104f9576020028201915b8160009054906101000a900473ffffffffffffffffffffffffffffffffffffffff1673ffffffffffffffffffffffffffffffffffffffff16815260200190600101908083116104af575b50505050509150915091509091565b610510610bb0565b600061051a6108ea565b63ffffffff1660028110151561052c57fe5b6066020160606040519081016040529081600082016064806020026040519081016040528092919082606480156105ae576020028201915b8160009054906101000a900473ffffffffffffffffffffffffffffffffffffffff1673ffffffffffffffffffffffffffffffffffffffff1681526020019060010190808311610564575b50505050508152602001606482015481526020016065820154815250509050818160400181815250506105e08161090e565b5050565b6105ec610bb0565b60006105f66108ea565b63ffffffff1660028110151561060857fe5b60660201606060405190810160405290816000820160648060200260405190810160405280929190826064801561068a576020028201915b8160009054906101000a900473ffffffffffffffffffffffffffffffffffffffff1673ffffffffffffffffffffffffffffffffffffffff1681526020019060010190808311610640575b505050505081526020016064820154815260200160658201548152505090506106b78282600001516109bd565b81600001819052506106d760018260200151610ae690919063ffffffff16565b8160200181815250506106e98161090e565b5050565b6106f5610bd9565b6106fd610bb0565b6060604051908101604052808381526020016000815260200161271081525090508060008060028110151561072e57fe5b60660201600082015181600001906064610749929190610bfd565b506020820151816064015560408201518160650155905050806000600160028110151561077257fe5b6066020160008201518160000190606461078d929190610bfd565b5060208201518160640155604082015181606501559050505050565b6107b1610bb0565b60006107bb6108ea565b63ffffffff166002811015156107cd57fe5b60660201606060405190810160405290816000820160648060200260405190810160405280929190826064801561084f576020028201915b8160009054906101000a900473ffffffffffffffffffffffffffffffffffffffff1673ffffffffffffffffffffffffffffffffffffffff1681526020019060010190808311610805575b50505050508152602001606482015481526020016065820154815250509050818160000151826020015160648110151561088557fe5b602002019073ffffffffffffffffffffffffffffffffffffffff16908173ffffffffffffffffffffffffffffffffffffffff16815250506108d460018260200151610aff90919063ffffffff16565b8160200181815250506108e68161090e565b5050565b60006108f4610b1b565b60cc541415610906576000905061090b565b600190505b90565b60cc54610919610b1b565b1115610967578060008060028110151561092f57fe5b6066020160008201518160000190606461094a929190610bfd565b5060208201518160640155604082015181606501559050506109ba565b806000600160028110151561097857fe5b60660201600082015181600001906064610993929190610bfd565b5060208201518160640155604082015181606501559050506109b3610b1b565b60cc819055505b50565b6109c5610bd9565b600080606491506109d68585610b25565b9050606581101515610a50576040517f08c379a00000000000000000000000000000000000000000000000000000000081526004018080602001828103825260168152602001807f4164647265737320646f6573206e6f742065786973740000000000000000000081525060200191505060405180910390fd5b8360018303606481101515610a6157fe5b60200201518482606481101515610a7457fe5b602002019073ffffffffffffffffffffffffffffffffffffffff16908173ffffffffffffffffffffffffffffffffffffffff16815250508360018303606481101515610abc57fe5b60200201600073ffffffffffffffffffffffffffffffffffffffff16815250839250505092915050565b6000828211151515610af457fe5b818303905092915050565b60008183019050828110151515610b1257fe5b80905092915050565b600060cd54905090565b6000806000806000606493506000925060009150600090505b83811015610ba1578673ffffffffffffffffffffffffffffffffffffffff168682606481101515610b6b57fe5b602002015173ffffffffffffffffffffffffffffffffffffffff161415610b9457809450610ba6565b8080600101915050610b3e565b606594505b5050505092915050565b610cc060405190810160405280610bc5610c7a565b815260200160008152602001600081525090565b610c8060405190810160405280606490602082028038833980820191505090505090565b8260648101928215610c69579160200282015b82811115610c685782518260006101000a81548173ffffffffffffffffffffffffffffffffffffffff021916908373ffffffffffffffffffffffffffffffffffffffff16021790555091602001919060010190610c10565b5b509050610c769190610c9e565b5090565b610c8060405190810160405280606490602082028038833980820191505090505090565b610cde91905b80821115610cda57600081816101000a81549073ffffffffffffffffffffffffffffffffffffffff021916905550600101610ca4565b5090565b905600a165627a7a72305820ea8231c371d69076534252b27ac1c860338a1d8133da94d9e3fb6f00b70506c40029",
  "source": "\n\nimport \"openzeppelin-solidity/contracts/math/SafeMath.sol\";\n\npragma solidity 0.4.24;\n\ncontract GlobalStorage {\n    using SafeMath for uint256;\n    // old/new slots    //epoch    //storage\n    //mapping(uint32 => mapping (uint256 => AddressRegistryStorage)) strg;\n\n    AddressRegistryStorage[2] strg;\n\n\n    uint256 public lastSync;\n    uint256 public counter;\n\n    struct AddressRegistryStorage {\n        address[100] whiteListed;\n        uint256 listingCounter;\n        uint256 maxNumListings; // By default, only limited by EVM max word\n    }\n\n\tfunction _debug() public view returns (address[100],uint256){\n\t\treturn (strg[0].whiteListed, strg[0].listingCounter);\n\t}\n\n    function _deleteAddress(address _target, address[100] _list) internal returns (address[100]){\n        uint256 len = _list.length;\n        uint256 targetIndex = _findInArray(_target, _list);\n        require(targetIndex<101, \"Address does not exist\");\n        _list[targetIndex] = _list[len-1];\n        delete _list[len-1];\n        return _list;\n            \n    }\n\n    function _findInArray(address _target, address[100] _list) internal returns (uint256){\n        uint256 len = _list.length;\n        uint256 targetIndex=0;\n        bool found = false;\n\n        for(uint i = 0; i<len; i++){\n            if(_list[i] == _target){\n                return i;\n            }\n        }\n        return 101; // return out of bounds if not found\n    }\n\n    //TODO: should be internal, making it public to facilitate unit testing\n    function _whiteListAddress(address _accountToWhiteList) public {\n        AddressRegistryStorage memory currentState = strg[get()];\n        currentState.whiteListed[currentState.listingCounter] = _accountToWhiteList;\n        currentState.listingCounter = currentState.listingCounter.add(1);\n        set(currentState);\n    }\n    //TODO: should be internal, making it public to facilitate unit testing\n    function _blackListAddress(address _accountToWhiteList) public {\n        AddressRegistryStorage memory currentState = strg[get()];\n        currentState.whiteListed = _deleteAddress(_accountToWhiteList, currentState.whiteListed);\n        currentState.listingCounter = currentState.listingCounter.sub(1);\n        set(currentState);\n    }\n    //TODO: should be internal, making it public to facilitate unit testing\n    function _getAccountFromWhiteListed(address _accountChecked) internal view returns (bool) {\n        AddressRegistryStorage memory currentState = strg[get()];\n        bool found = _findInArray(_accountChecked, currentState.whiteListed) < 101;\n        return found;\n    }\n    //TODO: should be internal, making it public to facilitate unit testing\n    function _getMaxNumListings() public view returns (uint256) {\n        AddressRegistryStorage memory currentState = strg[get()];\n        return currentState.maxNumListings;\n    }\n\n    //TODO: should be internal, making it public to facilitate unit testing\n    function _setMaxNumListings(uint256 _newMaxNumListings) public view {\n        AddressRegistryStorage memory currentState = strg[get()];\n        currentState.maxNumListings = _newMaxNumListings;\n        set(currentState);\n    }\n\n    //TODO: should be internal, making it public to facilitate unit testing\n    function _getListingCounter() public view returns (uint256) {\n        AddressRegistryStorage memory currentState = strg[get()];\n        return currentState.listingCounter;\n    }\n\n\n\n    function init() public {\n        /*\n             mapping(address => bool) whiteListed;\n        uint256 listingCounter;\n        uint256 maxNumListings; // By default, only limited by EVM max word\n        */\n        address[100] memory _temp;\n        AddressRegistryStorage memory initStruct = AddressRegistryStorage(_temp,0,10000);\n        strg[0] = initStruct;\n        strg[1] = initStruct;\n    }\n\n\n    function set(AddressRegistryStorage _a) internal {\n        if(height() > lastSync) {\n            strg[0] = _a;  // This should not be set if it is in the cooling period  \n        }\n\n        else{\n            strg[1] = _a;  // This should not be set if it is in the cooling period \n            lastSync = height();\n        }\n\n    }\n\n    function get() internal view returns (uint32) { \n        if(lastSync == height()){\n            return  0;\n        }\n        else{ \n            return  1;\n        }\n    }\n\n\n    ///// Aux\n\n    function height() internal view returns (uint){\n        return counter;\n    }\n\n    function next() public {\n        counter ++;\n    }\n\n}\n",
  "sourcePath": "/Users/boss/git/frontier/trl-project/RoleRegistries/contracts/GlobalStorage.sol",
  "compiler": {
    "name": "solc",
    "version": "0.4.24+commit.e67f0147.Emscripten.clang"
  },
  "schemaVersion": "2.0.1",
  "updatedAt": "2018-11-29T16:41:01.161Z"
}