{
  "contractName": "GlobalStorage",
  "abi": [
    {
      "constant": true,
      "inputs": [],
      "name": "lastSync",
      "outputs": [
        {
          "name": "",
          "type": "uint256"
        }
      ],
      "payable": false,
      "stateMutability": "view",
      "type": "function"
    },
    {
      "constant": true,
      "inputs": [],
      "name": "isInit",
      "outputs": [
        {
          "name": "",
          "type": "bool"
        }
      ],
      "payable": false,
      "stateMutability": "view",
      "type": "function"
    },
    {
      "constant": true,
      "inputs": [],
      "name": "hardMaxNumListingsLimit",
      "outputs": [
        {
          "name": "",
          "type": "uint256"
        }
      ],
      "payable": false,
      "stateMutability": "view",
      "type": "function"
    },
    {
      "constant": false,
      "inputs": [
        {
          "name": "_hardMaxNumListingsLimit",
          "type": "uint256"
        },
        {
          "name": "_initMaxNumListings",
          "type": "uint256"
        },
        {
          "name": "_trlAddress",
          "type": "address"
        }
      ],
      "name": "init",
      "outputs": [],
      "payable": false,
      "stateMutability": "nonpayable",
      "type": "function"
    },
    {
      "constant": false,
      "inputs": [
        {
          "name": "_accountToWhiteList",
          "type": "address"
        }
      ],
      "name": "_whiteListAddress",
      "outputs": [],
      "payable": false,
      "stateMutability": "nonpayable",
      "type": "function"
    },
    {
      "constant": false,
      "inputs": [
        {
          "name": "_accountToWhiteList",
          "type": "address"
        }
      ],
      "name": "_blackListAddress",
      "outputs": [],
      "payable": false,
      "stateMutability": "nonpayable",
      "type": "function"
    },
    {
      "constant": false,
      "inputs": [
        {
          "name": "_newMaxNumListings",
          "type": "uint256"
        }
      ],
      "name": "_setMaxNumListings",
      "outputs": [],
      "payable": false,
      "stateMutability": "nonpayable",
      "type": "function"
    },
    {
      "constant": true,
      "inputs": [],
      "name": "_getMaxNumListings",
      "outputs": [
        {
          "name": "",
          "type": "uint256"
        }
      ],
      "payable": false,
      "stateMutability": "view",
      "type": "function"
    },
    {
      "constant": true,
      "inputs": [],
      "name": "_getListingCounter",
      "outputs": [
        {
          "name": "",
          "type": "uint256"
        }
      ],
      "payable": false,
      "stateMutability": "view",
      "type": "function"
    },
    {
      "constant": true,
      "inputs": [],
      "name": "_getNextListingCounter",
      "outputs": [
        {
          "name": "",
          "type": "uint256"
        }
      ],
      "payable": false,
      "stateMutability": "view",
      "type": "function"
    },
    {
      "constant": true,
      "inputs": [
        {
          "name": "_epoch",
          "type": "uint256"
        }
      ],
      "name": "getWhitelistedFromEpoch",
      "outputs": [
        {
          "name": "elements",
          "type": "address[5]"
        }
      ],
      "payable": false,
      "stateMutability": "view",
      "type": "function"
    },
    {
      "constant": false,
      "inputs": [
        {
          "name": "_height",
          "type": "uint256"
        }
      ],
      "name": "updateState",
      "outputs": [],
      "payable": false,
      "stateMutability": "nonpayable",
      "type": "function"
    }
  ],
  "bytecode": "0x60806040526000602660006101000a81548160ff02191690831515021790555034801561002b57600080fd5b5061116d8061003b6000396000f3006080604052600436106100ba576000357c0100000000000000000000000000000000000000000000000000000000900463ffffffff1680630b58343a146100bf5780633be6e937146100ea5780636917516b1461011557806398b20e0f14610140578063b145a5b81461016b578063c40de52e1461019a578063cc8a55e2146101c7578063d4ad420e146101f4578063dc60164e14610237578063e4ad2b9214610262578063ecddf2d0146102a5578063f3251e1e1461030e575b600080fd5b3480156100cb57600080fd5b506100d4610365565b6040518082815260200191505060405180910390f35b3480156100f657600080fd5b506100ff610384565b6040518082815260200191505060405180910390f35b34801561012157600080fd5b5061012a6103a3565b6040518082815260200191505060405180910390f35b34801561014c57600080fd5b506101556103a9565b6040518082815260200191505060405180910390f35b34801561017757600080fd5b506101806103c8565b604051808215151515815260200191505060405180910390f35b3480156101a657600080fd5b506101c5600480360381019080803590602001909291905050506103db565b005b3480156101d357600080fd5b506101f260048036038101908080359060200190929190505050610404565b005b34801561020057600080fd5b50610235600480360381019080803573ffffffffffffffffffffffffffffffffffffffff169060200190929190505050610515565b005b34801561024357600080fd5b5061024c61056b565b6040518082815260200191505060405180910390f35b34801561026e57600080fd5b506102a3600480360381019080803573ffffffffffffffffffffffffffffffffffffffff169060200190929190505050610571565b005b3480156102b157600080fd5b506102d0600480360381019080803590602001909291905050506106b0565b6040518082600560200280838360005b838110156102fb5780820151818401526020810190506102e0565b5050505090500191505060405180910390f35b34801561031a57600080fd5b506103636004803603810190808035906020019092919080359060200190929190803573ffffffffffffffffffffffffffffffffffffffff1690602001909291905050506106cc565b005b600061036f610fc9565b6103776108a0565b9050806020015191505090565b600061038e610fc9565b610396610a23565b9050806020015191505090565b60245481565b60006103b3610fc9565b6103bb6108a0565b9050806040015191505090565b602660009054906101000a900460ff1681565b6103e3610fc9565b6103eb610a23565b90508181604001818152505061040081610aeb565b5050565b61040c610fc9565b6000600160058110151561041c57fe5b60070201606060405190810160405290816000820160058060200260405190810160405280929190826005801561049e576020028201915b8160009054906101000a900473ffffffffffffffffffffffffffffffffffffffff1673ffffffffffffffffffffffffffffffffffffffff1681526020019060010190808311610454575b50505050508152602001600582015481526020016006820154815250509050806000806005811015156104cd57fe5b600702016000820151816000019060056104e8929190610ff1565b506020820151816005015560408201518160060155905050816024819055506105118282610b4c565b5050565b61051d610fc9565b610525610a23565b9050610535828260000151610be2565b816000018190525061055560018260200151610d0b90919063ffffffff16565b81602001818152505061056781610aeb565b5050565b60255481565b610579610fc9565b6000610583610a23565b9150610593838360000151610d24565b9050600981111515610633576040517f08c379a00000000000000000000000000000000000000000000000000000000081526004018080602001828103825260218152602001807f4164647265737320616c72656164792077686974656c6973746564206578697381526020017f740000000000000000000000000000000000000000000000000000000000000081525060400191505060405180910390fd5b828260000151836020015160058110151561064a57fe5b602002019073ffffffffffffffffffffffffffffffffffffffff16908173ffffffffffffffffffffffffffffffffffffffff168152505061069960018360200151610da290919063ffffffff16565b8260200181815250506106ab82610aeb565b505050565b6106b861106e565b6106c182610dbe565b600001519050919050565b6106d461106e565b6106dc610fc9565b602660009054906101000a900460ff161515156106f857600080fd5b60058511151515610797576040517f08c379a00000000000000000000000000000000000000000000000000000000081526004018080602001828103825260298152602001807f54686520686172646c696d6974206973206f766572207468652073747267206181526020017f727261792073697a65000000000000000000000000000000000000000000000081525060400191505060405180910390fd5b60606040519081016040528083815260200160008152602001858152509050806000806005811015156107c657fe5b600702016000820151816000019060056107e1929190610ff1565b506020820151816005015560408201518160060155905050806000600160058110151561080a57fe5b60070201600082015181600001906005610825929190610ff1565b50602082015181600501556040820151816006015590505082602660016101000a81548173ffffffffffffffffffffffffffffffffffffffff021916908373ffffffffffffffffffffffffffffffffffffffff1602179055506001602660006101000a81548160ff0219169083151502179055505050505050565b6108a8610fc9565b6024546108b3610ea2565b111561096f57600060016005811015156108c957fe5b60070201606060405190810160405290816000820160058060200260405190810160405280929190826005801561094b576020028201915b8160009054906101000a900473ffffffffffffffffffffffffffffffffffffffff1673ffffffffffffffffffffffffffffffffffffffff1681526020019060010190808311610901575b50505050508152602001600582015481526020016006820154815250509050610a20565b60008060058110151561097e57fe5b600702016060604051908101604052908160008201600580602002604051908101604052809291908260058015610a00576020028201915b8160009054906101000a900473ffffffffffffffffffffffffffffffffffffffff1673ffffffffffffffffffffffffffffffffffffffff16815260200190600101908083116109b6575b505050505081526020016005820154815260200160068201548152505090505b90565b610a2b610fc9565b610a33610fc9565b60006001600581101515610a4357fe5b600702016060604051908101604052908160008201600580602002604051908101604052809291908260058015610ac5576020028201915b8160009054906101000a900473ffffffffffffffffffffffffffffffffffffffff1673ffffffffffffffffffffffffffffffffffffffff1681526020019060010190808311610a7b575b505050505081526020016005820154815260200160068201548152505090508091505090565b6000809050602454811115610b0457610b0381610404565b5b8160006001600581101515610b1557fe5b60070201600082015181600001906005610b30929190610ff1565b5060208201518160050155604082015181600601559050505050565b610b54611091565b60408051908101604052808481526020018381525090506023819080600181540180825580915050906001820390600052602060002090600802016000909192909190915060008201518160000155602082015181600101600082015181600001906005610bc3929190610ff1565b5060208201518160050155604082015181600601555050505050505050565b610bea61106e565b60008060059150610bfb8585610d24565b9050600981101515610c75576040517f08c379a00000000000000000000000000000000000000000000000000000000081526004018080602001828103825260168152602001807f4164647265737320646f6573206e6f742065786973740000000000000000000081525060200191505060405180910390fd5b8360018303600581101515610c8657fe5b60200201518482600581101515610c9957fe5b602002019073ffffffffffffffffffffffffffffffffffffffff16908173ffffffffffffffffffffffffffffffffffffffff16815250508360018303600581101515610ce157fe5b60200201600073ffffffffffffffffffffffffffffffffffffffff16815250839250505092915050565b6000828211151515610d1957fe5b818303905092915050565b600080600060059150600090505b81811015610d95578473ffffffffffffffffffffffffffffffffffffffff168482600581101515610d5f57fe5b602002015173ffffffffffffffffffffffffffffffffffffffff161415610d8857809250610d9a565b8080600101915050610d32565b606592505b505092915050565b60008183019050828110151515610db557fe5b80905092915050565b610dc6610fc9565b6000610dd0610fc9565b610dd984610f6a565b9150602382815481101515610dea57fe5b90600052602060002090600802016001016060604051908101604052908160008201600580602002604051908101604052809291908260058015610e79576020028201915b8160009054906101000a900473ffffffffffffffffffffffffffffffffffffffff1673ffffffffffffffffffffffffffffffffffffffff1681526020019060010190808311610e2f575b505050505081526020016005820154815260200160068201548152505090508092505050919050565b6000602660019054906101000a900473ffffffffffffffffffffffffffffffffffffffff1673ffffffffffffffffffffffffffffffffffffffff16630ef267436040518163ffffffff167c0100000000000000000000000000000000000000000000000000000000028152600401602060405180830381600087803b158015610f2a57600080fd5b505af1158015610f3e573d6000803e3d6000fd5b505050506040513d6020811015610f5457600080fd5b8101908080519060200190929190505050905090565b60008060006023805490509150600090505b81811015610fc15783602382815481101515610f9457fe5b9060005260206000209060080201600001541415610fb457809250610fc2565b8080600101915050610f7c565b5b5050919050565b60e060405190810160405280610fdd6110b3565b815260200160008152602001600081525090565b826005810192821561105d579160200282015b8281111561105c5782518260006101000a81548173ffffffffffffffffffffffffffffffffffffffff021916908373ffffffffffffffffffffffffffffffffffffffff16021790555091602001919060010190611004565b5b50905061106a91906110d6565b5090565b60a060405190810160405280600590602082028038833980820191505090505090565b61010060405190810160405280600081526020016110ad611119565b81525090565b60a060405190810160405280600590602082028038833980820191505090505090565b61111691905b8082111561111257600081816101000a81549073ffffffffffffffffffffffffffffffffffffffff0219169055506001016110dc565b5090565b90565b60e06040519081016040528061112d6110b3565b8152602001600081526020016000815250905600a165627a7a723058200260b979f046953d03efa6d8070a72fcd57364f532e5dc5bdd448b8054f3b68a0029",
  "source": "\n//import \"github.com/OpenZeppelin/zeppelin-solidity/contracts/math/SafeMath.sol\";\nimport \"openzeppelin-solidity/contracts/math/SafeMath.sol\";\nimport \"@frontier-token-research/trl-contracts-poc/contracts/TRLInterface.sol\";\n\npragma solidity 0.4.24;\n\ncontract GlobalStorage {\n    using SafeMath for uint256;\n    // old/new slots    //epoch    //storage\n    //mapping(uint32 => mapping (uint256 => AddressRegistryStorage)) strg;\n\n    AddressRegistryStorage[5] strg;\n\n    Archive[] archive;\n\n\n    uint256 public lastSync;\n    //uint256 public counter;\n    uint256 public hardMaxNumListingsLimit;\n    bool public isInit = false;\n\n    TRLInterface TRL;\n\n    struct AddressRegistryStorage {\n        address[5] whiteListed;\n        uint256 listingCounter;\n        uint256 maxNumListings; // By default, only limited by EVM max word\n    }\n\n    struct Archive{\n        uint256 epoch;\n        AddressRegistryStorage item;\n    }\n\n    modifier onlyOnce() {\n        require(!isInit);\n        _;\n    }\n\n   function init(uint256 _hardMaxNumListingsLimit, uint256 _initMaxNumListings, address _trlAddress) public onlyOnce() {\n        require (_hardMaxNumListingsLimit <= strg.length, \"The hardlimit is over the strg array size\");\n        address[5] memory b;\n        AddressRegistryStorage memory a = AddressRegistryStorage(b,0,_initMaxNumListings);\n        strg[0] = a;\n        strg[1] = a;\n        TRL = TRLInterface(_trlAddress);\n        isInit = true;\n    }\n\n\n    function _deleteAddress(address _target, address[5] _list) internal pure returns (address[5]){\n        uint256 len = _list.length;\n        uint256 targetIndex = _findInArray(_target, _list);\n        require(targetIndex<9, \"Address does not exist\");\n        _list[targetIndex] = _list[len-1];\n        delete _list[len-1];\n        return _list;\n    }\n\n    function _findInArray(address _target, address[5] _list) internal pure returns (uint256){\n        uint256 len = _list.length;\n        \n        for(uint i = 0; i<len; i++){\n            if(_list[i] == _target){\n                return i;\n            }\n        }\n        return 101; // return out of bounds if not found\n    }\n\n    /****************\n    *     Setters\n    *****************/\n\n    //TODO: should be internal, making it public to facilitate unit testing\n    function _whiteListAddress(address _accountToWhiteList) public {\n        AddressRegistryStorage memory currentState = getNext();\n        uint256 targetIndex = _findInArray(_accountToWhiteList, currentState.whiteListed);\n        require(targetIndex>9, \"Address already whitelisted exist\");\n        currentState.whiteListed[currentState.listingCounter] = _accountToWhiteList;\n        currentState.listingCounter = currentState.listingCounter.add(1);\n        set(currentState);\n    }\n    //TODO: should be internal, making it public to facilitate unit testing\n    function _blackListAddress(address _accountToWhiteList) public {\n        AddressRegistryStorage memory currentState = getNext();\n        currentState.whiteListed = _deleteAddress(_accountToWhiteList, currentState.whiteListed);\n        currentState.listingCounter = currentState.listingCounter.sub(1);\n        set(currentState);\n    }\n\n    //TODO: should be internal, making it public to facilitate unit testing\n    function _setMaxNumListings(uint256 _newMaxNumListings) public {\n        AddressRegistryStorage memory currentState = getNext();\n        currentState.maxNumListings = _newMaxNumListings;\n        set(currentState);\n    }\n\n    \n\n    function _addToArchive(uint256 _epoch, AddressRegistryStorage _item) internal {\n        Archive memory newItem = Archive(_epoch, _item);\n        archive.push(newItem);\n    }\n\n    /****************\n    *     Getters \n    *****************/\n\n    function _findArchiveTarget(uint256 _epoch) internal view returns (uint256) {\n        uint256 archiveLength = archive.length;\n       \n       for(uint256 i = 0; i<archiveLength;i++){\n        if(archive[i].epoch == _epoch){\n            return i;\n        }\n       } \n    }\n\n    function _getEpochFromArchive(uint256 _epoch) internal view returns (AddressRegistryStorage) {\n       uint256 targetIndex = _findArchiveTarget(_epoch);\n       AddressRegistryStorage memory target = archive[targetIndex].item;\n       return target;\n    }\n\n    //TODO: should be internal, making it public to facilitate unit testing\n    function _getAccountFromWhiteListed(address _accountChecked) internal view returns (bool) {\n        AddressRegistryStorage memory currentState = getCurrent();\n        bool found = _findInArray(_accountChecked, currentState.whiteListed) < 101;\n        return found;\n    }\n    //TODO: should be internal, making it public to facilitate unit testing\n    function _getMaxNumListings() public view returns (uint256) {\n        AddressRegistryStorage memory currentState = getCurrent();\n        return currentState.maxNumListings;\n    }\n\n    \n\n    //TODO: should be internal, making it public to facilitate unit testing\n    function _getListingCounter() public view returns (uint256) {\n        AddressRegistryStorage memory currentState = getCurrent();\n        return currentState.listingCounter;\n    }\n\n    //TODO: should be internal, making it public to facilitate unit testing\n    function _getNextListingCounter() public view returns (uint256) {\n        AddressRegistryStorage memory currentState = getNext();\n        return currentState.listingCounter;\n    }\n\n    function getCurrent() internal view returns (AddressRegistryStorage) {\n        if (height() > lastSync){\n            return strg[1];\n        }\n        return strg[0];\n    }\n\n    function getWhitelistedFromEpoch(uint256 _epoch) public view returns (address[5] elements){\n        //require(elements.length == hardMaxNumListingsLimit);\n        //AddressRegistryStorage memory item = _getEpochFromArchive(_epoch);\n\n        return _getEpochFromArchive(_epoch).whiteListed;\n\n    }\n\n    // this was updatable before, I removed it because didnt see a need for it\n    // to be updatable, but I might be wrong\n    function getNext() internal view returns (AddressRegistryStorage memory) {\n        AddressRegistryStorage memory temp = strg[1];\n        return temp;\n    }\n    \n    function updateState(uint256 _height) public {\n        AddressRegistryStorage memory next = strg[1];\n        strg[0] = next;\n        lastSync = _height;\n        _addToArchive(_height, next);\n    }\n    \n    modifier updatable(){\n        uint256 currHeight = currHeight;\n        if (currHeight > lastSync){\n            updateState(currHeight);\n        }\n        _;\n    }\n    \n    function set(AddressRegistryStorage memory _a) internal updatable(){\n        // We will always set it in the next one \n        strg[1] = _a;\n    }\n    \n\n\n    ///// Aux\n\n    function height() internal view returns (uint){\n        return TRL.height();\n        //return counter;\n    }\n\n}\n",
  "sourcePath": "/Users/boss/git/frontier/trl-project/RoleRegistries/contracts/GlobalStorage.sol",
  "compiler": {
    "name": "solc",
    "version": "0.4.24+commit.e67f0147.Emscripten.clang"
  },
  "schemaVersion": "2.0.1",
  "updatedAt": "2018-12-03T18:51:49.984Z"
}