{
  "contractName": "OwnedRegistryMock",
  "abi": [
    {
      "constant": false,
      "inputs": [
        {
          "name": "_accountToBlacklist",
          "type": "address"
        }
      ],
      "name": "blacklistCurrentPeriod",
      "outputs": [],
      "payable": false,
      "stateMutability": "nonpayable",
      "type": "function"
    },
    {
      "constant": true,
      "inputs": [],
      "name": "_getListingCounter",
      "outputs": [
        {
          "name": "",
          "type": "uint256"
        }
      ],
      "payable": false,
      "stateMutability": "view",
      "type": "function"
    },
    {
      "constant": true,
      "inputs": [],
      "name": "maxNumListings",
      "outputs": [
        {
          "name": "",
          "type": "uint256"
        }
      ],
      "payable": false,
      "stateMutability": "view",
      "type": "function"
    },
    {
      "constant": false,
      "inputs": [
        {
          "name": "_accountToRemove",
          "type": "address"
        }
      ],
      "name": "remove",
      "outputs": [],
      "payable": false,
      "stateMutability": "nonpayable",
      "type": "function"
    },
    {
      "constant": false,
      "inputs": [
        {
          "name": "_accountToWhiteList",
          "type": "address"
        }
      ],
      "name": "whiteList",
      "outputs": [],
      "payable": false,
      "stateMutability": "nonpayable",
      "type": "function"
    },
    {
      "constant": true,
      "inputs": [
        {
          "name": "_accountChecked",
          "type": "address"
        }
      ],
      "name": "isWhitelisted",
      "outputs": [
        {
          "name": "whitelisted",
          "type": "bool"
        }
      ],
      "payable": false,
      "stateMutability": "view",
      "type": "function"
    },
    {
      "constant": true,
      "inputs": [],
      "name": "_getNextListingCounter",
      "outputs": [
        {
          "name": "",
          "type": "uint256"
        }
      ],
      "payable": false,
      "stateMutability": "view",
      "type": "function"
    },
    {
      "constant": false,
      "inputs": [
        {
          "name": "_maxNumListings",
          "type": "uint256"
        }
      ],
      "name": "setMaxNumListings",
      "outputs": [],
      "payable": false,
      "stateMutability": "nonpayable",
      "type": "function"
    },
    {
      "constant": true,
      "inputs": [],
      "name": "lastSync",
      "outputs": [
        {
          "name": "",
          "type": "uint256"
        }
      ],
      "payable": false,
      "stateMutability": "view",
      "type": "function"
    },
    {
      "constant": true,
      "inputs": [],
      "name": "listingCounter",
      "outputs": [
        {
          "name": "",
          "type": "uint256"
        }
      ],
      "payable": false,
      "stateMutability": "view",
      "type": "function"
    },
    {
      "constant": false,
      "inputs": [],
      "name": "renounceOwnership",
      "outputs": [],
      "payable": false,
      "stateMutability": "nonpayable",
      "type": "function"
    },
    {
      "constant": true,
      "inputs": [
        {
          "name": "_accountChecked",
          "type": "address"
        },
        {
          "name": "_epoch",
          "type": "uint256"
        }
      ],
      "name": "wasWhitelisted",
      "outputs": [
        {
          "name": "whitelisted",
          "type": "bool"
        }
      ],
      "payable": false,
      "stateMutability": "view",
      "type": "function"
    },
    {
      "constant": true,
      "inputs": [],
      "name": "owner",
      "outputs": [
        {
          "name": "",
          "type": "address"
        }
      ],
      "payable": false,
      "stateMutability": "view",
      "type": "function"
    },
    {
      "constant": true,
      "inputs": [],
      "name": "isOwner",
      "outputs": [
        {
          "name": "",
          "type": "bool"
        }
      ],
      "payable": false,
      "stateMutability": "view",
      "type": "function"
    },
    {
      "constant": true,
      "inputs": [],
      "name": "_getMaxNumListings",
      "outputs": [
        {
          "name": "",
          "type": "uint256"
        }
      ],
      "payable": false,
      "stateMutability": "view",
      "type": "function"
    },
    {
      "constant": true,
      "inputs": [],
      "name": "isInit",
      "outputs": [
        {
          "name": "",
          "type": "bool"
        }
      ],
      "payable": false,
      "stateMutability": "view",
      "type": "function"
    },
    {
      "constant": false,
      "inputs": [
        {
          "name": "_accountToWhiteList",
          "type": "address"
        }
      ],
      "name": "whitelistCurrentPeriod",
      "outputs": [],
      "payable": false,
      "stateMutability": "nonpayable",
      "type": "function"
    },
    {
      "constant": false,
      "inputs": [
        {
          "name": "_newMaxNumListings",
          "type": "uint256"
        }
      ],
      "name": "_setMaxNumListings",
      "outputs": [],
      "payable": false,
      "stateMutability": "nonpayable",
      "type": "function"
    },
    {
      "constant": false,
      "inputs": [
        {
          "name": "_height",
          "type": "uint256"
        }
      ],
      "name": "updateState",
      "outputs": [],
      "payable": false,
      "stateMutability": "nonpayable",
      "type": "function"
    },
    {
      "constant": false,
      "inputs": [
        {
          "name": "_accountToWhiteList",
          "type": "address"
        }
      ],
      "name": "_blackListAddress",
      "outputs": [],
      "payable": false,
      "stateMutability": "nonpayable",
      "type": "function"
    },
    {
      "constant": true,
      "inputs": [],
      "name": "hardMaxNumListingsLimit",
      "outputs": [
        {
          "name": "",
          "type": "uint256"
        }
      ],
      "payable": false,
      "stateMutability": "view",
      "type": "function"
    },
    {
      "constant": false,
      "inputs": [
        {
          "name": "_accountToWhiteList",
          "type": "address"
        }
      ],
      "name": "_whiteListAddress",
      "outputs": [],
      "payable": false,
      "stateMutability": "nonpayable",
      "type": "function"
    },
    {
      "constant": true,
      "inputs": [
        {
          "name": "_epoch",
          "type": "uint256"
        }
      ],
      "name": "getWhitelistedFromEpoch",
      "outputs": [
        {
          "name": "elements",
          "type": "address[20]"
        }
      ],
      "payable": false,
      "stateMutability": "view",
      "type": "function"
    },
    {
      "constant": false,
      "inputs": [
        {
          "name": "newOwner",
          "type": "address"
        }
      ],
      "name": "transferOwnership",
      "outputs": [],
      "payable": false,
      "stateMutability": "nonpayable",
      "type": "function"
    },
    {
      "constant": false,
      "inputs": [
        {
          "name": "_hardMaxNumListingsLimit",
          "type": "uint256"
        },
        {
          "name": "_initMaxNumListings",
          "type": "uint256"
        },
        {
          "name": "_periodAddress",
          "type": "address"
        }
      ],
      "name": "init",
      "outputs": [],
      "payable": false,
      "stateMutability": "nonpayable",
      "type": "function"
    },
    {
      "inputs": [
        {
          "name": "_whiteListedAccounts",
          "type": "address[]"
        }
      ],
      "payable": false,
      "stateMutability": "nonpayable",
      "type": "constructor"
    },
    {
      "anonymous": false,
      "inputs": [
        {
          "indexed": false,
          "name": "_number",
          "type": "uint256"
        }
      ],
      "name": "_MaxListingsEdited",
      "type": "event"
    },
    {
      "anonymous": false,
      "inputs": [
        {
          "indexed": true,
          "name": "previousOwner",
          "type": "address"
        },
        {
          "indexed": true,
          "name": "newOwner",
          "type": "address"
        }
      ],
      "name": "OwnershipTransferred",
      "type": "event"
    },
    {
      "anonymous": false,
      "inputs": [
        {
          "indexed": false,
          "name": "_whiteListedAccount",
          "type": "address"
        }
      ],
      "name": "_WhiteList",
      "type": "event"
    },
    {
      "anonymous": false,
      "inputs": [
        {
          "indexed": false,
          "name": "_removedAccount",
          "type": "address"
        }
      ],
      "name": "_Remove",
      "type": "event"
    },
    {
      "anonymous": false,
      "inputs": [
        {
          "indexed": true,
          "name": "listingHash",
          "type": "bytes32"
        },
        {
          "indexed": false,
          "name": "deposit",
          "type": "uint256"
        },
        {
          "indexed": false,
          "name": "data",
          "type": "string"
        },
        {
          "indexed": true,
          "name": "applicant",
          "type": "address"
        }
      ],
      "name": "_Application",
      "type": "event"
    },
    {
      "constant": true,
      "inputs": [
        {
          "name": "_index",
          "type": "uint256"
        }
      ],
      "name": "debug_getArchive",
      "outputs": [
        {
          "name": "",
          "type": "address[20]"
        }
      ],
      "payable": false,
      "stateMutability": "view",
      "type": "function"
    },
    {
      "constant": false,
      "inputs": [],
      "name": "debug_forceUpdate",
      "outputs": [],
      "payable": false,
      "stateMutability": "nonpayable",
      "type": "function"
    }
  ],
  "bytecode": "0x60806040526000602f60006101000a81548160ff0219169083151502179055503480156200002c57600080fd5b5060405162002e0c38038062002e0c83398101806040528101908080518201929190505050600033603060006101000a81548173ffffffffffffffffffffffffffffffffffffffff021916908373ffffffffffffffffffffffffffffffffffffffff160217905550603060009054906101000a900473ffffffffffffffffffffffffffffffffffffffff1673ffffffffffffffffffffffffffffffffffffffff16600073ffffffffffffffffffffffffffffffffffffffff167f8be0079c531659141344cd1fd0a4f28419497f9722a3daafe3b4186f6b6457e060405160405180910390a3600090505b815181101562000160576200015282828151811015156200013357fe5b9060200190602002015162000168640100000000026401000000009004565b808060010191505062000116565b505062000adf565b6200017262000979565b6200017c62000979565b60008060006200019a62000584640100000000026401000000009004565b9050602d54811115620001c257620001c1816200064f640100000000026401000000009004565b5b600080600281101515620001d257fe5b60160201606060405190810160405290816000820160148060200260405190810160405280929190826014801562000256576020028201915b8160009054906101000a900473ffffffffffffffffffffffffffffffffffffffff1673ffffffffffffffffffffffffffffffffffffffff16815260200190600101908083116200020b575b50505050508152602001601482015481526020016015820154815250509450600060016002811015156200028657fe5b6016020160606040519081016040529081600082016014806020026040519081016040528092919082601480156200030a576020028201915b8160009054906101000a900473ffffffffffffffffffffffffffffffffffffffff1673ffffffffffffffffffffffffffffffffffffffff1681526020019060010190808311620002bf575b5050505050815260200160148201548152602001601582015481525050935060656200034a8787600001516200083a640100000000026401000000009004565b14925060656200036e8786600001516200083a640100000000026401000000009004565b149150821515620003e7576040517f08c379a000000000000000000000000000000000000000000000000000000000815260040180806020018281038252601b8152602001807f4164647265737320616c72656164792077686974656c6973746564000000000081525060200191505060405180910390fd5b8585600001518660200151601481101515620003ff57fe5b602002019073ffffffffffffffffffffffffffffffffffffffff16908173ffffffffffffffffffffffffffffffffffffffff16815250506200045e60018660200151620008bd6401000000000262001efb179091906401000000009004565b856020018181525050846000806002811015156200047857fe5b6016020160008201518160000190601462000495929190620009a4565b50602082015181601401556040820151816015015590505081156200057c578584600001518560200151601481101515620004cc57fe5b602002019073ffffffffffffffffffffffffffffffffffffffff16908173ffffffffffffffffffffffffffffffffffffffff16815250506200052b60018560200151620008bd6401000000000262001efb179091906401000000009004565b84602001818152505083600060016002811015156200054657fe5b6016020160008201518160000190601462000563929190620009a4565b5060208201518160140155604082015181601501559050505b505050505050565b6000602f60019054906101000a900473ffffffffffffffffffffffffffffffffffffffff1673ffffffffffffffffffffffffffffffffffffffff16630ef267436040518163ffffffff167c0100000000000000000000000000000000000000000000000000000000028152600401602060405180830381600087803b1580156200060d57600080fd5b505af115801562000622573d6000803e3d6000fd5b505050506040513d60208110156200063957600080fd5b8101908080519060200190929190505050905090565b6200065962000979565b6200066362000979565b6000806002811015156200067357fe5b601602016060604051908101604052908160008201601480602002604051908101604052809291908260148015620006f7576020028201915b8160009054906101000a900473ffffffffffffffffffffffffffffffffffffffff1673ffffffffffffffffffffffffffffffffffffffff1681526020019060010190808311620006ac575b50505050508152602001601482015481526020016015820154815250509150620007346001840383620008df640100000000026401000000009004565b600060016002811015156200074557fe5b601602016060604051908101604052908160008201601480602002604051908101604052809291908260148015620007c9576020028201915b8160009054906101000a900473ffffffffffffffffffffffffffffffffffffffff1673ffffffffffffffffffffffffffffffffffffffff16815260200190600101908083116200077e575b5050505050815260200160148201548152602001601582015481525050905080600080600281101515620007f957fe5b6016020160008201518160000190601462000816929190620009a4565b50602082015181601401556040820151816015015590505082602d81905550505050565b600080600060149150600090505b81811015620008b0578473ffffffffffffffffffffffffffffffffffffffff1684826014811015156200087757fe5b602002015173ffffffffffffffffffffffffffffffffffffffff161415620008a257809250620008b5565b808060010191505062000848565b606592505b505092915050565b6000808284019050838110151515620008d557600080fd5b8091505092915050565b620008e962000a26565b6040805190810160405280848152602001838152509050602c8190806001815401808255809150509060018203906000526020600020906017020160009091929091909150600082015181600001556020820151816001016000820151816000019060146200095a929190620009a4565b5060208201518160140155604082015181601501555050505050505050565b6102c0604051908101604052806200099062000a4a565b815260200160008152602001600081525090565b826014810192821562000a13579160200282015b8281111562000a125782518260006101000a81548173ffffffffffffffffffffffffffffffffffffffff021916908373ffffffffffffffffffffffffffffffffffffffff16021790555091602001919060010190620009b8565b5b50905062000a22919062000a6e565b5090565b6102e0604051908101604052806000815260200162000a4462000ab4565b81525090565b61028060405190810160405280601490602082028038833980820191505090505090565b62000ab191905b8082111562000aad57600081816101000a81549073ffffffffffffffffffffffffffffffffffffffff02191690555060010162000a75565b5090565b90565b6102c06040519081016040528062000acb62000a4a565b815260200160008152602001600081525090565b61231d8062000aef6000396000f30060806040526004361061015f576000357c0100000000000000000000000000000000000000000000000000000000900463ffffffff16806306bbce32146101645780630b58343a146101a75780630e8f773e146101d257806329092d0e146101fd578063372c12b1146102405780633af32abf146102835780633be6e937146102de5780634701e884146103095780635b92e5ad146103205780636917516b1461034d5780636c2c9c7d14610378578063715018a6146103a3578063811b1ea9146103ba5780638da5cb5b1461041f5780638f32d59b1461047657806398b20e0f146104a5578063b145a5b8146104d0578063be1de1a0146104ff578063c40de52e14610542578063cc8a55e21461056f578063d000d7a61461059c578063d4ad420e14610605578063dc60164e14610648578063e4ad2b9214610673578063ecddf2d0146106b6578063f2fde38b1461071f578063f3251e1e14610762575b600080fd5b34801561017057600080fd5b506101a5600480360381019080803573ffffffffffffffffffffffffffffffffffffffff1690602001909291905050506107b9565b005b3480156101b357600080fd5b506101bc610aec565b6040518082815260200191505060405180910390f35b3480156101de57600080fd5b506101e7610b0b565b6040518082815260200191505060405180910390f35b34801561020957600080fd5b5061023e600480360381019080803573ffffffffffffffffffffffffffffffffffffffff169060200190929190505050610b1f565b005b34801561024c57600080fd5b50610281600480360381019080803573ffffffffffffffffffffffffffffffffffffffff169060200190929190505050610bcf565b005b34801561028f57600080fd5b506102c4600480360381019080803573ffffffffffffffffffffffffffffffffffffffff169060200190929190505050610cb0565b604051808215151515815260200191505060405180910390f35b3480156102ea57600080fd5b506102f3610cc5565b6040518082815260200191505060405180910390f35b34801561031557600080fd5b5061031e610ce4565b005b34801561032c57600080fd5b5061034b60048036038101908080359060200190929190505050610d07565b005b34801561035957600080fd5b50610362610da1565b6040518082815260200191505060405180910390f35b34801561038457600080fd5b5061038d610da7565b6040518082815260200191505060405180910390f35b3480156103af57600080fd5b506103b8610dbb565b005b3480156103c657600080fd5b50610405600480360381019080803573ffffffffffffffffffffffffffffffffffffffff16906020019092919080359060200190929190505050610e8f565b604051808215151515815260200191505060405180910390f35b34801561042b57600080fd5b50610434610ed5565b604051808273ffffffffffffffffffffffffffffffffffffffff1673ffffffffffffffffffffffffffffffffffffffff16815260200191505060405180910390f35b34801561048257600080fd5b5061048b610eff565b604051808215151515815260200191505060405180910390f35b3480156104b157600080fd5b506104ba610f57565b6040518082815260200191505060405180910390f35b3480156104dc57600080fd5b506104e5610f76565b604051808215151515815260200191505060405180910390f35b34801561050b57600080fd5b50610540600480360381019080803573ffffffffffffffffffffffffffffffffffffffff169060200190929190505050610f89565b005b34801561054e57600080fd5b5061056d6004803603810190808035906020019092919050505061132c565b005b34801561057b57600080fd5b5061059a60048036038101908080359060200190929190505050611355565b005b3480156105a857600080fd5b506105c760048036038101908080359060200190929190505050611522565b6040518082601460200280838360005b838110156105f25780820151818401526020810190506105d7565b5050505090500191505060405180910390f35b34801561061157600080fd5b50610646600480360381019080803573ffffffffffffffffffffffffffffffffffffffff16906020019092919050505061153e565b005b34801561065457600080fd5b5061065d611594565b6040518082815260200191505060405180910390f35b34801561067f57600080fd5b506106b4600480360381019080803573ffffffffffffffffffffffffffffffffffffffff16906020019092919050505061159a565b005b3480156106c257600080fd5b506106e1600480360381019080803590602001909291905050506116d9565b6040518082601460200280838360005b8381101561070c5780820151818401526020810190506106f1565b5050505090500191505060405180910390f35b34801561072b57600080fd5b50610760600480360381019080803573ffffffffffffffffffffffffffffffffffffffff1690602001909291905050506116f5565b005b34801561076e57600080fd5b506107b76004803603810190808035906020019092919080359060200190929190803573ffffffffffffffffffffffffffffffffffffffff169060200190929190505050611714565b005b6107c1612175565b6107c9612175565b60008060006107d6611865565b9050602d548111156107ec576107eb81611355565b5b6000806002811015156107fb57fe5b60160201606060405190810160405290816000820160148060200260405190810160405280929190826014801561087d576020028201915b8160009054906101000a900473ffffffffffffffffffffffffffffffffffffffff1673ffffffffffffffffffffffffffffffffffffffff1681526020019060010190808311610833575b50505050508152602001601482015481526020016015820154815250509450600060016002811015156108ac57fe5b60160201606060405190810160405290816000820160148060200260405190810160405280929190826014801561092e576020028201915b8160009054906101000a900473ffffffffffffffffffffffffffffffffffffffff1673ffffffffffffffffffffffffffffffffffffffff16815260200190600101908083116108e4575b50505050508152602001601482015481526020016015820154815250509350606561095d87876000015161192d565b109250606561097087866000015161192d565b1091508215156109e8576040517f08c379a000000000000000000000000000000000000000000000000000000000815260040180806020018281038252601a8152602001807f41646472657373206973206e6f742077686974656c697374656400000000000081525060200191505060405180910390fd5b6109f68686600001516119ab565b8560000181905250610a1660018660200151611ad490919063ffffffff16565b85602001818152505084600080600281101515610a2f57fe5b60160201600082015181600001906014610a4a92919061219e565b5060208201518160140155604082015181601501559050508115610ae457610a768685600001516119ab565b8460000181905250610a9660018560200151611ad490919063ffffffff16565b8460200181815250508360006001600281101515610ab057fe5b60160201600082015181600001906014610acb92919061219e565b5060208201518160140155604082015181601501559050505b505050505050565b6000610af6612175565b610afe611af5565b9050806020015191505090565b600080610b16610f57565b90508091505090565b610b27610ed5565b73ffffffffffffffffffffffffffffffffffffffff163373ffffffffffffffffffffffffffffffffffffffff16141515610b6057600080fd5b610b698161153e565b7f4dad83fa2f662e801184bd81b75b1894fdfd16026aa67a6a65d5715476a61f5381604051808273ffffffffffffffffffffffffffffffffffffffff1673ffffffffffffffffffffffffffffffffffffffff16815260200191505060405180910390a150565b610bd7610ed5565b73ffffffffffffffffffffffffffffffffffffffff163373ffffffffffffffffffffffffffffffffffffffff16141515610c1057600080fd5b610c1981610cb0565b151515610c2557600080fd5b610c2d610f57565b610c35610cc5565b101515610c4157600080fd5b610c4a8161159a565b7f14c99c95843c55c4e6e3cd95be615861493e90f3919ff664169bfbe2839dbfb081604051808273ffffffffffffffffffffffffffffffffffffffff1673ffffffffffffffffffffffffffffffffffffffff16815260200191505060405180910390a150565b6000610cbb82611c78565b9050809050919050565b6000610ccf612175565b610cd7611cab565b9050806020015191505090565b6000610cee611865565b9050602d54811115610d0457610d0381611355565b5b50565b610d0f610ed5565b73ffffffffffffffffffffffffffffffffffffffff163373ffffffffffffffffffffffffffffffffffffffff16141515610d4857600080fd5b610d50610aec565b8110151515610d5e57600080fd5b610d678161132c565b7fd53c8ff37b935c3daef1e99bb428f04a9cd34afe9bc9d6b0d5b2c8cecf5d1b53816040518082815260200191505060405180910390a150565b602d5481565b600080610db2610aec565b90508091505090565b610dc3610eff565b1515610dce57600080fd5b600073ffffffffffffffffffffffffffffffffffffffff16603060009054906101000a900473ffffffffffffffffffffffffffffffffffffffff1673ffffffffffffffffffffffffffffffffffffffff167f8be0079c531659141344cd1fd0a4f28419497f9722a3daafe3b4186f6b6457e060405160405180910390a36000603060006101000a81548173ffffffffffffffffffffffffffffffffffffffff021916908373ffffffffffffffffffffffffffffffffffffffff160217905550565b6000610e9961221b565b6000610ea484611d73565b600001519150610eb4858361192d565b90506065811415610ec85760009250610ecd565b600192505b505092915050565b6000603060009054906101000a900473ffffffffffffffffffffffffffffffffffffffff16905090565b6000603060009054906101000a900473ffffffffffffffffffffffffffffffffffffffff1673ffffffffffffffffffffffffffffffffffffffff163373ffffffffffffffffffffffffffffffffffffffff1614905090565b6000610f61612175565b610f69611af5565b9050806040015191505090565b602f60009054906101000a900460ff1681565b610f91612175565b610f99612175565b6000806000610fa6611865565b9050602d54811115610fbc57610fbb81611355565b5b600080600281101515610fcb57fe5b60160201606060405190810160405290816000820160148060200260405190810160405280929190826014801561104d576020028201915b8160009054906101000a900473ffffffffffffffffffffffffffffffffffffffff1673ffffffffffffffffffffffffffffffffffffffff1681526020019060010190808311611003575b505050505081526020016014820154815260200160158201548152505094506000600160028110151561107c57fe5b6016020160606040519081016040529081600082016014806020026040519081016040528092919082601480156110fe576020028201915b8160009054906101000a900473ffffffffffffffffffffffffffffffffffffffff1673ffffffffffffffffffffffffffffffffffffffff16815260200190600101908083116110b4575b50505050508152602001601482015481526020016015820154815250509350606561112d87876000015161192d565b149250606561114087866000015161192d565b1491508215156111b8576040517f08c379a000000000000000000000000000000000000000000000000000000000815260040180806020018281038252601b8152602001807f4164647265737320616c72656164792077686974656c6973746564000000000081525060200191505060405180910390fd5b85856000015186602001516014811015156111cf57fe5b602002019073ffffffffffffffffffffffffffffffffffffffff16908173ffffffffffffffffffffffffffffffffffffffff168152505061121e60018660200151611efb90919063ffffffff16565b8560200181815250508460008060028110151561123757fe5b6016020160008201518160000190601461125292919061219e565b506020820151816014015560408201518160150155905050811561132457858460000151856020015160148110151561128757fe5b602002019073ffffffffffffffffffffffffffffffffffffffff16908173ffffffffffffffffffffffffffffffffffffffff16815250506112d660018560200151611efb90919063ffffffff16565b84602001818152505083600060016002811015156112f057fe5b6016020160008201518160000190601461130b92919061219e565b5060208201518160140155604082015181601501559050505b505050505050565b611334612175565b61133c611cab565b90508181604001818152505061135181611f1c565b5050565b61135d612175565b611365612175565b60008060028110151561137457fe5b6016020160606040519081016040529081600082016014806020026040519081016040528092919082601480156113f6576020028201915b8160009054906101000a900473ffffffffffffffffffffffffffffffffffffffff1673ffffffffffffffffffffffffffffffffffffffff16815260200190600101908083116113ac575b505050505081526020016014820154815260200160158201548152505091506114226001840383611f84565b6000600160028110151561143257fe5b6016020160606040519081016040529081600082016014806020026040519081016040528092919082601480156114b4576020028201915b8160009054906101000a900473ffffffffffffffffffffffffffffffffffffffff1673ffffffffffffffffffffffffffffffffffffffff168152602001906001019080831161146a575b50505050508152602001601482015481526020016015820154815250509050806000806002811015156114e357fe5b601602016000820151816000019060146114fe92919061219e565b50602082015181601401556040820151816015015590505082602d81905550505050565b61152a61221b565b61153382611d73565b600001519050919050565b611546612175565b61154e611cab565b905061155e8282600001516119ab565b816000018190525061157e60018260200151611ad490919063ffffffff16565b81602001818152505061159081611f1c565b5050565b602e5481565b6115a2612175565b60006115ac611cab565b91506115bc83836000015161192d565b905060098111151561165c576040517f08c379a00000000000000000000000000000000000000000000000000000000081526004018080602001828103825260218152602001807f4164647265737320616c72656164792077686974656c6973746564206578697381526020017f740000000000000000000000000000000000000000000000000000000000000081525060400191505060405180910390fd5b828260000151836020015160148110151561167357fe5b602002019073ffffffffffffffffffffffffffffffffffffffff16908173ffffffffffffffffffffffffffffffffffffffff16815250506116c260018360200151611efb90919063ffffffff16565b8260200181815250506116d482611f1c565b505050565b6116e161221b565b6116ea82611d73565b600001519050919050565b6116fd610eff565b151561170857600080fd5b6117118161201a565b50565b61171c61221b565b611724612175565b602f60009054906101000a900460ff1615151561174057600080fd5b602f60009054906101000a900460ff1615151561175c57600080fd5b606060405190810160405280838152602001600081526020018581525090508060008060028110151561178b57fe5b601602016000820151816000019060146117a692919061219e565b50602082015181601401556040820151816015015590505080600060016002811015156117cf57fe5b601602016000820151816000019060146117ea92919061219e565b50602082015181601401556040820151816015015590505082602f60016101000a81548173ffffffffffffffffffffffffffffffffffffffff021916908373ffffffffffffffffffffffffffffffffffffffff1602179055506001602f60006101000a81548160ff0219169083151502179055505050505050565b6000602f60019054906101000a900473ffffffffffffffffffffffffffffffffffffffff1673ffffffffffffffffffffffffffffffffffffffff16630ef267436040518163ffffffff167c0100000000000000000000000000000000000000000000000000000000028152600401602060405180830381600087803b1580156118ed57600080fd5b505af1158015611901573d6000803e3d6000fd5b505050506040513d602081101561191757600080fd5b8101908080519060200190929190505050905090565b600080600060149150600090505b8181101561199e578473ffffffffffffffffffffffffffffffffffffffff16848260148110151561196857fe5b602002015173ffffffffffffffffffffffffffffffffffffffff161415611991578092506119a3565b808060010191505061193b565b606592505b505092915050565b6119b361221b565b600080601491506119c4858561192d565b9050600981101515611a3e576040517f08c379a00000000000000000000000000000000000000000000000000000000081526004018080602001828103825260168152602001807f4164647265737320646f6573206e6f742065786973740000000000000000000081525060200191505060405180910390fd5b8360018303601481101515611a4f57fe5b60200201518482601481101515611a6257fe5b602002019073ffffffffffffffffffffffffffffffffffffffff16908173ffffffffffffffffffffffffffffffffffffffff16815250508360018303601481101515611aaa57fe5b60200201600073ffffffffffffffffffffffffffffffffffffffff16815250839250505092915050565b600080838311151515611ae657600080fd5b82840390508091505092915050565b611afd612175565b602d54611b08611865565b1115611bc45760006001600281101515611b1e57fe5b601602016060604051908101604052908160008201601480602002604051908101604052809291908260148015611ba0576020028201915b8160009054906101000a900473ffffffffffffffffffffffffffffffffffffffff1673ffffffffffffffffffffffffffffffffffffffff1681526020019060010190808311611b56575b50505050508152602001601482015481526020016015820154815250509050611c75565b600080600281101515611bd357fe5b601602016060604051908101604052908160008201601480602002604051908101604052809291908260148015611c55576020028201915b8160009054906101000a900473ffffffffffffffffffffffffffffffffffffffff1673ffffffffffffffffffffffffffffffffffffffff1681526020019060010190808311611c0b575b505050505081526020016014820154815260200160158201548152505090505b90565b6000611c82612175565b6000611c8c611af5565b91506065611c9e85846000015161192d565b1090508092505050919050565b611cb3612175565b611cbb612175565b60006001600281101515611ccb57fe5b601602016060604051908101604052908160008201601480602002604051908101604052809291908260148015611d4d576020028201915b8160009054906101000a900473ffffffffffffffffffffffffffffffffffffffff1673ffffffffffffffffffffffffffffffffffffffff1681526020019060010190808311611d03575b505050505081526020016014820154815260200160158201548152505090508091505090565b611d7b612175565b6000611d85612175565b611d8d611865565b84101515611e29576040517f08c379a00000000000000000000000000000000000000000000000000000000081526004018080602001828103825260268152602001807f43616e206e6f74206765742063757272656e742065706f63682066726f6d206181526020017f726368697665000000000000000000000000000000000000000000000000000081525060400191505060405180910390fd5b611e3284612116565b9150602c82815481101515611e4357fe5b90600052602060002090601702016001016060604051908101604052908160008201601480602002604051908101604052809291908260148015611ed2576020028201915b8160009054906101000a900473ffffffffffffffffffffffffffffffffffffffff1673ffffffffffffffffffffffffffffffffffffffff1681526020019060010190808311611e88575b505050505081526020016014820154815260200160158201548152505090508092505050919050565b6000808284019050838110151515611f1257600080fd5b8091505092915050565b6000611f26611865565b9050602d54811115611f3c57611f3b81611355565b5b8160006001600281101515611f4d57fe5b60160201600082015181600001906014611f6892919061219e565b5060208201518160140155604082015181601501559050505050565b611f8c61223f565b6040805190810160405280848152602001838152509050602c819080600181540180825580915050906001820390600052602060002090601702016000909192909190915060008201518160000155602082015181600101600082015181600001906014611ffb92919061219e565b5060208201518160140155604082015181601501555050505050505050565b600073ffffffffffffffffffffffffffffffffffffffff168173ffffffffffffffffffffffffffffffffffffffff161415151561205657600080fd5b8073ffffffffffffffffffffffffffffffffffffffff16603060009054906101000a900473ffffffffffffffffffffffffffffffffffffffff1673ffffffffffffffffffffffffffffffffffffffff167f8be0079c531659141344cd1fd0a4f28419497f9722a3daafe3b4186f6b6457e060405160405180910390a380603060006101000a81548173ffffffffffffffffffffffffffffffffffffffff021916908373ffffffffffffffffffffffffffffffffffffffff16021790555050565b6000806000602c805490509150600090505b8181101561216d5783602c8281548110151561214057fe5b90600052602060002090601702016000015414156121605780925061216e565b8080600101915050612128565b5b5050919050565b6102c06040519081016040528061218a612261565b815260200160008152602001600081525090565b826014810192821561220a579160200282015b828111156122095782518260006101000a81548173ffffffffffffffffffffffffffffffffffffffff021916908373ffffffffffffffffffffffffffffffffffffffff160217905550916020019190600101906121b1565b5b5090506122179190612285565b5090565b61028060405190810160405280601490602082028038833980820191505090505090565b6102e0604051908101604052806000815260200161225b6122c8565b81525090565b61028060405190810160405280601490602082028038833980820191505090505090565b6122c591905b808211156122c157600081816101000a81549073ffffffffffffffffffffffffffffffffffffffff02191690555060010161228b565b5090565b90565b6102c0604051908101604052806122dd612261565b8152602001600081526020016000815250905600a165627a7a72305820d722f048554d102a4e7c0f6b1640f1ad7b47abde2d95cddaf80333a2ea8762a10029",
  "source": "\n//import \"github.com/OpenZeppelin/zeppelin-solidity/contracts/math/SafeMath.sol\";\nimport \"openzeppelin-solidity/contracts/math/SafeMath.sol\";\nimport \"@frontier-token-research/cron/contracts/mocks/PeriodMock.sol\";\nimport \"../OwnedRegistry.sol\";\n\npragma solidity 0.4.24;\n\ncontract OwnedRegistryMock is OwnedRegistry {\n    using SafeMath for uint256;\n    \n    //uint256 public counter;\n    \n    ///// Aux\n\n    constructor(address[] _whiteListedAccounts)\n        OwnedRegistry()\n        public\n    {\n        for (uint i = 0; i < _whiteListedAccounts.length; i++){\n            whitelistCurrentPeriod(_whiteListedAccounts[i]);\n        }\n    }\n\n    // function height() internal view returns (uint){\n    //     return counter;\n    // }\n\n    // function next() public {\n    //     counter=counter;\n    // }\n\n    // Debug\n\n    function debug_getArchive(uint256 _index) public view returns (address[20]){\n        return _getEpochFromArchive(_index).whiteListed;\n    }\n\n    function debug_forceUpdate() public updatable() {\n        return;\n    }\n    // function debug_get0() public view returns (uint, address[5]){\n    //     return (strg[0].listingCounter, strg[0].whiteListed);\n    // }\n    \n    // function debug_get1() public view returns (uint, address[5]){\n    //     return (strg[1].listingCounter, strg[1].whiteListed);\n    // }\n    \n    // function debug_getCurrent() public view returns (uint, address[5]) {\n    //     if (height() > lastSync){\n    //         return (strg[1].listingCounter, strg[1].whiteListed);\n    //     }\n    //     return (strg[0].listingCounter, strg[0].whiteListed);\n    // }\n\n    // function debug_getArchiveAndPeriod(uint256 _index) public view returns (uint256,address[5]){\n    //     Archive memory arch = archive[_index]; \n    //     return (arch.epoch, arch.item.whiteListed);\n    // }\n\n\n    // function debug_getArchiveSize() public view returns (uint256){\n    //     return archive.length;\n    // }\n}\n",
  "sourcePath": "/Users/boss/git/frontier/trl-project/RoleRegistries/contracts/mocks/OwnedRegistryMock.sol",
  "compiler": {
    "name": "solc",
    "version": "0.4.24+commit.e67f0147.Emscripten.clang"
  },
  "schemaVersion": "2.0.1",
  "updatedAt": "2018-12-12T12:50:21.485Z"
}