{
  "contractName": "OwnedRegistryMock",
  "abi": [
    {
      "constant": true,
      "inputs": [],
      "name": "_getListingCounter",
      "outputs": [
        {
          "name": "",
          "type": "uint256"
        }
      ],
      "payable": false,
      "stateMutability": "view",
      "type": "function"
    },
    {
      "constant": true,
      "inputs": [],
      "name": "maxNumListings",
      "outputs": [
        {
          "name": "",
          "type": "uint256"
        }
      ],
      "payable": false,
      "stateMutability": "view",
      "type": "function"
    },
    {
      "constant": false,
      "inputs": [],
      "name": "updateState",
      "outputs": [],
      "payable": false,
      "stateMutability": "nonpayable",
      "type": "function"
    },
    {
      "constant": false,
      "inputs": [
        {
          "name": "_accountToRemove",
          "type": "address"
        }
      ],
      "name": "remove",
      "outputs": [],
      "payable": false,
      "stateMutability": "nonpayable",
      "type": "function"
    },
    {
      "constant": false,
      "inputs": [
        {
          "name": "_accountToWhiteList",
          "type": "address"
        }
      ],
      "name": "whiteList",
      "outputs": [],
      "payable": false,
      "stateMutability": "nonpayable",
      "type": "function"
    },
    {
      "constant": true,
      "inputs": [
        {
          "name": "_accountChecked",
          "type": "address"
        }
      ],
      "name": "isWhitelisted",
      "outputs": [
        {
          "name": "whitelisted",
          "type": "bool"
        }
      ],
      "payable": false,
      "stateMutability": "view",
      "type": "function"
    },
    {
      "constant": true,
      "inputs": [],
      "name": "_getNextListingCounter",
      "outputs": [
        {
          "name": "",
          "type": "uint256"
        }
      ],
      "payable": false,
      "stateMutability": "view",
      "type": "function"
    },
    {
      "constant": false,
      "inputs": [
        {
          "name": "_maxNumListings",
          "type": "uint256"
        }
      ],
      "name": "setMaxNumListings",
      "outputs": [],
      "payable": false,
      "stateMutability": "nonpayable",
      "type": "function"
    },
    {
      "constant": true,
      "inputs": [],
      "name": "counter",
      "outputs": [
        {
          "name": "",
          "type": "uint256"
        }
      ],
      "payable": false,
      "stateMutability": "view",
      "type": "function"
    },
    {
      "constant": true,
      "inputs": [],
      "name": "lastSync",
      "outputs": [
        {
          "name": "",
          "type": "uint256"
        }
      ],
      "payable": false,
      "stateMutability": "view",
      "type": "function"
    },
    {
      "constant": true,
      "inputs": [],
      "name": "listingCounter",
      "outputs": [
        {
          "name": "",
          "type": "uint256"
        }
      ],
      "payable": false,
      "stateMutability": "view",
      "type": "function"
    },
    {
      "constant": false,
      "inputs": [],
      "name": "renounceOwnership",
      "outputs": [],
      "payable": false,
      "stateMutability": "nonpayable",
      "type": "function"
    },
    {
      "constant": true,
      "inputs": [],
      "name": "owner",
      "outputs": [
        {
          "name": "",
          "type": "address"
        }
      ],
      "payable": false,
      "stateMutability": "view",
      "type": "function"
    },
    {
      "constant": true,
      "inputs": [],
      "name": "_getMaxNumListings",
      "outputs": [
        {
          "name": "",
          "type": "uint256"
        }
      ],
      "payable": false,
      "stateMutability": "view",
      "type": "function"
    },
    {
      "constant": true,
      "inputs": [],
      "name": "isInit",
      "outputs": [
        {
          "name": "",
          "type": "bool"
        }
      ],
      "payable": false,
      "stateMutability": "view",
      "type": "function"
    },
    {
      "constant": false,
      "inputs": [
        {
          "name": "_newMaxNumListings",
          "type": "uint256"
        }
      ],
      "name": "_setMaxNumListings",
      "outputs": [],
      "payable": false,
      "stateMutability": "nonpayable",
      "type": "function"
    },
    {
      "constant": false,
      "inputs": [
        {
          "name": "_accountToWhiteList",
          "type": "address"
        }
      ],
      "name": "_blackListAddress",
      "outputs": [],
      "payable": false,
      "stateMutability": "nonpayable",
      "type": "function"
    },
    {
      "constant": true,
      "inputs": [],
      "name": "hardMaxNumListingsLimit",
      "outputs": [
        {
          "name": "",
          "type": "uint256"
        }
      ],
      "payable": false,
      "stateMutability": "view",
      "type": "function"
    },
    {
      "constant": false,
      "inputs": [
        {
          "name": "_accountToWhiteList",
          "type": "address"
        }
      ],
      "name": "_whiteListAddress",
      "outputs": [],
      "payable": false,
      "stateMutability": "nonpayable",
      "type": "function"
    },
    {
      "constant": false,
      "inputs": [
        {
          "name": "_newOwner",
          "type": "address"
        }
      ],
      "name": "transferOwnership",
      "outputs": [],
      "payable": false,
      "stateMutability": "nonpayable",
      "type": "function"
    },
    {
      "constant": false,
      "inputs": [
        {
          "name": "_hardMaxNumListingsLimit",
          "type": "uint256"
        },
        {
          "name": "_initMaxNumListings",
          "type": "uint256"
        },
        {
          "name": "_trlAddress",
          "type": "address"
        }
      ],
      "name": "init",
      "outputs": [],
      "payable": false,
      "stateMutability": "nonpayable",
      "type": "function"
    },
    {
      "anonymous": false,
      "inputs": [
        {
          "indexed": false,
          "name": "_number",
          "type": "uint256"
        }
      ],
      "name": "_MaxListingsEdited",
      "type": "event"
    },
    {
      "anonymous": false,
      "inputs": [
        {
          "indexed": true,
          "name": "previousOwner",
          "type": "address"
        }
      ],
      "name": "OwnershipRenounced",
      "type": "event"
    },
    {
      "anonymous": false,
      "inputs": [
        {
          "indexed": true,
          "name": "previousOwner",
          "type": "address"
        },
        {
          "indexed": true,
          "name": "newOwner",
          "type": "address"
        }
      ],
      "name": "OwnershipTransferred",
      "type": "event"
    },
    {
      "anonymous": false,
      "inputs": [
        {
          "indexed": false,
          "name": "_whiteListedAccount",
          "type": "address"
        }
      ],
      "name": "_WhiteList",
      "type": "event"
    },
    {
      "anonymous": false,
      "inputs": [
        {
          "indexed": false,
          "name": "_removedAccount",
          "type": "address"
        }
      ],
      "name": "_Remove",
      "type": "event"
    },
    {
      "anonymous": false,
      "inputs": [
        {
          "indexed": true,
          "name": "listingHash",
          "type": "bytes32"
        },
        {
          "indexed": false,
          "name": "deposit",
          "type": "uint256"
        },
        {
          "indexed": false,
          "name": "data",
          "type": "string"
        },
        {
          "indexed": true,
          "name": "applicant",
          "type": "address"
        }
      ],
      "name": "_Application",
      "type": "event"
    },
    {
      "constant": false,
      "inputs": [],
      "name": "next",
      "outputs": [],
      "payable": false,
      "stateMutability": "nonpayable",
      "type": "function"
    },
    {
      "constant": true,
      "inputs": [],
      "name": "debug_get0",
      "outputs": [
        {
          "name": "",
          "type": "uint256"
        },
        {
          "name": "",
          "type": "address[5]"
        }
      ],
      "payable": false,
      "stateMutability": "view",
      "type": "function"
    },
    {
      "constant": true,
      "inputs": [],
      "name": "debug_get1",
      "outputs": [
        {
          "name": "",
          "type": "uint256"
        },
        {
          "name": "",
          "type": "address[5]"
        }
      ],
      "payable": false,
      "stateMutability": "view",
      "type": "function"
    },
    {
      "constant": true,
      "inputs": [],
      "name": "debug_getCurrent",
      "outputs": [
        {
          "name": "",
          "type": "uint256"
        },
        {
          "name": "",
          "type": "address[5]"
        }
      ],
      "payable": false,
      "stateMutability": "view",
      "type": "function"
    }
  ],
  "bytecode": "0x60806040526000602560006101000a81548160ff02191690831515021790555033602660006101000a81548173ffffffffffffffffffffffffffffffffffffffff021916908373ffffffffffffffffffffffffffffffffffffffff160217905550611a538061006f6000396000f300608060405260043610610149576000357c0100000000000000000000000000000000000000000000000000000000900463ffffffff1680630b58343a1461014e5780630e8f773e146101795780631d8557d7146101a457806329092d0e146101bb578063372c12b1146101fe5780633af32abf146102415780633be6e9371461029c5780634c8fe526146102c75780635635d7b5146102de5780635b92e5ad1461033857806361bc221a146103655780636917516b146103905780636c2c9c7d146103bb578063715018a6146103e65780638da5cb5b146103fd57806398b20e0f14610454578063a57856d11461047f578063b145a5b8146104d9578063c40de52e14610508578063c61c28ea14610535578063d4ad420e1461058f578063dc60164e146105d2578063e4ad2b92146105fd578063f2fde38b14610640578063f3251e1e14610683575b600080fd5b34801561015a57600080fd5b506101636106da565b6040518082815260200191505060405180910390f35b34801561018557600080fd5b5061018e6106f9565b6040518082815260200191505060405180910390f35b3480156101b057600080fd5b506101b961070d565b005b3480156101c757600080fd5b506101fc600480360381019080803573ffffffffffffffffffffffffffffffffffffffff16906020019092919050505061081a565b005b34801561020a57600080fd5b5061023f600480360381019080803573ffffffffffffffffffffffffffffffffffffffff1690602001909291905050506108e5565b005b34801561024d57600080fd5b50610282600480360381019080803573ffffffffffffffffffffffffffffffffffffffff1690602001909291905050506109e1565b604051808215151515815260200191505060405180910390f35b3480156102a857600080fd5b506102b16109f6565b6040518082815260200191505060405180910390f35b3480156102d357600080fd5b506102dc610a15565b005b3480156102ea57600080fd5b506102f3610a29565b6040518083815260200182600560200280838360005b83811015610324578082015181840152602081019050610309565b505050509050019250505060405180910390f35b34801561034457600080fd5b5061036360048036038101908080359060200190929190505050610adf565b005b34801561037157600080fd5b5061037a610b94565b6040518082815260200191505060405180910390f35b34801561039c57600080fd5b506103a5610b9a565b6040518082815260200191505060405180910390f35b3480156103c757600080fd5b506103d0610ba0565b6040518082815260200191505060405180910390f35b3480156103f257600080fd5b506103fb610bb4565b005b34801561040957600080fd5b50610412610cb9565b604051808273ffffffffffffffffffffffffffffffffffffffff1673ffffffffffffffffffffffffffffffffffffffff16815260200191505060405180910390f35b34801561046057600080fd5b50610469610cdf565b6040518082815260200191505060405180910390f35b34801561048b57600080fd5b50610494610cfe565b6040518083815260200182600560200280838360005b838110156104c55780820151818401526020810190506104aa565b505050509050019250505060405180910390f35b3480156104e557600080fd5b506104ee610e71565b604051808215151515815260200191505060405180910390f35b34801561051457600080fd5b5061053360048036038101908080359060200190929190505050610e84565b005b34801561054157600080fd5b5061054a610ead565b6040518083815260200182600560200280838360005b8381101561057b578082015181840152602081019050610560565b505050509050019250505060405180910390f35b34801561059b57600080fd5b506105d0600480360381019080803573ffffffffffffffffffffffffffffffffffffffff169060200190929190505050610f61565b005b3480156105de57600080fd5b506105e7610fb7565b6040518082815260200191505060405180910390f35b34801561060957600080fd5b5061063e600480360381019080803573ffffffffffffffffffffffffffffffffffffffff169060200190929190505050610fbd565b005b34801561064c57600080fd5b50610681600480360381019080803573ffffffffffffffffffffffffffffffffffffffff1690602001909291905050506110fc565b005b34801561068f57600080fd5b506106d86004803603810190808035906020019092919080359060200190929190803573ffffffffffffffffffffffffffffffffffffffff169060200190929190505050611164565b005b60006106e46118f9565b6106ec611338565b9050806020015191505090565b600080610704610cdf565b90508091505090565b6107156118f9565b6000600160058110151561072557fe5b6007020160606040519081016040529081600082016005806020026040519081016040528092919082600580156107a7576020028201915b8160009054906101000a900473ffffffffffffffffffffffffffffffffffffffff1673ffffffffffffffffffffffffffffffffffffffff168152602001906001019080831161075d575b50505050508152602001600582015481526020016006820154815250509050806000806005811015156107d657fe5b600702016000820151816000019060056107f1929190611921565b5060208201518160050155604082015181600601559050506108116114bb565b60238190555050565b602660009054906101000a900473ffffffffffffffffffffffffffffffffffffffff1673ffffffffffffffffffffffffffffffffffffffff163373ffffffffffffffffffffffffffffffffffffffff1614151561087657600080fd5b61087f81610f61565b7f4dad83fa2f662e801184bd81b75b1894fdfd16026aa67a6a65d5715476a61f5381604051808273ffffffffffffffffffffffffffffffffffffffff1673ffffffffffffffffffffffffffffffffffffffff16815260200191505060405180910390a150565b602660009054906101000a900473ffffffffffffffffffffffffffffffffffffffff1673ffffffffffffffffffffffffffffffffffffffff163373ffffffffffffffffffffffffffffffffffffffff1614151561094157600080fd5b61094a816109e1565b15151561095657600080fd5b61095e610cdf565b6109666109f6565b10151561097257600080fd5b61097b81610fbd565b7f14c99c95843c55c4e6e3cd95be615861493e90f3919ff664169bfbe2839dbfb081604051808273ffffffffffffffffffffffffffffffffffffffff1673ffffffffffffffffffffffffffffffffffffffff16815260200191505060405180910390a150565b60006109ec826114c5565b9050809050919050565b6000610a006118f9565b610a086114f8565b9050806020015191505090565b602760008154809291906001019190505550565b6000610a3361199e565b60006001600581101515610a4357fe5b600702016005015460006001600581101515610a5b57fe5b6007020160000180600580602002604051908101604052809291908260058015610ad0576020028201915b8160009054906101000a900473ffffffffffffffffffffffffffffffffffffffff1673ffffffffffffffffffffffffffffffffffffffff1681526020019060010190808311610a86575b50505050509050915091509091565b602660009054906101000a900473ffffffffffffffffffffffffffffffffffffffff1673ffffffffffffffffffffffffffffffffffffffff163373ffffffffffffffffffffffffffffffffffffffff16141515610b3b57600080fd5b610b436106da565b8110151515610b5157600080fd5b610b5a81610e84565b7fd53c8ff37b935c3daef1e99bb428f04a9cd34afe9bc9d6b0d5b2c8cecf5d1b53816040518082815260200191505060405180910390a150565b60275481565b60235481565b600080610bab6106da565b90508091505090565b602660009054906101000a900473ffffffffffffffffffffffffffffffffffffffff1673ffffffffffffffffffffffffffffffffffffffff163373ffffffffffffffffffffffffffffffffffffffff16141515610c1057600080fd5b602660009054906101000a900473ffffffffffffffffffffffffffffffffffffffff1673ffffffffffffffffffffffffffffffffffffffff167ff8df31144d9c2f0f6b59d69b8b98abd5459d07f2742c4df920b25aae33c6482060405160405180910390a26000602660006101000a81548173ffffffffffffffffffffffffffffffffffffffff021916908373ffffffffffffffffffffffffffffffffffffffff160217905550565b602660009054906101000a900473ffffffffffffffffffffffffffffffffffffffff1681565b6000610ce96118f9565b610cf1611338565b9050806040015191505090565b6000610d0861199e565b602354610d136114bb565b1115610dc65760006001600581101515610d2957fe5b600702016005015460006001600581101515610d4157fe5b6007020160000180600580602002604051908101604052809291908260058015610db6576020028201915b8160009054906101000a900473ffffffffffffffffffffffffffffffffffffffff1673ffffffffffffffffffffffffffffffffffffffff1681526020019060010190808311610d6c575b5050505050905091509150610e6d565b600080600581101515610dd557fe5b6007020160050154600080600581101515610dec57fe5b6007020160000180600580602002604051908101604052809291908260058015610e61576020028201915b8160009054906101000a900473ffffffffffffffffffffffffffffffffffffffff1673ffffffffffffffffffffffffffffffffffffffff1681526020019060010190808311610e17575b50505050509050915091505b9091565b602560009054906101000a900460ff1681565b610e8c6118f9565b610e946114f8565b905081816040018181525050610ea9816115c0565b5050565b6000610eb761199e565b600080600581101515610ec657fe5b6007020160050154600080600581101515610edd57fe5b6007020160000180600580602002604051908101604052809291908260058015610f52576020028201915b8160009054906101000a900473ffffffffffffffffffffffffffffffffffffffff1673ffffffffffffffffffffffffffffffffffffffff1681526020019060010190808311610f08575b50505050509050915091509091565b610f696118f9565b610f716114f8565b9050610f81828260000151611621565b8160000181905250610fa16001826020015161174a90919063ffffffff16565b816020018181525050610fb3816115c0565b5050565b60245481565b610fc56118f9565b6000610fcf6114f8565b9150610fdf838360000151611763565b905060098111151561107f576040517f08c379a00000000000000000000000000000000000000000000000000000000081526004018080602001828103825260218152602001807f4164647265737320616c72656164792077686974656c6973746564206578697381526020017f740000000000000000000000000000000000000000000000000000000000000081525060400191505060405180910390fd5b828260000151836020015160058110151561109657fe5b602002019073ffffffffffffffffffffffffffffffffffffffff16908173ffffffffffffffffffffffffffffffffffffffff16815250506110e5600183602001516117e190919063ffffffff16565b8260200181815250506110f7826115c0565b505050565b602660009054906101000a900473ffffffffffffffffffffffffffffffffffffffff1673ffffffffffffffffffffffffffffffffffffffff163373ffffffffffffffffffffffffffffffffffffffff1614151561115857600080fd5b611161816117fd565b50565b61116c61199e565b6111746118f9565b602560009054906101000a900460ff1615151561119057600080fd5b6005851115151561122f576040517f08c379a00000000000000000000000000000000000000000000000000000000081526004018080602001828103825260298152602001807f54686520686172646c696d6974206973206f766572207468652073747267206181526020017f727261792073697a65000000000000000000000000000000000000000000000081525060400191505060405180910390fd5b606060405190810160405280838152602001600081526020018581525090508060008060058110151561125e57fe5b60070201600082015181600001906005611279929190611921565b50602082015181600501556040820151816006015590505080600060016005811015156112a257fe5b600702016000820151816000019060056112bd929190611921565b50602082015181600501556040820151816006015590505082602560016101000a81548173ffffffffffffffffffffffffffffffffffffffff021916908373ffffffffffffffffffffffffffffffffffffffff1602179055506001602560006101000a81548160ff0219169083151502179055505050505050565b6113406118f9565b60235461134b6114bb565b1115611407576000600160058110151561136157fe5b6007020160606040519081016040529081600082016005806020026040519081016040528092919082600580156113e3576020028201915b8160009054906101000a900473ffffffffffffffffffffffffffffffffffffffff1673ffffffffffffffffffffffffffffffffffffffff1681526020019060010190808311611399575b505050505081526020016005820154815260200160068201548152505090506114b8565b60008060058110151561141657fe5b600702016060604051908101604052908160008201600580602002604051908101604052809291908260058015611498576020028201915b8160009054906101000a900473ffffffffffffffffffffffffffffffffffffffff1673ffffffffffffffffffffffffffffffffffffffff168152602001906001019080831161144e575b505050505081526020016005820154815260200160068201548152505090505b90565b6000602754905090565b60006114cf6118f9565b60006114d9611338565b915060656114eb858460000151611763565b1090508092505050919050565b6115006118f9565b6115086118f9565b6000600160058110151561151857fe5b60070201606060405190810160405290816000820160058060200260405190810160405280929190826005801561159a576020028201915b8160009054906101000a900473ffffffffffffffffffffffffffffffffffffffff1673ffffffffffffffffffffffffffffffffffffffff1681526020019060010190808311611550575b505050505081526020016005820154815260200160068201548152505090508091505090565b6023546115cb6114bb565b11156115da576115d961070d565b5b80600060016005811015156115eb57fe5b60070201600082015181600001906005611606929190611921565b50602082015181600501556040820151816006015590505050565b61162961199e565b6000806005915061163a8585611763565b90506009811015156116b4576040517f08c379a00000000000000000000000000000000000000000000000000000000081526004018080602001828103825260168152602001807f4164647265737320646f6573206e6f742065786973740000000000000000000081525060200191505060405180910390fd5b83600183036005811015156116c557fe5b602002015184826005811015156116d857fe5b602002019073ffffffffffffffffffffffffffffffffffffffff16908173ffffffffffffffffffffffffffffffffffffffff1681525050836001830360058110151561172057fe5b60200201600073ffffffffffffffffffffffffffffffffffffffff16815250839250505092915050565b600082821115151561175857fe5b818303905092915050565b600080600060059150600090505b818110156117d4578473ffffffffffffffffffffffffffffffffffffffff16848260058110151561179e57fe5b602002015173ffffffffffffffffffffffffffffffffffffffff1614156117c7578092506117d9565b8080600101915050611771565b606592505b505092915050565b600081830190508281101515156117f457fe5b80905092915050565b600073ffffffffffffffffffffffffffffffffffffffff168173ffffffffffffffffffffffffffffffffffffffff161415151561183957600080fd5b8073ffffffffffffffffffffffffffffffffffffffff16602660009054906101000a900473ffffffffffffffffffffffffffffffffffffffff1673ffffffffffffffffffffffffffffffffffffffff167f8be0079c531659141344cd1fd0a4f28419497f9722a3daafe3b4186f6b6457e060405160405180910390a380602660006101000a81548173ffffffffffffffffffffffffffffffffffffffff021916908373ffffffffffffffffffffffffffffffffffffffff16021790555050565b60e06040519081016040528061190d6119c1565b815260200160008152602001600081525090565b826005810192821561198d579160200282015b8281111561198c5782518260006101000a81548173ffffffffffffffffffffffffffffffffffffffff021916908373ffffffffffffffffffffffffffffffffffffffff16021790555091602001919060010190611934565b5b50905061199a91906119e4565b5090565b60a060405190810160405280600590602082028038833980820191505090505090565b60a060405190810160405280600590602082028038833980820191505090505090565b611a2491905b80821115611a2057600081816101000a81549073ffffffffffffffffffffffffffffffffffffffff0219169055506001016119ea565b5090565b905600a165627a7a723058207940ad710468303c4ad66eca72f57f2996ecf834c43185b72a20111d601bc9540029",
  "source": "\n//import \"github.com/OpenZeppelin/zeppelin-solidity/contracts/math/SafeMath.sol\";\nimport \"openzeppelin-solidity/contracts/math/SafeMath.sol\";\nimport \"../OwnedRegistry.sol\";\n\npragma solidity 0.4.24;\n\ncontract OwnedRegistryMock is OwnedRegistry {\n    using SafeMath for uint256;\n    \n    uint256 public counter;\n    \n    ///// Aux\n\n    function height() internal view returns (uint){\n        return counter;\n    }\n\n    function next() public {\n        counter ++;\n    }\n\n        // Debug\n\n    function debug_get0() public view returns (uint, address[5]){\n        return (strg[0].listingCounter, strg[0].whiteListed);\n    }\n    \n    function debug_get1() public view returns (uint, address[5]){\n        return (strg[1].listingCounter, strg[1].whiteListed);\n    }\n    \n    function debug_getCurrent() public view returns (uint, address[5]) {\n        if (height() > lastSync){\n            return (strg[1].listingCounter, strg[1].whiteListed);\n        }\n        return (strg[0].listingCounter, strg[0].whiteListed);\n    }\n\n}\n",
  "sourcePath": "/Users/boss/git/frontier/trl-project/RoleRegistries/contracts/mocks/OwnedRegistryMock.sol",
  "compiler": {
    "name": "solc",
    "version": "0.4.24+commit.e67f0147.Emscripten.clang"
  },
  "schemaVersion": "2.0.1",
  "updatedAt": "2018-12-03T12:20:20.012Z"
}