{
  "contractName": "OwnedRegistry",
  "abi": [
    {
      "constant": true,
      "inputs": [],
      "name": "_getListingCounter",
      "outputs": [
        {
          "name": "",
          "type": "uint256"
        }
      ],
      "payable": false,
      "stateMutability": "view",
      "type": "function"
    },
    {
      "constant": true,
      "inputs": [],
      "name": "_getNextListingCounter",
      "outputs": [
        {
          "name": "",
          "type": "uint256"
        }
      ],
      "payable": false,
      "stateMutability": "view",
      "type": "function"
    },
    {
      "constant": true,
      "inputs": [],
      "name": "lastSync",
      "outputs": [
        {
          "name": "",
          "type": "uint256"
        }
      ],
      "payable": false,
      "stateMutability": "view",
      "type": "function"
    },
    {
      "constant": false,
      "inputs": [],
      "name": "renounceOwnership",
      "outputs": [],
      "payable": false,
      "stateMutability": "nonpayable",
      "type": "function"
    },
    {
      "constant": true,
      "inputs": [],
      "name": "owner",
      "outputs": [
        {
          "name": "",
          "type": "address"
        }
      ],
      "payable": false,
      "stateMutability": "view",
      "type": "function"
    },
    {
      "constant": true,
      "inputs": [],
      "name": "_getMaxNumListings",
      "outputs": [
        {
          "name": "",
          "type": "uint256"
        }
      ],
      "payable": false,
      "stateMutability": "view",
      "type": "function"
    },
    {
      "constant": true,
      "inputs": [],
      "name": "isInit",
      "outputs": [
        {
          "name": "",
          "type": "bool"
        }
      ],
      "payable": false,
      "stateMutability": "view",
      "type": "function"
    },
    {
      "constant": false,
      "inputs": [
        {
          "name": "_newMaxNumListings",
          "type": "uint256"
        }
      ],
      "name": "_setMaxNumListings",
      "outputs": [],
      "payable": false,
      "stateMutability": "nonpayable",
      "type": "function"
    },
    {
      "constant": false,
      "inputs": [
        {
          "name": "_height",
          "type": "uint256"
        }
      ],
      "name": "updateState",
      "outputs": [],
      "payable": false,
      "stateMutability": "nonpayable",
      "type": "function"
    },
    {
      "constant": false,
      "inputs": [
        {
          "name": "_accountToWhiteList",
          "type": "address"
        }
      ],
      "name": "_blackListAddress",
      "outputs": [],
      "payable": false,
      "stateMutability": "nonpayable",
      "type": "function"
    },
    {
      "constant": true,
      "inputs": [],
      "name": "hardMaxNumListingsLimit",
      "outputs": [
        {
          "name": "",
          "type": "uint256"
        }
      ],
      "payable": false,
      "stateMutability": "view",
      "type": "function"
    },
    {
      "constant": false,
      "inputs": [
        {
          "name": "_accountToWhiteList",
          "type": "address"
        }
      ],
      "name": "_whiteListAddress",
      "outputs": [],
      "payable": false,
      "stateMutability": "nonpayable",
      "type": "function"
    },
    {
      "constant": true,
      "inputs": [
        {
          "name": "_epoch",
          "type": "uint256"
        }
      ],
      "name": "getWhitelistedFromEpoch",
      "outputs": [
        {
          "name": "elements",
          "type": "address[5]"
        }
      ],
      "payable": false,
      "stateMutability": "view",
      "type": "function"
    },
    {
      "constant": false,
      "inputs": [
        {
          "name": "_newOwner",
          "type": "address"
        }
      ],
      "name": "transferOwnership",
      "outputs": [],
      "payable": false,
      "stateMutability": "nonpayable",
      "type": "function"
    },
    {
      "constant": false,
      "inputs": [
        {
          "name": "_hardMaxNumListingsLimit",
          "type": "uint256"
        },
        {
          "name": "_initMaxNumListings",
          "type": "uint256"
        },
        {
          "name": "_trlAddress",
          "type": "address"
        }
      ],
      "name": "init",
      "outputs": [],
      "payable": false,
      "stateMutability": "nonpayable",
      "type": "function"
    },
    {
      "anonymous": false,
      "inputs": [
        {
          "indexed": false,
          "name": "_number",
          "type": "uint256"
        }
      ],
      "name": "_MaxListingsEdited",
      "type": "event"
    },
    {
      "anonymous": false,
      "inputs": [
        {
          "indexed": true,
          "name": "previousOwner",
          "type": "address"
        }
      ],
      "name": "OwnershipRenounced",
      "type": "event"
    },
    {
      "anonymous": false,
      "inputs": [
        {
          "indexed": true,
          "name": "previousOwner",
          "type": "address"
        },
        {
          "indexed": true,
          "name": "newOwner",
          "type": "address"
        }
      ],
      "name": "OwnershipTransferred",
      "type": "event"
    },
    {
      "anonymous": false,
      "inputs": [
        {
          "indexed": false,
          "name": "_whiteListedAccount",
          "type": "address"
        }
      ],
      "name": "_WhiteList",
      "type": "event"
    },
    {
      "anonymous": false,
      "inputs": [
        {
          "indexed": false,
          "name": "_removedAccount",
          "type": "address"
        }
      ],
      "name": "_Remove",
      "type": "event"
    },
    {
      "anonymous": false,
      "inputs": [
        {
          "indexed": true,
          "name": "listingHash",
          "type": "bytes32"
        },
        {
          "indexed": false,
          "name": "deposit",
          "type": "uint256"
        },
        {
          "indexed": false,
          "name": "data",
          "type": "string"
        },
        {
          "indexed": true,
          "name": "applicant",
          "type": "address"
        }
      ],
      "name": "_Application",
      "type": "event"
    },
    {
      "constant": false,
      "inputs": [
        {
          "name": "_accountToWhiteList",
          "type": "address"
        }
      ],
      "name": "whiteList",
      "outputs": [],
      "payable": false,
      "stateMutability": "nonpayable",
      "type": "function"
    },
    {
      "constant": false,
      "inputs": [
        {
          "name": "_accountToRemove",
          "type": "address"
        }
      ],
      "name": "remove",
      "outputs": [],
      "payable": false,
      "stateMutability": "nonpayable",
      "type": "function"
    },
    {
      "constant": false,
      "inputs": [
        {
          "name": "_maxNumListings",
          "type": "uint256"
        }
      ],
      "name": "setMaxNumListings",
      "outputs": [],
      "payable": false,
      "stateMutability": "nonpayable",
      "type": "function"
    },
    {
      "constant": true,
      "inputs": [
        {
          "name": "_accountChecked",
          "type": "address"
        }
      ],
      "name": "isWhitelisted",
      "outputs": [
        {
          "name": "whitelisted",
          "type": "bool"
        }
      ],
      "payable": false,
      "stateMutability": "view",
      "type": "function"
    },
    {
      "constant": true,
      "inputs": [],
      "name": "listingCounter",
      "outputs": [
        {
          "name": "",
          "type": "uint256"
        }
      ],
      "payable": false,
      "stateMutability": "view",
      "type": "function"
    },
    {
      "constant": true,
      "inputs": [],
      "name": "maxNumListings",
      "outputs": [
        {
          "name": "",
          "type": "uint256"
        }
      ],
      "payable": false,
      "stateMutability": "view",
      "type": "function"
    }
  ],
  "bytecode": "0x60806040526000602660006101000a81548160ff02191690831515021790555033602760006101000a81548173ffffffffffffffffffffffffffffffffffffffff021916908373ffffffffffffffffffffffffffffffffffffffff1602179055506119608061006f6000396000f30060806040526004361061011d576000357c0100000000000000000000000000000000000000000000000000000000900463ffffffff1680630b58343a146101225780630e8f773e1461014d57806329092d0e14610178578063372c12b1146101bb5780633af32abf146101fe5780633be6e937146102595780635b92e5ad146102845780636917516b146102b15780636c2c9c7d146102dc578063715018a6146103075780638da5cb5b1461031e57806398b20e0f14610375578063b145a5b8146103a0578063c40de52e146103cf578063cc8a55e2146103fc578063d4ad420e14610429578063dc60164e1461046c578063e4ad2b9214610497578063ecddf2d0146104da578063f2fde38b14610543578063f3251e1e14610586575b600080fd5b34801561012e57600080fd5b506101376105dd565b6040518082815260200191505060405180910390f35b34801561015957600080fd5b506101626105fc565b6040518082815260200191505060405180910390f35b34801561018457600080fd5b506101b9600480360381019080803573ffffffffffffffffffffffffffffffffffffffff169060200190929190505050610610565b005b3480156101c757600080fd5b506101fc600480360381019080803573ffffffffffffffffffffffffffffffffffffffff1690602001909291905050506106db565b005b34801561020a57600080fd5b5061023f600480360381019080803573ffffffffffffffffffffffffffffffffffffffff1690602001909291905050506107d7565b604051808215151515815260200191505060405180910390f35b34801561026557600080fd5b5061026e6107ec565b6040518082815260200191505060405180910390f35b34801561029057600080fd5b506102af6004803603810190808035906020019092919050505061080b565b005b3480156102bd57600080fd5b506102c66108c0565b6040518082815260200191505060405180910390f35b3480156102e857600080fd5b506102f16108c6565b6040518082815260200191505060405180910390f35b34801561031357600080fd5b5061031c6108da565b005b34801561032a57600080fd5b506103336109df565b604051808273ffffffffffffffffffffffffffffffffffffffff1673ffffffffffffffffffffffffffffffffffffffff16815260200191505060405180910390f35b34801561038157600080fd5b5061038a610a05565b6040518082815260200191505060405180910390f35b3480156103ac57600080fd5b506103b5610a24565b604051808215151515815260200191505060405180910390f35b3480156103db57600080fd5b506103fa60048036038101908080359060200190929190505050610a37565b005b34801561040857600080fd5b5061042760048036038101908080359060200190929190505050610a60565b005b34801561043557600080fd5b5061046a600480360381019080803573ffffffffffffffffffffffffffffffffffffffff169060200190929190505050610b71565b005b34801561047857600080fd5b50610481610bc7565b6040518082815260200191505060405180910390f35b3480156104a357600080fd5b506104d8600480360381019080803573ffffffffffffffffffffffffffffffffffffffff169060200190929190505050610bcd565b005b3480156104e657600080fd5b5061050560048036038101908080359060200190929190505050610d0c565b6040518082600560200280838360005b83811015610530578082015181840152602081019050610515565b5050505090500191505060405180910390f35b34801561054f57600080fd5b50610584600480360381019080803573ffffffffffffffffffffffffffffffffffffffff169060200190929190505050610d28565b005b34801561059257600080fd5b506105db6004803603810190808035906020019092919080359060200190929190803573ffffffffffffffffffffffffffffffffffffffff169060200190929190505050610d90565b005b60006105e76117bc565b6105ef610f64565b9050806020015191505090565b600080610607610a05565b90508091505090565b602760009054906101000a900473ffffffffffffffffffffffffffffffffffffffff1673ffffffffffffffffffffffffffffffffffffffff163373ffffffffffffffffffffffffffffffffffffffff1614151561066c57600080fd5b61067581610b71565b7f4dad83fa2f662e801184bd81b75b1894fdfd16026aa67a6a65d5715476a61f5381604051808273ffffffffffffffffffffffffffffffffffffffff1673ffffffffffffffffffffffffffffffffffffffff16815260200191505060405180910390a150565b602760009054906101000a900473ffffffffffffffffffffffffffffffffffffffff1673ffffffffffffffffffffffffffffffffffffffff163373ffffffffffffffffffffffffffffffffffffffff1614151561073757600080fd5b610740816107d7565b15151561074c57600080fd5b610754610a05565b61075c6107ec565b10151561076857600080fd5b61077181610bcd565b7f14c99c95843c55c4e6e3cd95be615861493e90f3919ff664169bfbe2839dbfb081604051808273ffffffffffffffffffffffffffffffffffffffff1673ffffffffffffffffffffffffffffffffffffffff16815260200191505060405180910390a150565b60006107e2826110e7565b9050809050919050565b60006107f66117bc565b6107fe61111a565b9050806020015191505090565b602760009054906101000a900473ffffffffffffffffffffffffffffffffffffffff1673ffffffffffffffffffffffffffffffffffffffff163373ffffffffffffffffffffffffffffffffffffffff1614151561086757600080fd5b61086f6105dd565b811015151561087d57600080fd5b61088681610a37565b7fd53c8ff37b935c3daef1e99bb428f04a9cd34afe9bc9d6b0d5b2c8cecf5d1b53816040518082815260200191505060405180910390a150565b60245481565b6000806108d16105dd565b90508091505090565b602760009054906101000a900473ffffffffffffffffffffffffffffffffffffffff1673ffffffffffffffffffffffffffffffffffffffff163373ffffffffffffffffffffffffffffffffffffffff1614151561093657600080fd5b602760009054906101000a900473ffffffffffffffffffffffffffffffffffffffff1673ffffffffffffffffffffffffffffffffffffffff167ff8df31144d9c2f0f6b59d69b8b98abd5459d07f2742c4df920b25aae33c6482060405160405180910390a26000602760006101000a81548173ffffffffffffffffffffffffffffffffffffffff021916908373ffffffffffffffffffffffffffffffffffffffff160217905550565b602760009054906101000a900473ffffffffffffffffffffffffffffffffffffffff1681565b6000610a0f6117bc565b610a17610f64565b9050806040015191505090565b602660009054906101000a900460ff1681565b610a3f6117bc565b610a4761111a565b905081816040018181525050610a5c816111e2565b5050565b610a686117bc565b60006001600581101515610a7857fe5b600702016060604051908101604052908160008201600580602002604051908101604052809291908260058015610afa576020028201915b8160009054906101000a900473ffffffffffffffffffffffffffffffffffffffff1673ffffffffffffffffffffffffffffffffffffffff1681526020019060010190808311610ab0575b5050505050815260200160058201548152602001600682015481525050905080600080600581101515610b2957fe5b60070201600082015181600001906005610b449291906117e4565b50602082015181600501556040820151816006015590505081602481905550610b6d8282611243565b5050565b610b796117bc565b610b8161111a565b9050610b918282600001516112d9565b8160000181905250610bb16001826020015161140290919063ffffffff16565b816020018181525050610bc3816111e2565b5050565b60255481565b610bd56117bc565b6000610bdf61111a565b9150610bef83836000015161141b565b9050600981111515610c8f576040517f08c379a00000000000000000000000000000000000000000000000000000000081526004018080602001828103825260218152602001807f4164647265737320616c72656164792077686974656c6973746564206578697381526020017f740000000000000000000000000000000000000000000000000000000000000081525060400191505060405180910390fd5b8282600001518360200151600581101515610ca657fe5b602002019073ffffffffffffffffffffffffffffffffffffffff16908173ffffffffffffffffffffffffffffffffffffffff1681525050610cf56001836020015161149990919063ffffffff16565b826020018181525050610d07826111e2565b505050565b610d14611861565b610d1d826114b5565b600001519050919050565b602760009054906101000a900473ffffffffffffffffffffffffffffffffffffffff1673ffffffffffffffffffffffffffffffffffffffff163373ffffffffffffffffffffffffffffffffffffffff16141515610d8457600080fd5b610d8d81611599565b50565b610d98611861565b610da06117bc565b602660009054906101000a900460ff16151515610dbc57600080fd5b60058511151515610e5b576040517f08c379a00000000000000000000000000000000000000000000000000000000081526004018080602001828103825260298152602001807f54686520686172646c696d6974206973206f766572207468652073747267206181526020017f727261792073697a65000000000000000000000000000000000000000000000081525060400191505060405180910390fd5b6060604051908101604052808381526020016000815260200185815250905080600080600581101515610e8a57fe5b60070201600082015181600001906005610ea59291906117e4565b5060208201518160050155604082015181600601559050508060006001600581101515610ece57fe5b60070201600082015181600001906005610ee99291906117e4565b50602082015181600501556040820151816006015590505082602660016101000a81548173ffffffffffffffffffffffffffffffffffffffff021916908373ffffffffffffffffffffffffffffffffffffffff1602179055506001602660006101000a81548160ff0219169083151502179055505050505050565b610f6c6117bc565b602454610f77611695565b11156110335760006001600581101515610f8d57fe5b60070201606060405190810160405290816000820160058060200260405190810160405280929190826005801561100f576020028201915b8160009054906101000a900473ffffffffffffffffffffffffffffffffffffffff1673ffffffffffffffffffffffffffffffffffffffff1681526020019060010190808311610fc5575b505050505081526020016005820154815260200160068201548152505090506110e4565b60008060058110151561104257fe5b6007020160606040519081016040529081600082016005806020026040519081016040528092919082600580156110c4576020028201915b8160009054906101000a900473ffffffffffffffffffffffffffffffffffffffff1673ffffffffffffffffffffffffffffffffffffffff168152602001906001019080831161107a575b505050505081526020016005820154815260200160068201548152505090505b90565b60006110f16117bc565b60006110fb610f64565b9150606561110d85846000015161141b565b1090508092505050919050565b6111226117bc565b61112a6117bc565b6000600160058110151561113a57fe5b6007020160606040519081016040529081600082016005806020026040519081016040528092919082600580156111bc576020028201915b8160009054906101000a900473ffffffffffffffffffffffffffffffffffffffff1673ffffffffffffffffffffffffffffffffffffffff1681526020019060010190808311611172575b505050505081526020016005820154815260200160068201548152505090508091505090565b60008090506024548111156111fb576111fa81610a60565b5b816000600160058110151561120c57fe5b600702016000820151816000019060056112279291906117e4565b5060208201518160050155604082015181600601559050505050565b61124b611884565b604080519081016040528084815260200183815250905060238190806001815401808255809150509060018203906000526020600020906008020160009091929091909150600082015181600001556020820151816001016000820151816000019060056112ba9291906117e4565b5060208201518160050155604082015181600601555050505050505050565b6112e1611861565b600080600591506112f2858561141b565b905060098110151561136c576040517f08c379a00000000000000000000000000000000000000000000000000000000081526004018080602001828103825260168152602001807f4164647265737320646f6573206e6f742065786973740000000000000000000081525060200191505060405180910390fd5b836001830360058110151561137d57fe5b6020020151848260058110151561139057fe5b602002019073ffffffffffffffffffffffffffffffffffffffff16908173ffffffffffffffffffffffffffffffffffffffff168152505083600183036005811015156113d857fe5b60200201600073ffffffffffffffffffffffffffffffffffffffff16815250839250505092915050565b600082821115151561141057fe5b818303905092915050565b600080600060059150600090505b8181101561148c578473ffffffffffffffffffffffffffffffffffffffff16848260058110151561145657fe5b602002015173ffffffffffffffffffffffffffffffffffffffff16141561147f57809250611491565b8080600101915050611429565b606592505b505092915050565b600081830190508281101515156114ac57fe5b80905092915050565b6114bd6117bc565b60006114c76117bc565b6114d08461175d565b91506023828154811015156114e157fe5b90600052602060002090600802016001016060604051908101604052908160008201600580602002604051908101604052809291908260058015611570576020028201915b8160009054906101000a900473ffffffffffffffffffffffffffffffffffffffff1673ffffffffffffffffffffffffffffffffffffffff1681526020019060010190808311611526575b505050505081526020016005820154815260200160068201548152505090508092505050919050565b600073ffffffffffffffffffffffffffffffffffffffff168173ffffffffffffffffffffffffffffffffffffffff16141515156115d557600080fd5b8073ffffffffffffffffffffffffffffffffffffffff16602760009054906101000a900473ffffffffffffffffffffffffffffffffffffffff1673ffffffffffffffffffffffffffffffffffffffff167f8be0079c531659141344cd1fd0a4f28419497f9722a3daafe3b4186f6b6457e060405160405180910390a380602760006101000a81548173ffffffffffffffffffffffffffffffffffffffff021916908373ffffffffffffffffffffffffffffffffffffffff16021790555050565b6000602660019054906101000a900473ffffffffffffffffffffffffffffffffffffffff1673ffffffffffffffffffffffffffffffffffffffff16630ef267436040518163ffffffff167c0100000000000000000000000000000000000000000000000000000000028152600401602060405180830381600087803b15801561171d57600080fd5b505af1158015611731573d6000803e3d6000fd5b505050506040513d602081101561174757600080fd5b8101908080519060200190929190505050905090565b60008060006023805490509150600090505b818110156117b4578360238281548110151561178757fe5b90600052602060002090600802016000015414156117a7578092506117b5565b808060010191505061176f565b5b5050919050565b60e0604051908101604052806117d06118a6565b815260200160008152602001600081525090565b8260058101928215611850579160200282015b8281111561184f5782518260006101000a81548173ffffffffffffffffffffffffffffffffffffffff021916908373ffffffffffffffffffffffffffffffffffffffff160217905550916020019190600101906117f7565b5b50905061185d91906118c9565b5090565b60a060405190810160405280600590602082028038833980820191505090505090565b61010060405190810160405280600081526020016118a061190c565b81525090565b60a060405190810160405280600590602082028038833980820191505090505090565b61190991905b8082111561190557600081816101000a81549073ffffffffffffffffffffffffffffffffffffffff0219169055506001016118cf565b5090565b90565b60e0604051908101604052806119206118a6565b8152602001600081526020016000815250905600a165627a7a723058206ecfc8325fd20269229072cfe3201c97f08cfb4991ffde3e760f6413640602dd0029",
  "source": "pragma solidity 0.4.24;\n\nimport \"openzeppelin-solidity/contracts/math/SafeMath.sol\";\nimport \"openzeppelin-solidity/contracts/ownership/Ownable.sol\";\nimport \"./Registry.sol\";\n\n\n/**\n* Generic Registry, used for Candidates and Voters\n*\n**/\n\ncontract OwnedRegistry is Registry, Ownable {\n    using SafeMath for uint256;\n\n    event _MaxListingsEdited(uint256 _number); \n    \n    /**\n    * @dev Adds a new account to the registry\n    * @param _accountToWhiteList account to be added to the registry\n    **/\n\n    function whiteList(address _accountToWhiteList) public {\n        require(msg.sender == owner);\n        require(!isWhitelisted(_accountToWhiteList));\n        require(_getNextListingCounter() < _getMaxNumListings());\n        _whiteListAddress(_accountToWhiteList);\n        emit _WhiteList(_accountToWhiteList);\n    }\n\n    /**\n    * @dev Removes an account from the registry\n    * @param _accountToRemove account to be removed from\n    **/\n\n    function remove(address _accountToRemove) public {\n        require(msg.sender == owner);\n        _blackListAddress(_accountToRemove);\n        emit _Remove(_accountToRemove);\n    }\n\n    /**\n    *  @dev Sets the maximum number of listings to be included in a registry\n    *  @param _maxNumListings Maximum number of listings to be set in the registry\n    */\n\n    function setMaxNumListings(uint256 _maxNumListings) external {\n        require(msg.sender == owner);\n        require(_maxNumListings >= _getListingCounter());\n        //maxNumListings = _maxNumListings;\n        _setMaxNumListings(_maxNumListings);\n        emit _MaxListingsEdited(_maxNumListings);\n    }\n\n   \n    /**\n    *  @dev Returns true when a listing Hash is already Whitelisted\n    *  @param  _accountChecked address being checked\n    *  @return whitelisted boolean specifying if the listing is valid\n    */\n\n    function isWhitelisted(address _accountChecked) view public returns (bool whitelisted) {\n       whitelisted = _getAccountFromWhiteListed(_accountChecked);\n       return whitelisted;\n    }\n\n    function listingCounter() public view returns (uint256){\n        uint256 _counter = _getListingCounter();\n        return _counter;\n    }\n\n    function maxNumListings() public view returns (uint256){\n        uint256 _maxNumListings = _getMaxNumListings();\n        return _maxNumListings;\n    }\n\n    \n\n}\n",
  "sourcePath": "/Users/boss/git/frontier/trl-project/RoleRegistries/contracts/OwnedRegistry.sol",
  "compiler": {
    "name": "solc",
    "version": "0.4.24+commit.e67f0147.Emscripten.clang"
  },
  "schemaVersion": "2.0.1",
  "updatedAt": "2018-12-03T18:51:49.969Z"
}