{
  "contractName": "OwnedRegistry",
  "abi": [
    {
      "constant": true,
      "inputs": [],
      "name": "_getListingCounter",
      "outputs": [
        {
          "name": "",
          "type": "uint256"
        }
      ],
      "payable": false,
      "stateMutability": "view",
      "type": "function"
    },
    {
      "constant": true,
      "inputs": [],
      "name": "maxNumListings",
      "outputs": [
        {
          "name": "",
          "type": "uint256"
        }
      ],
      "payable": false,
      "stateMutability": "view",
      "type": "function"
    },
    {
      "constant": false,
      "inputs": [],
      "name": "updateState",
      "outputs": [],
      "payable": false,
      "stateMutability": "nonpayable",
      "type": "function"
    },
    {
      "constant": false,
      "inputs": [],
      "name": "next",
      "outputs": [],
      "payable": false,
      "stateMutability": "nonpayable",
      "type": "function"
    },
    {
      "constant": true,
      "inputs": [],
      "name": "debug_get1",
      "outputs": [
        {
          "name": "",
          "type": "uint256"
        },
        {
          "name": "",
          "type": "address[4]"
        }
      ],
      "payable": false,
      "stateMutability": "view",
      "type": "function"
    },
    {
      "constant": true,
      "inputs": [],
      "name": "counter",
      "outputs": [
        {
          "name": "",
          "type": "uint256"
        }
      ],
      "payable": false,
      "stateMutability": "view",
      "type": "function"
    },
    {
      "constant": true,
      "inputs": [],
      "name": "lastSync",
      "outputs": [
        {
          "name": "",
          "type": "uint256"
        }
      ],
      "payable": false,
      "stateMutability": "view",
      "type": "function"
    },
    {
      "constant": false,
      "inputs": [],
      "name": "renounceOwnership",
      "outputs": [],
      "payable": false,
      "stateMutability": "nonpayable",
      "type": "function"
    },
    {
      "constant": true,
      "inputs": [],
      "name": "owner",
      "outputs": [
        {
          "name": "",
          "type": "address"
        }
      ],
      "payable": false,
      "stateMutability": "view",
      "type": "function"
    },
    {
      "constant": true,
      "inputs": [],
      "name": "_getMaxNumListings",
      "outputs": [
        {
          "name": "",
          "type": "uint256"
        }
      ],
      "payable": false,
      "stateMutability": "view",
      "type": "function"
    },
    {
      "constant": true,
      "inputs": [],
      "name": "debug_getCurrent",
      "outputs": [
        {
          "name": "",
          "type": "uint256"
        },
        {
          "name": "",
          "type": "address[4]"
        }
      ],
      "payable": false,
      "stateMutability": "view",
      "type": "function"
    },
    {
      "constant": false,
      "inputs": [
        {
          "name": "_newMaxNumListings",
          "type": "uint256"
        }
      ],
      "name": "_setMaxNumListings",
      "outputs": [],
      "payable": false,
      "stateMutability": "nonpayable",
      "type": "function"
    },
    {
      "constant": true,
      "inputs": [],
      "name": "debug_get0",
      "outputs": [
        {
          "name": "",
          "type": "uint256"
        },
        {
          "name": "",
          "type": "address[4]"
        }
      ],
      "payable": false,
      "stateMutability": "view",
      "type": "function"
    },
    {
      "constant": false,
      "inputs": [
        {
          "name": "_accountToWhiteList",
          "type": "address"
        }
      ],
      "name": "_blackListAddress",
      "outputs": [],
      "payable": false,
      "stateMutability": "nonpayable",
      "type": "function"
    },
    {
      "constant": false,
      "inputs": [],
      "name": "init",
      "outputs": [],
      "payable": false,
      "stateMutability": "nonpayable",
      "type": "function"
    },
    {
      "constant": false,
      "inputs": [
        {
          "name": "_accountToWhiteList",
          "type": "address"
        }
      ],
      "name": "_whiteListAddress",
      "outputs": [],
      "payable": false,
      "stateMutability": "nonpayable",
      "type": "function"
    },
    {
      "constant": false,
      "inputs": [
        {
          "name": "_newOwner",
          "type": "address"
        }
      ],
      "name": "transferOwnership",
      "outputs": [],
      "payable": false,
      "stateMutability": "nonpayable",
      "type": "function"
    },
    {
      "anonymous": false,
      "inputs": [
        {
          "indexed": false,
          "name": "_number",
          "type": "uint256"
        }
      ],
      "name": "_MaxListingsEdited",
      "type": "event"
    },
    {
      "anonymous": false,
      "inputs": [
        {
          "indexed": true,
          "name": "previousOwner",
          "type": "address"
        }
      ],
      "name": "OwnershipRenounced",
      "type": "event"
    },
    {
      "anonymous": false,
      "inputs": [
        {
          "indexed": true,
          "name": "previousOwner",
          "type": "address"
        },
        {
          "indexed": true,
          "name": "newOwner",
          "type": "address"
        }
      ],
      "name": "OwnershipTransferred",
      "type": "event"
    },
    {
      "anonymous": false,
      "inputs": [
        {
          "indexed": false,
          "name": "_whiteListedAccount",
          "type": "address"
        }
      ],
      "name": "_WhiteList",
      "type": "event"
    },
    {
      "anonymous": false,
      "inputs": [
        {
          "indexed": false,
          "name": "_removedAccount",
          "type": "address"
        }
      ],
      "name": "_Remove",
      "type": "event"
    },
    {
      "anonymous": false,
      "inputs": [
        {
          "indexed": true,
          "name": "listingHash",
          "type": "bytes32"
        },
        {
          "indexed": false,
          "name": "deposit",
          "type": "uint256"
        },
        {
          "indexed": false,
          "name": "data",
          "type": "string"
        },
        {
          "indexed": true,
          "name": "applicant",
          "type": "address"
        }
      ],
      "name": "_Application",
      "type": "event"
    },
    {
      "constant": false,
      "inputs": [
        {
          "name": "_accountToWhiteList",
          "type": "address"
        }
      ],
      "name": "whiteList",
      "outputs": [],
      "payable": false,
      "stateMutability": "nonpayable",
      "type": "function"
    },
    {
      "constant": false,
      "inputs": [
        {
          "name": "_accountToRemove",
          "type": "address"
        }
      ],
      "name": "remove",
      "outputs": [],
      "payable": false,
      "stateMutability": "nonpayable",
      "type": "function"
    },
    {
      "constant": false,
      "inputs": [
        {
          "name": "_maxNumListings",
          "type": "uint256"
        }
      ],
      "name": "setMaxNumListings",
      "outputs": [],
      "payable": false,
      "stateMutability": "nonpayable",
      "type": "function"
    },
    {
      "constant": true,
      "inputs": [
        {
          "name": "_accountChecked",
          "type": "address"
        }
      ],
      "name": "isWhitelisted",
      "outputs": [
        {
          "name": "whitelisted",
          "type": "bool"
        }
      ],
      "payable": false,
      "stateMutability": "view",
      "type": "function"
    },
    {
      "constant": true,
      "inputs": [],
      "name": "listingCounter",
      "outputs": [
        {
          "name": "",
          "type": "uint256"
        }
      ],
      "payable": false,
      "stateMutability": "view",
      "type": "function"
    }
  ],
  "bytecode": "0x60806040527fffffffffffffffffffffffffffffffffffffffffffffffffffffffffffffffff600f5533600e60006101000a81548173ffffffffffffffffffffffffffffffffffffffff021916908373ffffffffffffffffffffffffffffffffffffffff1602179055506117ba806100786000396000f300608060405260043610610128576000357c0100000000000000000000000000000000000000000000000000000000900463ffffffff1680630b58343a1461012d5780630e8f773e146101585780631d8557d71461018357806329092d0e1461019a578063372c12b1146101dd5780633af32abf146102205780634c8fe5261461027b5780635635d7b5146102925780635b92e5ad146102ec57806361bc221a146103195780636917516b146103445780636c2c9c7d1461036f578063715018a61461039a5780638da5cb5b146103b157806398b20e0f14610408578063a57856d114610433578063c40de52e1461048d578063c61c28ea146104ba578063d4ad420e14610514578063e1c7392a14610557578063e4ad2b921461056e578063f2fde38b146105b1575b600080fd5b34801561013957600080fd5b506101426105f4565b6040518082815260200191505060405180910390f35b34801561016457600080fd5b5061016d610613565b6040518082815260200191505060405180910390f35b34801561018f57600080fd5b50610198610619565b005b3480156101a657600080fd5b506101db600480360381019080803573ffffffffffffffffffffffffffffffffffffffff169060200190929190505050610726565b005b3480156101e957600080fd5b5061021e600480360381019080803573ffffffffffffffffffffffffffffffffffffffff1690602001909291905050506107f1565b005b34801561022c57600080fd5b50610261600480360381019080803573ffffffffffffffffffffffffffffffffffffffff1690602001909291905050506108e8565b604051808215151515815260200191505060405180910390f35b34801561028757600080fd5b506102906108fd565b005b34801561029e57600080fd5b506102a7610911565b6040518083815260200182600460200280838360005b838110156102d85780820151818401526020810190506102bd565b505050509050019250505060405180910390f35b3480156102f857600080fd5b50610317600480360381019080803590602001909291905050506109c7565b005b34801561032557600080fd5b5061032e610a7a565b6040518082815260200191505060405180910390f35b34801561035057600080fd5b50610359610a80565b6040518082815260200191505060405180910390f35b34801561037b57600080fd5b50610384610a86565b6040518082815260200191505060405180910390f35b3480156103a657600080fd5b506103af610a9a565b005b3480156103bd57600080fd5b506103c6610b9f565b604051808273ffffffffffffffffffffffffffffffffffffffff1673ffffffffffffffffffffffffffffffffffffffff16815260200191505060405180910390f35b34801561041457600080fd5b5061041d610bc5565b6040518082815260200191505060405180910390f35b34801561043f57600080fd5b50610448610be4565b6040518083815260200182600460200280838360005b8381101561047957808201518184015260208101905061045e565b505050509050019250505060405180910390f35b34801561049957600080fd5b506104b860048036038101908080359060200190929190505050610d57565b005b3480156104c657600080fd5b506104cf610d80565b6040518083815260200182600460200280838360005b838110156105005780820151818401526020810190506104e5565b505050509050019250505060405180910390f35b34801561052057600080fd5b50610555600480360381019080803573ffffffffffffffffffffffffffffffffffffffff169060200190929190505050610e34565b005b34801561056357600080fd5b5061056c610e8a565b005b34801561057a57600080fd5b506105af600480360381019080803573ffffffffffffffffffffffffffffffffffffffff169060200190929190505050610f8c565b005b3480156105bd57600080fd5b506105f2600480360381019080803573ffffffffffffffffffffffffffffffffffffffff16906020019092919050505061101d565b005b60006105fe611660565b610606611085565b9050806020015191505090565b600f5481565b610621611660565b6000600160028110151561063157fe5b6006020160606040519081016040529081600082016004806020026040519081016040528092919082600480156106b3576020028201915b8160009054906101000a900473ffffffffffffffffffffffffffffffffffffffff1673ffffffffffffffffffffffffffffffffffffffff1681526020019060010190808311610669575b50505050508152602001600482015481526020016005820154815250509050806000806002811015156106e257fe5b600602016000820151816000019060046106fd929190611688565b50602082015181600401556040820151816005015590505061071d611208565b600c8190555050565b600e60009054906101000a900473ffffffffffffffffffffffffffffffffffffffff1673ffffffffffffffffffffffffffffffffffffffff163373ffffffffffffffffffffffffffffffffffffffff1614151561078257600080fd5b61078b81610e34565b7f4dad83fa2f662e801184bd81b75b1894fdfd16026aa67a6a65d5715476a61f5381604051808273ffffffffffffffffffffffffffffffffffffffff1673ffffffffffffffffffffffffffffffffffffffff16815260200191505060405180910390a150565b600e60009054906101000a900473ffffffffffffffffffffffffffffffffffffffff1673ffffffffffffffffffffffffffffffffffffffff163373ffffffffffffffffffffffffffffffffffffffff1614151561084d57600080fd5b610856816108e8565b15151561086257600080fd5b600f5461086d6105f4565b10151561087957600080fd5b61088281610f8c565b7f14c99c95843c55c4e6e3cd95be615861493e90f3919ff664169bfbe2839dbfb081604051808273ffffffffffffffffffffffffffffffffffffffff1673ffffffffffffffffffffffffffffffffffffffff16815260200191505060405180910390a150565b60006108f382611212565b9050809050919050565b600d60008154809291906001019190505550565b600061091b611705565b6000600160028110151561092b57fe5b60060201600401546000600160028110151561094357fe5b60060201600001806004806020026040519081016040528092919082600480156109b8576020028201915b8160009054906101000a900473ffffffffffffffffffffffffffffffffffffffff1673ffffffffffffffffffffffffffffffffffffffff168152602001906001019080831161096e575b50505050509050915091509091565b600e60009054906101000a900473ffffffffffffffffffffffffffffffffffffffff1673ffffffffffffffffffffffffffffffffffffffff163373ffffffffffffffffffffffffffffffffffffffff16141515610a2357600080fd5b610a2b6105f4565b8110151515610a3957600080fd5b80600f819055507fd53c8ff37b935c3daef1e99bb428f04a9cd34afe9bc9d6b0d5b2c8cecf5d1b53816040518082815260200191505060405180910390a150565b600d5481565b600c5481565b600080610a916105f4565b90508091505090565b600e60009054906101000a900473ffffffffffffffffffffffffffffffffffffffff1673ffffffffffffffffffffffffffffffffffffffff163373ffffffffffffffffffffffffffffffffffffffff16141515610af657600080fd5b600e60009054906101000a900473ffffffffffffffffffffffffffffffffffffffff1673ffffffffffffffffffffffffffffffffffffffff167ff8df31144d9c2f0f6b59d69b8b98abd5459d07f2742c4df920b25aae33c6482060405160405180910390a26000600e60006101000a81548173ffffffffffffffffffffffffffffffffffffffff021916908373ffffffffffffffffffffffffffffffffffffffff160217905550565b600e60009054906101000a900473ffffffffffffffffffffffffffffffffffffffff1681565b6000610bcf611660565b610bd7611085565b9050806040015191505090565b6000610bee611705565b600c54610bf9611208565b1115610cac5760006001600281101515610c0f57fe5b600602016004015460006001600281101515610c2757fe5b6006020160000180600480602002604051908101604052809291908260048015610c9c576020028201915b8160009054906101000a900473ffffffffffffffffffffffffffffffffffffffff1673ffffffffffffffffffffffffffffffffffffffff1681526020019060010190808311610c52575b5050505050905091509150610d53565b600080600281101515610cbb57fe5b6006020160040154600080600281101515610cd257fe5b6006020160000180600480602002604051908101604052809291908260048015610d47576020028201915b8160009054906101000a900473ffffffffffffffffffffffffffffffffffffffff1673ffffffffffffffffffffffffffffffffffffffff1681526020019060010190808311610cfd575b50505050509050915091505b9091565b610d5f611660565b610d67611245565b905081816040018181525050610d7c81611327565b5050565b6000610d8a611705565b600080600281101515610d9957fe5b6006020160040154600080600281101515610db057fe5b6006020160000180600480602002604051908101604052809291908260048015610e25576020028201915b8160009054906101000a900473ffffffffffffffffffffffffffffffffffffffff1673ffffffffffffffffffffffffffffffffffffffff1681526020019060010190808311610ddb575b50505050509050915091509091565b610e3c611660565b610e44611245565b9050610e54828260000151611388565b8160000181905250610e74600182602001516114b190919063ffffffff16565b816020018181525050610e8681611327565b5050565b610e92611705565b610e9a611660565b30826000600481101515610eaa57fe5b602002019073ffffffffffffffffffffffffffffffffffffffff16908173ffffffffffffffffffffffffffffffffffffffff168152505060606040519081016040528083815260200160008152602001601e815250905080600080600281101515610f1157fe5b60060201600082015181600001906004610f2c929190611688565b5060208201518160040155604082015181600501559050508060006001600281101515610f5557fe5b60060201600082015181600001906004610f70929190611688565b5060208201518160040155604082015181600501559050505050565b610f94611660565b610f9c611245565b90508181600001516001836020015101600481101515610fb857fe5b602002019073ffffffffffffffffffffffffffffffffffffffff16908173ffffffffffffffffffffffffffffffffffffffff1681525050611007600182602001516114ca90919063ffffffff16565b81602001818152505061101981611327565b5050565b600e60009054906101000a900473ffffffffffffffffffffffffffffffffffffffff1673ffffffffffffffffffffffffffffffffffffffff163373ffffffffffffffffffffffffffffffffffffffff1614151561107957600080fd5b611082816114e6565b50565b61108d611660565b600c54611098611208565b111561115457600060016002811015156110ae57fe5b600602016060604051908101604052908160008201600480602002604051908101604052809291908260048015611130576020028201915b8160009054906101000a900473ffffffffffffffffffffffffffffffffffffffff1673ffffffffffffffffffffffffffffffffffffffff16815260200190600101908083116110e6575b50505050508152602001600482015481526020016005820154815250509050611205565b60008060028110151561116357fe5b6006020160606040519081016040529081600082016004806020026040519081016040528092919082600480156111e5576020028201915b8160009054906101000a900473ffffffffffffffffffffffffffffffffffffffff1673ffffffffffffffffffffffffffffffffffffffff168152602001906001019080831161119b575b505050505081526020016004820154815260200160058201548152505090505b90565b6000600d54905090565b600061121c611660565b6000611226611085565b915060656112388584600001516115e2565b1090508092505050919050565b61124d611660565b611255611660565b600c54611260611208565b111561126f5761126e610619565b5b6000600160028110151561127f57fe5b600602016060604051908101604052908160008201600480602002604051908101604052809291908260048015611301576020028201915b8160009054906101000a900473ffffffffffffffffffffffffffffffffffffffff1673ffffffffffffffffffffffffffffffffffffffff16815260200190600101908083116112b7575b505050505081526020016004820154815260200160058201548152505090508091505090565b600c54611332611208565b111561134157611340610619565b5b806000600160028110151561135257fe5b6006020160008201518160000190600461136d929190611688565b50602082015181600401556040820151816005015590505050565b611390611705565b600080600491506113a185856115e2565b905060098110151561141b576040517f08c379a00000000000000000000000000000000000000000000000000000000081526004018080602001828103825260168152602001807f4164647265737320646f6573206e6f742065786973740000000000000000000081525060200191505060405180910390fd5b836001830360048110151561142c57fe5b6020020151848260048110151561143f57fe5b602002019073ffffffffffffffffffffffffffffffffffffffff16908173ffffffffffffffffffffffffffffffffffffffff1681525050836001830360048110151561148757fe5b60200201600073ffffffffffffffffffffffffffffffffffffffff16815250839250505092915050565b60008282111515156114bf57fe5b818303905092915050565b600081830190508281101515156114dd57fe5b80905092915050565b600073ffffffffffffffffffffffffffffffffffffffff168173ffffffffffffffffffffffffffffffffffffffff161415151561152257600080fd5b8073ffffffffffffffffffffffffffffffffffffffff16600e60009054906101000a900473ffffffffffffffffffffffffffffffffffffffff1673ffffffffffffffffffffffffffffffffffffffff167f8be0079c531659141344cd1fd0a4f28419497f9722a3daafe3b4186f6b6457e060405160405180910390a380600e60006101000a81548173ffffffffffffffffffffffffffffffffffffffff021916908373ffffffffffffffffffffffffffffffffffffffff16021790555050565b600080600060049150600090505b81811015611653578473ffffffffffffffffffffffffffffffffffffffff16848260048110151561161d57fe5b602002015173ffffffffffffffffffffffffffffffffffffffff16141561164657809250611658565b80806001019150506115f0565b606592505b505092915050565b60c060405190810160405280611674611728565b815260200160008152602001600081525090565b82600481019282156116f4579160200282015b828111156116f35782518260006101000a81548173ffffffffffffffffffffffffffffffffffffffff021916908373ffffffffffffffffffffffffffffffffffffffff1602179055509160200191906001019061169b565b5b509050611701919061174b565b5090565b608060405190810160405280600490602082028038833980820191505090505090565b608060405190810160405280600490602082028038833980820191505090505090565b61178b91905b8082111561178757600081816101000a81549073ffffffffffffffffffffffffffffffffffffffff021916905550600101611751565b5090565b905600a165627a7a723058208c32002ce2a80d5f6de4dde963ab21f63b666dcbe29e809c345fa73244bbbc9e0029",
  "source": "pragma solidity 0.4.24;\n\nimport \"openzeppelin-solidity/contracts/math/SafeMath.sol\";\nimport \"openzeppelin-solidity/contracts/ownership/Ownable.sol\";\nimport \"./Registry.sol\";\n\n\n/**\n* Generic Registry, used for Candidates and Voters\n*\n**/\n\ncontract OwnedRegistry is Registry, Ownable {\n    using SafeMath for uint256;\n\n    event _MaxListingsEdited(uint256 _number); \n    //uint256 public _getListingCounter();\n    uint256 public maxNumListings = 2 ** 256 - 1; // By default, only limited by EVM max word\n\n    // New functions to abstract storage access\n\n    /**\n    * @dev Adds a new account to the registry\n    * @param _accountToWhiteList account to be added to the registry\n    **/\n\n    function whiteList(address _accountToWhiteList) public {\n        require(msg.sender == owner);\n        require(!isWhitelisted(_accountToWhiteList));\n        require(_getListingCounter() < maxNumListings);\n        _whiteListAddress(_accountToWhiteList);\n        emit _WhiteList(_accountToWhiteList);\n    }\n\n    /**\n    * @dev Removes an account from the registry\n    * @param _accountToRemove account to be removed from\n    **/\n\n    function remove(address _accountToRemove) public {\n        require(msg.sender == owner);\n        _blackListAddress(_accountToRemove);\n        emit _Remove(_accountToRemove);\n    }\n\n    /**\n    *  @dev Sets the maximum number of listings to be included in a registry\n    *  @param _maxNumListings Maximum number of listings to be set in the registry\n    */\n\n    function setMaxNumListings(uint256 _maxNumListings) external {\n        require(msg.sender == owner);\n        require(_maxNumListings >= _getListingCounter());\n        maxNumListings = _maxNumListings;\n        emit _MaxListingsEdited(_maxNumListings);\n    }\n\n   \n    /**\n    *  @dev Returns true when a listing Hash is already Whitelisted\n    *  @param  _accountChecked address being checked\n    *  @return whitelisted boolean specifying if the listing is valid\n    */\n\n    function isWhitelisted(address _accountChecked) view public returns (bool whitelisted) {\n       whitelisted = _getAccountFromWhiteListed(_accountChecked);\n       return whitelisted;\n    }\n\n    function listingCounter() public view returns (uint256){\n        uint256 _counter = _getListingCounter();\n        return _counter;\n    }\n\n    \n\n}\n",
  "sourcePath": "/Users/boss/git/frontier/trl-project/RoleRegistries/contracts/OwnedRegistry.sol",
  "compiler": {
    "name": "solc",
    "version": "0.4.24+commit.e67f0147.Emscripten.clang"
  },
  "schemaVersion": "2.0.1",
  "updatedAt": "2018-11-30T13:12:41.424Z"
}