{
  "contractName": "OwnedRegistryFactory",
  "abi": [
    {
      "constant": true,
      "inputs": [
        {
          "name": "",
          "type": "bytes32"
        }
      ],
      "name": "registries",
      "outputs": [
        {
          "name": "",
          "type": "address"
        }
      ],
      "payable": false,
      "stateMutability": "view",
      "type": "function"
    },
    {
      "anonymous": false,
      "inputs": [
        {
          "indexed": true,
          "name": "creator",
          "type": "address"
        }
      ],
      "name": "OwnedRegistryCreation",
      "type": "event"
    },
    {
      "constant": false,
      "inputs": [
        {
          "name": "_label",
          "type": "bytes32"
        }
      ],
      "name": "newRegistry",
      "outputs": [
        {
          "name": "_reg",
          "type": "address"
        }
      ],
      "payable": false,
      "stateMutability": "nonpayable",
      "type": "function"
    },
    {
      "constant": true,
      "inputs": [
        {
          "name": "_label",
          "type": "bytes32"
        }
      ],
      "name": "getRegistry",
      "outputs": [
        {
          "name": "",
          "type": "address"
        }
      ],
      "payable": false,
      "stateMutability": "view",
      "type": "function"
    }
  ],
  "bytecode": "0x608060405234801561001057600080fd5b506116fa806100206000396000f300608060405260043610610057576000357c0100000000000000000000000000000000000000000000000000000000900463ffffffff1680635d8d57a61461005c5780638205008b146100cd578063e51fd7a61461013e575b600080fd5b34801561006857600080fd5b5061008b60048036038101908080356000191690602001909291905050506101af565b604051808273ffffffffffffffffffffffffffffffffffffffff1673ffffffffffffffffffffffffffffffffffffffff16815260200191505060405180910390f35b3480156100d957600080fd5b506100fc60048036038101908080356000191690602001909291905050506101e2565b604051808273ffffffffffffffffffffffffffffffffffffffff1673ffffffffffffffffffffffffffffffffffffffff16815260200191505060405180910390f35b34801561014a57600080fd5b5061016d60048036038101908080356000191690602001909291905050506103c3565b604051808273ffffffffffffffffffffffffffffffffffffffff1673ffffffffffffffffffffffffffffffffffffffff16815260200191505060405180910390f35b60006020528060005260406000206000915054906101000a900473ffffffffffffffffffffffffffffffffffffffff1681565b6000806000806000856000191660001916815260200190815260200160002060009054906101000a900473ffffffffffffffffffffffffffffffffffffffff1673ffffffffffffffffffffffffffffffffffffffff1614151561024457600080fd5b61024c610407565b604051809103906000f080158015610268573d6000803e3d6000fd5b5090503373ffffffffffffffffffffffffffffffffffffffff167f86de3e8ad70220b07d21888291dbcf2eb9abb87044911115423316a89c5bc1af60405160405180910390a28073ffffffffffffffffffffffffffffffffffffffff1663f2fde38b336040518263ffffffff167c0100000000000000000000000000000000000000000000000000000000028152600401808273ffffffffffffffffffffffffffffffffffffffff1673ffffffffffffffffffffffffffffffffffffffff168152602001915050600060405180830381600087803b15801561034957600080fd5b505af115801561035d573d6000803e3d6000fd5b5050505080600080856000191660001916815260200190815260200160002060006101000a81548173ffffffffffffffffffffffffffffffffffffffff021916908373ffffffffffffffffffffffffffffffffffffffff16021790555080915050919050565b6000806000836000191660001916815260200190815260200160002060009054906101000a900473ffffffffffffffffffffffffffffffffffffffff169050919050565b6040516112b78061041883390190560060806040527fffffffffffffffffffffffffffffffffffffffffffffffffffffffffffffffff60685534801561003457600080fd5b50611273806100446000396000f3006080604052600436106100f1576000357c0100000000000000000000000000000000000000000000000000000000900463ffffffff1680630e8f773e146100f6578063173b70841461012157806329092d0e146101cb578063372c12b11461020e5780633af32abf146102515780634cafa121146102ac57806357abc81c146103685780635b92e5ad146103ad5780636c2c9c7d146103da578063715018a6146104055780638129fc1c1461041c57806389bb55c7146104335780638da5cb5b146104865780638f32d59b146104dd578063b088877b1461050c578063c4d66de814610555578063f2fde38b14610598575b600080fd5b34801561010257600080fd5b5061010b6105db565b6040518082815260200191505060405180910390f35b34801561012d57600080fd5b5061015060048036038101908080356000191690602001909291905050506105e1565b6040518080602001828103825283818151815260200191508051906020019080838360005b83811015610190578082015181840152602081019050610175565b50505050905090810190601f1680156101bd5780820380516001836020036101000a031916815260200191505b509250505060405180910390f35b3480156101d757600080fd5b5061020c600480360381019080803573ffffffffffffffffffffffffffffffffffffffff1690602001909291905050506106a1565b005b34801561021a57600080fd5b5061024f600480360381019080803573ffffffffffffffffffffffffffffffffffffffff1690602001909291905050506107bc565b005b34801561025d57600080fd5b50610292600480360381019080803573ffffffffffffffffffffffffffffffffffffffff1690602001909291905050506108fe565b604051808215151515815260200191505060405180910390f35b3480156102b857600080fd5b506102db6004803603810190808035600019169060200190929190505050610954565b604051808481526020018060200183151515158152602001828103825284818151815260200191508051906020019080838360005b8381101561032b578082015181840152602081019050610310565b50505050905090810190601f1680156103585780820380516001836020036101000a031916815260200191505b5094505050505060405180910390f35b34801561037457600080fd5b506103976004803603810190808035600019169060200190929190505050610a23565b6040518082815260200191505060405180910390f35b3480156103b957600080fd5b506103d860048036038101908080359060200190929190505050610a4b565b005b3480156103e657600080fd5b506103ef610ade565b6040518082815260200191505060405180910390f35b34801561041157600080fd5b5061041a610ae4565b005b34801561042857600080fd5b50610431610ba0565b005b34801561043f57600080fd5b50610484600480360381019080803560001916906020019092919080359060200190929190803590602001908201803590602001919091929391929390505050610cd5565b005b34801561049257600080fd5b5061049b610e06565b604051808273ffffffffffffffffffffffffffffffffffffffff1673ffffffffffffffffffffffffffffffffffffffff16815260200191505060405180910390f35b3480156104e957600080fd5b506104f2610e30565b604051808215151515815260200191505060405180910390f35b34801561051857600080fd5b5061053b6004803603810190808035600019169060200190929190505050610e88565b604051808215151515815260200191505060405180910390f35b34801561056157600080fd5b50610596600480360381019080803573ffffffffffffffffffffffffffffffffffffffff169060200190929190505050610ebd565b005b3480156105a457600080fd5b506105d9600480360381019080803573ffffffffffffffffffffffffffffffffffffffff169060200190929190505050611034565b005b60685481565b60606069600083600019166000191681526020019081526020016000206001018054600181600116156101000203166002900480601f0160208091040260200160405190810160405280929190818152602001828054600181600116156101000203166002900480156106955780601f1061066a57610100808354040283529160200191610695565b820191906000526020600020905b81548152906001019060200180831161067857829003601f168201915b50505050509050919050565b6106a9610e06565b73ffffffffffffffffffffffffffffffffffffffff163373ffffffffffffffffffffffffffffffffffffffff161415156106e257600080fd5b6000606660008373ffffffffffffffffffffffffffffffffffffffff1673ffffffffffffffffffffffffffffffffffffffff16815260200190815260200160002060006101000a81548160ff021916908315150217905550610750600160675461105390919063ffffffff16565b6067819055507f4dad83fa2f662e801184bd81b75b1894fdfd16026aa67a6a65d5715476a61f5381604051808273ffffffffffffffffffffffffffffffffffffffff1673ffffffffffffffffffffffffffffffffffffffff16815260200191505060405180910390a150565b6107c4610e06565b73ffffffffffffffffffffffffffffffffffffffff163373ffffffffffffffffffffffffffffffffffffffff161415156107fd57600080fd5b610806816108fe565b15151561081257600080fd5b60685460675410151561082457600080fd5b6001606660008373ffffffffffffffffffffffffffffffffffffffff1673ffffffffffffffffffffffffffffffffffffffff16815260200190815260200160002060006101000a81548160ff021916908315150217905550610892600160675461107490919063ffffffff16565b6067819055507f14c99c95843c55c4e6e3cd95be615861493e90f3919ff664169bfbe2839dbfb081604051808273ffffffffffffffffffffffffffffffffffffffff1673ffffffffffffffffffffffffffffffffffffffff16815260200191505060405180910390a150565b6000606660008373ffffffffffffffffffffffffffffffffffffffff1673ffffffffffffffffffffffffffffffffffffffff16815260200190815260200160002060009054906101000a900460ff169050919050565b6069602052806000526040600020600091509050806000015490806001018054600181600116156101000203166002900480601f016020809104026020016040519081016040528092919081815260200182805460018160011615610100020316600290048015610a065780601f106109db57610100808354040283529160200191610a06565b820191906000526020600020905b8154815290600101906020018083116109e957829003601f168201915b5050505050908060020160009054906101000a900460ff16905083565b6000606960008360001916600019168152602001908152602001600020600001549050919050565b610a53610e06565b73ffffffffffffffffffffffffffffffffffffffff163373ffffffffffffffffffffffffffffffffffffffff16141515610a8c57600080fd5b6067548110151515610a9d57600080fd5b806068819055507fd53c8ff37b935c3daef1e99bb428f04a9cd34afe9bc9d6b0d5b2c8cecf5d1b53816040518082815260200191505060405180910390a150565b60675481565b610aec610e30565b1515610af757600080fd5b603360009054906101000a900473ffffffffffffffffffffffffffffffffffffffff1673ffffffffffffffffffffffffffffffffffffffff167ff8df31144d9c2f0f6b59d69b8b98abd5459d07f2742c4df920b25aae33c6482060405160405180910390a26000603360006101000a81548173ffffffffffffffffffffffffffffffffffffffff021916908373ffffffffffffffffffffffffffffffffffffffff160217905550565b60008060019054906101000a900460ff1680610bc05750610bbf611095565b5b80610bd757506000809054906101000a900460ff16155b1515610c71576040517f08c379a000000000000000000000000000000000000000000000000000000000815260040180806020018281038252602e8152602001807f436f6e747261637420696e7374616e63652068617320616c726561647920626581526020017f656e20696e697469616c697a656400000000000000000000000000000000000081525060400191505060405180910390fd5b600060019054906101000a900460ff1690506001600060016101000a81548160ff02191690831515021790555060016000806101000a81548160ff02191690831515021790555080600060016101000a81548160ff02191690831515021790555050565b60606040519081016040528084815260200183838080601f016020809104026020016040519081016040528093929190818152602001838380828437820191505050505050815260200160001515815250606960008660001916600019168152602001908152602001600020600082015181600001556020820151816001019080519060200190610d679291906111a2565b5060408201518160020160006101000a81548160ff0219169083151502179055509050503373ffffffffffffffffffffffffffffffffffffffff1684600019167fe1cdd401be51ef2c8159945a96274b69ba482f2a5e2131700beeda434fd6d58f85858560405180848152602001806020018281038252848482818152602001925080828437820191505094505050505060405180910390a350505050565b6000603360009054906101000a900473ffffffffffffffffffffffffffffffffffffffff16905090565b6000603360009054906101000a900473ffffffffffffffffffffffffffffffffffffffff1673ffffffffffffffffffffffffffffffffffffffff163373ffffffffffffffffffffffffffffffffffffffff1614905090565b600060696000836000191660001916815260200190815260200160002060020160009054906101000a900460ff169050919050565b60008060019054906101000a900460ff1680610edd5750610edc611095565b5b80610ef457506000809054906101000a900460ff16155b1515610f8e576040517f08c379a000000000000000000000000000000000000000000000000000000000815260040180806020018281038252602e8152602001807f436f6e747261637420696e7374616e63652068617320616c726561647920626581526020017f656e20696e697469616c697a656400000000000000000000000000000000000081525060400191505060405180910390fd5b600060019054906101000a900460ff1690506001600060016101000a81548160ff02191690831515021790555060016000806101000a81548160ff02191690831515021790555081603360006101000a81548173ffffffffffffffffffffffffffffffffffffffff021916908373ffffffffffffffffffffffffffffffffffffffff16021790555080600060016101000a81548160ff0219169083151502179055505050565b61103c610e30565b151561104757600080fd5b611050816110a6565b50565b60008083831115151561106557600080fd5b82840390508091505092915050565b600080828401905083811015151561108b57600080fd5b8091505092915050565b600080303b90506000811491505090565b600073ffffffffffffffffffffffffffffffffffffffff168173ffffffffffffffffffffffffffffffffffffffff16141515156110e257600080fd5b8073ffffffffffffffffffffffffffffffffffffffff16603360009054906101000a900473ffffffffffffffffffffffffffffffffffffffff1673ffffffffffffffffffffffffffffffffffffffff167f8be0079c531659141344cd1fd0a4f28419497f9722a3daafe3b4186f6b6457e060405160405180910390a380603360006101000a81548173ffffffffffffffffffffffffffffffffffffffff021916908373ffffffffffffffffffffffffffffffffffffffff16021790555050565b828054600181600116156101000203166002900490600052602060002090601f016020900481019282601f106111e357805160ff1916838001178555611211565b82800160010185558215611211579182015b828111156112105782518255916020019190600101906111f5565b5b50905061121e9190611222565b5090565b61124491905b80821115611240576000816000905550600101611228565b5090565b905600a165627a7a72305820bebf407e29210540c503b6ceaa010f5def3023aa10f195f90854549dde7dc40d0029a165627a7a723058204317f8913fd82cae19eef8f74d940093e5783d1c4efea46197ce8aa51c530eb80029",
  "source": "pragma solidity ^0.4.24;\n\nimport \"./OwnedRegistry.sol\";\n\n/**\n* Factory to deploy Owned Registries\n**/\n\ncontract OwnedRegistryFactory{\n\n    mapping (bytes32 => address) public registries;\n\n    /**\n    * Creates a new Owned Registry\n    * @param _label a bytes32 label to identify the new created registry\n    */\n\n    function newRegistry(bytes32 _label) public returns (OwnedRegistry _reg){\n        require(registries[_label] == 0x00);\n        OwnedRegistry reg = new OwnedRegistry();\n        emit OwnedRegistryCreation(msg.sender);\n        reg.transferOwnership(msg.sender);\n        registries[_label] = address(reg);\n        return reg;\n    }\n\n    function getRegistry(bytes32 _label) public view returns (address){\n        return registries[_label];\n    }\n\n    event OwnedRegistryCreation(address indexed creator);\n\n}\n",
  "sourcePath": "/Users/boss/git/frontier/trl-project/contracts-poc/RoleRegistries/contracts/OwnedRegistryFactory.sol",
  "compiler": {
    "name": "solc",
    "version": "0.4.24+commit.e67f0147.Emscripten.clang"
  },
  "schemaVersion": "2.0.1",
  "updatedAt": "2018-11-01T17:32:01.118Z"
}