{
  "contractName": "OwnedRegistry",
  "abi": [
    {
      "constant": true,
      "inputs": [],
      "name": "_getListingCounter",
      "outputs": [
        {
          "name": "",
          "type": "uint256"
        }
      ],
      "payable": false,
      "stateMutability": "view",
      "type": "function"
    },
    {
      "constant": true,
      "inputs": [],
      "name": "_getNextListingCounter",
      "outputs": [
        {
          "name": "",
          "type": "uint256"
        }
      ],
      "payable": false,
      "stateMutability": "view",
      "type": "function"
    },
    {
      "constant": true,
      "inputs": [],
      "name": "lastSync",
      "outputs": [
        {
          "name": "",
          "type": "uint256"
        }
      ],
      "payable": false,
      "stateMutability": "view",
      "type": "function"
    },
    {
      "constant": false,
      "inputs": [],
      "name": "renounceOwnership",
      "outputs": [],
      "payable": false,
      "stateMutability": "nonpayable",
      "type": "function"
    },
    {
      "constant": true,
      "inputs": [],
      "name": "owner",
      "outputs": [
        {
          "name": "",
          "type": "address"
        }
      ],
      "payable": false,
      "stateMutability": "view",
      "type": "function"
    },
    {
      "constant": true,
      "inputs": [],
      "name": "_getMaxNumListings",
      "outputs": [
        {
          "name": "",
          "type": "uint256"
        }
      ],
      "payable": false,
      "stateMutability": "view",
      "type": "function"
    },
    {
      "constant": true,
      "inputs": [],
      "name": "isInit",
      "outputs": [
        {
          "name": "",
          "type": "bool"
        }
      ],
      "payable": false,
      "stateMutability": "view",
      "type": "function"
    },
    {
      "constant": false,
      "inputs": [
        {
          "name": "_accountToWhiteList",
          "type": "address"
        }
      ],
      "name": "whitelistCurrentPeriod",
      "outputs": [],
      "payable": false,
      "stateMutability": "nonpayable",
      "type": "function"
    },
    {
      "constant": false,
      "inputs": [
        {
          "name": "_newMaxNumListings",
          "type": "uint256"
        }
      ],
      "name": "_setMaxNumListings",
      "outputs": [],
      "payable": false,
      "stateMutability": "nonpayable",
      "type": "function"
    },
    {
      "constant": false,
      "inputs": [
        {
          "name": "_height",
          "type": "uint256"
        }
      ],
      "name": "updateState",
      "outputs": [],
      "payable": false,
      "stateMutability": "nonpayable",
      "type": "function"
    },
    {
      "constant": false,
      "inputs": [
        {
          "name": "_accountToWhiteList",
          "type": "address"
        }
      ],
      "name": "_blackListAddress",
      "outputs": [],
      "payable": false,
      "stateMutability": "nonpayable",
      "type": "function"
    },
    {
      "constant": true,
      "inputs": [],
      "name": "hardMaxNumListingsLimit",
      "outputs": [
        {
          "name": "",
          "type": "uint256"
        }
      ],
      "payable": false,
      "stateMutability": "view",
      "type": "function"
    },
    {
      "constant": false,
      "inputs": [
        {
          "name": "_accountToWhiteList",
          "type": "address"
        }
      ],
      "name": "_whiteListAddress",
      "outputs": [],
      "payable": false,
      "stateMutability": "nonpayable",
      "type": "function"
    },
    {
      "constant": true,
      "inputs": [
        {
          "name": "_epoch",
          "type": "uint256"
        }
      ],
      "name": "getWhitelistedFromEpoch",
      "outputs": [
        {
          "name": "elements",
          "type": "address[5]"
        }
      ],
      "payable": false,
      "stateMutability": "view",
      "type": "function"
    },
    {
      "constant": false,
      "inputs": [
        {
          "name": "_newOwner",
          "type": "address"
        }
      ],
      "name": "transferOwnership",
      "outputs": [],
      "payable": false,
      "stateMutability": "nonpayable",
      "type": "function"
    },
    {
      "constant": false,
      "inputs": [
        {
          "name": "_hardMaxNumListingsLimit",
          "type": "uint256"
        },
        {
          "name": "_initMaxNumListings",
          "type": "uint256"
        },
        {
          "name": "_trlAddress",
          "type": "address"
        }
      ],
      "name": "init",
      "outputs": [],
      "payable": false,
      "stateMutability": "nonpayable",
      "type": "function"
    },
    {
      "anonymous": false,
      "inputs": [
        {
          "indexed": false,
          "name": "_number",
          "type": "uint256"
        }
      ],
      "name": "_MaxListingsEdited",
      "type": "event"
    },
    {
      "anonymous": false,
      "inputs": [
        {
          "indexed": true,
          "name": "previousOwner",
          "type": "address"
        }
      ],
      "name": "OwnershipRenounced",
      "type": "event"
    },
    {
      "anonymous": false,
      "inputs": [
        {
          "indexed": true,
          "name": "previousOwner",
          "type": "address"
        },
        {
          "indexed": true,
          "name": "newOwner",
          "type": "address"
        }
      ],
      "name": "OwnershipTransferred",
      "type": "event"
    },
    {
      "anonymous": false,
      "inputs": [
        {
          "indexed": false,
          "name": "_whiteListedAccount",
          "type": "address"
        }
      ],
      "name": "_WhiteList",
      "type": "event"
    },
    {
      "anonymous": false,
      "inputs": [
        {
          "indexed": false,
          "name": "_removedAccount",
          "type": "address"
        }
      ],
      "name": "_Remove",
      "type": "event"
    },
    {
      "anonymous": false,
      "inputs": [
        {
          "indexed": true,
          "name": "listingHash",
          "type": "bytes32"
        },
        {
          "indexed": false,
          "name": "deposit",
          "type": "uint256"
        },
        {
          "indexed": false,
          "name": "data",
          "type": "string"
        },
        {
          "indexed": true,
          "name": "applicant",
          "type": "address"
        }
      ],
      "name": "_Application",
      "type": "event"
    },
    {
      "constant": false,
      "inputs": [
        {
          "name": "_accountToWhiteList",
          "type": "address"
        }
      ],
      "name": "whiteList",
      "outputs": [],
      "payable": false,
      "stateMutability": "nonpayable",
      "type": "function"
    },
    {
      "constant": false,
      "inputs": [
        {
          "name": "_accountToRemove",
          "type": "address"
        }
      ],
      "name": "remove",
      "outputs": [],
      "payable": false,
      "stateMutability": "nonpayable",
      "type": "function"
    },
    {
      "constant": false,
      "inputs": [
        {
          "name": "_maxNumListings",
          "type": "uint256"
        }
      ],
      "name": "setMaxNumListings",
      "outputs": [],
      "payable": false,
      "stateMutability": "nonpayable",
      "type": "function"
    },
    {
      "constant": true,
      "inputs": [
        {
          "name": "_accountChecked",
          "type": "address"
        }
      ],
      "name": "isWhitelisted",
      "outputs": [
        {
          "name": "whitelisted",
          "type": "bool"
        }
      ],
      "payable": false,
      "stateMutability": "view",
      "type": "function"
    },
    {
      "constant": true,
      "inputs": [
        {
          "name": "_accountChecked",
          "type": "address"
        },
        {
          "name": "_epoch",
          "type": "uint256"
        }
      ],
      "name": "wasWhitelisted",
      "outputs": [
        {
          "name": "whitelisted",
          "type": "bool"
        }
      ],
      "payable": false,
      "stateMutability": "view",
      "type": "function"
    },
    {
      "constant": true,
      "inputs": [],
      "name": "listingCounter",
      "outputs": [
        {
          "name": "",
          "type": "uint256"
        }
      ],
      "payable": false,
      "stateMutability": "view",
      "type": "function"
    },
    {
      "constant": true,
      "inputs": [],
      "name": "maxNumListings",
      "outputs": [
        {
          "name": "",
          "type": "uint256"
        }
      ],
      "payable": false,
      "stateMutability": "view",
      "type": "function"
    }
  ],
  "bytecode": "0x60806040526000601160006101000a81548160ff02191690831515021790555033601260006101000a81548173ffffffffffffffffffffffffffffffffffffffff021916908373ffffffffffffffffffffffffffffffffffffffff160217905550611f928061006f6000396000f300608060405260043610610133576000357c0100000000000000000000000000000000000000000000000000000000900463ffffffff1680630b58343a146101385780630e8f773e1461016357806329092d0e1461018e578063372c12b1146101d15780633af32abf146102145780633be6e9371461026f5780635b92e5ad1461029a5780636917516b146102c75780636c2c9c7d146102f2578063715018a61461031d578063811b1ea9146103345780638da5cb5b1461039957806398b20e0f146103f0578063b145a5b81461041b578063be1de1a01461044a578063c40de52e1461048d578063cc8a55e2146104ba578063d4ad420e146104e7578063dc60164e1461052a578063e4ad2b9214610555578063ecddf2d014610598578063f2fde38b14610601578063f3251e1e14610644575b600080fd5b34801561014457600080fd5b5061014d61069b565b6040518082815260200191505060405180910390f35b34801561016f57600080fd5b506101786106ba565b6040518082815260200191505060405180910390f35b34801561019a57600080fd5b506101cf600480360381019080803573ffffffffffffffffffffffffffffffffffffffff1690602001909291905050506106ce565b005b3480156101dd57600080fd5b50610212600480360381019080803573ffffffffffffffffffffffffffffffffffffffff169060200190929190505050610799565b005b34801561022057600080fd5b50610255600480360381019080803573ffffffffffffffffffffffffffffffffffffffff169060200190929190505050610895565b604051808215151515815260200191505060405180910390f35b34801561027b57600080fd5b506102846108aa565b6040518082815260200191505060405180910390f35b3480156102a657600080fd5b506102c5600480360381019080803590602001909291905050506108c9565b005b3480156102d357600080fd5b506102dc61097e565b6040518082815260200191505060405180910390f35b3480156102fe57600080fd5b50610307610984565b6040518082815260200191505060405180910390f35b34801561032957600080fd5b50610332610998565b005b34801561034057600080fd5b5061037f600480360381019080803573ffffffffffffffffffffffffffffffffffffffff16906020019092919080359060200190929190505050610a9d565b604051808215151515815260200191505060405180910390f35b3480156103a557600080fd5b506103ae610ae3565b604051808273ffffffffffffffffffffffffffffffffffffffff1673ffffffffffffffffffffffffffffffffffffffff16815260200191505060405180910390f35b3480156103fc57600080fd5b50610405610b09565b6040518082815260200191505060405180910390f35b34801561042757600080fd5b50610430610b28565b604051808215151515815260200191505060405180910390f35b34801561045657600080fd5b5061048b600480360381019080803573ffffffffffffffffffffffffffffffffffffffff169060200190929190505050610b3b565b005b34801561049957600080fd5b506104b860048036038101908080359060200190929190505050611041565b005b3480156104c657600080fd5b506104e56004803603810190808035906020019092919050505061106a565b005b3480156104f357600080fd5b50610528600480360381019080803573ffffffffffffffffffffffffffffffffffffffff16906020019092919050505061117b565b005b34801561053657600080fd5b5061053f6111d1565b6040518082815260200191505060405180910390f35b34801561056157600080fd5b50610596600480360381019080803573ffffffffffffffffffffffffffffffffffffffff1690602001909291905050506111d7565b005b3480156105a457600080fd5b506105c360048036038101908080359060200190929190505050611316565b6040518082600560200280838360005b838110156105ee5780820151818401526020810190506105d3565b5050505090500191505060405180910390f35b34801561060d57600080fd5b50610642600480360381019080803573ffffffffffffffffffffffffffffffffffffffff169060200190929190505050611332565b005b34801561065057600080fd5b506106996004803603810190808035906020019092919080359060200190929190803573ffffffffffffffffffffffffffffffffffffffff16906020019092919050505061139a565b005b60006106a5611dee565b6106ad6114eb565b9050806020015191505090565b6000806106c5610b09565b90508091505090565b601260009054906101000a900473ffffffffffffffffffffffffffffffffffffffff1673ffffffffffffffffffffffffffffffffffffffff163373ffffffffffffffffffffffffffffffffffffffff1614151561072a57600080fd5b6107338161117b565b7f4dad83fa2f662e801184bd81b75b1894fdfd16026aa67a6a65d5715476a61f5381604051808273ffffffffffffffffffffffffffffffffffffffff1673ffffffffffffffffffffffffffffffffffffffff16815260200191505060405180910390a150565b601260009054906101000a900473ffffffffffffffffffffffffffffffffffffffff1673ffffffffffffffffffffffffffffffffffffffff163373ffffffffffffffffffffffffffffffffffffffff161415156107f557600080fd5b6107fe81610895565b15151561080a57600080fd5b610812610b09565b61081a6108aa565b10151561082657600080fd5b61082f816111d7565b7f14c99c95843c55c4e6e3cd95be615861493e90f3919ff664169bfbe2839dbfb081604051808273ffffffffffffffffffffffffffffffffffffffff1673ffffffffffffffffffffffffffffffffffffffff16815260200191505060405180910390a150565b60006108a08261166e565b9050809050919050565b60006108b4611dee565b6108bc6116a1565b9050806020015191505090565b601260009054906101000a900473ffffffffffffffffffffffffffffffffffffffff1673ffffffffffffffffffffffffffffffffffffffff163373ffffffffffffffffffffffffffffffffffffffff1614151561092557600080fd5b61092d61069b565b811015151561093b57600080fd5b61094481611041565b7fd53c8ff37b935c3daef1e99bb428f04a9cd34afe9bc9d6b0d5b2c8cecf5d1b53816040518082815260200191505060405180910390a150565b600f5481565b60008061098f61069b565b90508091505090565b601260009054906101000a900473ffffffffffffffffffffffffffffffffffffffff1673ffffffffffffffffffffffffffffffffffffffff163373ffffffffffffffffffffffffffffffffffffffff161415156109f457600080fd5b601260009054906101000a900473ffffffffffffffffffffffffffffffffffffffff1673ffffffffffffffffffffffffffffffffffffffff167ff8df31144d9c2f0f6b59d69b8b98abd5459d07f2742c4df920b25aae33c6482060405160405180910390a26000601260006101000a81548173ffffffffffffffffffffffffffffffffffffffff021916908373ffffffffffffffffffffffffffffffffffffffff160217905550565b6000610aa7611e16565b6000610ab284611769565b600001519150610ac285836118f1565b90506065811415610ad65760009250610adb565b600192505b505092915050565b601260009054906101000a900473ffffffffffffffffffffffffffffffffffffffff1681565b6000610b13611dee565b610b1b6114eb565b9050806040015191505090565b601160009054906101000a900460ff1681565b6000610b45611dee565b610b4d611dee565b600080600080610b5b61196f565b9050600f54811115610b7157610b708161106a565b5b600f54610b7c61196f565b1115610b8b5760019650610b90565b600096505b6001871415610b9e57611037565b6000871415610f1057600080600281101515610bb657fe5b600702016060604051908101604052908160008201600580602002604051908101604052809291908260058015610c38576020028201915b8160009054906101000a900473ffffffffffffffffffffffffffffffffffffffff1673ffffffffffffffffffffffffffffffffffffffff1681526020019060010190808311610bee575b5050505050815260200160058201548152602001600682015481525050955060006001600281101515610c6757fe5b600702016060604051908101604052908160008201600580602002604051908101604052809291908260058015610ce9576020028201915b8160009054906101000a900473ffffffffffffffffffffffffffffffffffffffff1673ffffffffffffffffffffffffffffffffffffffff1681526020019060010190808311610c9f575b505050505081526020016005820154815260200160068201548152505094506065610d188988600001516118f1565b1493506065610d2b8987600001516118f1565b149250831515610da3576040517f08c379a000000000000000000000000000000000000000000000000000000000815260040180806020018281038252601b8152602001807f4164647265737320616c72656164792077686974656c6973746564000000000081525060200191505060405180910390fd5b8786600001518760200151600581101515610dba57fe5b602002019073ffffffffffffffffffffffffffffffffffffffff16908173ffffffffffffffffffffffffffffffffffffffff1681525050610e0960018760200151611a3790919063ffffffff16565b86602001818152505085600080600281101515610e2257fe5b60070201600082015181600001906005610e3d929190611e39565b5060208201518160050155604082015181600601559050508215610f0f578785600001518660200151600581101515610e7257fe5b602002019073ffffffffffffffffffffffffffffffffffffffff16908173ffffffffffffffffffffffffffffffffffffffff1681525050610ec160018660200151611a3790919063ffffffff16565b8560200181815250508460006001600281101515610edb57fe5b60070201600082015181600001906005610ef6929190611e39565b5060208201518160050155604082015181600601559050505b5b610f1e8887600001516118f1565b9150600982111515610fbe576040517f08c379a00000000000000000000000000000000000000000000000000000000081526004018080602001828103825260218152602001807f4164647265737320616c72656164792077686974656c6973746564206578697381526020017f740000000000000000000000000000000000000000000000000000000000000081525060400191505060405180910390fd5b8786600001518760200151600581101515610fd557fe5b602002019073ffffffffffffffffffffffffffffffffffffffff16908173ffffffffffffffffffffffffffffffffffffffff168152505061102460018760200151611a3790919063ffffffff16565b86602001818152505061103686611a53565b5b5050505050505050565b611049611dee565b6110516116a1565b90508181604001818152505061106681611a53565b5050565b611072611dee565b6000600160028110151561108257fe5b600702016060604051908101604052908160008201600580602002604051908101604052809291908260058015611104576020028201915b8160009054906101000a900473ffffffffffffffffffffffffffffffffffffffff1673ffffffffffffffffffffffffffffffffffffffff16815260200190600101908083116110ba575b505050505081526020016005820154815260200160068201548152505090508060008060028110151561113357fe5b6007020160008201518160000190600561114e929190611e39565b50602082015181600501556040820151816006015590505081600f819055506111778282611abb565b5050565b611183611dee565b61118b6116a1565b905061119b828260000151611b51565b81600001819052506111bb60018260200151611c7a90919063ffffffff16565b8160200181815250506111cd81611a53565b5050565b60105481565b6111df611dee565b60006111e96116a1565b91506111f98383600001516118f1565b9050600981111515611299576040517f08c379a00000000000000000000000000000000000000000000000000000000081526004018080602001828103825260218152602001807f4164647265737320616c72656164792077686974656c6973746564206578697381526020017f740000000000000000000000000000000000000000000000000000000000000081525060400191505060405180910390fd5b82826000015183602001516005811015156112b057fe5b602002019073ffffffffffffffffffffffffffffffffffffffff16908173ffffffffffffffffffffffffffffffffffffffff16815250506112ff60018360200151611a3790919063ffffffff16565b82602001818152505061131182611a53565b505050565b61131e611e16565b61132782611769565b600001519050919050565b601260009054906101000a900473ffffffffffffffffffffffffffffffffffffffff1673ffffffffffffffffffffffffffffffffffffffff163373ffffffffffffffffffffffffffffffffffffffff1614151561138e57600080fd5b61139781611c93565b50565b6113a2611e16565b6113aa611dee565b601160009054906101000a900460ff161515156113c657600080fd5b601160009054906101000a900460ff161515156113e257600080fd5b606060405190810160405280838152602001600081526020018581525090508060008060028110151561141157fe5b6007020160008201518160000190600561142c929190611e39565b506020820151816005015560408201518160060155905050806000600160028110151561145557fe5b60070201600082015181600001906005611470929190611e39565b50602082015181600501556040820151816006015590505082601160016101000a81548173ffffffffffffffffffffffffffffffffffffffff021916908373ffffffffffffffffffffffffffffffffffffffff1602179055506001601160006101000a81548160ff0219169083151502179055505050505050565b6114f3611dee565b600f546114fe61196f565b11156115ba576000600160028110151561151457fe5b600702016060604051908101604052908160008201600580602002604051908101604052809291908260058015611596576020028201915b8160009054906101000a900473ffffffffffffffffffffffffffffffffffffffff1673ffffffffffffffffffffffffffffffffffffffff168152602001906001019080831161154c575b5050505050815260200160058201548152602001600682015481525050905061166b565b6000806002811015156115c957fe5b60070201606060405190810160405290816000820160058060200260405190810160405280929190826005801561164b576020028201915b8160009054906101000a900473ffffffffffffffffffffffffffffffffffffffff1673ffffffffffffffffffffffffffffffffffffffff1681526020019060010190808311611601575b505050505081526020016005820154815260200160068201548152505090505b90565b6000611678611dee565b60006116826114eb565b915060656116948584600001516118f1565b1090508092505050919050565b6116a9611dee565b6116b1611dee565b600060016002811015156116c157fe5b600702016060604051908101604052908160008201600580602002604051908101604052809291908260058015611743576020028201915b8160009054906101000a900473ffffffffffffffffffffffffffffffffffffffff1673ffffffffffffffffffffffffffffffffffffffff16815260200190600101908083116116f9575b505050505081526020016005820154815260200160068201548152505090508091505090565b611771611dee565b600061177b611dee565b61178361196f565b8410151561181f576040517f08c379a00000000000000000000000000000000000000000000000000000000081526004018080602001828103825260268152602001807f43616e206e6f74206765742063757272656e742065706f63682066726f6d206181526020017f726368697665000000000000000000000000000000000000000000000000000081525060400191505060405180910390fd5b61182884611d8f565b9150600e8281548110151561183957fe5b906000526020600020906008020160010160606040519081016040529081600082016005806020026040519081016040528092919082600580156118c8576020028201915b8160009054906101000a900473ffffffffffffffffffffffffffffffffffffffff1673ffffffffffffffffffffffffffffffffffffffff168152602001906001019080831161187e575b505050505081526020016005820154815260200160068201548152505090508092505050919050565b600080600060059150600090505b81811015611962578473ffffffffffffffffffffffffffffffffffffffff16848260058110151561192c57fe5b602002015173ffffffffffffffffffffffffffffffffffffffff16141561195557809250611967565b80806001019150506118ff565b606592505b505092915050565b6000601160019054906101000a900473ffffffffffffffffffffffffffffffffffffffff1673ffffffffffffffffffffffffffffffffffffffff16630ef267436040518163ffffffff167c0100000000000000000000000000000000000000000000000000000000028152600401602060405180830381600087803b1580156119f757600080fd5b505af1158015611a0b573d6000803e3d6000fd5b505050506040513d6020811015611a2157600080fd5b8101908080519060200190929190505050905090565b60008183019050828110151515611a4a57fe5b80905092915050565b6000611a5d61196f565b9050600f54811115611a7357611a728161106a565b5b8160006001600281101515611a8457fe5b60070201600082015181600001906005611a9f929190611e39565b5060208201518160050155604082015181600601559050505050565b611ac3611eb6565b6040805190810160405280848152602001838152509050600e819080600181540180825580915050906001820390600052602060002090600802016000909192909190915060008201518160000155602082015181600101600082015181600001906005611b32929190611e39565b5060208201518160050155604082015181600601555050505050505050565b611b59611e16565b60008060059150611b6a85856118f1565b9050600981101515611be4576040517f08c379a00000000000000000000000000000000000000000000000000000000081526004018080602001828103825260168152602001807f4164647265737320646f6573206e6f742065786973740000000000000000000081525060200191505060405180910390fd5b8360018303600581101515611bf557fe5b60200201518482600581101515611c0857fe5b602002019073ffffffffffffffffffffffffffffffffffffffff16908173ffffffffffffffffffffffffffffffffffffffff16815250508360018303600581101515611c5057fe5b60200201600073ffffffffffffffffffffffffffffffffffffffff16815250839250505092915050565b6000828211151515611c8857fe5b818303905092915050565b600073ffffffffffffffffffffffffffffffffffffffff168173ffffffffffffffffffffffffffffffffffffffff1614151515611ccf57600080fd5b8073ffffffffffffffffffffffffffffffffffffffff16601260009054906101000a900473ffffffffffffffffffffffffffffffffffffffff1673ffffffffffffffffffffffffffffffffffffffff167f8be0079c531659141344cd1fd0a4f28419497f9722a3daafe3b4186f6b6457e060405160405180910390a380601260006101000a81548173ffffffffffffffffffffffffffffffffffffffff021916908373ffffffffffffffffffffffffffffffffffffffff16021790555050565b6000806000600e805490509150600090505b81811015611de65783600e82815481101515611db957fe5b9060005260206000209060080201600001541415611dd957809250611de7565b8080600101915050611da1565b5b5050919050565b60e060405190810160405280611e02611ed8565b815260200160008152602001600081525090565b60a060405190810160405280600590602082028038833980820191505090505090565b8260058101928215611ea5579160200282015b82811115611ea45782518260006101000a81548173ffffffffffffffffffffffffffffffffffffffff021916908373ffffffffffffffffffffffffffffffffffffffff16021790555091602001919060010190611e4c565b5b509050611eb29190611efb565b5090565b6101006040519081016040528060008152602001611ed2611f3e565b81525090565b60a060405190810160405280600590602082028038833980820191505090505090565b611f3b91905b80821115611f3757600081816101000a81549073ffffffffffffffffffffffffffffffffffffffff021916905550600101611f01565b5090565b90565b60e060405190810160405280611f52611ed8565b8152602001600081526020016000815250905600a165627a7a723058200b94ff8b4604143be23b022d150fe3abed7ed224fadc067875e1b2514906c8f20029",
  "source": "pragma solidity 0.4.24;\n\nimport \"openzeppelin-solidity/contracts/math/SafeMath.sol\";\nimport \"openzeppelin-solidity/contracts/ownership/Ownable.sol\";\nimport \"./Registry.sol\";\n\n\n/**\n* Generic Registry, used for Candidates and Voters\n*\n**/\n\ncontract OwnedRegistry is Registry, Ownable {\n    using SafeMath for uint256;\n\n    event _MaxListingsEdited(uint256 _number); \n    \n    /**\n    * @dev Adds a new account to the registry\n    * @param _accountToWhiteList account to be added to the registry\n    **/\n\n    function whiteList(address _accountToWhiteList) public {\n        require(msg.sender == owner);\n        require(!isWhitelisted(_accountToWhiteList));\n        require(_getNextListingCounter() < _getMaxNumListings());\n        _whiteListAddress(_accountToWhiteList);\n        emit _WhiteList(_accountToWhiteList);\n    }\n\n    /**\n    * @dev Removes an account from the registry\n    * @param _accountToRemove account to be removed from\n    **/\n\n    function remove(address _accountToRemove) public {\n        require(msg.sender == owner);\n        _blackListAddress(_accountToRemove);\n        emit _Remove(_accountToRemove);\n    }\n\n    /**\n    *  @dev Sets the maximum number of listings to be included in a registry\n    *  @param _maxNumListings Maximum number of listings to be set in the registry\n    */\n\n    function setMaxNumListings(uint256 _maxNumListings) external {\n        require(msg.sender == owner);\n        require(_maxNumListings >= _getListingCounter());\n        //maxNumListings = _maxNumListings;\n        _setMaxNumListings(_maxNumListings);\n        emit _MaxListingsEdited(_maxNumListings);\n    }\n\n   \n    /**\n    *  @dev Returns true when a listing Hash is already Whitelisted\n    *  @param  _accountChecked address being checked\n    *  @return whitelisted boolean specifying if the listing is valid\n    */\n\n    function isWhitelisted(address _accountChecked) view public returns (bool whitelisted) {\n       whitelisted = _getAccountFromWhiteListed(_accountChecked);\n       return whitelisted;\n    }\n\n    function wasWhitelisted(address _accountChecked, uint256 _epoch) public view returns (bool whitelisted){\n        address[5] memory addressListFromEpoch = _getEpochFromArchive(_epoch).whiteListed;\n        uint256 userIndex = _findInArray(_accountChecked, addressListFromEpoch);\n\n        if(userIndex == 101){\n            return false;\n        }else{\n            return true;\n        }\n    }\n\n    function listingCounter() public view returns (uint256){\n        uint256 _counter = _getListingCounter();\n        return _counter;\n    }\n\n    function maxNumListings() public view returns (uint256){\n        uint256 _maxNumListings = _getMaxNumListings();\n        return _maxNumListings;\n    }\n}\n",
  "sourcePath": "/Users/boss/git/frontier/trl-project/RoleRegistries/contracts/OwnedRegistry.sol",
  "compiler": {
    "name": "solc",
    "version": "0.4.24+commit.e67f0147.Emscripten.clang"
  },
  "schemaVersion": "2.0.1",
  "updatedAt": "2018-12-04T17:37:22.912Z"
}