{
  "contractName": "OwnedRegistryMock",
  "abi": [
    {
      "constant": true,
      "inputs": [],
      "name": "_getListingCounter",
      "outputs": [
        {
          "name": "",
          "type": "uint256"
        }
      ],
      "payable": false,
      "stateMutability": "view",
      "type": "function"
    },
    {
      "constant": true,
      "inputs": [],
      "name": "maxNumListings",
      "outputs": [
        {
          "name": "",
          "type": "uint256"
        }
      ],
      "payable": false,
      "stateMutability": "view",
      "type": "function"
    },
    {
      "constant": false,
      "inputs": [
        {
          "name": "_accountToRemove",
          "type": "address"
        }
      ],
      "name": "remove",
      "outputs": [],
      "payable": false,
      "stateMutability": "nonpayable",
      "type": "function"
    },
    {
      "constant": false,
      "inputs": [
        {
          "name": "_accountToWhiteList",
          "type": "address"
        }
      ],
      "name": "whiteList",
      "outputs": [],
      "payable": false,
      "stateMutability": "nonpayable",
      "type": "function"
    },
    {
      "constant": true,
      "inputs": [
        {
          "name": "_accountChecked",
          "type": "address"
        }
      ],
      "name": "isWhitelisted",
      "outputs": [
        {
          "name": "whitelisted",
          "type": "bool"
        }
      ],
      "payable": false,
      "stateMutability": "view",
      "type": "function"
    },
    {
      "constant": true,
      "inputs": [],
      "name": "_getNextListingCounter",
      "outputs": [
        {
          "name": "",
          "type": "uint256"
        }
      ],
      "payable": false,
      "stateMutability": "view",
      "type": "function"
    },
    {
      "constant": false,
      "inputs": [
        {
          "name": "_maxNumListings",
          "type": "uint256"
        }
      ],
      "name": "setMaxNumListings",
      "outputs": [],
      "payable": false,
      "stateMutability": "nonpayable",
      "type": "function"
    },
    {
      "constant": true,
      "inputs": [],
      "name": "counter",
      "outputs": [
        {
          "name": "",
          "type": "uint256"
        }
      ],
      "payable": false,
      "stateMutability": "view",
      "type": "function"
    },
    {
      "constant": true,
      "inputs": [],
      "name": "lastSync",
      "outputs": [
        {
          "name": "",
          "type": "uint256"
        }
      ],
      "payable": false,
      "stateMutability": "view",
      "type": "function"
    },
    {
      "constant": true,
      "inputs": [],
      "name": "listingCounter",
      "outputs": [
        {
          "name": "",
          "type": "uint256"
        }
      ],
      "payable": false,
      "stateMutability": "view",
      "type": "function"
    },
    {
      "constant": false,
      "inputs": [],
      "name": "renounceOwnership",
      "outputs": [],
      "payable": false,
      "stateMutability": "nonpayable",
      "type": "function"
    },
    {
      "constant": true,
      "inputs": [],
      "name": "owner",
      "outputs": [
        {
          "name": "",
          "type": "address"
        }
      ],
      "payable": false,
      "stateMutability": "view",
      "type": "function"
    },
    {
      "constant": true,
      "inputs": [],
      "name": "_getMaxNumListings",
      "outputs": [
        {
          "name": "",
          "type": "uint256"
        }
      ],
      "payable": false,
      "stateMutability": "view",
      "type": "function"
    },
    {
      "constant": true,
      "inputs": [],
      "name": "isInit",
      "outputs": [
        {
          "name": "",
          "type": "bool"
        }
      ],
      "payable": false,
      "stateMutability": "view",
      "type": "function"
    },
    {
      "constant": false,
      "inputs": [
        {
          "name": "_newMaxNumListings",
          "type": "uint256"
        }
      ],
      "name": "_setMaxNumListings",
      "outputs": [],
      "payable": false,
      "stateMutability": "nonpayable",
      "type": "function"
    },
    {
      "constant": false,
      "inputs": [
        {
          "name": "_height",
          "type": "uint256"
        }
      ],
      "name": "updateState",
      "outputs": [],
      "payable": false,
      "stateMutability": "nonpayable",
      "type": "function"
    },
    {
      "constant": false,
      "inputs": [
        {
          "name": "_accountToWhiteList",
          "type": "address"
        }
      ],
      "name": "_blackListAddress",
      "outputs": [],
      "payable": false,
      "stateMutability": "nonpayable",
      "type": "function"
    },
    {
      "constant": true,
      "inputs": [],
      "name": "hardMaxNumListingsLimit",
      "outputs": [
        {
          "name": "",
          "type": "uint256"
        }
      ],
      "payable": false,
      "stateMutability": "view",
      "type": "function"
    },
    {
      "constant": false,
      "inputs": [
        {
          "name": "_accountToWhiteList",
          "type": "address"
        }
      ],
      "name": "_whiteListAddress",
      "outputs": [],
      "payable": false,
      "stateMutability": "nonpayable",
      "type": "function"
    },
    {
      "constant": true,
      "inputs": [
        {
          "name": "_epoch",
          "type": "uint256"
        }
      ],
      "name": "getWhitelistedFromEpoch",
      "outputs": [
        {
          "name": "elements",
          "type": "address[5]"
        }
      ],
      "payable": false,
      "stateMutability": "view",
      "type": "function"
    },
    {
      "constant": false,
      "inputs": [
        {
          "name": "_newOwner",
          "type": "address"
        }
      ],
      "name": "transferOwnership",
      "outputs": [],
      "payable": false,
      "stateMutability": "nonpayable",
      "type": "function"
    },
    {
      "constant": false,
      "inputs": [
        {
          "name": "_hardMaxNumListingsLimit",
          "type": "uint256"
        },
        {
          "name": "_initMaxNumListings",
          "type": "uint256"
        },
        {
          "name": "_trlAddress",
          "type": "address"
        }
      ],
      "name": "init",
      "outputs": [],
      "payable": false,
      "stateMutability": "nonpayable",
      "type": "function"
    },
    {
      "anonymous": false,
      "inputs": [
        {
          "indexed": false,
          "name": "_number",
          "type": "uint256"
        }
      ],
      "name": "_MaxListingsEdited",
      "type": "event"
    },
    {
      "anonymous": false,
      "inputs": [
        {
          "indexed": true,
          "name": "previousOwner",
          "type": "address"
        }
      ],
      "name": "OwnershipRenounced",
      "type": "event"
    },
    {
      "anonymous": false,
      "inputs": [
        {
          "indexed": true,
          "name": "previousOwner",
          "type": "address"
        },
        {
          "indexed": true,
          "name": "newOwner",
          "type": "address"
        }
      ],
      "name": "OwnershipTransferred",
      "type": "event"
    },
    {
      "anonymous": false,
      "inputs": [
        {
          "indexed": false,
          "name": "_whiteListedAccount",
          "type": "address"
        }
      ],
      "name": "_WhiteList",
      "type": "event"
    },
    {
      "anonymous": false,
      "inputs": [
        {
          "indexed": false,
          "name": "_removedAccount",
          "type": "address"
        }
      ],
      "name": "_Remove",
      "type": "event"
    },
    {
      "anonymous": false,
      "inputs": [
        {
          "indexed": true,
          "name": "listingHash",
          "type": "bytes32"
        },
        {
          "indexed": false,
          "name": "deposit",
          "type": "uint256"
        },
        {
          "indexed": false,
          "name": "data",
          "type": "string"
        },
        {
          "indexed": true,
          "name": "applicant",
          "type": "address"
        }
      ],
      "name": "_Application",
      "type": "event"
    },
    {
      "constant": false,
      "inputs": [],
      "name": "next",
      "outputs": [],
      "payable": false,
      "stateMutability": "nonpayable",
      "type": "function"
    },
    {
      "constant": true,
      "inputs": [],
      "name": "debug_get0",
      "outputs": [
        {
          "name": "",
          "type": "uint256"
        },
        {
          "name": "",
          "type": "address[5]"
        }
      ],
      "payable": false,
      "stateMutability": "view",
      "type": "function"
    },
    {
      "constant": true,
      "inputs": [],
      "name": "debug_get1",
      "outputs": [
        {
          "name": "",
          "type": "uint256"
        },
        {
          "name": "",
          "type": "address[5]"
        }
      ],
      "payable": false,
      "stateMutability": "view",
      "type": "function"
    },
    {
      "constant": true,
      "inputs": [],
      "name": "debug_getCurrent",
      "outputs": [
        {
          "name": "",
          "type": "uint256"
        },
        {
          "name": "",
          "type": "address[5]"
        }
      ],
      "payable": false,
      "stateMutability": "view",
      "type": "function"
    },
    {
      "constant": false,
      "inputs": [
        {
          "name": "_index",
          "type": "uint256"
        }
      ],
      "name": "debug_getArchive",
      "outputs": [
        {
          "name": "",
          "type": "address[5]"
        }
      ],
      "payable": false,
      "stateMutability": "nonpayable",
      "type": "function"
    }
  ],
  "bytecode": "0x60806040526000602660006101000a81548160ff02191690831515021790555033602760006101000a81548173ffffffffffffffffffffffffffffffffffffffff021916908373ffffffffffffffffffffffffffffffffffffffff160217905550611e388061006f6000396000f30060806040526004361061015f576000357c0100000000000000000000000000000000000000000000000000000000900463ffffffff1680630b58343a146101645780630e8f773e1461018f57806329092d0e146101ba578063372c12b1146101fd5780633af32abf146102405780633be6e9371461029b5780634c8fe526146102c65780635635d7b5146102dd5780635b92e5ad1461033757806361bc221a146103645780636917516b1461038f5780636c2c9c7d146103ba578063715018a6146103e55780638da5cb5b146103fc57806398b20e0f14610453578063a57856d11461047e578063b145a5b8146104d8578063c40de52e14610507578063c61c28ea14610534578063cc8a55e21461058e578063d000d7a6146105bb578063d4ad420e14610624578063dc60164e14610667578063e4ad2b9214610692578063ecddf2d0146106d5578063f2fde38b1461073e578063f3251e1e14610781575b600080fd5b34801561017057600080fd5b506101796107d8565b6040518082815260200191505060405180910390f35b34801561019b57600080fd5b506101a46107f7565b6040518082815260200191505060405180910390f35b3480156101c657600080fd5b506101fb600480360381019080803573ffffffffffffffffffffffffffffffffffffffff16906020019092919050505061080b565b005b34801561020957600080fd5b5061023e600480360381019080803573ffffffffffffffffffffffffffffffffffffffff1690602001909291905050506108d6565b005b34801561024c57600080fd5b50610281600480360381019080803573ffffffffffffffffffffffffffffffffffffffff1690602001909291905050506109d2565b604051808215151515815260200191505060405180910390f35b3480156102a757600080fd5b506102b06109e7565b6040518082815260200191505060405180910390f35b3480156102d257600080fd5b506102db610a06565b005b3480156102e957600080fd5b506102f2610a1a565b6040518083815260200182600560200280838360005b83811015610323578082015181840152602081019050610308565b505050509050019250505060405180910390f35b34801561034357600080fd5b5061036260048036038101908080359060200190929190505050610ad0565b005b34801561037057600080fd5b50610379610b85565b6040518082815260200191505060405180910390f35b34801561039b57600080fd5b506103a4610b8b565b6040518082815260200191505060405180910390f35b3480156103c657600080fd5b506103cf610b91565b6040518082815260200191505060405180910390f35b3480156103f157600080fd5b506103fa610ba5565b005b34801561040857600080fd5b50610411610caa565b604051808273ffffffffffffffffffffffffffffffffffffffff1673ffffffffffffffffffffffffffffffffffffffff16815260200191505060405180910390f35b34801561045f57600080fd5b50610468610cd0565b6040518082815260200191505060405180910390f35b34801561048a57600080fd5b50610493610cef565b6040518083815260200182600560200280838360005b838110156104c45780820151818401526020810190506104a9565b505050509050019250505060405180910390f35b3480156104e457600080fd5b506104ed610e62565b604051808215151515815260200191505060405180910390f35b34801561051357600080fd5b5061053260048036038101908080359060200190929190505050610e75565b005b34801561054057600080fd5b50610549610e9e565b6040518083815260200182600560200280838360005b8381101561057a57808201518184015260208101905061055f565b505050509050019250505060405180910390f35b34801561059a57600080fd5b506105b960048036038101908080359060200190929190505050610f52565b005b3480156105c757600080fd5b506105e660048036038101908080359060200190929190505050611063565b6040518082600560200280838360005b838110156106115780820151818401526020810190506105f6565b5050505090500191505060405180910390f35b34801561063057600080fd5b50610665600480360381019080803573ffffffffffffffffffffffffffffffffffffffff169060200190929190505050611107565b005b34801561067357600080fd5b5061067c61115d565b6040518082815260200191505060405180910390f35b34801561069e57600080fd5b506106d3600480360381019080803573ffffffffffffffffffffffffffffffffffffffff169060200190929190505050611163565b005b3480156106e157600080fd5b50610700600480360381019080803590602001909291905050506112a2565b6040518082600560200280838360005b8381101561072b578082015181840152602081019050610710565b5050505090500191505060405180910390f35b34801561074a57600080fd5b5061077f600480360381019080803573ffffffffffffffffffffffffffffffffffffffff1690602001909291905050506112be565b005b34801561078d57600080fd5b506107d66004803603810190808035906020019092919080359060200190929190803573ffffffffffffffffffffffffffffffffffffffff169060200190929190505050611326565b005b60006107e2611c94565b6107ea6114fa565b9050806020015191505090565b600080610802610cd0565b90508091505090565b602760009054906101000a900473ffffffffffffffffffffffffffffffffffffffff1673ffffffffffffffffffffffffffffffffffffffff163373ffffffffffffffffffffffffffffffffffffffff1614151561086757600080fd5b61087081611107565b7f4dad83fa2f662e801184bd81b75b1894fdfd16026aa67a6a65d5715476a61f5381604051808273ffffffffffffffffffffffffffffffffffffffff1673ffffffffffffffffffffffffffffffffffffffff16815260200191505060405180910390a150565b602760009054906101000a900473ffffffffffffffffffffffffffffffffffffffff1673ffffffffffffffffffffffffffffffffffffffff163373ffffffffffffffffffffffffffffffffffffffff1614151561093257600080fd5b61093b816109d2565b15151561094757600080fd5b61094f610cd0565b6109576109e7565b10151561096357600080fd5b61096c81611163565b7f14c99c95843c55c4e6e3cd95be615861493e90f3919ff664169bfbe2839dbfb081604051808273ffffffffffffffffffffffffffffffffffffffff1673ffffffffffffffffffffffffffffffffffffffff16815260200191505060405180910390a150565b60006109dd8261167d565b9050809050919050565b60006109f1611c94565b6109f96116b0565b9050806020015191505090565b602860008154809291906001019190505550565b6000610a24611cbc565b60006001600581101515610a3457fe5b600702016005015460006001600581101515610a4c57fe5b6007020160000180600580602002604051908101604052809291908260058015610ac1576020028201915b8160009054906101000a900473ffffffffffffffffffffffffffffffffffffffff1673ffffffffffffffffffffffffffffffffffffffff1681526020019060010190808311610a77575b50505050509050915091509091565b602760009054906101000a900473ffffffffffffffffffffffffffffffffffffffff1673ffffffffffffffffffffffffffffffffffffffff163373ffffffffffffffffffffffffffffffffffffffff16141515610b2c57600080fd5b610b346107d8565b8110151515610b4257600080fd5b610b4b81610e75565b7fd53c8ff37b935c3daef1e99bb428f04a9cd34afe9bc9d6b0d5b2c8cecf5d1b53816040518082815260200191505060405180910390a150565b60285481565b60245481565b600080610b9c6107d8565b90508091505090565b602760009054906101000a900473ffffffffffffffffffffffffffffffffffffffff1673ffffffffffffffffffffffffffffffffffffffff163373ffffffffffffffffffffffffffffffffffffffff16141515610c0157600080fd5b602760009054906101000a900473ffffffffffffffffffffffffffffffffffffffff1673ffffffffffffffffffffffffffffffffffffffff167ff8df31144d9c2f0f6b59d69b8b98abd5459d07f2742c4df920b25aae33c6482060405160405180910390a26000602760006101000a81548173ffffffffffffffffffffffffffffffffffffffff021916908373ffffffffffffffffffffffffffffffffffffffff160217905550565b602760009054906101000a900473ffffffffffffffffffffffffffffffffffffffff1681565b6000610cda611c94565b610ce26114fa565b9050806040015191505090565b6000610cf9611cbc565b602454610d04611778565b1115610db75760006001600581101515610d1a57fe5b600702016005015460006001600581101515610d3257fe5b6007020160000180600580602002604051908101604052809291908260058015610da7576020028201915b8160009054906101000a900473ffffffffffffffffffffffffffffffffffffffff1673ffffffffffffffffffffffffffffffffffffffff1681526020019060010190808311610d5d575b5050505050905091509150610e5e565b600080600581101515610dc657fe5b6007020160050154600080600581101515610ddd57fe5b6007020160000180600580602002604051908101604052809291908260058015610e52576020028201915b8160009054906101000a900473ffffffffffffffffffffffffffffffffffffffff1673ffffffffffffffffffffffffffffffffffffffff1681526020019060010190808311610e08575b50505050509050915091505b9091565b602660009054906101000a900460ff1681565b610e7d611c94565b610e856116b0565b905081816040018181525050610e9a81611782565b5050565b6000610ea8611cbc565b600080600581101515610eb757fe5b6007020160050154600080600581101515610ece57fe5b6007020160000180600580602002604051908101604052809291908260058015610f43576020028201915b8160009054906101000a900473ffffffffffffffffffffffffffffffffffffffff1673ffffffffffffffffffffffffffffffffffffffff1681526020019060010190808311610ef9575b50505050509050915091509091565b610f5a611c94565b60006001600581101515610f6a57fe5b600702016060604051908101604052908160008201600580602002604051908101604052809291908260058015610fec576020028201915b8160009054906101000a900473ffffffffffffffffffffffffffffffffffffffff1673ffffffffffffffffffffffffffffffffffffffff1681526020019060010190808311610fa2575b505050505081526020016005820154815260200160068201548152505090508060008060058110151561101b57fe5b60070201600082015181600001906005611036929190611cdf565b5060208201518160050155604082015181600601559050508160248190555061105f82826117e3565b5050565b61106b611cbc565b60238281548110151561107a57fe5b90600052602060002090600802016001016000016005806020026040519081016040528092919082600580156110fb576020028201915b8160009054906101000a900473ffffffffffffffffffffffffffffffffffffffff1673ffffffffffffffffffffffffffffffffffffffff16815260200190600101908083116110b1575b50505050509050919050565b61110f611c94565b6111176116b0565b9050611127828260000151611879565b8160000181905250611147600182602001516119a290919063ffffffff16565b81602001818152505061115981611782565b5050565b60255481565b61116b611c94565b60006111756116b0565b91506111858383600001516119bb565b9050600981111515611225576040517f08c379a00000000000000000000000000000000000000000000000000000000081526004018080602001828103825260218152602001807f4164647265737320616c72656164792077686974656c6973746564206578697381526020017f740000000000000000000000000000000000000000000000000000000000000081525060400191505060405180910390fd5b828260000151836020015160058110151561123c57fe5b602002019073ffffffffffffffffffffffffffffffffffffffff16908173ffffffffffffffffffffffffffffffffffffffff168152505061128b60018360200151611a3990919063ffffffff16565b82602001818152505061129d82611782565b505050565b6112aa611cbc565b6112b382611a55565b600001519050919050565b602760009054906101000a900473ffffffffffffffffffffffffffffffffffffffff1673ffffffffffffffffffffffffffffffffffffffff163373ffffffffffffffffffffffffffffffffffffffff1614151561131a57600080fd5b61132381611b39565b50565b61132e611cbc565b611336611c94565b602660009054906101000a900460ff1615151561135257600080fd5b600585111515156113f1576040517f08c379a00000000000000000000000000000000000000000000000000000000081526004018080602001828103825260298152602001807f54686520686172646c696d6974206973206f766572207468652073747267206181526020017f727261792073697a65000000000000000000000000000000000000000000000081525060400191505060405180910390fd5b606060405190810160405280838152602001600081526020018581525090508060008060058110151561142057fe5b6007020160008201518160000190600561143b929190611cdf565b506020820151816005015560408201518160060155905050806000600160058110151561146457fe5b6007020160008201518160000190600561147f929190611cdf565b50602082015181600501556040820151816006015590505082602660016101000a81548173ffffffffffffffffffffffffffffffffffffffff021916908373ffffffffffffffffffffffffffffffffffffffff1602179055506001602660006101000a81548160ff0219169083151502179055505050505050565b611502611c94565b60245461150d611778565b11156115c9576000600160058110151561152357fe5b6007020160606040519081016040529081600082016005806020026040519081016040528092919082600580156115a5576020028201915b8160009054906101000a900473ffffffffffffffffffffffffffffffffffffffff1673ffffffffffffffffffffffffffffffffffffffff168152602001906001019080831161155b575b5050505050815260200160058201548152602001600682015481525050905061167a565b6000806005811015156115d857fe5b60070201606060405190810160405290816000820160058060200260405190810160405280929190826005801561165a576020028201915b8160009054906101000a900473ffffffffffffffffffffffffffffffffffffffff1673ffffffffffffffffffffffffffffffffffffffff1681526020019060010190808311611610575b505050505081526020016005820154815260200160068201548152505090505b90565b6000611687611c94565b60006116916114fa565b915060656116a38584600001516119bb565b1090508092505050919050565b6116b8611c94565b6116c0611c94565b600060016005811015156116d057fe5b600702016060604051908101604052908160008201600580602002604051908101604052809291908260058015611752576020028201915b8160009054906101000a900473ffffffffffffffffffffffffffffffffffffffff1673ffffffffffffffffffffffffffffffffffffffff1681526020019060010190808311611708575b505050505081526020016005820154815260200160068201548152505090508091505090565b6000602854905090565b600080905060245481111561179b5761179a81610f52565b5b81600060016005811015156117ac57fe5b600702016000820151816000019060056117c7929190611cdf565b5060208201518160050155604082015181600601559050505050565b6117eb611d5c565b6040805190810160405280848152602001838152509050602381908060018154018082558091505090600182039060005260206000209060080201600090919290919091506000820151816000015560208201518160010160008201518160000190600561185a929190611cdf565b5060208201518160050155604082015181600601555050505050505050565b611881611cbc565b6000806005915061189285856119bb565b905060098110151561190c576040517f08c379a00000000000000000000000000000000000000000000000000000000081526004018080602001828103825260168152602001807f4164647265737320646f6573206e6f742065786973740000000000000000000081525060200191505060405180910390fd5b836001830360058110151561191d57fe5b6020020151848260058110151561193057fe5b602002019073ffffffffffffffffffffffffffffffffffffffff16908173ffffffffffffffffffffffffffffffffffffffff1681525050836001830360058110151561197857fe5b60200201600073ffffffffffffffffffffffffffffffffffffffff16815250839250505092915050565b60008282111515156119b057fe5b818303905092915050565b600080600060059150600090505b81811015611a2c578473ffffffffffffffffffffffffffffffffffffffff1684826005811015156119f657fe5b602002015173ffffffffffffffffffffffffffffffffffffffff161415611a1f57809250611a31565b80806001019150506119c9565b606592505b505092915050565b60008183019050828110151515611a4c57fe5b80905092915050565b611a5d611c94565b6000611a67611c94565b611a7084611c35565b9150602382815481101515611a8157fe5b90600052602060002090600802016001016060604051908101604052908160008201600580602002604051908101604052809291908260058015611b10576020028201915b8160009054906101000a900473ffffffffffffffffffffffffffffffffffffffff1673ffffffffffffffffffffffffffffffffffffffff1681526020019060010190808311611ac6575b505050505081526020016005820154815260200160068201548152505090508092505050919050565b600073ffffffffffffffffffffffffffffffffffffffff168173ffffffffffffffffffffffffffffffffffffffff1614151515611b7557600080fd5b8073ffffffffffffffffffffffffffffffffffffffff16602760009054906101000a900473ffffffffffffffffffffffffffffffffffffffff1673ffffffffffffffffffffffffffffffffffffffff167f8be0079c531659141344cd1fd0a4f28419497f9722a3daafe3b4186f6b6457e060405160405180910390a380602760006101000a81548173ffffffffffffffffffffffffffffffffffffffff021916908373ffffffffffffffffffffffffffffffffffffffff16021790555050565b60008060006023805490509150600090505b81811015611c8c5783602382815481101515611c5f57fe5b9060005260206000209060080201600001541415611c7f57809250611c8d565b8080600101915050611c47565b5b5050919050565b60e060405190810160405280611ca8611d7e565b815260200160008152602001600081525090565b60a060405190810160405280600590602082028038833980820191505090505090565b8260058101928215611d4b579160200282015b82811115611d4a5782518260006101000a81548173ffffffffffffffffffffffffffffffffffffffff021916908373ffffffffffffffffffffffffffffffffffffffff16021790555091602001919060010190611cf2565b5b509050611d589190611da1565b5090565b6101006040519081016040528060008152602001611d78611de4565b81525090565b60a060405190810160405280600590602082028038833980820191505090505090565b611de191905b80821115611ddd57600081816101000a81549073ffffffffffffffffffffffffffffffffffffffff021916905550600101611da7565b5090565b90565b60e060405190810160405280611df8611d7e565b8152602001600081526020016000815250905600a165627a7a723058207c87ee94a0c34603c838435a4bb1338489932310108e57c197ca416cb11c84790029",
  "source": "\n//import \"github.com/OpenZeppelin/zeppelin-solidity/contracts/math/SafeMath.sol\";\nimport \"openzeppelin-solidity/contracts/math/SafeMath.sol\";\nimport \"../OwnedRegistry.sol\";\n\npragma solidity 0.4.24;\n\ncontract OwnedRegistryMock is OwnedRegistry {\n    using SafeMath for uint256;\n    \n    uint256 public counter;\n    \n    ///// Aux\n\n    function height() internal view returns (uint){\n        return counter;\n    }\n\n    function next() public {\n        counter ++;\n    }\n\n        // Debug\n\n    function debug_get0() public view returns (uint, address[5]){\n        return (strg[0].listingCounter, strg[0].whiteListed);\n    }\n    \n    function debug_get1() public view returns (uint, address[5]){\n        return (strg[1].listingCounter, strg[1].whiteListed);\n    }\n    \n    function debug_getCurrent() public view returns (uint, address[5]) {\n        if (height() > lastSync){\n            return (strg[1].listingCounter, strg[1].whiteListed);\n        }\n        return (strg[0].listingCounter, strg[0].whiteListed);\n    }\n\n    function debug_getArchive(uint256 _index) returns (address[5]){\n        return archive[_index].item.whiteListed;\n    }\n\n}\n",
  "sourcePath": "/Users/boss/git/frontier/trl-project/RoleRegistries/contracts/mocks/OwnedRegistryMock.sol",
  "compiler": {
    "name": "solc",
    "version": "0.4.24+commit.e67f0147.Emscripten.clang"
  },
  "schemaVersion": "2.0.1",
  "updatedAt": "2018-12-03T18:51:49.971Z"
}