{
  "contractName": "OwnedRegistry",
  "abi": [
    {
      "constant": false,
      "inputs": [
        {
          "name": "_accountToBlacklist",
          "type": "address"
        }
      ],
      "name": "blacklistCurrentPeriod",
      "outputs": [],
      "payable": false,
      "stateMutability": "nonpayable",
      "type": "function"
    },
    {
      "constant": true,
      "inputs": [],
      "name": "_getListingCounter",
      "outputs": [
        {
          "name": "",
          "type": "uint256"
        }
      ],
      "payable": false,
      "stateMutability": "view",
      "type": "function"
    },
    {
      "constant": true,
      "inputs": [],
      "name": "_getNextListingCounter",
      "outputs": [
        {
          "name": "",
          "type": "uint256"
        }
      ],
      "payable": false,
      "stateMutability": "view",
      "type": "function"
    },
    {
      "constant": true,
      "inputs": [],
      "name": "lastSync",
      "outputs": [
        {
          "name": "",
          "type": "uint256"
        }
      ],
      "payable": false,
      "stateMutability": "view",
      "type": "function"
    },
    {
      "constant": false,
      "inputs": [],
      "name": "renounceOwnership",
      "outputs": [],
      "payable": false,
      "stateMutability": "nonpayable",
      "type": "function"
    },
    {
      "constant": true,
      "inputs": [],
      "name": "owner",
      "outputs": [
        {
          "name": "",
          "type": "address"
        }
      ],
      "payable": false,
      "stateMutability": "view",
      "type": "function"
    },
    {
      "constant": true,
      "inputs": [],
      "name": "isOwner",
      "outputs": [
        {
          "name": "",
          "type": "bool"
        }
      ],
      "payable": false,
      "stateMutability": "view",
      "type": "function"
    },
    {
      "constant": true,
      "inputs": [],
      "name": "_getMaxNumListings",
      "outputs": [
        {
          "name": "",
          "type": "uint256"
        }
      ],
      "payable": false,
      "stateMutability": "view",
      "type": "function"
    },
    {
      "constant": true,
      "inputs": [],
      "name": "isInit",
      "outputs": [
        {
          "name": "",
          "type": "bool"
        }
      ],
      "payable": false,
      "stateMutability": "view",
      "type": "function"
    },
    {
      "constant": false,
      "inputs": [
        {
          "name": "_accountToWhiteList",
          "type": "address"
        }
      ],
      "name": "whitelistCurrentPeriod",
      "outputs": [],
      "payable": false,
      "stateMutability": "nonpayable",
      "type": "function"
    },
    {
      "constant": false,
      "inputs": [
        {
          "name": "_newMaxNumListings",
          "type": "uint256"
        }
      ],
      "name": "_setMaxNumListings",
      "outputs": [],
      "payable": false,
      "stateMutability": "nonpayable",
      "type": "function"
    },
    {
      "constant": false,
      "inputs": [
        {
          "name": "_height",
          "type": "uint256"
        }
      ],
      "name": "updateState",
      "outputs": [],
      "payable": false,
      "stateMutability": "nonpayable",
      "type": "function"
    },
    {
      "constant": false,
      "inputs": [
        {
          "name": "_accountToWhiteList",
          "type": "address"
        }
      ],
      "name": "_blackListAddress",
      "outputs": [],
      "payable": false,
      "stateMutability": "nonpayable",
      "type": "function"
    },
    {
      "constant": true,
      "inputs": [],
      "name": "hardMaxNumListingsLimit",
      "outputs": [
        {
          "name": "",
          "type": "uint256"
        }
      ],
      "payable": false,
      "stateMutability": "view",
      "type": "function"
    },
    {
      "constant": false,
      "inputs": [
        {
          "name": "_accountToWhiteList",
          "type": "address"
        }
      ],
      "name": "_whiteListAddress",
      "outputs": [],
      "payable": false,
      "stateMutability": "nonpayable",
      "type": "function"
    },
    {
      "constant": true,
      "inputs": [
        {
          "name": "_epoch",
          "type": "uint256"
        }
      ],
      "name": "getWhitelistedFromEpoch",
      "outputs": [
        {
          "name": "elements",
          "type": "address[20]"
        }
      ],
      "payable": false,
      "stateMutability": "view",
      "type": "function"
    },
    {
      "constant": false,
      "inputs": [
        {
          "name": "newOwner",
          "type": "address"
        }
      ],
      "name": "transferOwnership",
      "outputs": [],
      "payable": false,
      "stateMutability": "nonpayable",
      "type": "function"
    },
    {
      "constant": false,
      "inputs": [
        {
          "name": "_hardMaxNumListingsLimit",
          "type": "uint256"
        },
        {
          "name": "_initMaxNumListings",
          "type": "uint256"
        },
        {
          "name": "_periodAddress",
          "type": "address"
        }
      ],
      "name": "init",
      "outputs": [],
      "payable": false,
      "stateMutability": "nonpayable",
      "type": "function"
    },
    {
      "anonymous": false,
      "inputs": [
        {
          "indexed": false,
          "name": "_number",
          "type": "uint256"
        }
      ],
      "name": "_MaxListingsEdited",
      "type": "event"
    },
    {
      "anonymous": false,
      "inputs": [
        {
          "indexed": true,
          "name": "previousOwner",
          "type": "address"
        },
        {
          "indexed": true,
          "name": "newOwner",
          "type": "address"
        }
      ],
      "name": "OwnershipTransferred",
      "type": "event"
    },
    {
      "anonymous": false,
      "inputs": [
        {
          "indexed": false,
          "name": "_whiteListedAccount",
          "type": "address"
        }
      ],
      "name": "_WhiteList",
      "type": "event"
    },
    {
      "anonymous": false,
      "inputs": [
        {
          "indexed": false,
          "name": "_removedAccount",
          "type": "address"
        }
      ],
      "name": "_Remove",
      "type": "event"
    },
    {
      "anonymous": false,
      "inputs": [
        {
          "indexed": true,
          "name": "listingHash",
          "type": "bytes32"
        },
        {
          "indexed": false,
          "name": "deposit",
          "type": "uint256"
        },
        {
          "indexed": false,
          "name": "data",
          "type": "string"
        },
        {
          "indexed": true,
          "name": "applicant",
          "type": "address"
        }
      ],
      "name": "_Application",
      "type": "event"
    },
    {
      "constant": false,
      "inputs": [
        {
          "name": "_accountToWhiteList",
          "type": "address"
        }
      ],
      "name": "whiteList",
      "outputs": [],
      "payable": false,
      "stateMutability": "nonpayable",
      "type": "function"
    },
    {
      "constant": false,
      "inputs": [
        {
          "name": "_accountToRemove",
          "type": "address"
        }
      ],
      "name": "remove",
      "outputs": [],
      "payable": false,
      "stateMutability": "nonpayable",
      "type": "function"
    },
    {
      "constant": false,
      "inputs": [
        {
          "name": "_maxNumListings",
          "type": "uint256"
        }
      ],
      "name": "setMaxNumListings",
      "outputs": [],
      "payable": false,
      "stateMutability": "nonpayable",
      "type": "function"
    },
    {
      "constant": true,
      "inputs": [
        {
          "name": "_accountChecked",
          "type": "address"
        }
      ],
      "name": "isWhitelisted",
      "outputs": [
        {
          "name": "whitelisted",
          "type": "bool"
        }
      ],
      "payable": false,
      "stateMutability": "view",
      "type": "function"
    },
    {
      "constant": true,
      "inputs": [
        {
          "name": "_accountChecked",
          "type": "address"
        },
        {
          "name": "_epoch",
          "type": "uint256"
        }
      ],
      "name": "wasWhitelisted",
      "outputs": [
        {
          "name": "whitelisted",
          "type": "bool"
        }
      ],
      "payable": false,
      "stateMutability": "view",
      "type": "function"
    },
    {
      "constant": true,
      "inputs": [],
      "name": "listingCounter",
      "outputs": [
        {
          "name": "",
          "type": "uint256"
        }
      ],
      "payable": false,
      "stateMutability": "view",
      "type": "function"
    },
    {
      "constant": true,
      "inputs": [],
      "name": "maxNumListings",
      "outputs": [
        {
          "name": "",
          "type": "uint256"
        }
      ],
      "payable": false,
      "stateMutability": "view",
      "type": "function"
    }
  ],
  "bytecode": "0x60806040526000602f60006101000a81548160ff02191690831515021790555033603060006101000a81548173ffffffffffffffffffffffffffffffffffffffff021916908373ffffffffffffffffffffffffffffffffffffffff160217905550603060009054906101000a900473ffffffffffffffffffffffffffffffffffffffff1673ffffffffffffffffffffffffffffffffffffffff16600073ffffffffffffffffffffffffffffffffffffffff167f8be0079c531659141344cd1fd0a4f28419497f9722a3daafe3b4186f6b6457e060405160405180910390a3612248806100ec6000396000f300608060405260043610610149576000357c0100000000000000000000000000000000000000000000000000000000900463ffffffff16806306bbce321461014e5780630b58343a146101915780630e8f773e146101bc57806329092d0e146101e7578063372c12b11461022a5780633af32abf1461026d5780633be6e937146102c85780635b92e5ad146102f35780636917516b146103205780636c2c9c7d1461034b578063715018a614610376578063811b1ea91461038d5780638da5cb5b146103f25780638f32d59b1461044957806398b20e0f14610478578063b145a5b8146104a3578063be1de1a0146104d2578063c40de52e14610515578063cc8a55e214610542578063d4ad420e1461056f578063dc60164e146105b2578063e4ad2b92146105dd578063ecddf2d014610620578063f2fde38b14610689578063f3251e1e146106cc575b600080fd5b34801561015a57600080fd5b5061018f600480360381019080803573ffffffffffffffffffffffffffffffffffffffff169060200190929190505050610723565b005b34801561019d57600080fd5b506101a6610a56565b6040518082815260200191505060405180910390f35b3480156101c857600080fd5b506101d1610a75565b6040518082815260200191505060405180910390f35b3480156101f357600080fd5b50610228600480360381019080803573ffffffffffffffffffffffffffffffffffffffff169060200190929190505050610a89565b005b34801561023657600080fd5b5061026b600480360381019080803573ffffffffffffffffffffffffffffffffffffffff169060200190929190505050610b39565b005b34801561027957600080fd5b506102ae600480360381019080803573ffffffffffffffffffffffffffffffffffffffff169060200190929190505050610c1a565b604051808215151515815260200191505060405180910390f35b3480156102d457600080fd5b506102dd610c2f565b6040518082815260200191505060405180910390f35b3480156102ff57600080fd5b5061031e60048036038101908080359060200190929190505050610c4e565b005b34801561032c57600080fd5b50610335610ce8565b6040518082815260200191505060405180910390f35b34801561035757600080fd5b50610360610cee565b6040518082815260200191505060405180910390f35b34801561038257600080fd5b5061038b610d02565b005b34801561039957600080fd5b506103d8600480360381019080803573ffffffffffffffffffffffffffffffffffffffff16906020019092919080359060200190929190505050610dd6565b604051808215151515815260200191505060405180910390f35b3480156103fe57600080fd5b50610407610e1c565b604051808273ffffffffffffffffffffffffffffffffffffffff1673ffffffffffffffffffffffffffffffffffffffff16815260200191505060405180910390f35b34801561045557600080fd5b5061045e610e46565b604051808215151515815260200191505060405180910390f35b34801561048457600080fd5b5061048d610e9e565b6040518082815260200191505060405180910390f35b3480156104af57600080fd5b506104b8610ebd565b604051808215151515815260200191505060405180910390f35b3480156104de57600080fd5b50610513600480360381019080803573ffffffffffffffffffffffffffffffffffffffff169060200190929190505050610ed0565b005b34801561052157600080fd5b5061054060048036038101908080359060200190929190505050611273565b005b34801561054e57600080fd5b5061056d6004803603810190808035906020019092919050505061129c565b005b34801561057b57600080fd5b506105b0600480360381019080803573ffffffffffffffffffffffffffffffffffffffff169060200190929190505050611469565b005b3480156105be57600080fd5b506105c76114bf565b6040518082815260200191505060405180910390f35b3480156105e957600080fd5b5061061e600480360381019080803573ffffffffffffffffffffffffffffffffffffffff1690602001909291905050506114c5565b005b34801561062c57600080fd5b5061064b60048036038101908080359060200190929190505050611604565b6040518082601460200280838360005b8381101561067657808201518184015260208101905061065b565b5050505090500191505060405180910390f35b34801561069557600080fd5b506106ca600480360381019080803573ffffffffffffffffffffffffffffffffffffffff169060200190929190505050611620565b005b3480156106d857600080fd5b506107216004803603810190808035906020019092919080359060200190929190803573ffffffffffffffffffffffffffffffffffffffff16906020019092919050505061163f565b005b61072b6120a0565b6107336120a0565b6000806000610740611790565b9050602d54811115610756576107558161129c565b5b60008060028110151561076557fe5b6016020160606040519081016040529081600082016014806020026040519081016040528092919082601480156107e7576020028201915b8160009054906101000a900473ffffffffffffffffffffffffffffffffffffffff1673ffffffffffffffffffffffffffffffffffffffff168152602001906001019080831161079d575b505050505081526020016014820154815260200160158201548152505094506000600160028110151561081657fe5b601602016060604051908101604052908160008201601480602002604051908101604052809291908260148015610898576020028201915b8160009054906101000a900473ffffffffffffffffffffffffffffffffffffffff1673ffffffffffffffffffffffffffffffffffffffff168152602001906001019080831161084e575b5050505050815260200160148201548152602001601582015481525050935060656108c7878760000151611858565b10925060656108da878660000151611858565b109150821515610952576040517f08c379a000000000000000000000000000000000000000000000000000000000815260040180806020018281038252601a8152602001807f41646472657373206973206e6f742077686974656c697374656400000000000081525060200191505060405180910390fd5b6109608686600001516118d6565b8560000181905250610980600186602001516119ff90919063ffffffff16565b8560200181815250508460008060028110151561099957fe5b601602016000820151816000019060146109b49291906120c9565b5060208201518160140155604082015181601501559050508115610a4e576109e08685600001516118d6565b8460000181905250610a00600185602001516119ff90919063ffffffff16565b8460200181815250508360006001600281101515610a1a57fe5b60160201600082015181600001906014610a359291906120c9565b5060208201518160140155604082015181601501559050505b505050505050565b6000610a606120a0565b610a68611a20565b9050806020015191505090565b600080610a80610e9e565b90508091505090565b610a91610e1c565b73ffffffffffffffffffffffffffffffffffffffff163373ffffffffffffffffffffffffffffffffffffffff16141515610aca57600080fd5b610ad381611469565b7f4dad83fa2f662e801184bd81b75b1894fdfd16026aa67a6a65d5715476a61f5381604051808273ffffffffffffffffffffffffffffffffffffffff1673ffffffffffffffffffffffffffffffffffffffff16815260200191505060405180910390a150565b610b41610e1c565b73ffffffffffffffffffffffffffffffffffffffff163373ffffffffffffffffffffffffffffffffffffffff16141515610b7a57600080fd5b610b8381610c1a565b151515610b8f57600080fd5b610b97610e9e565b610b9f610c2f565b101515610bab57600080fd5b610bb4816114c5565b7f14c99c95843c55c4e6e3cd95be615861493e90f3919ff664169bfbe2839dbfb081604051808273ffffffffffffffffffffffffffffffffffffffff1673ffffffffffffffffffffffffffffffffffffffff16815260200191505060405180910390a150565b6000610c2582611ba3565b9050809050919050565b6000610c396120a0565b610c41611bd6565b9050806020015191505090565b610c56610e1c565b73ffffffffffffffffffffffffffffffffffffffff163373ffffffffffffffffffffffffffffffffffffffff16141515610c8f57600080fd5b610c97610a56565b8110151515610ca557600080fd5b610cae81611273565b7fd53c8ff37b935c3daef1e99bb428f04a9cd34afe9bc9d6b0d5b2c8cecf5d1b53816040518082815260200191505060405180910390a150565b602d5481565b600080610cf9610a56565b90508091505090565b610d0a610e46565b1515610d1557600080fd5b600073ffffffffffffffffffffffffffffffffffffffff16603060009054906101000a900473ffffffffffffffffffffffffffffffffffffffff1673ffffffffffffffffffffffffffffffffffffffff167f8be0079c531659141344cd1fd0a4f28419497f9722a3daafe3b4186f6b6457e060405160405180910390a36000603060006101000a81548173ffffffffffffffffffffffffffffffffffffffff021916908373ffffffffffffffffffffffffffffffffffffffff160217905550565b6000610de0612146565b6000610deb84611c9e565b600001519150610dfb8583611858565b90506065811415610e0f5760009250610e14565b600192505b505092915050565b6000603060009054906101000a900473ffffffffffffffffffffffffffffffffffffffff16905090565b6000603060009054906101000a900473ffffffffffffffffffffffffffffffffffffffff1673ffffffffffffffffffffffffffffffffffffffff163373ffffffffffffffffffffffffffffffffffffffff1614905090565b6000610ea86120a0565b610eb0611a20565b9050806040015191505090565b602f60009054906101000a900460ff1681565b610ed86120a0565b610ee06120a0565b6000806000610eed611790565b9050602d54811115610f0357610f028161129c565b5b600080600281101515610f1257fe5b601602016060604051908101604052908160008201601480602002604051908101604052809291908260148015610f94576020028201915b8160009054906101000a900473ffffffffffffffffffffffffffffffffffffffff1673ffffffffffffffffffffffffffffffffffffffff1681526020019060010190808311610f4a575b5050505050815260200160148201548152602001601582015481525050945060006001600281101515610fc357fe5b601602016060604051908101604052908160008201601480602002604051908101604052809291908260148015611045576020028201915b8160009054906101000a900473ffffffffffffffffffffffffffffffffffffffff1673ffffffffffffffffffffffffffffffffffffffff1681526020019060010190808311610ffb575b505050505081526020016014820154815260200160158201548152505093506065611074878760000151611858565b1492506065611087878660000151611858565b1491508215156110ff576040517f08c379a000000000000000000000000000000000000000000000000000000000815260040180806020018281038252601b8152602001807f4164647265737320616c72656164792077686974656c6973746564000000000081525060200191505060405180910390fd5b858560000151866020015160148110151561111657fe5b602002019073ffffffffffffffffffffffffffffffffffffffff16908173ffffffffffffffffffffffffffffffffffffffff168152505061116560018660200151611e2690919063ffffffff16565b8560200181815250508460008060028110151561117e57fe5b601602016000820151816000019060146111999291906120c9565b506020820151816014015560408201518160150155905050811561126b5785846000015185602001516014811015156111ce57fe5b602002019073ffffffffffffffffffffffffffffffffffffffff16908173ffffffffffffffffffffffffffffffffffffffff168152505061121d60018560200151611e2690919063ffffffff16565b846020018181525050836000600160028110151561123757fe5b601602016000820151816000019060146112529291906120c9565b5060208201518160140155604082015181601501559050505b505050505050565b61127b6120a0565b611283611bd6565b90508181604001818152505061129881611e47565b5050565b6112a46120a0565b6112ac6120a0565b6000806002811015156112bb57fe5b60160201606060405190810160405290816000820160148060200260405190810160405280929190826014801561133d576020028201915b8160009054906101000a900473ffffffffffffffffffffffffffffffffffffffff1673ffffffffffffffffffffffffffffffffffffffff16815260200190600101908083116112f3575b505050505081526020016014820154815260200160158201548152505091506113696001840383611eaf565b6000600160028110151561137957fe5b6016020160606040519081016040529081600082016014806020026040519081016040528092919082601480156113fb576020028201915b8160009054906101000a900473ffffffffffffffffffffffffffffffffffffffff1673ffffffffffffffffffffffffffffffffffffffff16815260200190600101908083116113b1575b505050505081526020016014820154815260200160158201548152505090508060008060028110151561142a57fe5b601602016000820151816000019060146114459291906120c9565b50602082015181601401556040820151816015015590505082602d81905550505050565b6114716120a0565b611479611bd6565b90506114898282600001516118d6565b81600001819052506114a9600182602001516119ff90919063ffffffff16565b8160200181815250506114bb81611e47565b5050565b602e5481565b6114cd6120a0565b60006114d7611bd6565b91506114e7838360000151611858565b9050600981111515611587576040517f08c379a00000000000000000000000000000000000000000000000000000000081526004018080602001828103825260218152602001807f4164647265737320616c72656164792077686974656c6973746564206578697381526020017f740000000000000000000000000000000000000000000000000000000000000081525060400191505060405180910390fd5b828260000151836020015160148110151561159e57fe5b602002019073ffffffffffffffffffffffffffffffffffffffff16908173ffffffffffffffffffffffffffffffffffffffff16815250506115ed60018360200151611e2690919063ffffffff16565b8260200181815250506115ff82611e47565b505050565b61160c612146565b61161582611c9e565b600001519050919050565b611628610e46565b151561163357600080fd5b61163c81611f45565b50565b611647612146565b61164f6120a0565b602f60009054906101000a900460ff1615151561166b57600080fd5b602f60009054906101000a900460ff1615151561168757600080fd5b60606040519081016040528083815260200160008152602001858152509050806000806002811015156116b657fe5b601602016000820151816000019060146116d19291906120c9565b50602082015181601401556040820151816015015590505080600060016002811015156116fa57fe5b601602016000820151816000019060146117159291906120c9565b50602082015181601401556040820151816015015590505082602f60016101000a81548173ffffffffffffffffffffffffffffffffffffffff021916908373ffffffffffffffffffffffffffffffffffffffff1602179055506001602f60006101000a81548160ff0219169083151502179055505050505050565b6000602f60019054906101000a900473ffffffffffffffffffffffffffffffffffffffff1673ffffffffffffffffffffffffffffffffffffffff16630ef267436040518163ffffffff167c0100000000000000000000000000000000000000000000000000000000028152600401602060405180830381600087803b15801561181857600080fd5b505af115801561182c573d6000803e3d6000fd5b505050506040513d602081101561184257600080fd5b8101908080519060200190929190505050905090565b600080600060149150600090505b818110156118c9578473ffffffffffffffffffffffffffffffffffffffff16848260148110151561189357fe5b602002015173ffffffffffffffffffffffffffffffffffffffff1614156118bc578092506118ce565b8080600101915050611866565b606592505b505092915050565b6118de612146565b600080601491506118ef8585611858565b9050600981101515611969576040517f08c379a00000000000000000000000000000000000000000000000000000000081526004018080602001828103825260168152602001807f4164647265737320646f6573206e6f742065786973740000000000000000000081525060200191505060405180910390fd5b836001830360148110151561197a57fe5b6020020151848260148110151561198d57fe5b602002019073ffffffffffffffffffffffffffffffffffffffff16908173ffffffffffffffffffffffffffffffffffffffff168152505083600183036014811015156119d557fe5b60200201600073ffffffffffffffffffffffffffffffffffffffff16815250839250505092915050565b600080838311151515611a1157600080fd5b82840390508091505092915050565b611a286120a0565b602d54611a33611790565b1115611aef5760006001600281101515611a4957fe5b601602016060604051908101604052908160008201601480602002604051908101604052809291908260148015611acb576020028201915b8160009054906101000a900473ffffffffffffffffffffffffffffffffffffffff1673ffffffffffffffffffffffffffffffffffffffff1681526020019060010190808311611a81575b50505050508152602001601482015481526020016015820154815250509050611ba0565b600080600281101515611afe57fe5b601602016060604051908101604052908160008201601480602002604051908101604052809291908260148015611b80576020028201915b8160009054906101000a900473ffffffffffffffffffffffffffffffffffffffff1673ffffffffffffffffffffffffffffffffffffffff1681526020019060010190808311611b36575b505050505081526020016014820154815260200160158201548152505090505b90565b6000611bad6120a0565b6000611bb7611a20565b91506065611bc9858460000151611858565b1090508092505050919050565b611bde6120a0565b611be66120a0565b60006001600281101515611bf657fe5b601602016060604051908101604052908160008201601480602002604051908101604052809291908260148015611c78576020028201915b8160009054906101000a900473ffffffffffffffffffffffffffffffffffffffff1673ffffffffffffffffffffffffffffffffffffffff1681526020019060010190808311611c2e575b505050505081526020016014820154815260200160158201548152505090508091505090565b611ca66120a0565b6000611cb06120a0565b611cb8611790565b84101515611d54576040517f08c379a00000000000000000000000000000000000000000000000000000000081526004018080602001828103825260268152602001807f43616e206e6f74206765742063757272656e742065706f63682066726f6d206181526020017f726368697665000000000000000000000000000000000000000000000000000081525060400191505060405180910390fd5b611d5d84612041565b9150602c82815481101515611d6e57fe5b90600052602060002090601702016001016060604051908101604052908160008201601480602002604051908101604052809291908260148015611dfd576020028201915b8160009054906101000a900473ffffffffffffffffffffffffffffffffffffffff1673ffffffffffffffffffffffffffffffffffffffff1681526020019060010190808311611db3575b505050505081526020016014820154815260200160158201548152505090508092505050919050565b6000808284019050838110151515611e3d57600080fd5b8091505092915050565b6000611e51611790565b9050602d54811115611e6757611e668161129c565b5b8160006001600281101515611e7857fe5b60160201600082015181600001906014611e939291906120c9565b5060208201518160140155604082015181601501559050505050565b611eb761216a565b6040805190810160405280848152602001838152509050602c819080600181540180825580915050906001820390600052602060002090601702016000909192909190915060008201518160000155602082015181600101600082015181600001906014611f269291906120c9565b5060208201518160140155604082015181601501555050505050505050565b600073ffffffffffffffffffffffffffffffffffffffff168173ffffffffffffffffffffffffffffffffffffffff1614151515611f8157600080fd5b8073ffffffffffffffffffffffffffffffffffffffff16603060009054906101000a900473ffffffffffffffffffffffffffffffffffffffff1673ffffffffffffffffffffffffffffffffffffffff167f8be0079c531659141344cd1fd0a4f28419497f9722a3daafe3b4186f6b6457e060405160405180910390a380603060006101000a81548173ffffffffffffffffffffffffffffffffffffffff021916908373ffffffffffffffffffffffffffffffffffffffff16021790555050565b6000806000602c805490509150600090505b818110156120985783602c8281548110151561206b57fe5b906000526020600020906017020160000154141561208b57809250612099565b8080600101915050612053565b5b5050919050565b6102c0604051908101604052806120b561218c565b815260200160008152602001600081525090565b8260148101928215612135579160200282015b828111156121345782518260006101000a81548173ffffffffffffffffffffffffffffffffffffffff021916908373ffffffffffffffffffffffffffffffffffffffff160217905550916020019190600101906120dc565b5b50905061214291906121b0565b5090565b61028060405190810160405280601490602082028038833980820191505090505090565b6102e060405190810160405280600081526020016121866121f3565b81525090565b61028060405190810160405280601490602082028038833980820191505090505090565b6121f091905b808211156121ec57600081816101000a81549073ffffffffffffffffffffffffffffffffffffffff0219169055506001016121b6565b5090565b90565b6102c06040519081016040528061220861218c565b8152602001600081526020016000815250905600a165627a7a7230582047bfda16a14ea224d5697fdb94822fcea5b663a3617492c71667de19d14c39e30029",
  "source": "pragma solidity 0.4.24;\n\nimport \"openzeppelin-solidity/contracts/math/SafeMath.sol\";\nimport \"openzeppelin-solidity/contracts/ownership/Ownable.sol\";\nimport \"./Registry.sol\";\n\n\n/**\n* Generic Registry, used for Candidates and Voters\n*\n**/\n\ncontract OwnedRegistry is Registry, Ownable {\n    using SafeMath for uint256;\n\n    event _MaxListingsEdited(uint256 _number); \n    \n    /**\n    * @dev Adds a new account to the registry\n    * @param _accountToWhiteList account to be added to the registry\n    **/\n\n    function whiteList(address _accountToWhiteList) public {\n        require(msg.sender == owner());\n        require(!isWhitelisted(_accountToWhiteList));\n        require(_getNextListingCounter() < _getMaxNumListings());\n        _whiteListAddress(_accountToWhiteList);\n        emit _WhiteList(_accountToWhiteList);\n    }\n\n    /**\n    * @dev Removes an account from the registry\n    * @param _accountToRemove account to be removed from\n    **/\n\n    function remove(address _accountToRemove) public {\n        require(msg.sender == owner());\n        _blackListAddress(_accountToRemove);\n        emit _Remove(_accountToRemove);\n    }\n\n    /**\n    *  @dev Sets the maximum number of listings to be included in a registry\n    *  @param _maxNumListings Maximum number of listings to be set in the registry\n    */\n\n    function setMaxNumListings(uint256 _maxNumListings) external {\n        require(msg.sender == owner());\n        require(_maxNumListings >= _getListingCounter());\n        _setMaxNumListings(_maxNumListings);\n        emit _MaxListingsEdited(_maxNumListings);\n    }\n\n   \n    /**\n    *  @dev Returns true when a listing Hash is already Whitelisted\n    *  @param  _accountChecked address being checked\n    *  @return whitelisted boolean specifying if the listing is valid\n    */\n\n    function isWhitelisted(address _accountChecked) view public returns (bool whitelisted) {\n       whitelisted = _getAccountFromWhiteListed(_accountChecked);\n       return whitelisted;\n    }\n\n    function wasWhitelisted(address _accountChecked, uint256 _epoch) public view returns (bool whitelisted){\n        address[20] memory addressListFromEpoch = _getEpochFromArchive(_epoch).whiteListed;\n        uint256 userIndex = _findInArray(_accountChecked, addressListFromEpoch);\n\n        if(userIndex == 101){\n            return false;\n        }else{\n            return true;\n        }\n    }\n\n    function listingCounter() public view returns (uint256){\n        uint256 _counter = _getListingCounter();\n        return _counter;\n    }\n\n    function maxNumListings() public view returns (uint256){\n        uint256 _maxNumListings = _getMaxNumListings();\n        return _maxNumListings;\n    }\n}\n",
  "sourcePath": "/Users/boss/git/frontier/trl-project/RoleRegistries/contracts/OwnedRegistry.sol",
  "compiler": {
    "name": "solc",
    "version": "0.4.24+commit.e67f0147.Emscripten.clang"
  },
  "schemaVersion": "2.0.1",
  "updatedAt": "2018-12-31T00:25:25.062Z"
}