{
  "contractName": "OwnedRegistryMock",
  "abi": [
    {
      "constant": true,
      "inputs": [],
      "name": "_getListingCounter",
      "outputs": [
        {
          "name": "",
          "type": "uint256"
        }
      ],
      "payable": false,
      "stateMutability": "view",
      "type": "function"
    },
    {
      "constant": true,
      "inputs": [],
      "name": "maxNumListings",
      "outputs": [
        {
          "name": "",
          "type": "uint256"
        }
      ],
      "payable": false,
      "stateMutability": "view",
      "type": "function"
    },
    {
      "constant": false,
      "inputs": [
        {
          "name": "_accountToRemove",
          "type": "address"
        }
      ],
      "name": "remove",
      "outputs": [],
      "payable": false,
      "stateMutability": "nonpayable",
      "type": "function"
    },
    {
      "constant": false,
      "inputs": [
        {
          "name": "_accountToWhiteList",
          "type": "address"
        }
      ],
      "name": "whiteList",
      "outputs": [],
      "payable": false,
      "stateMutability": "nonpayable",
      "type": "function"
    },
    {
      "constant": true,
      "inputs": [
        {
          "name": "_accountChecked",
          "type": "address"
        }
      ],
      "name": "isWhitelisted",
      "outputs": [
        {
          "name": "whitelisted",
          "type": "bool"
        }
      ],
      "payable": false,
      "stateMutability": "view",
      "type": "function"
    },
    {
      "constant": true,
      "inputs": [],
      "name": "_getNextListingCounter",
      "outputs": [
        {
          "name": "",
          "type": "uint256"
        }
      ],
      "payable": false,
      "stateMutability": "view",
      "type": "function"
    },
    {
      "constant": false,
      "inputs": [
        {
          "name": "_maxNumListings",
          "type": "uint256"
        }
      ],
      "name": "setMaxNumListings",
      "outputs": [],
      "payable": false,
      "stateMutability": "nonpayable",
      "type": "function"
    },
    {
      "constant": true,
      "inputs": [],
      "name": "counter",
      "outputs": [
        {
          "name": "",
          "type": "uint256"
        }
      ],
      "payable": false,
      "stateMutability": "view",
      "type": "function"
    },
    {
      "constant": true,
      "inputs": [],
      "name": "lastSync",
      "outputs": [
        {
          "name": "",
          "type": "uint256"
        }
      ],
      "payable": false,
      "stateMutability": "view",
      "type": "function"
    },
    {
      "constant": true,
      "inputs": [],
      "name": "listingCounter",
      "outputs": [
        {
          "name": "",
          "type": "uint256"
        }
      ],
      "payable": false,
      "stateMutability": "view",
      "type": "function"
    },
    {
      "constant": false,
      "inputs": [],
      "name": "renounceOwnership",
      "outputs": [],
      "payable": false,
      "stateMutability": "nonpayable",
      "type": "function"
    },
    {
      "constant": true,
      "inputs": [
        {
          "name": "_accountChecked",
          "type": "address"
        },
        {
          "name": "_epoch",
          "type": "uint256"
        }
      ],
      "name": "wasWhitelisted",
      "outputs": [
        {
          "name": "whitelisted",
          "type": "bool"
        }
      ],
      "payable": false,
      "stateMutability": "view",
      "type": "function"
    },
    {
      "constant": true,
      "inputs": [],
      "name": "owner",
      "outputs": [
        {
          "name": "",
          "type": "address"
        }
      ],
      "payable": false,
      "stateMutability": "view",
      "type": "function"
    },
    {
      "constant": true,
      "inputs": [],
      "name": "_getMaxNumListings",
      "outputs": [
        {
          "name": "",
          "type": "uint256"
        }
      ],
      "payable": false,
      "stateMutability": "view",
      "type": "function"
    },
    {
      "constant": true,
      "inputs": [],
      "name": "isInit",
      "outputs": [
        {
          "name": "",
          "type": "bool"
        }
      ],
      "payable": false,
      "stateMutability": "view",
      "type": "function"
    },
    {
      "constant": false,
      "inputs": [
        {
          "name": "_accountToWhiteList",
          "type": "address"
        }
      ],
      "name": "whitelistCurrentPeriod",
      "outputs": [],
      "payable": false,
      "stateMutability": "nonpayable",
      "type": "function"
    },
    {
      "constant": false,
      "inputs": [
        {
          "name": "_newMaxNumListings",
          "type": "uint256"
        }
      ],
      "name": "_setMaxNumListings",
      "outputs": [],
      "payable": false,
      "stateMutability": "nonpayable",
      "type": "function"
    },
    {
      "constant": false,
      "inputs": [
        {
          "name": "_height",
          "type": "uint256"
        }
      ],
      "name": "updateState",
      "outputs": [],
      "payable": false,
      "stateMutability": "nonpayable",
      "type": "function"
    },
    {
      "constant": false,
      "inputs": [
        {
          "name": "_accountToWhiteList",
          "type": "address"
        }
      ],
      "name": "_blackListAddress",
      "outputs": [],
      "payable": false,
      "stateMutability": "nonpayable",
      "type": "function"
    },
    {
      "constant": true,
      "inputs": [],
      "name": "hardMaxNumListingsLimit",
      "outputs": [
        {
          "name": "",
          "type": "uint256"
        }
      ],
      "payable": false,
      "stateMutability": "view",
      "type": "function"
    },
    {
      "constant": false,
      "inputs": [
        {
          "name": "_accountToWhiteList",
          "type": "address"
        }
      ],
      "name": "_whiteListAddress",
      "outputs": [],
      "payable": false,
      "stateMutability": "nonpayable",
      "type": "function"
    },
    {
      "constant": true,
      "inputs": [
        {
          "name": "_epoch",
          "type": "uint256"
        }
      ],
      "name": "getWhitelistedFromEpoch",
      "outputs": [
        {
          "name": "elements",
          "type": "address[5]"
        }
      ],
      "payable": false,
      "stateMutability": "view",
      "type": "function"
    },
    {
      "constant": false,
      "inputs": [
        {
          "name": "_newOwner",
          "type": "address"
        }
      ],
      "name": "transferOwnership",
      "outputs": [],
      "payable": false,
      "stateMutability": "nonpayable",
      "type": "function"
    },
    {
      "constant": false,
      "inputs": [
        {
          "name": "_hardMaxNumListingsLimit",
          "type": "uint256"
        },
        {
          "name": "_initMaxNumListings",
          "type": "uint256"
        },
        {
          "name": "_trlAddress",
          "type": "address"
        }
      ],
      "name": "init",
      "outputs": [],
      "payable": false,
      "stateMutability": "nonpayable",
      "type": "function"
    },
    {
      "anonymous": false,
      "inputs": [
        {
          "indexed": false,
          "name": "_number",
          "type": "uint256"
        }
      ],
      "name": "_MaxListingsEdited",
      "type": "event"
    },
    {
      "anonymous": false,
      "inputs": [
        {
          "indexed": true,
          "name": "previousOwner",
          "type": "address"
        }
      ],
      "name": "OwnershipRenounced",
      "type": "event"
    },
    {
      "anonymous": false,
      "inputs": [
        {
          "indexed": true,
          "name": "previousOwner",
          "type": "address"
        },
        {
          "indexed": true,
          "name": "newOwner",
          "type": "address"
        }
      ],
      "name": "OwnershipTransferred",
      "type": "event"
    },
    {
      "anonymous": false,
      "inputs": [
        {
          "indexed": false,
          "name": "_whiteListedAccount",
          "type": "address"
        }
      ],
      "name": "_WhiteList",
      "type": "event"
    },
    {
      "anonymous": false,
      "inputs": [
        {
          "indexed": false,
          "name": "_removedAccount",
          "type": "address"
        }
      ],
      "name": "_Remove",
      "type": "event"
    },
    {
      "anonymous": false,
      "inputs": [
        {
          "indexed": true,
          "name": "listingHash",
          "type": "bytes32"
        },
        {
          "indexed": false,
          "name": "deposit",
          "type": "uint256"
        },
        {
          "indexed": false,
          "name": "data",
          "type": "string"
        },
        {
          "indexed": true,
          "name": "applicant",
          "type": "address"
        }
      ],
      "name": "_Application",
      "type": "event"
    },
    {
      "constant": false,
      "inputs": [],
      "name": "next",
      "outputs": [],
      "payable": false,
      "stateMutability": "nonpayable",
      "type": "function"
    },
    {
      "constant": true,
      "inputs": [],
      "name": "debug_get0",
      "outputs": [
        {
          "name": "",
          "type": "uint256"
        },
        {
          "name": "",
          "type": "address[5]"
        }
      ],
      "payable": false,
      "stateMutability": "view",
      "type": "function"
    },
    {
      "constant": true,
      "inputs": [],
      "name": "debug_get1",
      "outputs": [
        {
          "name": "",
          "type": "uint256"
        },
        {
          "name": "",
          "type": "address[5]"
        }
      ],
      "payable": false,
      "stateMutability": "view",
      "type": "function"
    },
    {
      "constant": true,
      "inputs": [],
      "name": "debug_getCurrent",
      "outputs": [
        {
          "name": "",
          "type": "uint256"
        },
        {
          "name": "",
          "type": "address[5]"
        }
      ],
      "payable": false,
      "stateMutability": "view",
      "type": "function"
    },
    {
      "constant": true,
      "inputs": [
        {
          "name": "_index",
          "type": "uint256"
        }
      ],
      "name": "debug_getArchive",
      "outputs": [
        {
          "name": "",
          "type": "address[5]"
        }
      ],
      "payable": false,
      "stateMutability": "view",
      "type": "function"
    },
    {
      "constant": true,
      "inputs": [],
      "name": "debug_getArchiveSize",
      "outputs": [
        {
          "name": "",
          "type": "uint256"
        }
      ],
      "payable": false,
      "stateMutability": "view",
      "type": "function"
    }
  ],
  "bytecode": "0x60806040526000601160006101000a81548160ff02191690831515021790555033601260006101000a81548173ffffffffffffffffffffffffffffffffffffffff021916908373ffffffffffffffffffffffffffffffffffffffff1602179055506124258061006f6000396000f300608060405260043610610180576000357c0100000000000000000000000000000000000000000000000000000000900463ffffffff1680630b58343a146101855780630e8f773e146101b057806329092d0e146101db578063372c12b11461021e5780633af32abf146102615780633be6e937146102bc5780634c8fe526146102e75780635635d7b5146102fe5780635b92e5ad1461035857806361bc221a146103855780636917516b146103b05780636c2c9c7d146103db578063715018a614610406578063811b1ea91461041d5780638da5cb5b1461048257806398b20e0f146104d95780639a93cacb14610504578063a57856d11461052f578063b145a5b814610589578063be1de1a0146105b8578063c40de52e146105fb578063c61c28ea14610628578063cc8a55e214610682578063d000d7a6146106af578063d4ad420e14610718578063dc60164e1461075b578063e4ad2b9214610786578063ecddf2d0146107c9578063f2fde38b14610832578063f3251e1e14610875575b600080fd5b34801561019157600080fd5b5061019a6108cc565b6040518082815260200191505060405180910390f35b3480156101bc57600080fd5b506101c56108eb565b6040518082815260200191505060405180910390f35b3480156101e757600080fd5b5061021c600480360381019080803573ffffffffffffffffffffffffffffffffffffffff1690602001909291905050506108ff565b005b34801561022a57600080fd5b5061025f600480360381019080803573ffffffffffffffffffffffffffffffffffffffff1690602001909291905050506109ca565b005b34801561026d57600080fd5b506102a2600480360381019080803573ffffffffffffffffffffffffffffffffffffffff169060200190929190505050610ac6565b604051808215151515815260200191505060405180910390f35b3480156102c857600080fd5b506102d1610adb565b6040518082815260200191505060405180910390f35b3480156102f357600080fd5b506102fc610afa565b005b34801561030a57600080fd5b50610313610b0e565b6040518083815260200182600560200280838360005b83811015610344578082015181840152602081019050610329565b505050509050019250505060405180910390f35b34801561036457600080fd5b5061038360048036038101908080359060200190929190505050610bc4565b005b34801561039157600080fd5b5061039a610c79565b6040518082815260200191505060405180910390f35b3480156103bc57600080fd5b506103c5610c7f565b6040518082815260200191505060405180910390f35b3480156103e757600080fd5b506103f0610c85565b6040518082815260200191505060405180910390f35b34801561041257600080fd5b5061041b610c99565b005b34801561042957600080fd5b50610468600480360381019080803573ffffffffffffffffffffffffffffffffffffffff16906020019092919080359060200190929190505050610d9e565b604051808215151515815260200191505060405180910390f35b34801561048e57600080fd5b50610497610de4565b604051808273ffffffffffffffffffffffffffffffffffffffff1673ffffffffffffffffffffffffffffffffffffffff16815260200191505060405180910390f35b3480156104e557600080fd5b506104ee610e0a565b6040518082815260200191505060405180910390f35b34801561051057600080fd5b50610519610e29565b6040518082815260200191505060405180910390f35b34801561053b57600080fd5b50610544610e36565b6040518083815260200182600560200280838360005b8381101561057557808201518184015260208101905061055a565b505050509050019250505060405180910390f35b34801561059557600080fd5b5061059e610fa9565b604051808215151515815260200191505060405180910390f35b3480156105c457600080fd5b506105f9600480360381019080803573ffffffffffffffffffffffffffffffffffffffff169060200190929190505050610fbc565b005b34801561060757600080fd5b50610626600480360381019080803590602001909291905050506114c2565b005b34801561063457600080fd5b5061063d6114eb565b6040518083815260200182600560200280838360005b8381101561066e578082015181840152602081019050610653565b505050509050019250505060405180910390f35b34801561068e57600080fd5b506106ad6004803603810190808035906020019092919050505061159f565b005b3480156106bb57600080fd5b506106da600480360381019080803590602001909291905050506116b0565b6040518082600560200280838360005b838110156107055780820151818401526020810190506106ea565b5050505090500191505060405180910390f35b34801561072457600080fd5b50610759600480360381019080803573ffffffffffffffffffffffffffffffffffffffff1690602001909291905050506116cc565b005b34801561076757600080fd5b50610770611722565b6040518082815260200191505060405180910390f35b34801561079257600080fd5b506107c7600480360381019080803573ffffffffffffffffffffffffffffffffffffffff169060200190929190505050611728565b005b3480156107d557600080fd5b506107f460048036038101908080359060200190929190505050611867565b6040518082600560200280838360005b8381101561081f578082015181840152602081019050610804565b5050505090500191505060405180910390f35b34801561083e57600080fd5b50610873600480360381019080803573ffffffffffffffffffffffffffffffffffffffff169060200190929190505050611883565b005b34801561088157600080fd5b506108ca6004803603810190808035906020019092919080359060200190929190803573ffffffffffffffffffffffffffffffffffffffff1690602001909291905050506118eb565b005b60006108d6612281565b6108de611a3c565b9050806020015191505090565b6000806108f6610e0a565b90508091505090565b601260009054906101000a900473ffffffffffffffffffffffffffffffffffffffff1673ffffffffffffffffffffffffffffffffffffffff163373ffffffffffffffffffffffffffffffffffffffff1614151561095b57600080fd5b610964816116cc565b7f4dad83fa2f662e801184bd81b75b1894fdfd16026aa67a6a65d5715476a61f5381604051808273ffffffffffffffffffffffffffffffffffffffff1673ffffffffffffffffffffffffffffffffffffffff16815260200191505060405180910390a150565b601260009054906101000a900473ffffffffffffffffffffffffffffffffffffffff1673ffffffffffffffffffffffffffffffffffffffff163373ffffffffffffffffffffffffffffffffffffffff16141515610a2657600080fd5b610a2f81610ac6565b151515610a3b57600080fd5b610a43610e0a565b610a4b610adb565b101515610a5757600080fd5b610a6081611728565b7f14c99c95843c55c4e6e3cd95be615861493e90f3919ff664169bfbe2839dbfb081604051808273ffffffffffffffffffffffffffffffffffffffff1673ffffffffffffffffffffffffffffffffffffffff16815260200191505060405180910390a150565b6000610ad182611bbf565b9050809050919050565b6000610ae5612281565b610aed611bf2565b9050806020015191505090565b601360008154809291906001019190505550565b6000610b186122a9565b60006001600281101515610b2857fe5b600702016005015460006001600281101515610b4057fe5b6007020160000180600580602002604051908101604052809291908260058015610bb5576020028201915b8160009054906101000a900473ffffffffffffffffffffffffffffffffffffffff1673ffffffffffffffffffffffffffffffffffffffff1681526020019060010190808311610b6b575b50505050509050915091509091565b601260009054906101000a900473ffffffffffffffffffffffffffffffffffffffff1673ffffffffffffffffffffffffffffffffffffffff163373ffffffffffffffffffffffffffffffffffffffff16141515610c2057600080fd5b610c286108cc565b8110151515610c3657600080fd5b610c3f816114c2565b7fd53c8ff37b935c3daef1e99bb428f04a9cd34afe9bc9d6b0d5b2c8cecf5d1b53816040518082815260200191505060405180910390a150565b60135481565b600f5481565b600080610c906108cc565b90508091505090565b601260009054906101000a900473ffffffffffffffffffffffffffffffffffffffff1673ffffffffffffffffffffffffffffffffffffffff163373ffffffffffffffffffffffffffffffffffffffff16141515610cf557600080fd5b601260009054906101000a900473ffffffffffffffffffffffffffffffffffffffff1673ffffffffffffffffffffffffffffffffffffffff167ff8df31144d9c2f0f6b59d69b8b98abd5459d07f2742c4df920b25aae33c6482060405160405180910390a26000601260006101000a81548173ffffffffffffffffffffffffffffffffffffffff021916908373ffffffffffffffffffffffffffffffffffffffff160217905550565b6000610da86122a9565b6000610db384611cba565b600001519150610dc38583611e42565b90506065811415610dd75760009250610ddc565b600192505b505092915050565b601260009054906101000a900473ffffffffffffffffffffffffffffffffffffffff1681565b6000610e14612281565b610e1c611a3c565b9050806040015191505090565b6000600e80549050905090565b6000610e406122a9565b600f54610e4b611ec0565b1115610efe5760006001600281101515610e6157fe5b600702016005015460006001600281101515610e7957fe5b6007020160000180600580602002604051908101604052809291908260058015610eee576020028201915b8160009054906101000a900473ffffffffffffffffffffffffffffffffffffffff1673ffffffffffffffffffffffffffffffffffffffff1681526020019060010190808311610ea4575b5050505050905091509150610fa5565b600080600281101515610f0d57fe5b6007020160050154600080600281101515610f2457fe5b6007020160000180600580602002604051908101604052809291908260058015610f99576020028201915b8160009054906101000a900473ffffffffffffffffffffffffffffffffffffffff1673ffffffffffffffffffffffffffffffffffffffff1681526020019060010190808311610f4f575b50505050509050915091505b9091565b601160009054906101000a900460ff1681565b6000610fc6612281565b610fce612281565b600080600080610fdc611ec0565b9050600f54811115610ff257610ff18161159f565b5b600f54610ffd611ec0565b111561100c5760019650611011565b600096505b600187141561101f576114b8565b60008714156113915760008060028110151561103757fe5b6007020160606040519081016040529081600082016005806020026040519081016040528092919082600580156110b9576020028201915b8160009054906101000a900473ffffffffffffffffffffffffffffffffffffffff1673ffffffffffffffffffffffffffffffffffffffff168152602001906001019080831161106f575b50505050508152602001600582015481526020016006820154815250509550600060016002811015156110e857fe5b60070201606060405190810160405290816000820160058060200260405190810160405280929190826005801561116a576020028201915b8160009054906101000a900473ffffffffffffffffffffffffffffffffffffffff1673ffffffffffffffffffffffffffffffffffffffff1681526020019060010190808311611120575b505050505081526020016005820154815260200160068201548152505094506065611199898860000151611e42565b14935060656111ac898760000151611e42565b149250831515611224576040517f08c379a000000000000000000000000000000000000000000000000000000000815260040180806020018281038252601b8152602001807f4164647265737320616c72656164792077686974656c6973746564000000000081525060200191505060405180910390fd5b878660000151876020015160058110151561123b57fe5b602002019073ffffffffffffffffffffffffffffffffffffffff16908173ffffffffffffffffffffffffffffffffffffffff168152505061128a60018760200151611eca90919063ffffffff16565b866020018181525050856000806002811015156112a357fe5b600702016000820151816000019060056112be9291906122cc565b50602082015181600501556040820151816006015590505082156113905787856000015186602001516005811015156112f357fe5b602002019073ffffffffffffffffffffffffffffffffffffffff16908173ffffffffffffffffffffffffffffffffffffffff168152505061134260018660200151611eca90919063ffffffff16565b856020018181525050846000600160028110151561135c57fe5b600702016000820151816000019060056113779291906122cc565b5060208201518160050155604082015181600601559050505b5b61139f888760000151611e42565b915060098211151561143f576040517f08c379a00000000000000000000000000000000000000000000000000000000081526004018080602001828103825260218152602001807f4164647265737320616c72656164792077686974656c6973746564206578697381526020017f740000000000000000000000000000000000000000000000000000000000000081525060400191505060405180910390fd5b878660000151876020015160058110151561145657fe5b602002019073ffffffffffffffffffffffffffffffffffffffff16908173ffffffffffffffffffffffffffffffffffffffff16815250506114a560018760200151611eca90919063ffffffff16565b8660200181815250506114b786611ee6565b5b5050505050505050565b6114ca612281565b6114d2611bf2565b9050818160400181815250506114e781611ee6565b5050565b60006114f56122a9565b60008060028110151561150457fe5b600702016005015460008060028110151561151b57fe5b6007020160000180600580602002604051908101604052809291908260058015611590576020028201915b8160009054906101000a900473ffffffffffffffffffffffffffffffffffffffff1673ffffffffffffffffffffffffffffffffffffffff1681526020019060010190808311611546575b50505050509050915091509091565b6115a7612281565b600060016002811015156115b757fe5b600702016060604051908101604052908160008201600580602002604051908101604052809291908260058015611639576020028201915b8160009054906101000a900473ffffffffffffffffffffffffffffffffffffffff1673ffffffffffffffffffffffffffffffffffffffff16815260200190600101908083116115ef575b505050505081526020016005820154815260200160068201548152505090508060008060028110151561166857fe5b600702016000820151816000019060056116839291906122cc565b50602082015181600501556040820151816006015590505081600f819055506116ac8282611f4e565b5050565b6116b86122a9565b6116c182611cba565b600001519050919050565b6116d4612281565b6116dc611bf2565b90506116ec828260000151611fe4565b816000018190525061170c6001826020015161210d90919063ffffffff16565b81602001818152505061171e81611ee6565b5050565b60105481565b611730612281565b600061173a611bf2565b915061174a838360000151611e42565b90506009811115156117ea576040517f08c379a00000000000000000000000000000000000000000000000000000000081526004018080602001828103825260218152602001807f4164647265737320616c72656164792077686974656c6973746564206578697381526020017f740000000000000000000000000000000000000000000000000000000000000081525060400191505060405180910390fd5b828260000151836020015160058110151561180157fe5b602002019073ffffffffffffffffffffffffffffffffffffffff16908173ffffffffffffffffffffffffffffffffffffffff168152505061185060018360200151611eca90919063ffffffff16565b82602001818152505061186282611ee6565b505050565b61186f6122a9565b61187882611cba565b600001519050919050565b601260009054906101000a900473ffffffffffffffffffffffffffffffffffffffff1673ffffffffffffffffffffffffffffffffffffffff163373ffffffffffffffffffffffffffffffffffffffff161415156118df57600080fd5b6118e881612126565b50565b6118f36122a9565b6118fb612281565b601160009054906101000a900460ff1615151561191757600080fd5b601160009054906101000a900460ff1615151561193357600080fd5b606060405190810160405280838152602001600081526020018581525090508060008060028110151561196257fe5b6007020160008201518160000190600561197d9291906122cc565b50602082015181600501556040820151816006015590505080600060016002811015156119a657fe5b600702016000820151816000019060056119c19291906122cc565b50602082015181600501556040820151816006015590505082601160016101000a81548173ffffffffffffffffffffffffffffffffffffffff021916908373ffffffffffffffffffffffffffffffffffffffff1602179055506001601160006101000a81548160ff0219169083151502179055505050505050565b611a44612281565b600f54611a4f611ec0565b1115611b0b5760006001600281101515611a6557fe5b600702016060604051908101604052908160008201600580602002604051908101604052809291908260058015611ae7576020028201915b8160009054906101000a900473ffffffffffffffffffffffffffffffffffffffff1673ffffffffffffffffffffffffffffffffffffffff1681526020019060010190808311611a9d575b50505050508152602001600582015481526020016006820154815250509050611bbc565b600080600281101515611b1a57fe5b600702016060604051908101604052908160008201600580602002604051908101604052809291908260058015611b9c576020028201915b8160009054906101000a900473ffffffffffffffffffffffffffffffffffffffff1673ffffffffffffffffffffffffffffffffffffffff1681526020019060010190808311611b52575b505050505081526020016005820154815260200160068201548152505090505b90565b6000611bc9612281565b6000611bd3611a3c565b91506065611be5858460000151611e42565b1090508092505050919050565b611bfa612281565b611c02612281565b60006001600281101515611c1257fe5b600702016060604051908101604052908160008201600580602002604051908101604052809291908260058015611c94576020028201915b8160009054906101000a900473ffffffffffffffffffffffffffffffffffffffff1673ffffffffffffffffffffffffffffffffffffffff1681526020019060010190808311611c4a575b505050505081526020016005820154815260200160068201548152505090508091505090565b611cc2612281565b6000611ccc612281565b611cd4611ec0565b84101515611d70576040517f08c379a00000000000000000000000000000000000000000000000000000000081526004018080602001828103825260268152602001807f43616e206e6f74206765742063757272656e742065706f63682066726f6d206181526020017f726368697665000000000000000000000000000000000000000000000000000081525060400191505060405180910390fd5b611d7984612222565b9150600e82815481101515611d8a57fe5b90600052602060002090600802016001016060604051908101604052908160008201600580602002604051908101604052809291908260058015611e19576020028201915b8160009054906101000a900473ffffffffffffffffffffffffffffffffffffffff1673ffffffffffffffffffffffffffffffffffffffff1681526020019060010190808311611dcf575b505050505081526020016005820154815260200160068201548152505090508092505050919050565b600080600060059150600090505b81811015611eb3578473ffffffffffffffffffffffffffffffffffffffff168482600581101515611e7d57fe5b602002015173ffffffffffffffffffffffffffffffffffffffff161415611ea657809250611eb8565b8080600101915050611e50565b606592505b505092915050565b6000601354905090565b60008183019050828110151515611edd57fe5b80905092915050565b6000611ef0611ec0565b9050600f54811115611f0657611f058161159f565b5b8160006001600281101515611f1757fe5b60070201600082015181600001906005611f329291906122cc565b5060208201518160050155604082015181600601559050505050565b611f56612349565b6040805190810160405280848152602001838152509050600e819080600181540180825580915050906001820390600052602060002090600802016000909192909190915060008201518160000155602082015181600101600082015181600001906005611fc59291906122cc565b5060208201518160050155604082015181600601555050505050505050565b611fec6122a9565b60008060059150611ffd8585611e42565b9050600981101515612077576040517f08c379a00000000000000000000000000000000000000000000000000000000081526004018080602001828103825260168152602001807f4164647265737320646f6573206e6f742065786973740000000000000000000081525060200191505060405180910390fd5b836001830360058110151561208857fe5b6020020151848260058110151561209b57fe5b602002019073ffffffffffffffffffffffffffffffffffffffff16908173ffffffffffffffffffffffffffffffffffffffff168152505083600183036005811015156120e357fe5b60200201600073ffffffffffffffffffffffffffffffffffffffff16815250839250505092915050565b600082821115151561211b57fe5b818303905092915050565b600073ffffffffffffffffffffffffffffffffffffffff168173ffffffffffffffffffffffffffffffffffffffff161415151561216257600080fd5b8073ffffffffffffffffffffffffffffffffffffffff16601260009054906101000a900473ffffffffffffffffffffffffffffffffffffffff1673ffffffffffffffffffffffffffffffffffffffff167f8be0079c531659141344cd1fd0a4f28419497f9722a3daafe3b4186f6b6457e060405160405180910390a380601260006101000a81548173ffffffffffffffffffffffffffffffffffffffff021916908373ffffffffffffffffffffffffffffffffffffffff16021790555050565b6000806000600e805490509150600090505b818110156122795783600e8281548110151561224c57fe5b906000526020600020906008020160000154141561226c5780925061227a565b8080600101915050612234565b5b5050919050565b60e06040519081016040528061229561236b565b815260200160008152602001600081525090565b60a060405190810160405280600590602082028038833980820191505090505090565b8260058101928215612338579160200282015b828111156123375782518260006101000a81548173ffffffffffffffffffffffffffffffffffffffff021916908373ffffffffffffffffffffffffffffffffffffffff160217905550916020019190600101906122df565b5b509050612345919061238e565b5090565b61010060405190810160405280600081526020016123656123d1565b81525090565b60a060405190810160405280600590602082028038833980820191505090505090565b6123ce91905b808211156123ca57600081816101000a81549073ffffffffffffffffffffffffffffffffffffffff021916905550600101612394565b5090565b90565b60e0604051908101604052806123e561236b565b8152602001600081526020016000815250905600a165627a7a72305820af6fb1fe91684f6fd14a774807e4015c0c39d1dfd78170aa382bd916d00b29140029",
  "source": "\n//import \"github.com/OpenZeppelin/zeppelin-solidity/contracts/math/SafeMath.sol\";\nimport \"openzeppelin-solidity/contracts/math/SafeMath.sol\";\nimport \"../OwnedRegistry.sol\";\n\npragma solidity 0.4.24;\n\ncontract OwnedRegistryMock is OwnedRegistry {\n    using SafeMath for uint256;\n    \n    uint256 public counter;\n    \n    ///// Aux\n\n    function height() internal view returns (uint){\n        return counter;\n    }\n\n    function next() public {\n        counter ++;\n    }\n\n        // Debug\n\n    function debug_get0() public view returns (uint, address[5]){\n        return (strg[0].listingCounter, strg[0].whiteListed);\n    }\n    \n    function debug_get1() public view returns (uint, address[5]){\n        return (strg[1].listingCounter, strg[1].whiteListed);\n    }\n    \n    function debug_getCurrent() public view returns (uint, address[5]) {\n        if (height() > lastSync){\n            return (strg[1].listingCounter, strg[1].whiteListed);\n        }\n        return (strg[0].listingCounter, strg[0].whiteListed);\n    }\n\n    function debug_getArchive(uint256 _index) public view returns (address[5]){\n        return _getEpochFromArchive(_index).whiteListed;\n    }\n\n\n    function debug_getArchiveSize() public view returns (uint256){\n        return archive.length;\n    }\n\n}\n",
  "sourcePath": "/Users/boss/git/frontier/trl-project/RoleRegistries/contracts/mocks/OwnedRegistryMock.sol",
  "compiler": {
    "name": "solc",
    "version": "0.4.24+commit.e67f0147.Emscripten.clang"
  },
  "schemaVersion": "2.0.1",
  "updatedAt": "2018-12-04T17:37:22.923Z"
}