{
  "contractName": "OwnedRegistryMock",
  "abi": [
    {
      "constant": false,
      "inputs": [
        {
          "name": "_accountToBlacklist",
          "type": "address"
        }
      ],
      "name": "blacklistCurrentPeriod",
      "outputs": [],
      "payable": false,
      "stateMutability": "nonpayable",
      "type": "function"
    },
    {
      "constant": true,
      "inputs": [],
      "name": "_getListingCounter",
      "outputs": [
        {
          "name": "",
          "type": "uint256"
        }
      ],
      "payable": false,
      "stateMutability": "view",
      "type": "function"
    },
    {
      "constant": true,
      "inputs": [],
      "name": "maxNumListings",
      "outputs": [
        {
          "name": "",
          "type": "uint256"
        }
      ],
      "payable": false,
      "stateMutability": "view",
      "type": "function"
    },
    {
      "constant": false,
      "inputs": [
        {
          "name": "_accountToRemove",
          "type": "address"
        }
      ],
      "name": "remove",
      "outputs": [],
      "payable": false,
      "stateMutability": "nonpayable",
      "type": "function"
    },
    {
      "constant": false,
      "inputs": [
        {
          "name": "_accountToWhiteList",
          "type": "address"
        }
      ],
      "name": "whiteList",
      "outputs": [],
      "payable": false,
      "stateMutability": "nonpayable",
      "type": "function"
    },
    {
      "constant": true,
      "inputs": [
        {
          "name": "_accountChecked",
          "type": "address"
        }
      ],
      "name": "isWhitelisted",
      "outputs": [
        {
          "name": "whitelisted",
          "type": "bool"
        }
      ],
      "payable": false,
      "stateMutability": "view",
      "type": "function"
    },
    {
      "constant": true,
      "inputs": [],
      "name": "_getNextListingCounter",
      "outputs": [
        {
          "name": "",
          "type": "uint256"
        }
      ],
      "payable": false,
      "stateMutability": "view",
      "type": "function"
    },
    {
      "constant": false,
      "inputs": [
        {
          "name": "_maxNumListings",
          "type": "uint256"
        }
      ],
      "name": "setMaxNumListings",
      "outputs": [],
      "payable": false,
      "stateMutability": "nonpayable",
      "type": "function"
    },
    {
      "constant": true,
      "inputs": [],
      "name": "counter",
      "outputs": [
        {
          "name": "",
          "type": "uint256"
        }
      ],
      "payable": false,
      "stateMutability": "view",
      "type": "function"
    },
    {
      "constant": true,
      "inputs": [],
      "name": "lastSync",
      "outputs": [
        {
          "name": "",
          "type": "uint256"
        }
      ],
      "payable": false,
      "stateMutability": "view",
      "type": "function"
    },
    {
      "constant": true,
      "inputs": [],
      "name": "listingCounter",
      "outputs": [
        {
          "name": "",
          "type": "uint256"
        }
      ],
      "payable": false,
      "stateMutability": "view",
      "type": "function"
    },
    {
      "constant": false,
      "inputs": [],
      "name": "renounceOwnership",
      "outputs": [],
      "payable": false,
      "stateMutability": "nonpayable",
      "type": "function"
    },
    {
      "constant": true,
      "inputs": [
        {
          "name": "_accountChecked",
          "type": "address"
        },
        {
          "name": "_epoch",
          "type": "uint256"
        }
      ],
      "name": "wasWhitelisted",
      "outputs": [
        {
          "name": "whitelisted",
          "type": "bool"
        }
      ],
      "payable": false,
      "stateMutability": "view",
      "type": "function"
    },
    {
      "constant": true,
      "inputs": [],
      "name": "owner",
      "outputs": [
        {
          "name": "",
          "type": "address"
        }
      ],
      "payable": false,
      "stateMutability": "view",
      "type": "function"
    },
    {
      "constant": true,
      "inputs": [],
      "name": "isOwner",
      "outputs": [
        {
          "name": "",
          "type": "bool"
        }
      ],
      "payable": false,
      "stateMutability": "view",
      "type": "function"
    },
    {
      "constant": true,
      "inputs": [],
      "name": "_getMaxNumListings",
      "outputs": [
        {
          "name": "",
          "type": "uint256"
        }
      ],
      "payable": false,
      "stateMutability": "view",
      "type": "function"
    },
    {
      "constant": true,
      "inputs": [],
      "name": "isInit",
      "outputs": [
        {
          "name": "",
          "type": "bool"
        }
      ],
      "payable": false,
      "stateMutability": "view",
      "type": "function"
    },
    {
      "constant": false,
      "inputs": [
        {
          "name": "_accountToWhiteList",
          "type": "address"
        }
      ],
      "name": "whitelistCurrentPeriod",
      "outputs": [],
      "payable": false,
      "stateMutability": "nonpayable",
      "type": "function"
    },
    {
      "constant": false,
      "inputs": [
        {
          "name": "_newMaxNumListings",
          "type": "uint256"
        }
      ],
      "name": "_setMaxNumListings",
      "outputs": [],
      "payable": false,
      "stateMutability": "nonpayable",
      "type": "function"
    },
    {
      "constant": false,
      "inputs": [
        {
          "name": "_height",
          "type": "uint256"
        }
      ],
      "name": "updateState",
      "outputs": [],
      "payable": false,
      "stateMutability": "nonpayable",
      "type": "function"
    },
    {
      "constant": false,
      "inputs": [
        {
          "name": "_accountToWhiteList",
          "type": "address"
        }
      ],
      "name": "_blackListAddress",
      "outputs": [],
      "payable": false,
      "stateMutability": "nonpayable",
      "type": "function"
    },
    {
      "constant": true,
      "inputs": [],
      "name": "hardMaxNumListingsLimit",
      "outputs": [
        {
          "name": "",
          "type": "uint256"
        }
      ],
      "payable": false,
      "stateMutability": "view",
      "type": "function"
    },
    {
      "constant": false,
      "inputs": [
        {
          "name": "_accountToWhiteList",
          "type": "address"
        }
      ],
      "name": "_whiteListAddress",
      "outputs": [],
      "payable": false,
      "stateMutability": "nonpayable",
      "type": "function"
    },
    {
      "constant": true,
      "inputs": [
        {
          "name": "_epoch",
          "type": "uint256"
        }
      ],
      "name": "getWhitelistedFromEpoch",
      "outputs": [
        {
          "name": "elements",
          "type": "address[5]"
        }
      ],
      "payable": false,
      "stateMutability": "view",
      "type": "function"
    },
    {
      "constant": false,
      "inputs": [
        {
          "name": "newOwner",
          "type": "address"
        }
      ],
      "name": "transferOwnership",
      "outputs": [],
      "payable": false,
      "stateMutability": "nonpayable",
      "type": "function"
    },
    {
      "constant": false,
      "inputs": [
        {
          "name": "_hardMaxNumListingsLimit",
          "type": "uint256"
        },
        {
          "name": "_initMaxNumListings",
          "type": "uint256"
        },
        {
          "name": "_trlAddress",
          "type": "address"
        }
      ],
      "name": "init",
      "outputs": [],
      "payable": false,
      "stateMutability": "nonpayable",
      "type": "function"
    },
    {
      "anonymous": false,
      "inputs": [
        {
          "indexed": false,
          "name": "_number",
          "type": "uint256"
        }
      ],
      "name": "_MaxListingsEdited",
      "type": "event"
    },
    {
      "anonymous": false,
      "inputs": [
        {
          "indexed": true,
          "name": "previousOwner",
          "type": "address"
        },
        {
          "indexed": true,
          "name": "newOwner",
          "type": "address"
        }
      ],
      "name": "OwnershipTransferred",
      "type": "event"
    },
    {
      "anonymous": false,
      "inputs": [
        {
          "indexed": false,
          "name": "_whiteListedAccount",
          "type": "address"
        }
      ],
      "name": "_WhiteList",
      "type": "event"
    },
    {
      "anonymous": false,
      "inputs": [
        {
          "indexed": false,
          "name": "_removedAccount",
          "type": "address"
        }
      ],
      "name": "_Remove",
      "type": "event"
    },
    {
      "anonymous": false,
      "inputs": [
        {
          "indexed": true,
          "name": "listingHash",
          "type": "bytes32"
        },
        {
          "indexed": false,
          "name": "deposit",
          "type": "uint256"
        },
        {
          "indexed": false,
          "name": "data",
          "type": "string"
        },
        {
          "indexed": true,
          "name": "applicant",
          "type": "address"
        }
      ],
      "name": "_Application",
      "type": "event"
    },
    {
      "constant": false,
      "inputs": [],
      "name": "next",
      "outputs": [],
      "payable": false,
      "stateMutability": "nonpayable",
      "type": "function"
    },
    {
      "constant": true,
      "inputs": [
        {
          "name": "_index",
          "type": "uint256"
        }
      ],
      "name": "debug_getArchive",
      "outputs": [
        {
          "name": "",
          "type": "address[5]"
        }
      ],
      "payable": false,
      "stateMutability": "view",
      "type": "function"
    },
    {
      "constant": false,
      "inputs": [],
      "name": "debug_forceUpdate",
      "outputs": [],
      "payable": false,
      "stateMutability": "nonpayable",
      "type": "function"
    }
  ],
  "bytecode": "0x60806040526000601160006101000a81548160ff02191690831515021790555033601260006101000a81548173ffffffffffffffffffffffffffffffffffffffff021916908373ffffffffffffffffffffffffffffffffffffffff160217905550601260009054906101000a900473ffffffffffffffffffffffffffffffffffffffff1673ffffffffffffffffffffffffffffffffffffffff16600073ffffffffffffffffffffffffffffffffffffffff167f8be0079c531659141344cd1fd0a4f28419497f9722a3daafe3b4186f6b6457e060405160405180910390a36122cd806100ec6000396000f300608060405260043610610175576000357c0100000000000000000000000000000000000000000000000000000000900463ffffffff16806306bbce321461017a5780630b58343a146101bd5780630e8f773e146101e857806329092d0e14610213578063372c12b1146102565780633af32abf146102995780633be6e937146102f45780634701e8841461031f5780634c8fe526146103365780635b92e5ad1461034d57806361bc221a1461037a5780636917516b146103a55780636c2c9c7d146103d0578063715018a6146103fb578063811b1ea9146104125780638da5cb5b146104775780638f32d59b146104ce57806398b20e0f146104fd578063b145a5b814610528578063be1de1a014610557578063c40de52e1461059a578063cc8a55e2146105c7578063d000d7a6146105f4578063d4ad420e1461065d578063dc60164e146106a0578063e4ad2b92146106cb578063ecddf2d01461070e578063f2fde38b14610777578063f3251e1e146107ba575b600080fd5b34801561018657600080fd5b506101bb600480360381019080803573ffffffffffffffffffffffffffffffffffffffff169060200190929190505050610811565b005b3480156101c957600080fd5b506101d2610b44565b6040518082815260200191505060405180910390f35b3480156101f457600080fd5b506101fd610b63565b6040518082815260200191505060405180910390f35b34801561021f57600080fd5b50610254600480360381019080803573ffffffffffffffffffffffffffffffffffffffff169060200190929190505050610b77565b005b34801561026257600080fd5b50610297600480360381019080803573ffffffffffffffffffffffffffffffffffffffff169060200190929190505050610c27565b005b3480156102a557600080fd5b506102da600480360381019080803573ffffffffffffffffffffffffffffffffffffffff169060200190929190505050610d08565b604051808215151515815260200191505060405180910390f35b34801561030057600080fd5b50610309610d1d565b6040518082815260200191505060405180910390f35b34801561032b57600080fd5b50610334610d3c565b005b34801561034257600080fd5b5061034b610d5f565b005b34801561035957600080fd5b5061037860048036038101908080359060200190929190505050610d73565b005b34801561038657600080fd5b5061038f610e0d565b6040518082815260200191505060405180910390f35b3480156103b157600080fd5b506103ba610e13565b6040518082815260200191505060405180910390f35b3480156103dc57600080fd5b506103e5610e19565b6040518082815260200191505060405180910390f35b34801561040757600080fd5b50610410610e2d565b005b34801561041e57600080fd5b5061045d600480360381019080803573ffffffffffffffffffffffffffffffffffffffff16906020019092919080359060200190929190505050610f01565b604051808215151515815260200191505060405180910390f35b34801561048357600080fd5b5061048c610f47565b604051808273ffffffffffffffffffffffffffffffffffffffff1673ffffffffffffffffffffffffffffffffffffffff16815260200191505060405180910390f35b3480156104da57600080fd5b506104e3610f71565b604051808215151515815260200191505060405180910390f35b34801561050957600080fd5b50610512610fc9565b6040518082815260200191505060405180910390f35b34801561053457600080fd5b5061053d610fe8565b604051808215151515815260200191505060405180910390f35b34801561056357600080fd5b50610598600480360381019080803573ffffffffffffffffffffffffffffffffffffffff169060200190929190505050610ffb565b005b3480156105a657600080fd5b506105c56004803603810190808035906020019092919050505061139e565b005b3480156105d357600080fd5b506105f2600480360381019080803590602001909291905050506113c7565b005b34801561060057600080fd5b5061061f60048036038101908080359060200190929190505050611594565b6040518082600560200280838360005b8381101561064a57808201518184015260208101905061062f565b5050505090500191505060405180910390f35b34801561066957600080fd5b5061069e600480360381019080803573ffffffffffffffffffffffffffffffffffffffff1690602001909291905050506115b0565b005b3480156106ac57600080fd5b506106b5611606565b6040518082815260200191505060405180910390f35b3480156106d757600080fd5b5061070c600480360381019080803573ffffffffffffffffffffffffffffffffffffffff16906020019092919050505061160c565b005b34801561071a57600080fd5b506107396004803603810190808035906020019092919050505061174b565b6040518082600560200280838360005b83811015610764578082015181840152602081019050610749565b5050505090500191505060405180910390f35b34801561078357600080fd5b506107b8600480360381019080803573ffffffffffffffffffffffffffffffffffffffff169060200190929190505050611767565b005b3480156107c657600080fd5b5061080f6004803603810190808035906020019092919080359060200190929190803573ffffffffffffffffffffffffffffffffffffffff169060200190929190505050611786565b005b610819612129565b610821612129565b600080600061082e6118d7565b9050600f5481111561084457610843816113c7565b5b60008060028110151561085357fe5b6007020160606040519081016040529081600082016005806020026040519081016040528092919082600580156108d5576020028201915b8160009054906101000a900473ffffffffffffffffffffffffffffffffffffffff1673ffffffffffffffffffffffffffffffffffffffff168152602001906001019080831161088b575b505050505081526020016005820154815260200160068201548152505094506000600160028110151561090457fe5b600702016060604051908101604052908160008201600580602002604051908101604052809291908260058015610986576020028201915b8160009054906101000a900473ffffffffffffffffffffffffffffffffffffffff1673ffffffffffffffffffffffffffffffffffffffff168152602001906001019080831161093c575b5050505050815260200160058201548152602001600682015481525050935060656109b58787600001516118e1565b10925060656109c88786600001516118e1565b109150821515610a40576040517f08c379a000000000000000000000000000000000000000000000000000000000815260040180806020018281038252601a8152602001807f41646472657373206973206e6f742077686974656c697374656400000000000081525060200191505060405180910390fd5b610a4e86866000015161195f565b8560000181905250610a6e60018660200151611a8890919063ffffffff16565b85602001818152505084600080600281101515610a8757fe5b60070201600082015181600001906005610aa2929190612151565b5060208201518160050155604082015181600601559050508115610b3c57610ace86856000015161195f565b8460000181905250610aee60018560200151611a8890919063ffffffff16565b8460200181815250508360006001600281101515610b0857fe5b60070201600082015181600001906005610b23929190612151565b5060208201518160050155604082015181600601559050505b505050505050565b6000610b4e612129565b610b56611aa9565b9050806020015191505090565b600080610b6e610fc9565b90508091505090565b610b7f610f47565b73ffffffffffffffffffffffffffffffffffffffff163373ffffffffffffffffffffffffffffffffffffffff16141515610bb857600080fd5b610bc1816115b0565b7f4dad83fa2f662e801184bd81b75b1894fdfd16026aa67a6a65d5715476a61f5381604051808273ffffffffffffffffffffffffffffffffffffffff1673ffffffffffffffffffffffffffffffffffffffff16815260200191505060405180910390a150565b610c2f610f47565b73ffffffffffffffffffffffffffffffffffffffff163373ffffffffffffffffffffffffffffffffffffffff16141515610c6857600080fd5b610c7181610d08565b151515610c7d57600080fd5b610c85610fc9565b610c8d610d1d565b101515610c9957600080fd5b610ca28161160c565b7f14c99c95843c55c4e6e3cd95be615861493e90f3919ff664169bfbe2839dbfb081604051808273ffffffffffffffffffffffffffffffffffffffff1673ffffffffffffffffffffffffffffffffffffffff16815260200191505060405180910390a150565b6000610d1382611c2c565b9050809050919050565b6000610d27612129565b610d2f611c5f565b9050806020015191505090565b6000610d466118d7565b9050600f54811115610d5c57610d5b816113c7565b5b50565b601360008154809291906001019190505550565b610d7b610f47565b73ffffffffffffffffffffffffffffffffffffffff163373ffffffffffffffffffffffffffffffffffffffff16141515610db457600080fd5b610dbc610b44565b8110151515610dca57600080fd5b610dd38161139e565b7fd53c8ff37b935c3daef1e99bb428f04a9cd34afe9bc9d6b0d5b2c8cecf5d1b53816040518082815260200191505060405180910390a150565b60135481565b600f5481565b600080610e24610b44565b90508091505090565b610e35610f71565b1515610e4057600080fd5b600073ffffffffffffffffffffffffffffffffffffffff16601260009054906101000a900473ffffffffffffffffffffffffffffffffffffffff1673ffffffffffffffffffffffffffffffffffffffff167f8be0079c531659141344cd1fd0a4f28419497f9722a3daafe3b4186f6b6457e060405160405180910390a36000601260006101000a81548173ffffffffffffffffffffffffffffffffffffffff021916908373ffffffffffffffffffffffffffffffffffffffff160217905550565b6000610f0b6121ce565b6000610f1684611d27565b600001519150610f2685836118e1565b90506065811415610f3a5760009250610f3f565b600192505b505092915050565b6000601260009054906101000a900473ffffffffffffffffffffffffffffffffffffffff16905090565b6000601260009054906101000a900473ffffffffffffffffffffffffffffffffffffffff1673ffffffffffffffffffffffffffffffffffffffff163373ffffffffffffffffffffffffffffffffffffffff1614905090565b6000610fd3612129565b610fdb611aa9565b9050806040015191505090565b601160009054906101000a900460ff1681565b611003612129565b61100b612129565b60008060006110186118d7565b9050600f5481111561102e5761102d816113c7565b5b60008060028110151561103d57fe5b6007020160606040519081016040529081600082016005806020026040519081016040528092919082600580156110bf576020028201915b8160009054906101000a900473ffffffffffffffffffffffffffffffffffffffff1673ffffffffffffffffffffffffffffffffffffffff1681526020019060010190808311611075575b50505050508152602001600582015481526020016006820154815250509450600060016002811015156110ee57fe5b600702016060604051908101604052908160008201600580602002604051908101604052809291908260058015611170576020028201915b8160009054906101000a900473ffffffffffffffffffffffffffffffffffffffff1673ffffffffffffffffffffffffffffffffffffffff1681526020019060010190808311611126575b50505050508152602001600582015481526020016006820154815250509350606561119f8787600001516118e1565b14925060656111b28786600001516118e1565b14915082151561122a576040517f08c379a000000000000000000000000000000000000000000000000000000000815260040180806020018281038252601b8152602001807f4164647265737320616c72656164792077686974656c6973746564000000000081525060200191505060405180910390fd5b858560000151866020015160058110151561124157fe5b602002019073ffffffffffffffffffffffffffffffffffffffff16908173ffffffffffffffffffffffffffffffffffffffff168152505061129060018660200151611eaf90919063ffffffff16565b856020018181525050846000806002811015156112a957fe5b600702016000820151816000019060056112c4929190612151565b50602082015181600501556040820151816006015590505081156113965785846000015185602001516005811015156112f957fe5b602002019073ffffffffffffffffffffffffffffffffffffffff16908173ffffffffffffffffffffffffffffffffffffffff168152505061134860018560200151611eaf90919063ffffffff16565b846020018181525050836000600160028110151561136257fe5b6007020160008201518160000190600561137d929190612151565b5060208201518160050155604082015181600601559050505b505050505050565b6113a6612129565b6113ae611c5f565b9050818160400181815250506113c381611ed0565b5050565b6113cf612129565b6113d7612129565b6000806002811015156113e657fe5b600702016060604051908101604052908160008201600580602002604051908101604052809291908260058015611468576020028201915b8160009054906101000a900473ffffffffffffffffffffffffffffffffffffffff1673ffffffffffffffffffffffffffffffffffffffff168152602001906001019080831161141e575b505050505081526020016005820154815260200160068201548152505091506114946001840383611f38565b600060016002811015156114a457fe5b600702016060604051908101604052908160008201600580602002604051908101604052809291908260058015611526576020028201915b8160009054906101000a900473ffffffffffffffffffffffffffffffffffffffff1673ffffffffffffffffffffffffffffffffffffffff16815260200190600101908083116114dc575b505050505081526020016005820154815260200160068201548152505090508060008060028110151561155557fe5b60070201600082015181600001906005611570929190612151565b50602082015181600501556040820151816006015590505082600f81905550505050565b61159c6121ce565b6115a582611d27565b600001519050919050565b6115b8612129565b6115c0611c5f565b90506115d082826000015161195f565b81600001819052506115f060018260200151611a8890919063ffffffff16565b81602001818152505061160281611ed0565b5050565b60105481565b611614612129565b600061161e611c5f565b915061162e8383600001516118e1565b90506009811115156116ce576040517f08c379a00000000000000000000000000000000000000000000000000000000081526004018080602001828103825260218152602001807f4164647265737320616c72656164792077686974656c6973746564206578697381526020017f740000000000000000000000000000000000000000000000000000000000000081525060400191505060405180910390fd5b82826000015183602001516005811015156116e557fe5b602002019073ffffffffffffffffffffffffffffffffffffffff16908173ffffffffffffffffffffffffffffffffffffffff168152505061173460018360200151611eaf90919063ffffffff16565b82602001818152505061174682611ed0565b505050565b6117536121ce565b61175c82611d27565b600001519050919050565b61176f610f71565b151561177a57600080fd5b61178381611fce565b50565b61178e6121ce565b611796612129565b601160009054906101000a900460ff161515156117b257600080fd5b601160009054906101000a900460ff161515156117ce57600080fd5b60606040519081016040528083815260200160008152602001858152509050806000806002811015156117fd57fe5b60070201600082015181600001906005611818929190612151565b506020820151816005015560408201518160060155905050806000600160028110151561184157fe5b6007020160008201518160000190600561185c929190612151565b50602082015181600501556040820151816006015590505082601160016101000a81548173ffffffffffffffffffffffffffffffffffffffff021916908373ffffffffffffffffffffffffffffffffffffffff1602179055506001601160006101000a81548160ff0219169083151502179055505050505050565b6000601354905090565b600080600060059150600090505b81811015611952578473ffffffffffffffffffffffffffffffffffffffff16848260058110151561191c57fe5b602002015173ffffffffffffffffffffffffffffffffffffffff16141561194557809250611957565b80806001019150506118ef565b606592505b505092915050565b6119676121ce565b6000806005915061197885856118e1565b90506009811015156119f2576040517f08c379a00000000000000000000000000000000000000000000000000000000081526004018080602001828103825260168152602001807f4164647265737320646f6573206e6f742065786973740000000000000000000081525060200191505060405180910390fd5b8360018303600581101515611a0357fe5b60200201518482600581101515611a1657fe5b602002019073ffffffffffffffffffffffffffffffffffffffff16908173ffffffffffffffffffffffffffffffffffffffff16815250508360018303600581101515611a5e57fe5b60200201600073ffffffffffffffffffffffffffffffffffffffff16815250839250505092915050565b600080838311151515611a9a57600080fd5b82840390508091505092915050565b611ab1612129565b600f54611abc6118d7565b1115611b785760006001600281101515611ad257fe5b600702016060604051908101604052908160008201600580602002604051908101604052809291908260058015611b54576020028201915b8160009054906101000a900473ffffffffffffffffffffffffffffffffffffffff1673ffffffffffffffffffffffffffffffffffffffff1681526020019060010190808311611b0a575b50505050508152602001600582015481526020016006820154815250509050611c29565b600080600281101515611b8757fe5b600702016060604051908101604052908160008201600580602002604051908101604052809291908260058015611c09576020028201915b8160009054906101000a900473ffffffffffffffffffffffffffffffffffffffff1673ffffffffffffffffffffffffffffffffffffffff1681526020019060010190808311611bbf575b505050505081526020016005820154815260200160068201548152505090505b90565b6000611c36612129565b6000611c40611aa9565b91506065611c528584600001516118e1565b1090508092505050919050565b611c67612129565b611c6f612129565b60006001600281101515611c7f57fe5b600702016060604051908101604052908160008201600580602002604051908101604052809291908260058015611d01576020028201915b8160009054906101000a900473ffffffffffffffffffffffffffffffffffffffff1673ffffffffffffffffffffffffffffffffffffffff1681526020019060010190808311611cb7575b505050505081526020016005820154815260200160068201548152505090508091505090565b611d2f612129565b6000611d39612129565b611d416118d7565b84101515611ddd576040517f08c379a00000000000000000000000000000000000000000000000000000000081526004018080602001828103825260268152602001807f43616e206e6f74206765742063757272656e742065706f63682066726f6d206181526020017f726368697665000000000000000000000000000000000000000000000000000081525060400191505060405180910390fd5b611de6846120ca565b9150600e82815481101515611df757fe5b90600052602060002090600802016001016060604051908101604052908160008201600580602002604051908101604052809291908260058015611e86576020028201915b8160009054906101000a900473ffffffffffffffffffffffffffffffffffffffff1673ffffffffffffffffffffffffffffffffffffffff1681526020019060010190808311611e3c575b505050505081526020016005820154815260200160068201548152505090508092505050919050565b6000808284019050838110151515611ec657600080fd5b8091505092915050565b6000611eda6118d7565b9050600f54811115611ef057611eef816113c7565b5b8160006001600281101515611f0157fe5b60070201600082015181600001906005611f1c929190612151565b5060208201518160050155604082015181600601559050505050565b611f406121f1565b6040805190810160405280848152602001838152509050600e819080600181540180825580915050906001820390600052602060002090600802016000909192909190915060008201518160000155602082015181600101600082015181600001906005611faf929190612151565b5060208201518160050155604082015181600601555050505050505050565b600073ffffffffffffffffffffffffffffffffffffffff168173ffffffffffffffffffffffffffffffffffffffff161415151561200a57600080fd5b8073ffffffffffffffffffffffffffffffffffffffff16601260009054906101000a900473ffffffffffffffffffffffffffffffffffffffff1673ffffffffffffffffffffffffffffffffffffffff167f8be0079c531659141344cd1fd0a4f28419497f9722a3daafe3b4186f6b6457e060405160405180910390a380601260006101000a81548173ffffffffffffffffffffffffffffffffffffffff021916908373ffffffffffffffffffffffffffffffffffffffff16021790555050565b6000806000600e805490509150600090505b818110156121215783600e828154811015156120f457fe5b906000526020600020906008020160000154141561211457809250612122565b80806001019150506120dc565b5b5050919050565b60e06040519081016040528061213d612213565b815260200160008152602001600081525090565b82600581019282156121bd579160200282015b828111156121bc5782518260006101000a81548173ffffffffffffffffffffffffffffffffffffffff021916908373ffffffffffffffffffffffffffffffffffffffff16021790555091602001919060010190612164565b5b5090506121ca9190612236565b5090565b60a060405190810160405280600590602082028038833980820191505090505090565b610100604051908101604052806000815260200161220d612279565b81525090565b60a060405190810160405280600590602082028038833980820191505090505090565b61227691905b8082111561227257600081816101000a81549073ffffffffffffffffffffffffffffffffffffffff02191690555060010161223c565b5090565b90565b60e06040519081016040528061228d612213565b8152602001600081526020016000815250905600a165627a7a723058208f983998bf7a7b92e3bd53e547782b4b85bc46f207193be89fa0ed19978a53970029",
  "source": "\n//import \"github.com/OpenZeppelin/zeppelin-solidity/contracts/math/SafeMath.sol\";\nimport \"openzeppelin-solidity/contracts/math/SafeMath.sol\";\nimport \"../OwnedRegistry.sol\";\n\npragma solidity 0.4.24;\n\ncontract OwnedRegistryMock is OwnedRegistry {\n    using SafeMath for uint256;\n    \n    uint256 public counter;\n    \n    ///// Aux\n\n    function height() internal view returns (uint){\n        return counter;\n    }\n\n    function next() public {\n        counter ++;\n    }\n\n    // Debug\n\n    function debug_getArchive(uint256 _index) public view returns (address[5]){\n        return _getEpochFromArchive(_index).whiteListed;\n    }\n\n    function debug_forceUpdate() public updatable() {\n        return;\n    }\n    // function debug_get0() public view returns (uint, address[5]){\n    //     return (strg[0].listingCounter, strg[0].whiteListed);\n    // }\n    \n    // function debug_get1() public view returns (uint, address[5]){\n    //     return (strg[1].listingCounter, strg[1].whiteListed);\n    // }\n    \n    // function debug_getCurrent() public view returns (uint, address[5]) {\n    //     if (height() > lastSync){\n    //         return (strg[1].listingCounter, strg[1].whiteListed);\n    //     }\n    //     return (strg[0].listingCounter, strg[0].whiteListed);\n    // }\n\n    // function debug_getArchiveAndPeriod(uint256 _index) public view returns (uint256,address[5]){\n    //     Archive memory arch = archive[_index]; \n    //     return (arch.epoch, arch.item.whiteListed);\n    // }\n\n\n    // function debug_getArchiveSize() public view returns (uint256){\n    //     return archive.length;\n    // }\n}\n",
  "sourcePath": "/Users/boss/git/frontier/trl-project/RoleRegistries/contracts/mocks/OwnedRegistryMock.sol",
  "compiler": {
    "name": "solc",
    "version": "0.4.24+commit.e67f0147.Emscripten.clang"
  },
  "schemaVersion": "2.0.1",
  "updatedAt": "2018-12-06T10:52:56.465Z"
}