{
  "contractName": "OwnedRegistry",
  "abi": [
    {
      "constant": true,
      "inputs": [],
      "name": "_getListingCounter",
      "outputs": [
        {
          "name": "",
          "type": "uint256"
        }
      ],
      "payable": false,
      "stateMutability": "view",
      "type": "function"
    },
    {
      "constant": true,
      "inputs": [],
      "name": "maxNumListings",
      "outputs": [
        {
          "name": "",
          "type": "uint256"
        }
      ],
      "payable": false,
      "stateMutability": "view",
      "type": "function"
    },
    {
      "constant": false,
      "inputs": [],
      "name": "next",
      "outputs": [],
      "payable": false,
      "stateMutability": "nonpayable",
      "type": "function"
    },
    {
      "constant": true,
      "inputs": [],
      "name": "counter",
      "outputs": [
        {
          "name": "",
          "type": "uint256"
        }
      ],
      "payable": false,
      "stateMutability": "view",
      "type": "function"
    },
    {
      "constant": true,
      "inputs": [],
      "name": "lastSync",
      "outputs": [
        {
          "name": "",
          "type": "uint256"
        }
      ],
      "payable": false,
      "stateMutability": "view",
      "type": "function"
    },
    {
      "constant": true,
      "inputs": [],
      "name": "listingCounter",
      "outputs": [
        {
          "name": "",
          "type": "uint256"
        }
      ],
      "payable": false,
      "stateMutability": "view",
      "type": "function"
    },
    {
      "constant": false,
      "inputs": [],
      "name": "renounceOwnership",
      "outputs": [],
      "payable": false,
      "stateMutability": "nonpayable",
      "type": "function"
    },
    {
      "constant": true,
      "inputs": [],
      "name": "owner",
      "outputs": [
        {
          "name": "",
          "type": "address"
        }
      ],
      "payable": false,
      "stateMutability": "view",
      "type": "function"
    },
    {
      "constant": true,
      "inputs": [],
      "name": "_getMaxNumListings",
      "outputs": [
        {
          "name": "",
          "type": "uint256"
        }
      ],
      "payable": false,
      "stateMutability": "view",
      "type": "function"
    },
    {
      "constant": true,
      "inputs": [],
      "name": "_debug",
      "outputs": [
        {
          "name": "",
          "type": "address[100]"
        },
        {
          "name": "",
          "type": "uint256"
        }
      ],
      "payable": false,
      "stateMutability": "view",
      "type": "function"
    },
    {
      "constant": true,
      "inputs": [
        {
          "name": "_newMaxNumListings",
          "type": "uint256"
        }
      ],
      "name": "_setMaxNumListings",
      "outputs": [],
      "payable": false,
      "stateMutability": "view",
      "type": "function"
    },
    {
      "constant": false,
      "inputs": [
        {
          "name": "_accountToWhiteList",
          "type": "address"
        }
      ],
      "name": "_blackListAddress",
      "outputs": [],
      "payable": false,
      "stateMutability": "nonpayable",
      "type": "function"
    },
    {
      "constant": false,
      "inputs": [],
      "name": "init",
      "outputs": [],
      "payable": false,
      "stateMutability": "nonpayable",
      "type": "function"
    },
    {
      "constant": false,
      "inputs": [
        {
          "name": "_accountToWhiteList",
          "type": "address"
        }
      ],
      "name": "_whiteListAddress",
      "outputs": [],
      "payable": false,
      "stateMutability": "nonpayable",
      "type": "function"
    },
    {
      "constant": false,
      "inputs": [
        {
          "name": "_newOwner",
          "type": "address"
        }
      ],
      "name": "transferOwnership",
      "outputs": [],
      "payable": false,
      "stateMutability": "nonpayable",
      "type": "function"
    },
    {
      "anonymous": false,
      "inputs": [
        {
          "indexed": false,
          "name": "_number",
          "type": "uint256"
        }
      ],
      "name": "_MaxListingsEdited",
      "type": "event"
    },
    {
      "anonymous": false,
      "inputs": [
        {
          "indexed": true,
          "name": "previousOwner",
          "type": "address"
        }
      ],
      "name": "OwnershipRenounced",
      "type": "event"
    },
    {
      "anonymous": false,
      "inputs": [
        {
          "indexed": true,
          "name": "previousOwner",
          "type": "address"
        },
        {
          "indexed": true,
          "name": "newOwner",
          "type": "address"
        }
      ],
      "name": "OwnershipTransferred",
      "type": "event"
    },
    {
      "anonymous": false,
      "inputs": [
        {
          "indexed": false,
          "name": "_whiteListedAccount",
          "type": "address"
        }
      ],
      "name": "_WhiteList",
      "type": "event"
    },
    {
      "anonymous": false,
      "inputs": [
        {
          "indexed": false,
          "name": "_removedAccount",
          "type": "address"
        }
      ],
      "name": "_Remove",
      "type": "event"
    },
    {
      "anonymous": false,
      "inputs": [
        {
          "indexed": true,
          "name": "listingHash",
          "type": "bytes32"
        },
        {
          "indexed": false,
          "name": "deposit",
          "type": "uint256"
        },
        {
          "indexed": false,
          "name": "data",
          "type": "string"
        },
        {
          "indexed": true,
          "name": "applicant",
          "type": "address"
        }
      ],
      "name": "_Application",
      "type": "event"
    },
    {
      "constant": false,
      "inputs": [
        {
          "name": "_accountToWhiteList",
          "type": "address"
        }
      ],
      "name": "whiteList",
      "outputs": [],
      "payable": false,
      "stateMutability": "nonpayable",
      "type": "function"
    },
    {
      "constant": false,
      "inputs": [
        {
          "name": "_accountToRemove",
          "type": "address"
        }
      ],
      "name": "remove",
      "outputs": [],
      "payable": false,
      "stateMutability": "nonpayable",
      "type": "function"
    },
    {
      "constant": false,
      "inputs": [
        {
          "name": "_maxNumListings",
          "type": "uint256"
        }
      ],
      "name": "setMaxNumListings",
      "outputs": [],
      "payable": false,
      "stateMutability": "nonpayable",
      "type": "function"
    },
    {
      "constant": true,
      "inputs": [
        {
          "name": "_accountChecked",
          "type": "address"
        }
      ],
      "name": "isWhitelisted",
      "outputs": [
        {
          "name": "whitelisted",
          "type": "bool"
        }
      ],
      "payable": false,
      "stateMutability": "view",
      "type": "function"
    }
  ],
  "bytecode": "0x60806040527fffffffffffffffffffffffffffffffffffffffffffffffffffffffffffffffff60d0553360ce60006101000a81548173ffffffffffffffffffffffffffffffffffffffff021916908373ffffffffffffffffffffffffffffffffffffffff160217905550611585806100786000396000f300608060405260043610610107576000357c0100000000000000000000000000000000000000000000000000000000900463ffffffff1680630b58343a1461010c5780630e8f773e1461013757806329092d0e14610162578063372c12b1146101a55780633af32abf146101e85780634c8fe526146102435780635b92e5ad1461025a57806361bc221a146102875780636917516b146102b25780636c2c9c7d146102dd578063715018a6146103085780638da5cb5b1461031f57806398b20e0f146103765780639ef97e0c146103a1578063c40de52e146103fb578063d4ad420e14610428578063e1c7392a1461046b578063e4ad2b9214610482578063f2fde38b146104c5575b600080fd5b34801561011857600080fd5b50610121610508565b6040518082815260200191505060405180910390f35b34801561014357600080fd5b5061014c6105da565b6040518082815260200191505060405180910390f35b34801561016e57600080fd5b506101a3600480360381019080803573ffffffffffffffffffffffffffffffffffffffff1690602001909291905050506105e0565b005b3480156101b157600080fd5b506101e6600480360381019080803573ffffffffffffffffffffffffffffffffffffffff1690602001909291905050506106ab565b005b3480156101f457600080fd5b50610229600480360381019080803573ffffffffffffffffffffffffffffffffffffffff16906020019092919050505061079d565b604051808215151515815260200191505060405180910390f35b34801561024f57600080fd5b506102586107b2565b005b34801561026657600080fd5b50610285600480360381019080803590602001909291905050506107c6565b005b34801561029357600080fd5b5061029c610874565b6040518082815260200191505060405180910390f35b3480156102be57600080fd5b506102c761087a565b6040518082815260200191505060405180910390f35b3480156102e957600080fd5b506102f2610880565b6040518082815260200191505060405180910390f35b34801561031457600080fd5b5061031d610886565b005b34801561032b57600080fd5b5061033461098b565b604051808273ffffffffffffffffffffffffffffffffffffffff1673ffffffffffffffffffffffffffffffffffffffff16815260200191505060405180910390f35b34801561038257600080fd5b5061038b6109b1565b6040518082815260200191505060405180910390f35b3480156103ad57600080fd5b506103b6610a83565b6040518083606460200280838360005b838110156103e15780820151818401526020810190506103c6565b505050509050018281526020019250505060405180910390f35b34801561040757600080fd5b5061042660048036038101908080359060200190929190505050610b37565b005b34801561043457600080fd5b50610469600480360381019080803573ffffffffffffffffffffffffffffffffffffffff169060200190929190505050610c13565b005b34801561047757600080fd5b50610480610d1c565b005b34801561048e57600080fd5b506104c3600480360381019080803573ffffffffffffffffffffffffffffffffffffffff169060200190929190505050610dd8565b005b3480156104d157600080fd5b50610506600480360381019080803573ffffffffffffffffffffffffffffffffffffffff169060200190929190505050610f19565b005b6000610512611428565b600061051c610f81565b63ffffffff1660028110151561052e57fe5b6066020160606040519081016040529081600082016064806020026040519081016040528092919082606480156105b0576020028201915b8160009054906101000a900473ffffffffffffffffffffffffffffffffffffffff1673ffffffffffffffffffffffffffffffffffffffff1681526020019060010190808311610566575b50505050508152602001606482015481526020016065820154815250509050806020015191505090565b60d05481565b60ce60009054906101000a900473ffffffffffffffffffffffffffffffffffffffff1673ffffffffffffffffffffffffffffffffffffffff163373ffffffffffffffffffffffffffffffffffffffff1614151561063c57600080fd5b61064581610c13565b7f4dad83fa2f662e801184bd81b75b1894fdfd16026aa67a6a65d5715476a61f5381604051808273ffffffffffffffffffffffffffffffffffffffff1673ffffffffffffffffffffffffffffffffffffffff16815260200191505060405180910390a150565b60ce60009054906101000a900473ffffffffffffffffffffffffffffffffffffffff1673ffffffffffffffffffffffffffffffffffffffff163373ffffffffffffffffffffffffffffffffffffffff1614151561070757600080fd5b6107108161079d565b15151561071c57600080fd5b60d05460cf5410151561072e57600080fd5b61073781610dd8565b7f14c99c95843c55c4e6e3cd95be615861493e90f3919ff664169bfbe2839dbfb081604051808273ffffffffffffffffffffffffffffffffffffffff1673ffffffffffffffffffffffffffffffffffffffff16815260200191505060405180910390a150565b60006107a882610fa5565b9050809050919050565b60cd60008154809291906001019190505550565b60ce60009054906101000a900473ffffffffffffffffffffffffffffffffffffffff1673ffffffffffffffffffffffffffffffffffffffff163373ffffffffffffffffffffffffffffffffffffffff1614151561082257600080fd5b60cf54811015151561083357600080fd5b8060d0819055507fd53c8ff37b935c3daef1e99bb428f04a9cd34afe9bc9d6b0d5b2c8cecf5d1b53816040518082815260200191505060405180910390a150565b60cd5481565b60cc5481565b60cf5481565b60ce60009054906101000a900473ffffffffffffffffffffffffffffffffffffffff1673ffffffffffffffffffffffffffffffffffffffff163373ffffffffffffffffffffffffffffffffffffffff161415156108e257600080fd5b60ce60009054906101000a900473ffffffffffffffffffffffffffffffffffffffff1673ffffffffffffffffffffffffffffffffffffffff167ff8df31144d9c2f0f6b59d69b8b98abd5459d07f2742c4df920b25aae33c6482060405160405180910390a2600060ce60006101000a81548173ffffffffffffffffffffffffffffffffffffffff021916908373ffffffffffffffffffffffffffffffffffffffff160217905550565b60ce60009054906101000a900473ffffffffffffffffffffffffffffffffffffffff1681565b60006109bb611428565b60006109c5610f81565b63ffffffff166002811015156109d757fe5b606602016060604051908101604052908160008201606480602002604051908101604052809291908260648015610a59576020028201915b8160009054906101000a900473ffffffffffffffffffffffffffffffffffffffff1673ffffffffffffffffffffffffffffffffffffffff1681526020019060010190808311610a0f575b50505050508152602001606482015481526020016065820154815250509050806040015191505090565b610a8b611451565b6000806000600281101515610a9c57fe5b60660201600001600080600281101515610ab257fe5b606602016064015481606480602002604051908101604052809291908260648015610b28576020028201915b8160009054906101000a900473ffffffffffffffffffffffffffffffffffffffff1673ffffffffffffffffffffffffffffffffffffffff1681526020019060010190808311610ade575b50505050509150915091509091565b610b3f611428565b6000610b49610f81565b63ffffffff16600281101515610b5b57fe5b606602016060604051908101604052908160008201606480602002604051908101604052809291908260648015610bdd576020028201915b8160009054906101000a900473ffffffffffffffffffffffffffffffffffffffff1673ffffffffffffffffffffffffffffffffffffffff1681526020019060010190808311610b93575b5050505050815260200160648201548152602001606582015481525050905081816040018181525050610c0f8161108a565b5050565b610c1b611428565b6000610c25610f81565b63ffffffff16600281101515610c3757fe5b606602016060604051908101604052908160008201606480602002604051908101604052809291908260648015610cb9576020028201915b8160009054906101000a900473ffffffffffffffffffffffffffffffffffffffff1673ffffffffffffffffffffffffffffffffffffffff1681526020019060010190808311610c6f575b50505050508152602001606482015481526020016065820154815250509050610ce6828260000151611139565b8160000181905250610d066001826020015161126290919063ffffffff16565b816020018181525050610d188161108a565b5050565b610d24611451565b610d2c611428565b60606040519081016040528083815260200160008152602001612710815250905080600080600281101515610d5d57fe5b60660201600082015181600001906064610d78929190611475565b5060208201518160640155604082015181606501559050508060006001600281101515610da157fe5b60660201600082015181600001906064610dbc929190611475565b5060208201518160640155604082015181606501559050505050565b610de0611428565b6000610dea610f81565b63ffffffff16600281101515610dfc57fe5b606602016060604051908101604052908160008201606480602002604051908101604052809291908260648015610e7e576020028201915b8160009054906101000a900473ffffffffffffffffffffffffffffffffffffffff1673ffffffffffffffffffffffffffffffffffffffff1681526020019060010190808311610e34575b505050505081526020016064820154815260200160658201548152505090508181600001518260200151606481101515610eb457fe5b602002019073ffffffffffffffffffffffffffffffffffffffff16908173ffffffffffffffffffffffffffffffffffffffff1681525050610f036001826020015161127b90919063ffffffff16565b816020018181525050610f158161108a565b5050565b60ce60009054906101000a900473ffffffffffffffffffffffffffffffffffffffff1673ffffffffffffffffffffffffffffffffffffffff163373ffffffffffffffffffffffffffffffffffffffff16141515610f7557600080fd5b610f7e81611297565b50565b6000610f8b611393565b60cc541415610f9d5760009050610fa2565b600190505b90565b6000610faf611428565b600080610fba610f81565b63ffffffff16600281101515610fcc57fe5b60660201606060405190810160405290816000820160648060200260405190810160405280929190826064801561104e576020028201915b8160009054906101000a900473ffffffffffffffffffffffffffffffffffffffff1673ffffffffffffffffffffffffffffffffffffffff1681526020019060010190808311611004575b50505050508152602001606482015481526020016065820154815250509150606561107d85846000015161139d565b1090508092505050919050565b60cc54611095611393565b11156110e357806000806002811015156110ab57fe5b606602016000820151816000019060646110c6929190611475565b506020820151816064015560408201518160650155905050611136565b80600060016002811015156110f457fe5b6066020160008201518160000190606461110f929190611475565b50602082015181606401556040820151816065015590505061112f611393565b60cc819055505b50565b611141611451565b60008060649150611152858561139d565b90506065811015156111cc576040517f08c379a00000000000000000000000000000000000000000000000000000000081526004018080602001828103825260168152602001807f4164647265737320646f6573206e6f742065786973740000000000000000000081525060200191505060405180910390fd5b83600183036064811015156111dd57fe5b602002015184826064811015156111f057fe5b602002019073ffffffffffffffffffffffffffffffffffffffff16908173ffffffffffffffffffffffffffffffffffffffff1681525050836001830360648110151561123857fe5b60200201600073ffffffffffffffffffffffffffffffffffffffff16815250839250505092915050565b600082821115151561127057fe5b818303905092915050565b6000818301905082811015151561128e57fe5b80905092915050565b600073ffffffffffffffffffffffffffffffffffffffff168173ffffffffffffffffffffffffffffffffffffffff16141515156112d357600080fd5b8073ffffffffffffffffffffffffffffffffffffffff1660ce60009054906101000a900473ffffffffffffffffffffffffffffffffffffffff1673ffffffffffffffffffffffffffffffffffffffff167f8be0079c531659141344cd1fd0a4f28419497f9722a3daafe3b4186f6b6457e060405160405180910390a38060ce60006101000a81548173ffffffffffffffffffffffffffffffffffffffff021916908373ffffffffffffffffffffffffffffffffffffffff16021790555050565b600060cd54905090565b6000806000806000606493506000925060009150600090505b83811015611419578673ffffffffffffffffffffffffffffffffffffffff1686826064811015156113e357fe5b602002015173ffffffffffffffffffffffffffffffffffffffff16141561140c5780945061141e565b80806001019150506113b6565b606594505b5050505092915050565b610cc06040519081016040528061143d6114f2565b815260200160008152602001600081525090565b610c8060405190810160405280606490602082028038833980820191505090505090565b82606481019282156114e1579160200282015b828111156114e05782518260006101000a81548173ffffffffffffffffffffffffffffffffffffffff021916908373ffffffffffffffffffffffffffffffffffffffff16021790555091602001919060010190611488565b5b5090506114ee9190611516565b5090565b610c8060405190810160405280606490602082028038833980820191505090505090565b61155691905b8082111561155257600081816101000a81549073ffffffffffffffffffffffffffffffffffffffff02191690555060010161151c565b5090565b905600a165627a7a72305820778c03e55c8b323f955a6e6fae4291c998a2f2557efdb439505c78f8cb7a4d310029",
  "source": "pragma solidity 0.4.24;\n\nimport \"openzeppelin-solidity/contracts/math/SafeMath.sol\";\nimport \"openzeppelin-solidity/contracts/ownership/Ownable.sol\";\nimport \"./Registry.sol\";\n\n\n/**\n* Generic Registry, used for Candidates and Voters\n*\n**/\n\ncontract OwnedRegistry is Registry, Ownable {\n    using SafeMath for uint256;\n\n    event _MaxListingsEdited(uint256 _number); \n    uint256 public listingCounter;\n    uint256 public maxNumListings = 2 ** 256 - 1; // By default, only limited by EVM max word\n\n    // New functions to abstract storage access\n\n    /**\n    * @dev Adds a new account to the registry\n    * @param _accountToWhiteList account to be added to the registry\n    **/\n\n    function whiteList(address _accountToWhiteList) public {\n        require(msg.sender == owner);\n        require(!isWhitelisted(_accountToWhiteList));\n        require(listingCounter < maxNumListings);\n        _whiteListAddress(_accountToWhiteList);\n        emit _WhiteList(_accountToWhiteList);\n    }\n\n    /**\n    * @dev Removes an account from the registry\n    * @param _accountToRemove account to be removed from\n    **/\n\n    function remove(address _accountToRemove) public {\n        require(msg.sender == owner);\n        _blackListAddress(_accountToRemove);\n        emit _Remove(_accountToRemove);\n    }\n\n    /**\n    *  @dev Sets the maximum number of listings to be included in a registry\n    *  @param _maxNumListings Maximum number of listings to be set in the registry\n    */\n\n    function setMaxNumListings(uint256 _maxNumListings) external {\n        require(msg.sender == owner);\n        require(_maxNumListings >= listingCounter);\n        maxNumListings = _maxNumListings;\n        emit _MaxListingsEdited(_maxNumListings);\n    }\n\n   \n    /**\n    *  @dev Returns true when a listing Hash is already Whitelisted\n    *  @param  _accountChecked address being checked\n    *  @return whitelisted boolean specifying if the listing is valid\n    */\n\n    function isWhitelisted(address _accountChecked) view public returns (bool whitelisted) {\n       whitelisted = _getAccountFromWhiteListed(_accountChecked);\n       return whitelisted;\n    }\n\n    \n\n}\n",
  "sourcePath": "/Users/boss/git/frontier/trl-project/RoleRegistries/contracts/OwnedRegistry.sol",
  "compiler": {
    "name": "solc",
    "version": "0.4.24+commit.e67f0147.Emscripten.clang"
  },
  "schemaVersion": "2.0.1",
  "updatedAt": "2018-11-29T16:41:01.156Z"
}