{
  "contractName": "OwnedRegistryFactory",
  "abi": [
    {
      "constant": true,
      "inputs": [
        {
          "name": "",
          "type": "bytes32"
        }
      ],
      "name": "registries",
      "outputs": [
        {
          "name": "",
          "type": "address"
        }
      ],
      "payable": false,
      "stateMutability": "view",
      "type": "function"
    },
    {
      "anonymous": false,
      "inputs": [
        {
          "indexed": true,
          "name": "creator",
          "type": "address"
        }
      ],
      "name": "OwnedRegistryCreation",
      "type": "event"
    },
    {
      "constant": false,
      "inputs": [
        {
          "name": "_label",
          "type": "bytes32"
        }
      ],
      "name": "newRegistry",
      "outputs": [
        {
          "name": "_reg",
          "type": "address"
        }
      ],
      "payable": false,
      "stateMutability": "nonpayable",
      "type": "function"
    },
    {
      "constant": true,
      "inputs": [
        {
          "name": "_label",
          "type": "bytes32"
        }
      ],
      "name": "getRegistry",
      "outputs": [
        {
          "name": "",
          "type": "address"
        }
      ],
      "payable": false,
      "stateMutability": "view",
      "type": "function"
    }
  ],
  "bytecode": "0x608060405234801561001057600080fd5b50612773806100206000396000f300608060405260043610610057576000357c0100000000000000000000000000000000000000000000000000000000900463ffffffff1680635d8d57a61461005c5780638205008b146100cd578063e51fd7a61461013e575b600080fd5b34801561006857600080fd5b5061008b60048036038101908080356000191690602001909291905050506101af565b604051808273ffffffffffffffffffffffffffffffffffffffff1673ffffffffffffffffffffffffffffffffffffffff16815260200191505060405180910390f35b3480156100d957600080fd5b506100fc60048036038101908080356000191690602001909291905050506101e2565b604051808273ffffffffffffffffffffffffffffffffffffffff1673ffffffffffffffffffffffffffffffffffffffff16815260200191505060405180910390f35b34801561014a57600080fd5b5061016d60048036038101908080356000191690602001909291905050506103c3565b604051808273ffffffffffffffffffffffffffffffffffffffff1673ffffffffffffffffffffffffffffffffffffffff16815260200191505060405180910390f35b60006020528060005260406000206000915054906101000a900473ffffffffffffffffffffffffffffffffffffffff1681565b6000806000806000856000191660001916815260200190815260200160002060009054906101000a900473ffffffffffffffffffffffffffffffffffffffff1673ffffffffffffffffffffffffffffffffffffffff1614151561024457600080fd5b61024c610407565b604051809103906000f080158015610268573d6000803e3d6000fd5b5090503373ffffffffffffffffffffffffffffffffffffffff167f86de3e8ad70220b07d21888291dbcf2eb9abb87044911115423316a89c5bc1af60405160405180910390a28073ffffffffffffffffffffffffffffffffffffffff1663f2fde38b336040518263ffffffff167c0100000000000000000000000000000000000000000000000000000000028152600401808273ffffffffffffffffffffffffffffffffffffffff1673ffffffffffffffffffffffffffffffffffffffff168152602001915050600060405180830381600087803b15801561034957600080fd5b505af115801561035d573d6000803e3d6000fd5b5050505080600080856000191660001916815260200190815260200160002060006101000a81548173ffffffffffffffffffffffffffffffffffffffff021916908373ffffffffffffffffffffffffffffffffffffffff16021790555080915050919050565b6000806000836000191660001916815260200190815260200160002060009054906101000a900473ffffffffffffffffffffffffffffffffffffffff169050919050565b6040516123308061041883390190560060806040526000601160006101000a81548160ff02191690831515021790555033601260006101000a81548173ffffffffffffffffffffffffffffffffffffffff021916908373ffffffffffffffffffffffffffffffffffffffff160217905550601260009054906101000a900473ffffffffffffffffffffffffffffffffffffffff1673ffffffffffffffffffffffffffffffffffffffff16600073ffffffffffffffffffffffffffffffffffffffff167f8be0079c531659141344cd1fd0a4f28419497f9722a3daafe3b4186f6b6457e060405160405180910390a3612244806100ec6000396000f300608060405260043610610149576000357c0100000000000000000000000000000000000000000000000000000000900463ffffffff16806306bbce321461014e5780630b58343a146101915780630e8f773e146101bc57806329092d0e146101e7578063372c12b11461022a5780633af32abf1461026d5780633be6e937146102c85780635b92e5ad146102f35780636917516b146103205780636c2c9c7d1461034b578063715018a614610376578063811b1ea91461038d5780638da5cb5b146103f25780638f32d59b1461044957806398b20e0f14610478578063b145a5b8146104a3578063be1de1a0146104d2578063c40de52e14610515578063cc8a55e214610542578063d4ad420e1461056f578063dc60164e146105b2578063e4ad2b92146105dd578063ecddf2d014610620578063f2fde38b14610689578063f3251e1e146106cc575b600080fd5b34801561015a57600080fd5b5061018f600480360381019080803573ffffffffffffffffffffffffffffffffffffffff169060200190929190505050610723565b005b34801561019d57600080fd5b506101a6610a56565b6040518082815260200191505060405180910390f35b3480156101c857600080fd5b506101d1610a75565b6040518082815260200191505060405180910390f35b3480156101f357600080fd5b50610228600480360381019080803573ffffffffffffffffffffffffffffffffffffffff169060200190929190505050610a89565b005b34801561023657600080fd5b5061026b600480360381019080803573ffffffffffffffffffffffffffffffffffffffff169060200190929190505050610b39565b005b34801561027957600080fd5b506102ae600480360381019080803573ffffffffffffffffffffffffffffffffffffffff169060200190929190505050610c1a565b604051808215151515815260200191505060405180910390f35b3480156102d457600080fd5b506102dd610c2f565b6040518082815260200191505060405180910390f35b3480156102ff57600080fd5b5061031e60048036038101908080359060200190929190505050610c4e565b005b34801561032c57600080fd5b50610335610ce8565b6040518082815260200191505060405180910390f35b34801561035757600080fd5b50610360610cee565b6040518082815260200191505060405180910390f35b34801561038257600080fd5b5061038b610d02565b005b34801561039957600080fd5b506103d8600480360381019080803573ffffffffffffffffffffffffffffffffffffffff16906020019092919080359060200190929190505050610dd6565b604051808215151515815260200191505060405180910390f35b3480156103fe57600080fd5b50610407610e1c565b604051808273ffffffffffffffffffffffffffffffffffffffff1673ffffffffffffffffffffffffffffffffffffffff16815260200191505060405180910390f35b34801561045557600080fd5b5061045e610e46565b604051808215151515815260200191505060405180910390f35b34801561048457600080fd5b5061048d610e9e565b6040518082815260200191505060405180910390f35b3480156104af57600080fd5b506104b8610ebd565b604051808215151515815260200191505060405180910390f35b3480156104de57600080fd5b50610513600480360381019080803573ffffffffffffffffffffffffffffffffffffffff169060200190929190505050610ed0565b005b34801561052157600080fd5b5061054060048036038101908080359060200190929190505050611273565b005b34801561054e57600080fd5b5061056d6004803603810190808035906020019092919050505061129c565b005b34801561057b57600080fd5b506105b0600480360381019080803573ffffffffffffffffffffffffffffffffffffffff169060200190929190505050611469565b005b3480156105be57600080fd5b506105c76114bf565b6040518082815260200191505060405180910390f35b3480156105e957600080fd5b5061061e600480360381019080803573ffffffffffffffffffffffffffffffffffffffff1690602001909291905050506114c5565b005b34801561062c57600080fd5b5061064b60048036038101908080359060200190929190505050611604565b6040518082600560200280838360005b8381101561067657808201518184015260208101905061065b565b5050505090500191505060405180910390f35b34801561069557600080fd5b506106ca600480360381019080803573ffffffffffffffffffffffffffffffffffffffff169060200190929190505050611620565b005b3480156106d857600080fd5b506107216004803603810190808035906020019092919080359060200190929190803573ffffffffffffffffffffffffffffffffffffffff16906020019092919050505061163f565b005b61072b6120a0565b6107336120a0565b6000806000610740611790565b9050600f54811115610756576107558161129c565b5b60008060028110151561076557fe5b6007020160606040519081016040529081600082016005806020026040519081016040528092919082600580156107e7576020028201915b8160009054906101000a900473ffffffffffffffffffffffffffffffffffffffff1673ffffffffffffffffffffffffffffffffffffffff168152602001906001019080831161079d575b505050505081526020016005820154815260200160068201548152505094506000600160028110151561081657fe5b600702016060604051908101604052908160008201600580602002604051908101604052809291908260058015610898576020028201915b8160009054906101000a900473ffffffffffffffffffffffffffffffffffffffff1673ffffffffffffffffffffffffffffffffffffffff168152602001906001019080831161084e575b5050505050815260200160058201548152602001600682015481525050935060656108c7878760000151611858565b10925060656108da878660000151611858565b109150821515610952576040517f08c379a000000000000000000000000000000000000000000000000000000000815260040180806020018281038252601a8152602001807f41646472657373206973206e6f742077686974656c697374656400000000000081525060200191505060405180910390fd5b6109608686600001516118d6565b8560000181905250610980600186602001516119ff90919063ffffffff16565b8560200181815250508460008060028110151561099957fe5b600702016000820151816000019060056109b49291906120c8565b5060208201518160050155604082015181600601559050508115610a4e576109e08685600001516118d6565b8460000181905250610a00600185602001516119ff90919063ffffffff16565b8460200181815250508360006001600281101515610a1a57fe5b60070201600082015181600001906005610a359291906120c8565b5060208201518160050155604082015181600601559050505b505050505050565b6000610a606120a0565b610a68611a20565b9050806020015191505090565b600080610a80610e9e565b90508091505090565b610a91610e1c565b73ffffffffffffffffffffffffffffffffffffffff163373ffffffffffffffffffffffffffffffffffffffff16141515610aca57600080fd5b610ad381611469565b7f4dad83fa2f662e801184bd81b75b1894fdfd16026aa67a6a65d5715476a61f5381604051808273ffffffffffffffffffffffffffffffffffffffff1673ffffffffffffffffffffffffffffffffffffffff16815260200191505060405180910390a150565b610b41610e1c565b73ffffffffffffffffffffffffffffffffffffffff163373ffffffffffffffffffffffffffffffffffffffff16141515610b7a57600080fd5b610b8381610c1a565b151515610b8f57600080fd5b610b97610e9e565b610b9f610c2f565b101515610bab57600080fd5b610bb4816114c5565b7f14c99c95843c55c4e6e3cd95be615861493e90f3919ff664169bfbe2839dbfb081604051808273ffffffffffffffffffffffffffffffffffffffff1673ffffffffffffffffffffffffffffffffffffffff16815260200191505060405180910390a150565b6000610c2582611ba3565b9050809050919050565b6000610c396120a0565b610c41611bd6565b9050806020015191505090565b610c56610e1c565b73ffffffffffffffffffffffffffffffffffffffff163373ffffffffffffffffffffffffffffffffffffffff16141515610c8f57600080fd5b610c97610a56565b8110151515610ca557600080fd5b610cae81611273565b7fd53c8ff37b935c3daef1e99bb428f04a9cd34afe9bc9d6b0d5b2c8cecf5d1b53816040518082815260200191505060405180910390a150565b600f5481565b600080610cf9610a56565b90508091505090565b610d0a610e46565b1515610d1557600080fd5b600073ffffffffffffffffffffffffffffffffffffffff16601260009054906101000a900473ffffffffffffffffffffffffffffffffffffffff1673ffffffffffffffffffffffffffffffffffffffff167f8be0079c531659141344cd1fd0a4f28419497f9722a3daafe3b4186f6b6457e060405160405180910390a36000601260006101000a81548173ffffffffffffffffffffffffffffffffffffffff021916908373ffffffffffffffffffffffffffffffffffffffff160217905550565b6000610de0612145565b6000610deb84611c9e565b600001519150610dfb8583611858565b90506065811415610e0f5760009250610e14565b600192505b505092915050565b6000601260009054906101000a900473ffffffffffffffffffffffffffffffffffffffff16905090565b6000601260009054906101000a900473ffffffffffffffffffffffffffffffffffffffff1673ffffffffffffffffffffffffffffffffffffffff163373ffffffffffffffffffffffffffffffffffffffff1614905090565b6000610ea86120a0565b610eb0611a20565b9050806040015191505090565b601160009054906101000a900460ff1681565b610ed86120a0565b610ee06120a0565b6000806000610eed611790565b9050600f54811115610f0357610f028161129c565b5b600080600281101515610f1257fe5b600702016060604051908101604052908160008201600580602002604051908101604052809291908260058015610f94576020028201915b8160009054906101000a900473ffffffffffffffffffffffffffffffffffffffff1673ffffffffffffffffffffffffffffffffffffffff1681526020019060010190808311610f4a575b5050505050815260200160058201548152602001600682015481525050945060006001600281101515610fc357fe5b600702016060604051908101604052908160008201600580602002604051908101604052809291908260058015611045576020028201915b8160009054906101000a900473ffffffffffffffffffffffffffffffffffffffff1673ffffffffffffffffffffffffffffffffffffffff1681526020019060010190808311610ffb575b505050505081526020016005820154815260200160068201548152505093506065611074878760000151611858565b1492506065611087878660000151611858565b1491508215156110ff576040517f08c379a000000000000000000000000000000000000000000000000000000000815260040180806020018281038252601b8152602001807f4164647265737320616c72656164792077686974656c6973746564000000000081525060200191505060405180910390fd5b858560000151866020015160058110151561111657fe5b602002019073ffffffffffffffffffffffffffffffffffffffff16908173ffffffffffffffffffffffffffffffffffffffff168152505061116560018660200151611e2690919063ffffffff16565b8560200181815250508460008060028110151561117e57fe5b600702016000820151816000019060056111999291906120c8565b506020820151816005015560408201518160060155905050811561126b5785846000015185602001516005811015156111ce57fe5b602002019073ffffffffffffffffffffffffffffffffffffffff16908173ffffffffffffffffffffffffffffffffffffffff168152505061121d60018560200151611e2690919063ffffffff16565b846020018181525050836000600160028110151561123757fe5b600702016000820151816000019060056112529291906120c8565b5060208201518160050155604082015181600601559050505b505050505050565b61127b6120a0565b611283611bd6565b90508181604001818152505061129881611e47565b5050565b6112a46120a0565b6112ac6120a0565b6000806002811015156112bb57fe5b60070201606060405190810160405290816000820160058060200260405190810160405280929190826005801561133d576020028201915b8160009054906101000a900473ffffffffffffffffffffffffffffffffffffffff1673ffffffffffffffffffffffffffffffffffffffff16815260200190600101908083116112f3575b505050505081526020016005820154815260200160068201548152505091506113696001840383611eaf565b6000600160028110151561137957fe5b6007020160606040519081016040529081600082016005806020026040519081016040528092919082600580156113fb576020028201915b8160009054906101000a900473ffffffffffffffffffffffffffffffffffffffff1673ffffffffffffffffffffffffffffffffffffffff16815260200190600101908083116113b1575b505050505081526020016005820154815260200160068201548152505090508060008060028110151561142a57fe5b600702016000820151816000019060056114459291906120c8565b50602082015181600501556040820151816006015590505082600f81905550505050565b6114716120a0565b611479611bd6565b90506114898282600001516118d6565b81600001819052506114a9600182602001516119ff90919063ffffffff16565b8160200181815250506114bb81611e47565b5050565b60105481565b6114cd6120a0565b60006114d7611bd6565b91506114e7838360000151611858565b9050600981111515611587576040517f08c379a00000000000000000000000000000000000000000000000000000000081526004018080602001828103825260218152602001807f4164647265737320616c72656164792077686974656c6973746564206578697381526020017f740000000000000000000000000000000000000000000000000000000000000081525060400191505060405180910390fd5b828260000151836020015160058110151561159e57fe5b602002019073ffffffffffffffffffffffffffffffffffffffff16908173ffffffffffffffffffffffffffffffffffffffff16815250506115ed60018360200151611e2690919063ffffffff16565b8260200181815250506115ff82611e47565b505050565b61160c612145565b61161582611c9e565b600001519050919050565b611628610e46565b151561163357600080fd5b61163c81611f45565b50565b611647612145565b61164f6120a0565b601160009054906101000a900460ff1615151561166b57600080fd5b601160009054906101000a900460ff1615151561168757600080fd5b60606040519081016040528083815260200160008152602001858152509050806000806002811015156116b657fe5b600702016000820151816000019060056116d19291906120c8565b50602082015181600501556040820151816006015590505080600060016002811015156116fa57fe5b600702016000820151816000019060056117159291906120c8565b50602082015181600501556040820151816006015590505082601160016101000a81548173ffffffffffffffffffffffffffffffffffffffff021916908373ffffffffffffffffffffffffffffffffffffffff1602179055506001601160006101000a81548160ff0219169083151502179055505050505050565b6000601160019054906101000a900473ffffffffffffffffffffffffffffffffffffffff1673ffffffffffffffffffffffffffffffffffffffff16630ef267436040518163ffffffff167c0100000000000000000000000000000000000000000000000000000000028152600401602060405180830381600087803b15801561181857600080fd5b505af115801561182c573d6000803e3d6000fd5b505050506040513d602081101561184257600080fd5b8101908080519060200190929190505050905090565b600080600060059150600090505b818110156118c9578473ffffffffffffffffffffffffffffffffffffffff16848260058110151561189357fe5b602002015173ffffffffffffffffffffffffffffffffffffffff1614156118bc578092506118ce565b8080600101915050611866565b606592505b505092915050565b6118de612145565b600080600591506118ef8585611858565b9050600981101515611969576040517f08c379a00000000000000000000000000000000000000000000000000000000081526004018080602001828103825260168152602001807f4164647265737320646f6573206e6f742065786973740000000000000000000081525060200191505060405180910390fd5b836001830360058110151561197a57fe5b6020020151848260058110151561198d57fe5b602002019073ffffffffffffffffffffffffffffffffffffffff16908173ffffffffffffffffffffffffffffffffffffffff168152505083600183036005811015156119d557fe5b60200201600073ffffffffffffffffffffffffffffffffffffffff16815250839250505092915050565b600080838311151515611a1157600080fd5b82840390508091505092915050565b611a286120a0565b600f54611a33611790565b1115611aef5760006001600281101515611a4957fe5b600702016060604051908101604052908160008201600580602002604051908101604052809291908260058015611acb576020028201915b8160009054906101000a900473ffffffffffffffffffffffffffffffffffffffff1673ffffffffffffffffffffffffffffffffffffffff1681526020019060010190808311611a81575b50505050508152602001600582015481526020016006820154815250509050611ba0565b600080600281101515611afe57fe5b600702016060604051908101604052908160008201600580602002604051908101604052809291908260058015611b80576020028201915b8160009054906101000a900473ffffffffffffffffffffffffffffffffffffffff1673ffffffffffffffffffffffffffffffffffffffff1681526020019060010190808311611b36575b505050505081526020016005820154815260200160068201548152505090505b90565b6000611bad6120a0565b6000611bb7611a20565b91506065611bc9858460000151611858565b1090508092505050919050565b611bde6120a0565b611be66120a0565b60006001600281101515611bf657fe5b600702016060604051908101604052908160008201600580602002604051908101604052809291908260058015611c78576020028201915b8160009054906101000a900473ffffffffffffffffffffffffffffffffffffffff1673ffffffffffffffffffffffffffffffffffffffff1681526020019060010190808311611c2e575b505050505081526020016005820154815260200160068201548152505090508091505090565b611ca66120a0565b6000611cb06120a0565b611cb8611790565b84101515611d54576040517f08c379a00000000000000000000000000000000000000000000000000000000081526004018080602001828103825260268152602001807f43616e206e6f74206765742063757272656e742065706f63682066726f6d206181526020017f726368697665000000000000000000000000000000000000000000000000000081525060400191505060405180910390fd5b611d5d84612041565b9150600e82815481101515611d6e57fe5b90600052602060002090600802016001016060604051908101604052908160008201600580602002604051908101604052809291908260058015611dfd576020028201915b8160009054906101000a900473ffffffffffffffffffffffffffffffffffffffff1673ffffffffffffffffffffffffffffffffffffffff1681526020019060010190808311611db3575b505050505081526020016005820154815260200160068201548152505090508092505050919050565b6000808284019050838110151515611e3d57600080fd5b8091505092915050565b6000611e51611790565b9050600f54811115611e6757611e668161129c565b5b8160006001600281101515611e7857fe5b60070201600082015181600001906005611e939291906120c8565b5060208201518160050155604082015181600601559050505050565b611eb7612168565b6040805190810160405280848152602001838152509050600e819080600181540180825580915050906001820390600052602060002090600802016000909192909190915060008201518160000155602082015181600101600082015181600001906005611f269291906120c8565b5060208201518160050155604082015181600601555050505050505050565b600073ffffffffffffffffffffffffffffffffffffffff168173ffffffffffffffffffffffffffffffffffffffff1614151515611f8157600080fd5b8073ffffffffffffffffffffffffffffffffffffffff16601260009054906101000a900473ffffffffffffffffffffffffffffffffffffffff1673ffffffffffffffffffffffffffffffffffffffff167f8be0079c531659141344cd1fd0a4f28419497f9722a3daafe3b4186f6b6457e060405160405180910390a380601260006101000a81548173ffffffffffffffffffffffffffffffffffffffff021916908373ffffffffffffffffffffffffffffffffffffffff16021790555050565b6000806000600e805490509150600090505b818110156120985783600e8281548110151561206b57fe5b906000526020600020906008020160000154141561208b57809250612099565b8080600101915050612053565b5b5050919050565b60e0604051908101604052806120b461218a565b815260200160008152602001600081525090565b8260058101928215612134579160200282015b828111156121335782518260006101000a81548173ffffffffffffffffffffffffffffffffffffffff021916908373ffffffffffffffffffffffffffffffffffffffff160217905550916020019190600101906120db565b5b50905061214191906121ad565b5090565b60a060405190810160405280600590602082028038833980820191505090505090565b61010060405190810160405280600081526020016121846121f0565b81525090565b60a060405190810160405280600590602082028038833980820191505090505090565b6121ed91905b808211156121e957600081816101000a81549073ffffffffffffffffffffffffffffffffffffffff0219169055506001016121b3565b5090565b90565b60e06040519081016040528061220461218a565b8152602001600081526020016000815250905600a165627a7a723058202e87ab00c0e189aa0cb8108f3d464427d5c56f6bc44f624520062851a75860a80029a165627a7a7230582049cf473ff64e810f5bf14877d072ae0170a41c466cd90685b323aadce0302b9f0029",
  "source": "pragma solidity ^0.4.24;\n\nimport \"./OwnedRegistry.sol\";\n\n/**\n* Factory to deploy Owned Registries\n**/\n\ncontract OwnedRegistryFactory{\n\n    mapping (bytes32 => address) public registries;\n\n    /**\n    * Creates a new Owned Registry\n    * @param _label a bytes32 label to identify the new created registry\n    */\n\n    function newRegistry(bytes32 _label) public returns (OwnedRegistry _reg){\n        require(registries[_label] == 0x00);\n        OwnedRegistry reg = new OwnedRegistry();\n        emit OwnedRegistryCreation(msg.sender);\n        reg.transferOwnership(msg.sender);\n        registries[_label] = address(reg);\n        return reg;\n    }\n\n    function getRegistry(bytes32 _label) public view returns (address){\n        return registries[_label];\n    }\n\n    event OwnedRegistryCreation(address indexed creator);\n\n}\n",
  "sourcePath": "/Users/boss/git/frontier/trl-project/RoleRegistries/contracts/OwnedRegistryFactory.sol",
  "compiler": {
    "name": "solc",
    "version": "0.4.24+commit.e67f0147.Emscripten.clang"
  },
  "schemaVersion": "2.0.1",
  "updatedAt": "2018-12-06T17:17:16.114Z"
}