{
  "contractName": "OwnedRegistry",
  "abi": [
    {
      "constant": true,
      "inputs": [],
      "name": "_getListingCounter",
      "outputs": [
        {
          "name": "",
          "type": "uint256"
        }
      ],
      "payable": false,
      "stateMutability": "view",
      "type": "function"
    },
    {
      "constant": false,
      "inputs": [],
      "name": "updateState",
      "outputs": [],
      "payable": false,
      "stateMutability": "nonpayable",
      "type": "function"
    },
    {
      "constant": false,
      "inputs": [],
      "name": "next",
      "outputs": [],
      "payable": false,
      "stateMutability": "nonpayable",
      "type": "function"
    },
    {
      "constant": true,
      "inputs": [],
      "name": "debug_get1",
      "outputs": [
        {
          "name": "",
          "type": "uint256"
        },
        {
          "name": "",
          "type": "address[10]"
        }
      ],
      "payable": false,
      "stateMutability": "view",
      "type": "function"
    },
    {
      "constant": true,
      "inputs": [],
      "name": "counter",
      "outputs": [
        {
          "name": "",
          "type": "uint256"
        }
      ],
      "payable": false,
      "stateMutability": "view",
      "type": "function"
    },
    {
      "constant": true,
      "inputs": [],
      "name": "lastSync",
      "outputs": [
        {
          "name": "",
          "type": "uint256"
        }
      ],
      "payable": false,
      "stateMutability": "view",
      "type": "function"
    },
    {
      "constant": false,
      "inputs": [],
      "name": "renounceOwnership",
      "outputs": [],
      "payable": false,
      "stateMutability": "nonpayable",
      "type": "function"
    },
    {
      "constant": true,
      "inputs": [],
      "name": "owner",
      "outputs": [
        {
          "name": "",
          "type": "address"
        }
      ],
      "payable": false,
      "stateMutability": "view",
      "type": "function"
    },
    {
      "constant": true,
      "inputs": [],
      "name": "_getMaxNumListings",
      "outputs": [
        {
          "name": "",
          "type": "uint256"
        }
      ],
      "payable": false,
      "stateMutability": "view",
      "type": "function"
    },
    {
      "constant": true,
      "inputs": [],
      "name": "debug_getCurrent",
      "outputs": [
        {
          "name": "",
          "type": "uint256"
        },
        {
          "name": "",
          "type": "address[10]"
        }
      ],
      "payable": false,
      "stateMutability": "view",
      "type": "function"
    },
    {
      "constant": false,
      "inputs": [
        {
          "name": "_newMaxNumListings",
          "type": "uint256"
        }
      ],
      "name": "_setMaxNumListings",
      "outputs": [],
      "payable": false,
      "stateMutability": "nonpayable",
      "type": "function"
    },
    {
      "constant": true,
      "inputs": [],
      "name": "debug_get0",
      "outputs": [
        {
          "name": "",
          "type": "uint256"
        },
        {
          "name": "",
          "type": "address[10]"
        }
      ],
      "payable": false,
      "stateMutability": "view",
      "type": "function"
    },
    {
      "constant": false,
      "inputs": [
        {
          "name": "_accountToWhiteList",
          "type": "address"
        }
      ],
      "name": "_blackListAddress",
      "outputs": [],
      "payable": false,
      "stateMutability": "nonpayable",
      "type": "function"
    },
    {
      "constant": false,
      "inputs": [],
      "name": "init",
      "outputs": [],
      "payable": false,
      "stateMutability": "nonpayable",
      "type": "function"
    },
    {
      "constant": false,
      "inputs": [
        {
          "name": "_accountToWhiteList",
          "type": "address"
        }
      ],
      "name": "_whiteListAddress",
      "outputs": [],
      "payable": false,
      "stateMutability": "nonpayable",
      "type": "function"
    },
    {
      "constant": false,
      "inputs": [
        {
          "name": "_newOwner",
          "type": "address"
        }
      ],
      "name": "transferOwnership",
      "outputs": [],
      "payable": false,
      "stateMutability": "nonpayable",
      "type": "function"
    },
    {
      "anonymous": false,
      "inputs": [
        {
          "indexed": false,
          "name": "_number",
          "type": "uint256"
        }
      ],
      "name": "_MaxListingsEdited",
      "type": "event"
    },
    {
      "anonymous": false,
      "inputs": [
        {
          "indexed": true,
          "name": "previousOwner",
          "type": "address"
        }
      ],
      "name": "OwnershipRenounced",
      "type": "event"
    },
    {
      "anonymous": false,
      "inputs": [
        {
          "indexed": true,
          "name": "previousOwner",
          "type": "address"
        },
        {
          "indexed": true,
          "name": "newOwner",
          "type": "address"
        }
      ],
      "name": "OwnershipTransferred",
      "type": "event"
    },
    {
      "anonymous": false,
      "inputs": [
        {
          "indexed": false,
          "name": "_whiteListedAccount",
          "type": "address"
        }
      ],
      "name": "_WhiteList",
      "type": "event"
    },
    {
      "anonymous": false,
      "inputs": [
        {
          "indexed": false,
          "name": "_removedAccount",
          "type": "address"
        }
      ],
      "name": "_Remove",
      "type": "event"
    },
    {
      "anonymous": false,
      "inputs": [
        {
          "indexed": true,
          "name": "listingHash",
          "type": "bytes32"
        },
        {
          "indexed": false,
          "name": "deposit",
          "type": "uint256"
        },
        {
          "indexed": false,
          "name": "data",
          "type": "string"
        },
        {
          "indexed": true,
          "name": "applicant",
          "type": "address"
        }
      ],
      "name": "_Application",
      "type": "event"
    },
    {
      "constant": false,
      "inputs": [
        {
          "name": "_accountToWhiteList",
          "type": "address"
        }
      ],
      "name": "whiteList",
      "outputs": [],
      "payable": false,
      "stateMutability": "nonpayable",
      "type": "function"
    },
    {
      "constant": false,
      "inputs": [
        {
          "name": "_accountToRemove",
          "type": "address"
        }
      ],
      "name": "remove",
      "outputs": [],
      "payable": false,
      "stateMutability": "nonpayable",
      "type": "function"
    },
    {
      "constant": false,
      "inputs": [
        {
          "name": "_maxNumListings",
          "type": "uint256"
        }
      ],
      "name": "setMaxNumListings",
      "outputs": [],
      "payable": false,
      "stateMutability": "nonpayable",
      "type": "function"
    },
    {
      "constant": true,
      "inputs": [
        {
          "name": "_accountChecked",
          "type": "address"
        }
      ],
      "name": "isWhitelisted",
      "outputs": [
        {
          "name": "whitelisted",
          "type": "bool"
        }
      ],
      "payable": false,
      "stateMutability": "view",
      "type": "function"
    },
    {
      "constant": true,
      "inputs": [],
      "name": "listingCounter",
      "outputs": [
        {
          "name": "",
          "type": "uint256"
        }
      ],
      "payable": false,
      "stateMutability": "view",
      "type": "function"
    }
  ],
  "bytecode": "0x608060405233601a60006101000a81548173ffffffffffffffffffffffffffffffffffffffff021916908373ffffffffffffffffffffffffffffffffffffffff160217905550611839806100546000396000f30060806040526004361061011d576000357c0100000000000000000000000000000000000000000000000000000000900463ffffffff1680630b58343a146101225780631d8557d71461014d57806329092d0e14610164578063372c12b1146101a75780633af32abf146101ea5780634c8fe526146102455780635635d7b51461025c5780635b92e5ad146102b657806361bc221a146102e35780636917516b1461030e5780636c2c9c7d14610339578063715018a6146103645780638da5cb5b1461037b57806398b20e0f146103d2578063a57856d1146103fd578063c40de52e14610457578063c61c28ea14610484578063d4ad420e146104de578063e1c7392a14610521578063e4ad2b9214610538578063f2fde38b1461057b575b600080fd5b34801561012e57600080fd5b506101376105be565b6040518082815260200191505060405180910390f35b34801561015957600080fd5b506101626105dd565b005b34801561017057600080fd5b506101a5600480360381019080803573ffffffffffffffffffffffffffffffffffffffff1690602001909291905050506106ea565b005b3480156101b357600080fd5b506101e8600480360381019080803573ffffffffffffffffffffffffffffffffffffffff1690602001909291905050506107b5565b005b3480156101f657600080fd5b5061022b600480360381019080803573ffffffffffffffffffffffffffffffffffffffff1690602001909291905050506108b1565b604051808215151515815260200191505060405180910390f35b34801561025157600080fd5b5061025a6108c6565b005b34801561026857600080fd5b506102716108da565b6040518083815260200182600a60200280838360005b838110156102a2578082015181840152602081019050610287565b505050509050019250505060405180910390f35b3480156102c257600080fd5b506102e160048036038101908080359060200190929190505050610990565b005b3480156102ef57600080fd5b506102f8610a45565b6040518082815260200191505060405180910390f35b34801561031a57600080fd5b50610323610a4b565b6040518082815260200191505060405180910390f35b34801561034557600080fd5b5061034e610a51565b6040518082815260200191505060405180910390f35b34801561037057600080fd5b50610379610a65565b005b34801561038757600080fd5b50610390610b6a565b604051808273ffffffffffffffffffffffffffffffffffffffff1673ffffffffffffffffffffffffffffffffffffffff16815260200191505060405180910390f35b3480156103de57600080fd5b506103e7610b90565b6040518082815260200191505060405180910390f35b34801561040957600080fd5b50610412610baf565b6040518083815260200182600a60200280838360005b83811015610443578082015181840152602081019050610428565b505050509050019250505060405180910390f35b34801561046357600080fd5b5061048260048036038101908080359060200190929190505050610d22565b005b34801561049057600080fd5b50610499610d4b565b6040518083815260200182600a60200280838360005b838110156104ca5780820151818401526020810190506104af565b505050509050019250505060405180910390f35b3480156104ea57600080fd5b5061051f600480360381019080803573ffffffffffffffffffffffffffffffffffffffff169060200190929190505050610dff565b005b34801561052d57600080fd5b50610536610e55565b005b34801561054457600080fd5b50610579600480360381019080803573ffffffffffffffffffffffffffffffffffffffff169060200190929190505050610f57565b005b34801561058757600080fd5b506105bc600480360381019080803573ffffffffffffffffffffffffffffffffffffffff169060200190929190505050611099565b005b60006105c86116dc565b6105d0611101565b9050806020015191505090565b6105e56116dc565b600060016002811015156105f557fe5b600c02016060604051908101604052908160008201600a806020026040519081016040528092919082600a8015610677576020028201915b8160009054906101000a900473ffffffffffffffffffffffffffffffffffffffff1673ffffffffffffffffffffffffffffffffffffffff168152602001906001019080831161062d575b50505050508152602001600a8201548152602001600b820154815250509050806000806002811015156106a657fe5b600c020160008201518160000190600a6106c1929190611705565b50602082015181600a0155604082015181600b01559050506106e1611284565b60188190555050565b601a60009054906101000a900473ffffffffffffffffffffffffffffffffffffffff1673ffffffffffffffffffffffffffffffffffffffff163373ffffffffffffffffffffffffffffffffffffffff1614151561074657600080fd5b61074f81610dff565b7f4dad83fa2f662e801184bd81b75b1894fdfd16026aa67a6a65d5715476a61f5381604051808273ffffffffffffffffffffffffffffffffffffffff1673ffffffffffffffffffffffffffffffffffffffff16815260200191505060405180910390a150565b601a60009054906101000a900473ffffffffffffffffffffffffffffffffffffffff1673ffffffffffffffffffffffffffffffffffffffff163373ffffffffffffffffffffffffffffffffffffffff1614151561081157600080fd5b61081a816108b1565b15151561082657600080fd5b61082e610b90565b6108366105be565b10151561084257600080fd5b61084b81610f57565b7f14c99c95843c55c4e6e3cd95be615861493e90f3919ff664169bfbe2839dbfb081604051808273ffffffffffffffffffffffffffffffffffffffff1673ffffffffffffffffffffffffffffffffffffffff16815260200191505060405180910390a150565b60006108bc8261128e565b9050809050919050565b601960008154809291906001019190505550565b60006108e4611782565b600060016002811015156108f457fe5b600c0201600a01546000600160028110151561090c57fe5b600c020160000180600a806020026040519081016040528092919082600a8015610981576020028201915b8160009054906101000a900473ffffffffffffffffffffffffffffffffffffffff1673ffffffffffffffffffffffffffffffffffffffff1681526020019060010190808311610937575b50505050509050915091509091565b601a60009054906101000a900473ffffffffffffffffffffffffffffffffffffffff1673ffffffffffffffffffffffffffffffffffffffff163373ffffffffffffffffffffffffffffffffffffffff161415156109ec57600080fd5b6109f46105be565b8110151515610a0257600080fd5b610a0b81610d22565b7fd53c8ff37b935c3daef1e99bb428f04a9cd34afe9bc9d6b0d5b2c8cecf5d1b53816040518082815260200191505060405180910390a150565b60195481565b60185481565b600080610a5c6105be565b90508091505090565b601a60009054906101000a900473ffffffffffffffffffffffffffffffffffffffff1673ffffffffffffffffffffffffffffffffffffffff163373ffffffffffffffffffffffffffffffffffffffff16141515610ac157600080fd5b601a60009054906101000a900473ffffffffffffffffffffffffffffffffffffffff1673ffffffffffffffffffffffffffffffffffffffff167ff8df31144d9c2f0f6b59d69b8b98abd5459d07f2742c4df920b25aae33c6482060405160405180910390a26000601a60006101000a81548173ffffffffffffffffffffffffffffffffffffffff021916908373ffffffffffffffffffffffffffffffffffffffff160217905550565b601a60009054906101000a900473ffffffffffffffffffffffffffffffffffffffff1681565b6000610b9a6116dc565b610ba2611101565b9050806040015191505090565b6000610bb9611782565b601854610bc4611284565b1115610c775760006001600281101515610bda57fe5b600c0201600a015460006001600281101515610bf257fe5b600c020160000180600a806020026040519081016040528092919082600a8015610c67576020028201915b8160009054906101000a900473ffffffffffffffffffffffffffffffffffffffff1673ffffffffffffffffffffffffffffffffffffffff1681526020019060010190808311610c1d575b5050505050905091509150610d1e565b600080600281101515610c8657fe5b600c0201600a0154600080600281101515610c9d57fe5b600c020160000180600a806020026040519081016040528092919082600a8015610d12576020028201915b8160009054906101000a900473ffffffffffffffffffffffffffffffffffffffff1673ffffffffffffffffffffffffffffffffffffffff1681526020019060010190808311610cc8575b50505050509050915091505b9091565b610d2a6116dc565b610d326112c1565b905081816040018181525050610d47816113a3565b5050565b6000610d55611782565b600080600281101515610d6457fe5b600c0201600a0154600080600281101515610d7b57fe5b600c020160000180600a806020026040519081016040528092919082600a8015610df0576020028201915b8160009054906101000a900473ffffffffffffffffffffffffffffffffffffffff1673ffffffffffffffffffffffffffffffffffffffff1681526020019060010190808311610da6575b50505050509050915091509091565b610e076116dc565b610e0f6112c1565b9050610e1f828260000151611404565b8160000181905250610e3f6001826020015161152d90919063ffffffff16565b816020018181525050610e51816113a3565b5050565b610e5d611782565b610e656116dc565b30826000600a81101515610e7557fe5b602002019073ffffffffffffffffffffffffffffffffffffffff16908173ffffffffffffffffffffffffffffffffffffffff168152505060606040519081016040528083815260200160008152602001600a815250905080600080600281101515610edc57fe5b600c020160008201518160000190600a610ef7929190611705565b50602082015181600a0155604082015181600b01559050508060006001600281101515610f2057fe5b600c020160008201518160000190600a610f3b929190611705565b50602082015181600a0155604082015181600b01559050505050565b610f5f6116dc565b6000610f696112c1565b9150610f79838360000151611546565b9050600981111515611019576040517f08c379a00000000000000000000000000000000000000000000000000000000081526004018080602001828103825260218152602001807f4164647265737320616c72656164792077686974656c6973746564206578697381526020017f740000000000000000000000000000000000000000000000000000000000000081525060400191505060405180910390fd5b8282600001516001846020015101600a8110151561103357fe5b602002019073ffffffffffffffffffffffffffffffffffffffff16908173ffffffffffffffffffffffffffffffffffffffff1681525050611082600183602001516115c490919063ffffffff16565b826020018181525050611094826113a3565b505050565b601a60009054906101000a900473ffffffffffffffffffffffffffffffffffffffff1673ffffffffffffffffffffffffffffffffffffffff163373ffffffffffffffffffffffffffffffffffffffff161415156110f557600080fd5b6110fe816115e0565b50565b6111096116dc565b601854611114611284565b11156111d0576000600160028110151561112a57fe5b600c02016060604051908101604052908160008201600a806020026040519081016040528092919082600a80156111ac576020028201915b8160009054906101000a900473ffffffffffffffffffffffffffffffffffffffff1673ffffffffffffffffffffffffffffffffffffffff1681526020019060010190808311611162575b50505050508152602001600a8201548152602001600b820154815250509050611281565b6000806002811015156111df57fe5b600c02016060604051908101604052908160008201600a806020026040519081016040528092919082600a8015611261576020028201915b8160009054906101000a900473ffffffffffffffffffffffffffffffffffffffff1673ffffffffffffffffffffffffffffffffffffffff1681526020019060010190808311611217575b50505050508152602001600a8201548152602001600b8201548152505090505b90565b6000601954905090565b60006112986116dc565b60006112a2611101565b915060656112b4858460000151611546565b1090508092505050919050565b6112c96116dc565b6112d16116dc565b6018546112dc611284565b11156112eb576112ea6105dd565b5b600060016002811015156112fb57fe5b600c02016060604051908101604052908160008201600a806020026040519081016040528092919082600a801561137d576020028201915b8160009054906101000a900473ffffffffffffffffffffffffffffffffffffffff1673ffffffffffffffffffffffffffffffffffffffff1681526020019060010190808311611333575b50505050508152602001600a8201548152602001600b8201548152505090508091505090565b6018546113ae611284565b11156113bd576113bc6105dd565b5b80600060016002811015156113ce57fe5b600c020160008201518160000190600a6113e9929190611705565b50602082015181600a0155604082015181600b015590505050565b61140c611782565b600080600a915061141d8585611546565b9050600981101515611497576040517f08c379a00000000000000000000000000000000000000000000000000000000081526004018080602001828103825260168152602001807f4164647265737320646f6573206e6f742065786973740000000000000000000081525060200191505060405180910390fd5b8360018303600a811015156114a857fe5b60200201518482600a811015156114bb57fe5b602002019073ffffffffffffffffffffffffffffffffffffffff16908173ffffffffffffffffffffffffffffffffffffffff16815250508360018303600a8110151561150357fe5b60200201600073ffffffffffffffffffffffffffffffffffffffff16815250839250505092915050565b600082821115151561153b57fe5b818303905092915050565b6000806000600a9150600090505b818110156115b7578473ffffffffffffffffffffffffffffffffffffffff168482600a8110151561158157fe5b602002015173ffffffffffffffffffffffffffffffffffffffff1614156115aa578092506115bc565b8080600101915050611554565b606592505b505092915050565b600081830190508281101515156115d757fe5b80905092915050565b600073ffffffffffffffffffffffffffffffffffffffff168173ffffffffffffffffffffffffffffffffffffffff161415151561161c57600080fd5b8073ffffffffffffffffffffffffffffffffffffffff16601a60009054906101000a900473ffffffffffffffffffffffffffffffffffffffff1673ffffffffffffffffffffffffffffffffffffffff167f8be0079c531659141344cd1fd0a4f28419497f9722a3daafe3b4186f6b6457e060405160405180910390a380601a60006101000a81548173ffffffffffffffffffffffffffffffffffffffff021916908373ffffffffffffffffffffffffffffffffffffffff16021790555050565b610180604051908101604052806116f16117a6565b815260200160008152602001600081525090565b82600a8101928215611771579160200282015b828111156117705782518260006101000a81548173ffffffffffffffffffffffffffffffffffffffff021916908373ffffffffffffffffffffffffffffffffffffffff16021790555091602001919060010190611718565b5b50905061177e91906117ca565b5090565b61014060405190810160405280600a90602082028038833980820191505090505090565b61014060405190810160405280600a90602082028038833980820191505090505090565b61180a91905b8082111561180657600081816101000a81549073ffffffffffffffffffffffffffffffffffffffff0219169055506001016117d0565b5090565b905600a165627a7a723058201f13edabfbc54de6b0f43a519abf763ecf08711391f4ca94c0f103af1339a7110029",
  "source": "pragma solidity 0.4.24;\n\nimport \"openzeppelin-solidity/contracts/math/SafeMath.sol\";\nimport \"openzeppelin-solidity/contracts/ownership/Ownable.sol\";\nimport \"./Registry.sol\";\n\n\n/**\n* Generic Registry, used for Candidates and Voters\n*\n**/\n\ncontract OwnedRegistry is Registry, Ownable {\n    using SafeMath for uint256;\n\n    event _MaxListingsEdited(uint256 _number); \n    //uint256 public _getListingCounter();\n    //uint256 public maxNumListings = 2 ** 256 - 1; // By default, only limited by EVM max word\n\n    // New functions to abstract storage access\n\n    /**\n    * @dev Adds a new account to the registry\n    * @param _accountToWhiteList account to be added to the registry\n    **/\n\n    function whiteList(address _accountToWhiteList) public {\n        require(msg.sender == owner);\n        require(!isWhitelisted(_accountToWhiteList));\n        require(_getListingCounter() < _getMaxNumListings());\n        _whiteListAddress(_accountToWhiteList);\n        emit _WhiteList(_accountToWhiteList);\n    }\n\n    /**\n    * @dev Removes an account from the registry\n    * @param _accountToRemove account to be removed from\n    **/\n\n    function remove(address _accountToRemove) public {\n        require(msg.sender == owner);\n        _blackListAddress(_accountToRemove);\n        emit _Remove(_accountToRemove);\n    }\n\n    /**\n    *  @dev Sets the maximum number of listings to be included in a registry\n    *  @param _maxNumListings Maximum number of listings to be set in the registry\n    */\n\n    function setMaxNumListings(uint256 _maxNumListings) external {\n        require(msg.sender == owner);\n        require(_maxNumListings >= _getListingCounter());\n        //maxNumListings = _maxNumListings;\n        _setMaxNumListings(_maxNumListings);\n        emit _MaxListingsEdited(_maxNumListings);\n    }\n\n   \n    /**\n    *  @dev Returns true when a listing Hash is already Whitelisted\n    *  @param  _accountChecked address being checked\n    *  @return whitelisted boolean specifying if the listing is valid\n    */\n\n    function isWhitelisted(address _accountChecked) view public returns (bool whitelisted) {\n       whitelisted = _getAccountFromWhiteListed(_accountChecked);\n       return whitelisted;\n    }\n\n    function listingCounter() public view returns (uint256){\n        uint256 _counter = _getListingCounter();\n        return _counter;\n    }\n\n    \n\n}\n",
  "sourcePath": "/Users/boss/git/frontier/trl-project/RoleRegistries/contracts/OwnedRegistry.sol",
  "compiler": {
    "name": "solc",
    "version": "0.4.24+commit.e67f0147.Emscripten.clang"
  },
  "schemaVersion": "2.0.1",
  "updatedAt": "2018-11-30T13:35:24.936Z"
}