{
  "contractName": "PeriodMock",
  "abi": [
    {
      "constant": true,
      "inputs": [],
      "name": "getLength",
      "outputs": [
        {
          "name": "",
          "type": "uint256"
        }
      ],
      "payable": false,
      "stateMutability": "view",
      "type": "function"
    },
    {
      "constant": true,
      "inputs": [
        {
          "name": "_timestamp",
          "type": "uint256"
        }
      ],
      "name": "heightOf",
      "outputs": [
        {
          "name": "",
          "type": "uint256"
        }
      ],
      "payable": false,
      "stateMutability": "view",
      "type": "function"
    },
    {
      "constant": true,
      "inputs": [],
      "name": "height",
      "outputs": [
        {
          "name": "",
          "type": "uint256"
        }
      ],
      "payable": false,
      "stateMutability": "view",
      "type": "function"
    },
    {
      "constant": false,
      "inputs": [],
      "name": "next",
      "outputs": [],
      "payable": false,
      "stateMutability": "nonpayable",
      "type": "function"
    }
  ],
  "bytecode": "0x60806040526000805534801561001457600080fd5b50610170806100246000396000f300608060405260043610610062576000357c0100000000000000000000000000000000000000000000000000000000900463ffffffff1680630ef26743146100675780634c8fe52614610092578063be1c766b146100a9578063c23c39d3146100d4575b600080fd5b34801561007357600080fd5b5061007c610115565b6040518082815260200191505060405180910390f35b34801561009e57600080fd5b506100a761011e565b005b3480156100b557600080fd5b506100be610131565b6040518082815260200191505060405180910390f35b3480156100e057600080fd5b506100ff6004803603810190808035906020019092919050505061013a565b6040518082815260200191505060405180910390f35b60008054905090565b6000808154809291906001019190505550565b60006001905090565b60008090509190505600a165627a7a72305820cdb009c9e654add4a2868a9c59c74678f5d98e30b3b184ad4eb577781d096cb20029",
  "source": "\npragma solidity 0.4.24;\nimport \"../IPeriod.sol\";\n\n\ncontract PeriodMock is IPeriod { \n\n    uint256 private _counter = 0; \n\n    function getLength() public view returns (uint256){\n        return 1;\n    }\n\n    function heightOf(uint256 _timestamp) public view returns (uint256){\n        return 0;\n    }\n    function height() public view returns (uint256){\n        return _counter;\n    }\n\n    function next()  public{\n        _counter ++;\n    }\n}",
  "sourcePath": "@frontier-token-research/cron/contracts/mocks/PeriodMock.sol",
  "compiler": {
    "name": "solc",
    "version": "0.4.24+commit.e67f0147.Emscripten.clang"
  },
  "schemaVersion": "2.0.1",
  "updatedAt": "2018-12-12T12:50:21.482Z"
}